{
	"contracts/VotingProject.sol": {
		"VotingProject": {
			"abi": [
				{
					"inputs": [
						{
							"internalType": "string[]",
							"name": "proposalNames",
							"type": "string[]"
						}
					],
					"stateMutability": "nonpayable",
					"type": "constructor"
				},
				{
					"inputs": [
						{
							"internalType": "address",
							"name": "voter",
							"type": "address"
						}
					],
					"name": "abilityToVote",
					"outputs": [],
					"stateMutability": "nonpayable",
					"type": "function"
				},
				{
					"inputs": [],
					"name": "chairman",
					"outputs": [
						{
							"internalType": "address",
							"name": "",
							"type": "address"
						}
					],
					"stateMutability": "view",
					"type": "function"
				},
				{
					"inputs": [
						{
							"internalType": "address",
							"name": "to",
							"type": "address"
						}
					],
					"name": "delegate",
					"outputs": [],
					"stateMutability": "nonpayable",
					"type": "function"
				},
				{
					"inputs": [
						{
							"internalType": "uint256",
							"name": "",
							"type": "uint256"
						}
					],
					"name": "proposals",
					"outputs": [
						{
							"internalType": "string",
							"name": "name",
							"type": "string"
						},
						{
							"internalType": "uint256",
							"name": "voteCount",
							"type": "uint256"
						}
					],
					"stateMutability": "view",
					"type": "function"
				},
				{
					"inputs": [
						{
							"internalType": "uint256",
							"name": "proposalIndex",
							"type": "uint256"
						}
					],
					"name": "vote",
					"outputs": [],
					"stateMutability": "nonpayable",
					"type": "function"
				},
				{
					"inputs": [
						{
							"internalType": "address",
							"name": "",
							"type": "address"
						}
					],
					"name": "voters",
					"outputs": [
						{
							"internalType": "bool",
							"name": "votedOrNot",
							"type": "bool"
						},
						{
							"internalType": "address",
							"name": "delegate",
							"type": "address"
						},
						{
							"internalType": "uint256",
							"name": "weight",
							"type": "uint256"
						},
						{
							"internalType": "uint256",
							"name": "votedProposal",
							"type": "uint256"
						}
					],
					"stateMutability": "view",
					"type": "function"
				},
				{
					"inputs": [],
					"name": "winnerProposalName",
					"outputs": [
						{
							"internalType": "string",
							"name": "winnerName",
							"type": "string"
						}
					],
					"stateMutability": "view",
					"type": "function"
				},
				{
					"inputs": [],
					"name": "winningProposal",
					"outputs": [
						{
							"internalType": "uint256",
							"name": "winningProposalIndex",
							"type": "uint256"
						}
					],
					"stateMutability": "view",
					"type": "function"
				}
			],
			"devdoc": {
				"kind": "dev",
				"methods": {},
				"version": 1
			},
			"evm": {
				"assembly": "    /* \"contracts/VotingProject.sol\":69:3873  contract VotingProject {... */\n  mstore(0x40, 0x80)\n    /* \"contracts/VotingProject.sol\":1223:1505  constructor(string[] memory proposalNames) {... */\n  callvalue\n  dup1\n  iszero\n  tag_1\n  jumpi\n  0x00\n  dup1\n  revert\ntag_1:\n  pop\n  mload(0x40)\n  sub(codesize, bytecodeSize)\n  dup1\n  bytecodeSize\n  dup4\n  codecopy\n  dup2\n  dup2\n  add\n  0x40\n  mstore\n  dup2\n  add\n  swap1\n  tag_2\n  swap2\n  swap1\n  tag_3\n  jump\t// in\ntag_2:\n    /* \"contracts/VotingProject.sol\":1288:1298  msg.sender */\n  caller\n    /* \"contracts/VotingProject.sol\":1277:1285  chairman */\n  0x00\n  dup1\n    /* \"contracts/VotingProject.sol\":1277:1298  chairman = msg.sender */\n  0x0100\n  exp\n  dup2\n  sload\n  dup2\n  0xffffffffffffffffffffffffffffffffffffffff\n  mul\n  not\n  and\n  swap1\n  dup4\n  0xffffffffffffffffffffffffffffffffffffffff\n  and\n  mul\n  or\n  swap1\n  sstore\n  pop\n    /* \"contracts/VotingProject.sol\":1315:1321  uint i */\n  0x00\n    /* \"contracts/VotingProject.sol\":1311:1498  for(uint i = 0; i < proposalNames.length; i++){... */\ntag_6:\n    /* \"contracts/VotingProject.sol\":1331:1344  proposalNames */\n  dup2\n    /* \"contracts/VotingProject.sol\":1331:1351  proposalNames.length */\n  mload\n    /* \"contracts/VotingProject.sol\":1327:1328  i */\n  dup2\n    /* \"contracts/VotingProject.sol\":1327:1351  i < proposalNames.length */\n  lt\n    /* \"contracts/VotingProject.sol\":1311:1498  for(uint i = 0; i < proposalNames.length; i++){... */\n  iszero\n  tag_7\n  jumpi\n    /* \"contracts/VotingProject.sol\":1372:1381  proposals */\n  0x01\n    /* \"contracts/VotingProject.sol\":1387:1485  Proposal({... */\n  mload(0x40)\n  dup1\n  0x40\n  add\n  0x40\n  mstore\n  dup1\n    /* \"contracts/VotingProject.sol\":1421:1434  proposalNames */\n  dup5\n    /* \"contracts/VotingProject.sol\":1435:1436  i */\n  dup5\n    /* \"contracts/VotingProject.sol\":1421:1437  proposalNames[i] */\n  dup2\n  mload\n  dup2\n  lt\n  tag_9\n  jumpi\n  tag_10\n  tag_11\n  jump\t// in\ntag_10:\ntag_9:\n  0x20\n  mul\n  0x20\n  add\n  add\n  mload\n    /* \"contracts/VotingProject.sol\":1387:1485  Proposal({... */\n  dup2\n  mstore\n  0x20\n  add\n    /* \"contracts/VotingProject.sol\":1468:1469  0 */\n  0x00\n    /* \"contracts/VotingProject.sol\":1387:1485  Proposal({... */\n  dup2\n  mstore\n  pop\n    /* \"contracts/VotingProject.sol\":1372:1486  proposals.push(Proposal({... */\n  swap1\n  dup1\n  0x01\n  dup2\n  sload\n  add\n  dup1\n  dup3\n  sstore\n  dup1\n  swap2\n  pop\n  pop\n  0x01\n  swap1\n  sub\n  swap1\n  0x00\n  mstore\n  keccak256(0x00, 0x20)\n  swap1\n  0x02\n  mul\n  add\n  0x00\n  swap1\n  swap2\n  swap1\n  swap2\n  swap1\n  swap2\n  pop\n  0x00\n  dup3\n  add\n  mload\n  dup2\n  0x00\n  add\n  swap1\n  dup2\n  tag_13\n  swap2\n  swap1\n  tag_14\n  jump\t// in\ntag_13:\n  pop\n  0x20\n  dup3\n  add\n  mload\n  dup2\n  0x01\n  add\n  sstore\n  pop\n  pop\n    /* \"contracts/VotingProject.sol\":1353:1356  i++ */\n  dup1\n  dup1\n  tag_15\n  swap1\n  tag_16\n  jump\t// in\ntag_15:\n  swap2\n  pop\n  pop\n    /* \"contracts/VotingProject.sol\":1311:1498  for(uint i = 0; i < proposalNames.length; i++){... */\n  jump(tag_6)\ntag_7:\n  pop\n    /* \"contracts/VotingProject.sol\":1223:1505  constructor(string[] memory proposalNames) {... */\n  pop\n    /* \"contracts/VotingProject.sol\":69:3873  contract VotingProject {... */\n  jump(tag_17)\n    /* \"#utility.yul\":7:82   */\ntag_18:\n    /* \"#utility.yul\":40:46   */\n  0x00\n    /* \"#utility.yul\":73:75   */\n  0x40\n    /* \"#utility.yul\":67:76   */\n  mload\n    /* \"#utility.yul\":57:76   */\n  swap1\n  pop\n    /* \"#utility.yul\":7:82   */\n  swap1\n  jump\t// out\n    /* \"#utility.yul\":88:205   */\ntag_19:\n    /* \"#utility.yul\":197:198   */\n  0x00\n    /* \"#utility.yul\":194:195   */\n  dup1\n    /* \"#utility.yul\":187:199   */\n  revert\n    /* \"#utility.yul\":211:328   */\ntag_20:\n    /* \"#utility.yul\":320:321   */\n  0x00\n    /* \"#utility.yul\":317:318   */\n  dup1\n    /* \"#utility.yul\":310:322   */\n  revert\n    /* \"#utility.yul\":334:451   */\ntag_21:\n    /* \"#utility.yul\":443:444   */\n  0x00\n    /* \"#utility.yul\":440:441   */\n  dup1\n    /* \"#utility.yul\":433:445   */\n  revert\n    /* \"#utility.yul\":457:559   */\ntag_22:\n    /* \"#utility.yul\":498:504   */\n  0x00\n    /* \"#utility.yul\":549:551   */\n  0x1f\n    /* \"#utility.yul\":545:552   */\n  not\n    /* \"#utility.yul\":540:542   */\n  0x1f\n    /* \"#utility.yul\":533:538   */\n  dup4\n    /* \"#utility.yul\":529:543   */\n  add\n    /* \"#utility.yul\":525:553   */\n  and\n    /* \"#utility.yul\":515:553   */\n  swap1\n  pop\n    /* \"#utility.yul\":457:559   */\n  swap2\n  swap1\n  pop\n  jump\t// out\n    /* \"#utility.yul\":565:745   */\ntag_23:\n    /* \"#utility.yul\":613:690   */\n  0x4e487b7100000000000000000000000000000000000000000000000000000000\n    /* \"#utility.yul\":610:611   */\n  0x00\n    /* \"#utility.yul\":603:691   */\n  mstore\n    /* \"#utility.yul\":710:714   */\n  0x41\n    /* \"#utility.yul\":707:708   */\n  0x04\n    /* \"#utility.yul\":700:715   */\n  mstore\n    /* \"#utility.yul\":734:738   */\n  0x24\n    /* \"#utility.yul\":731:732   */\n  0x00\n    /* \"#utility.yul\":724:739   */\n  revert\n    /* \"#utility.yul\":751:1032   */\ntag_24:\n    /* \"#utility.yul\":834:861   */\n  tag_63\n    /* \"#utility.yul\":856:860   */\n  dup3\n    /* \"#utility.yul\":834:861   */\n  tag_22\n  jump\t// in\ntag_63:\n    /* \"#utility.yul\":826:832   */\n  dup2\n    /* \"#utility.yul\":822:862   */\n  add\n    /* \"#utility.yul\":964:970   */\n  dup2\n    /* \"#utility.yul\":952:962   */\n  dup2\n    /* \"#utility.yul\":949:971   */\n  lt\n    /* \"#utility.yul\":928:946   */\n  0xffffffffffffffff\n    /* \"#utility.yul\":916:926   */\n  dup3\n    /* \"#utility.yul\":913:947   */\n  gt\n    /* \"#utility.yul\":910:972   */\n  or\n    /* \"#utility.yul\":907:995   */\n  iszero\n  tag_64\n  jumpi\n    /* \"#utility.yul\":975:993   */\n  tag_65\n  tag_23\n  jump\t// in\ntag_65:\n    /* \"#utility.yul\":907:995   */\ntag_64:\n    /* \"#utility.yul\":1015:1025   */\n  dup1\n    /* \"#utility.yul\":1011:1013   */\n  0x40\n    /* \"#utility.yul\":1004:1026   */\n  mstore\n    /* \"#utility.yul\":794:1032   */\n  pop\n    /* \"#utility.yul\":751:1032   */\n  pop\n  pop\n  jump\t// out\n    /* \"#utility.yul\":1038:1167   */\ntag_25:\n    /* \"#utility.yul\":1072:1078   */\n  0x00\n    /* \"#utility.yul\":1099:1119   */\n  tag_67\n  tag_18\n  jump\t// in\ntag_67:\n    /* \"#utility.yul\":1089:1119   */\n  swap1\n  pop\n    /* \"#utility.yul\":1128:1161   */\n  tag_68\n    /* \"#utility.yul\":1156:1160   */\n  dup3\n    /* \"#utility.yul\":1148:1154   */\n  dup3\n    /* \"#utility.yul\":1128:1161   */\n  tag_24\n  jump\t// in\ntag_68:\n    /* \"#utility.yul\":1038:1167   */\n  swap2\n  swap1\n  pop\n  jump\t// out\n    /* \"#utility.yul\":1173:1494   */\ntag_26:\n    /* \"#utility.yul\":1260:1264   */\n  0x00\n    /* \"#utility.yul\":1350:1368   */\n  0xffffffffffffffff\n    /* \"#utility.yul\":1342:1348   */\n  dup3\n    /* \"#utility.yul\":1339:1369   */\n  gt\n    /* \"#utility.yul\":1336:1392   */\n  iszero\n  tag_70\n  jumpi\n    /* \"#utility.yul\":1372:1390   */\n  tag_71\n  tag_23\n  jump\t// in\ntag_71:\n    /* \"#utility.yul\":1336:1392   */\ntag_70:\n    /* \"#utility.yul\":1422:1426   */\n  0x20\n    /* \"#utility.yul\":1414:1420   */\n  dup3\n    /* \"#utility.yul\":1410:1427   */\n  mul\n    /* \"#utility.yul\":1402:1427   */\n  swap1\n  pop\n    /* \"#utility.yul\":1482:1486   */\n  0x20\n    /* \"#utility.yul\":1476:1480   */\n  dup2\n    /* \"#utility.yul\":1472:1487   */\n  add\n    /* \"#utility.yul\":1464:1487   */\n  swap1\n  pop\n    /* \"#utility.yul\":1173:1494   */\n  swap2\n  swap1\n  pop\n  jump\t// out\n    /* \"#utility.yul\":1500:1617   */\ntag_27:\n    /* \"#utility.yul\":1609:1610   */\n  0x00\n    /* \"#utility.yul\":1606:1607   */\n  dup1\n    /* \"#utility.yul\":1599:1611   */\n  revert\n    /* \"#utility.yul\":1623:1740   */\ntag_28:\n    /* \"#utility.yul\":1732:1733   */\n  0x00\n    /* \"#utility.yul\":1729:1730   */\n  dup1\n    /* \"#utility.yul\":1722:1734   */\n  revert\n    /* \"#utility.yul\":1746:2054   */\ntag_29:\n    /* \"#utility.yul\":1808:1812   */\n  0x00\n    /* \"#utility.yul\":1898:1916   */\n  0xffffffffffffffff\n    /* \"#utility.yul\":1890:1896   */\n  dup3\n    /* \"#utility.yul\":1887:1917   */\n  gt\n    /* \"#utility.yul\":1884:1940   */\n  iszero\n  tag_75\n  jumpi\n    /* \"#utility.yul\":1920:1938   */\n  tag_76\n  tag_23\n  jump\t// in\ntag_76:\n    /* \"#utility.yul\":1884:1940   */\ntag_75:\n    /* \"#utility.yul\":1958:1987   */\n  tag_77\n    /* \"#utility.yul\":1980:1986   */\n  dup3\n    /* \"#utility.yul\":1958:1987   */\n  tag_22\n  jump\t// in\ntag_77:\n    /* \"#utility.yul\":1950:1987   */\n  swap1\n  pop\n    /* \"#utility.yul\":2042:2046   */\n  0x20\n    /* \"#utility.yul\":2036:2040   */\n  dup2\n    /* \"#utility.yul\":2032:2047   */\n  add\n    /* \"#utility.yul\":2024:2047   */\n  swap1\n  pop\n    /* \"#utility.yul\":1746:2054   */\n  swap2\n  swap1\n  pop\n  jump\t// out\n    /* \"#utility.yul\":2060:2306   */\ntag_30:\n    /* \"#utility.yul\":2141:2142   */\n  0x00\n    /* \"#utility.yul\":2151:2264   */\ntag_79:\n    /* \"#utility.yul\":2165:2171   */\n  dup4\n    /* \"#utility.yul\":2162:2163   */\n  dup2\n    /* \"#utility.yul\":2159:2172   */\n  lt\n    /* \"#utility.yul\":2151:2264   */\n  iszero\n  tag_81\n  jumpi\n    /* \"#utility.yul\":2250:2251   */\n  dup1\n    /* \"#utility.yul\":2245:2248   */\n  dup3\n    /* \"#utility.yul\":2241:2252   */\n  add\n    /* \"#utility.yul\":2235:2253   */\n  mload\n    /* \"#utility.yul\":2231:2232   */\n  dup2\n    /* \"#utility.yul\":2226:2229   */\n  dup5\n    /* \"#utility.yul\":2222:2233   */\n  add\n    /* \"#utility.yul\":2215:2254   */\n  mstore\n    /* \"#utility.yul\":2187:2189   */\n  0x20\n    /* \"#utility.yul\":2184:2185   */\n  dup2\n    /* \"#utility.yul\":2180:2190   */\n  add\n    /* \"#utility.yul\":2175:2190   */\n  swap1\n  pop\n    /* \"#utility.yul\":2151:2264   */\n  jump(tag_79)\ntag_81:\n    /* \"#utility.yul\":2298:2299   */\n  0x00\n    /* \"#utility.yul\":2289:2295   */\n  dup5\n    /* \"#utility.yul\":2284:2287   */\n  dup5\n    /* \"#utility.yul\":2280:2296   */\n  add\n    /* \"#utility.yul\":2273:2300   */\n  mstore\n    /* \"#utility.yul\":2122:2306   */\n  pop\n    /* \"#utility.yul\":2060:2306   */\n  pop\n  pop\n  pop\n  jump\t// out\n    /* \"#utility.yul\":2312:2746   */\ntag_31:\n    /* \"#utility.yul\":2401:2406   */\n  0x00\n    /* \"#utility.yul\":2426:2492   */\n  tag_83\n    /* \"#utility.yul\":2442:2491   */\n  tag_84\n    /* \"#utility.yul\":2484:2490   */\n  dup5\n    /* \"#utility.yul\":2442:2491   */\n  tag_29\n  jump\t// in\ntag_84:\n    /* \"#utility.yul\":2426:2492   */\n  tag_25\n  jump\t// in\ntag_83:\n    /* \"#utility.yul\":2417:2492   */\n  swap1\n  pop\n    /* \"#utility.yul\":2515:2521   */\n  dup3\n    /* \"#utility.yul\":2508:2513   */\n  dup2\n    /* \"#utility.yul\":2501:2522   */\n  mstore\n    /* \"#utility.yul\":2553:2557   */\n  0x20\n    /* \"#utility.yul\":2546:2551   */\n  dup2\n    /* \"#utility.yul\":2542:2558   */\n  add\n    /* \"#utility.yul\":2591:2594   */\n  dup5\n    /* \"#utility.yul\":2582:2588   */\n  dup5\n    /* \"#utility.yul\":2577:2580   */\n  dup5\n    /* \"#utility.yul\":2573:2589   */\n  add\n    /* \"#utility.yul\":2570:2595   */\n  gt\n    /* \"#utility.yul\":2567:2679   */\n  iszero\n  tag_85\n  jumpi\n    /* \"#utility.yul\":2598:2677   */\n  tag_86\n  tag_28\n  jump\t// in\ntag_86:\n    /* \"#utility.yul\":2567:2679   */\ntag_85:\n    /* \"#utility.yul\":2688:2740   */\n  tag_87\n    /* \"#utility.yul\":2733:2739   */\n  dup5\n    /* \"#utility.yul\":2728:2731   */\n  dup3\n    /* \"#utility.yul\":2723:2726   */\n  dup6\n    /* \"#utility.yul\":2688:2740   */\n  tag_30\n  jump\t// in\ntag_87:\n    /* \"#utility.yul\":2407:2746   */\n  pop\n    /* \"#utility.yul\":2312:2746   */\n  swap4\n  swap3\n  pop\n  pop\n  pop\n  jump\t// out\n    /* \"#utility.yul\":2766:3121   */\ntag_32:\n    /* \"#utility.yul\":2833:2838   */\n  0x00\n    /* \"#utility.yul\":2882:2885   */\n  dup3\n    /* \"#utility.yul\":2875:2879   */\n  0x1f\n    /* \"#utility.yul\":2867:2873   */\n  dup4\n    /* \"#utility.yul\":2863:2880   */\n  add\n    /* \"#utility.yul\":2859:2886   */\n  slt\n    /* \"#utility.yul\":2849:2971   */\n  tag_89\n  jumpi\n    /* \"#utility.yul\":2890:2969   */\n  tag_90\n  tag_21\n  jump\t// in\ntag_90:\n    /* \"#utility.yul\":2849:2971   */\ntag_89:\n    /* \"#utility.yul\":3000:3006   */\n  dup2\n    /* \"#utility.yul\":2994:3007   */\n  mload\n    /* \"#utility.yul\":3025:3115   */\n  tag_91\n    /* \"#utility.yul\":3111:3114   */\n  dup5\n    /* \"#utility.yul\":3103:3109   */\n  dup3\n    /* \"#utility.yul\":3096:3100   */\n  0x20\n    /* \"#utility.yul\":3088:3094   */\n  dup7\n    /* \"#utility.yul\":3084:3101   */\n  add\n    /* \"#utility.yul\":3025:3115   */\n  tag_31\n  jump\t// in\ntag_91:\n    /* \"#utility.yul\":3016:3115   */\n  swap2\n  pop\n    /* \"#utility.yul\":2839:3121   */\n  pop\n    /* \"#utility.yul\":2766:3121   */\n  swap3\n  swap2\n  pop\n  pop\n  jump\t// out\n    /* \"#utility.yul\":3143:4103   */\ntag_33:\n    /* \"#utility.yul\":3260:3265   */\n  0x00\n    /* \"#utility.yul\":3285:3376   */\n  tag_93\n    /* \"#utility.yul\":3301:3375   */\n  tag_94\n    /* \"#utility.yul\":3368:3374   */\n  dup5\n    /* \"#utility.yul\":3301:3375   */\n  tag_26\n  jump\t// in\ntag_94:\n    /* \"#utility.yul\":3285:3376   */\n  tag_25\n  jump\t// in\ntag_93:\n    /* \"#utility.yul\":3276:3376   */\n  swap1\n  pop\n    /* \"#utility.yul\":3396:3401   */\n  dup1\n    /* \"#utility.yul\":3425:3431   */\n  dup4\n    /* \"#utility.yul\":3418:3423   */\n  dup3\n    /* \"#utility.yul\":3411:3432   */\n  mstore\n    /* \"#utility.yul\":3459:3463   */\n  0x20\n    /* \"#utility.yul\":3452:3457   */\n  dup3\n    /* \"#utility.yul\":3448:3464   */\n  add\n    /* \"#utility.yul\":3441:3464   */\n  swap1\n  pop\n    /* \"#utility.yul\":3512:3516   */\n  0x20\n    /* \"#utility.yul\":3504:3510   */\n  dup5\n    /* \"#utility.yul\":3500:3517   */\n  mul\n    /* \"#utility.yul\":3492:3498   */\n  dup4\n    /* \"#utility.yul\":3488:3518   */\n  add\n    /* \"#utility.yul\":3541:3544   */\n  dup6\n    /* \"#utility.yul\":3533:3539   */\n  dup2\n    /* \"#utility.yul\":3530:3545   */\n  gt\n    /* \"#utility.yul\":3527:3649   */\n  iszero\n  tag_95\n  jumpi\n    /* \"#utility.yul\":3560:3639   */\n  tag_96\n  tag_27\n  jump\t// in\ntag_96:\n    /* \"#utility.yul\":3527:3649   */\ntag_95:\n    /* \"#utility.yul\":3675:3681   */\n  dup4\n    /* \"#utility.yul\":3658:4097   */\ntag_97:\n    /* \"#utility.yul\":3692:3698   */\n  dup2\n    /* \"#utility.yul\":3687:3690   */\n  dup2\n    /* \"#utility.yul\":3684:3699   */\n  lt\n    /* \"#utility.yul\":3658:4097   */\n  iszero\n  tag_99\n  jumpi\n    /* \"#utility.yul\":3774:3777   */\n  dup1\n    /* \"#utility.yul\":3768:3778   */\n  mload\n    /* \"#utility.yul\":3810:3828   */\n  0xffffffffffffffff\n    /* \"#utility.yul\":3797:3808   */\n  dup2\n    /* \"#utility.yul\":3794:3829   */\n  gt\n    /* \"#utility.yul\":3791:3913   */\n  iszero\n  tag_100\n  jumpi\n    /* \"#utility.yul\":3832:3911   */\n  tag_101\n  tag_21\n  jump\t// in\ntag_101:\n    /* \"#utility.yul\":3791:3913   */\ntag_100:\n    /* \"#utility.yul\":3956:3967   */\n  dup1\n    /* \"#utility.yul\":3948:3954   */\n  dup7\n    /* \"#utility.yul\":3944:3968   */\n  add\n    /* \"#utility.yul\":3994:4052   */\n  tag_102\n    /* \"#utility.yul\":4048:4051   */\n  dup10\n    /* \"#utility.yul\":4036:4046   */\n  dup3\n    /* \"#utility.yul\":3994:4052   */\n  tag_32\n  jump\t// in\ntag_102:\n    /* \"#utility.yul\":3989:3992   */\n  dup6\n    /* \"#utility.yul\":3982:4053   */\n  mstore\n    /* \"#utility.yul\":4082:4086   */\n  0x20\n    /* \"#utility.yul\":4077:4080   */\n  dup6\n    /* \"#utility.yul\":4073:4087   */\n  add\n    /* \"#utility.yul\":4066:4087   */\n  swap5\n  pop\n    /* \"#utility.yul\":3734:4097   */\n  pop\n  pop\n    /* \"#utility.yul\":3718:3722   */\n  0x20\n    /* \"#utility.yul\":3713:3716   */\n  dup2\n    /* \"#utility.yul\":3709:3723   */\n  add\n    /* \"#utility.yul\":3702:3723   */\n  swap1\n  pop\n    /* \"#utility.yul\":3658:4097   */\n  jump(tag_97)\ntag_99:\n    /* \"#utility.yul\":3662:3683   */\n  pop\n    /* \"#utility.yul\":3266:4103   */\n  pop\n  pop\n    /* \"#utility.yul\":3143:4103   */\n  swap4\n  swap3\n  pop\n  pop\n  pop\n  jump\t// out\n    /* \"#utility.yul\":4125:4530   */\ntag_34:\n    /* \"#utility.yul\":4217:4222   */\n  0x00\n    /* \"#utility.yul\":4266:4269   */\n  dup3\n    /* \"#utility.yul\":4259:4263   */\n  0x1f\n    /* \"#utility.yul\":4251:4257   */\n  dup4\n    /* \"#utility.yul\":4247:4264   */\n  add\n    /* \"#utility.yul\":4243:4270   */\n  slt\n    /* \"#utility.yul\":4233:4355   */\n  tag_104\n  jumpi\n    /* \"#utility.yul\":4274:4353   */\n  tag_105\n  tag_21\n  jump\t// in\ntag_105:\n    /* \"#utility.yul\":4233:4355   */\ntag_104:\n    /* \"#utility.yul\":4384:4390   */\n  dup2\n    /* \"#utility.yul\":4378:4391   */\n  mload\n    /* \"#utility.yul\":4409:4524   */\n  tag_106\n    /* \"#utility.yul\":4520:4523   */\n  dup5\n    /* \"#utility.yul\":4512:4518   */\n  dup3\n    /* \"#utility.yul\":4505:4509   */\n  0x20\n    /* \"#utility.yul\":4497:4503   */\n  dup7\n    /* \"#utility.yul\":4493:4510   */\n  add\n    /* \"#utility.yul\":4409:4524   */\n  tag_33\n  jump\t// in\ntag_106:\n    /* \"#utility.yul\":4400:4524   */\n  swap2\n  pop\n    /* \"#utility.yul\":4223:4530   */\n  pop\n    /* \"#utility.yul\":4125:4530   */\n  swap3\n  swap2\n  pop\n  pop\n  jump\t// out\n    /* \"#utility.yul\":4536:5110   */\ntag_3:\n    /* \"#utility.yul\":4641:4647   */\n  0x00\n    /* \"#utility.yul\":4690:4692   */\n  0x20\n    /* \"#utility.yul\":4678:4687   */\n  dup3\n    /* \"#utility.yul\":4669:4676   */\n  dup5\n    /* \"#utility.yul\":4665:4688   */\n  sub\n    /* \"#utility.yul\":4661:4693   */\n  slt\n    /* \"#utility.yul\":4658:4777   */\n  iszero\n  tag_108\n  jumpi\n    /* \"#utility.yul\":4696:4775   */\n  tag_109\n  tag_19\n  jump\t// in\ntag_109:\n    /* \"#utility.yul\":4658:4777   */\ntag_108:\n    /* \"#utility.yul\":4837:4838   */\n  0x00\n    /* \"#utility.yul\":4826:4835   */\n  dup3\n    /* \"#utility.yul\":4822:4839   */\n  add\n    /* \"#utility.yul\":4816:4840   */\n  mload\n    /* \"#utility.yul\":4867:4885   */\n  0xffffffffffffffff\n    /* \"#utility.yul\":4859:4865   */\n  dup2\n    /* \"#utility.yul\":4856:4886   */\n  gt\n    /* \"#utility.yul\":4853:4970   */\n  iszero\n  tag_110\n  jumpi\n    /* \"#utility.yul\":4889:4968   */\n  tag_111\n  tag_20\n  jump\t// in\ntag_111:\n    /* \"#utility.yul\":4853:4970   */\ntag_110:\n    /* \"#utility.yul\":4994:5093   */\n  tag_112\n    /* \"#utility.yul\":5085:5092   */\n  dup5\n    /* \"#utility.yul\":5076:5082   */\n  dup3\n    /* \"#utility.yul\":5065:5074   */\n  dup6\n    /* \"#utility.yul\":5061:5083   */\n  add\n    /* \"#utility.yul\":4994:5093   */\n  tag_34\n  jump\t// in\ntag_112:\n    /* \"#utility.yul\":4984:5093   */\n  swap2\n  pop\n    /* \"#utility.yul\":4787:5103   */\n  pop\n    /* \"#utility.yul\":4536:5110   */\n  swap3\n  swap2\n  pop\n  pop\n  jump\t// out\n    /* \"#utility.yul\":5116:5296   */\ntag_11:\n    /* \"#utility.yul\":5164:5241   */\n  0x4e487b7100000000000000000000000000000000000000000000000000000000\n    /* \"#utility.yul\":5161:5162   */\n  0x00\n    /* \"#utility.yul\":5154:5242   */\n  mstore\n    /* \"#utility.yul\":5261:5265   */\n  0x32\n    /* \"#utility.yul\":5258:5259   */\n  0x04\n    /* \"#utility.yul\":5251:5266   */\n  mstore\n    /* \"#utility.yul\":5285:5289   */\n  0x24\n    /* \"#utility.yul\":5282:5283   */\n  0x00\n    /* \"#utility.yul\":5275:5290   */\n  revert\n    /* \"#utility.yul\":5302:5401   */\ntag_35:\n    /* \"#utility.yul\":5354:5360   */\n  0x00\n    /* \"#utility.yul\":5388:5393   */\n  dup2\n    /* \"#utility.yul\":5382:5394   */\n  mload\n    /* \"#utility.yul\":5372:5394   */\n  swap1\n  pop\n    /* \"#utility.yul\":5302:5401   */\n  swap2\n  swap1\n  pop\n  jump\t// out\n    /* \"#utility.yul\":5407:5587   */\ntag_36:\n    /* \"#utility.yul\":5455:5532   */\n  0x4e487b7100000000000000000000000000000000000000000000000000000000\n    /* \"#utility.yul\":5452:5453   */\n  0x00\n    /* \"#utility.yul\":5445:5533   */\n  mstore\n    /* \"#utility.yul\":5552:5556   */\n  0x22\n    /* \"#utility.yul\":5549:5550   */\n  0x04\n    /* \"#utility.yul\":5542:5557   */\n  mstore\n    /* \"#utility.yul\":5576:5580   */\n  0x24\n    /* \"#utility.yul\":5573:5574   */\n  0x00\n    /* \"#utility.yul\":5566:5581   */\n  revert\n    /* \"#utility.yul\":5593:5913   */\ntag_37:\n    /* \"#utility.yul\":5637:5643   */\n  0x00\n    /* \"#utility.yul\":5674:5675   */\n  0x02\n    /* \"#utility.yul\":5668:5672   */\n  dup3\n    /* \"#utility.yul\":5664:5676   */\n  div\n    /* \"#utility.yul\":5654:5676   */\n  swap1\n  pop\n    /* \"#utility.yul\":5721:5722   */\n  0x01\n    /* \"#utility.yul\":5715:5719   */\n  dup3\n    /* \"#utility.yul\":5711:5723   */\n  and\n    /* \"#utility.yul\":5742:5760   */\n  dup1\n    /* \"#utility.yul\":5732:5813   */\n  tag_117\n  jumpi\n    /* \"#utility.yul\":5798:5802   */\n  0x7f\n    /* \"#utility.yul\":5790:5796   */\n  dup3\n    /* \"#utility.yul\":5786:5803   */\n  and\n    /* \"#utility.yul\":5776:5803   */\n  swap2\n  pop\n    /* \"#utility.yul\":5732:5813   */\ntag_117:\n    /* \"#utility.yul\":5860:5862   */\n  0x20\n    /* \"#utility.yul\":5852:5858   */\n  dup3\n    /* \"#utility.yul\":5849:5863   */\n  lt\n    /* \"#utility.yul\":5829:5847   */\n  dup2\n    /* \"#utility.yul\":5826:5864   */\n  sub\n    /* \"#utility.yul\":5823:5907   */\n  tag_118\n  jumpi\n    /* \"#utility.yul\":5879:5897   */\n  tag_119\n  tag_36\n  jump\t// in\ntag_119:\n    /* \"#utility.yul\":5823:5907   */\ntag_118:\n    /* \"#utility.yul\":5644:5913   */\n  pop\n    /* \"#utility.yul\":5593:5913   */\n  swap2\n  swap1\n  pop\n  jump\t// out\n    /* \"#utility.yul\":5919:6060   */\ntag_38:\n    /* \"#utility.yul\":5968:5972   */\n  0x00\n    /* \"#utility.yul\":5991:5994   */\n  dup2\n    /* \"#utility.yul\":5983:5994   */\n  swap1\n  pop\n    /* \"#utility.yul\":6014:6017   */\n  dup2\n    /* \"#utility.yul\":6011:6012   */\n  0x00\n    /* \"#utility.yul\":6004:6018   */\n  mstore\n    /* \"#utility.yul\":6048:6052   */\n  0x20\n    /* \"#utility.yul\":6045:6046   */\n  0x00\n    /* \"#utility.yul\":6035:6053   */\n  keccak256\n    /* \"#utility.yul\":6027:6053   */\n  swap1\n  pop\n    /* \"#utility.yul\":5919:6060   */\n  swap2\n  swap1\n  pop\n  jump\t// out\n    /* \"#utility.yul\":6066:6159   */\ntag_39:\n    /* \"#utility.yul\":6103:6109   */\n  0x00\n    /* \"#utility.yul\":6150:6152   */\n  0x20\n    /* \"#utility.yul\":6145:6147   */\n  0x1f\n    /* \"#utility.yul\":6138:6143   */\n  dup4\n    /* \"#utility.yul\":6134:6148   */\n  add\n    /* \"#utility.yul\":6130:6153   */\n  div\n    /* \"#utility.yul\":6120:6153   */\n  swap1\n  pop\n    /* \"#utility.yul\":6066:6159   */\n  swap2\n  swap1\n  pop\n  jump\t// out\n    /* \"#utility.yul\":6165:6272   */\ntag_40:\n    /* \"#utility.yul\":6209:6217   */\n  0x00\n    /* \"#utility.yul\":6259:6264   */\n  dup3\n    /* \"#utility.yul\":6253:6257   */\n  dup3\n    /* \"#utility.yul\":6249:6265   */\n  shl\n    /* \"#utility.yul\":6228:6265   */\n  swap1\n  pop\n    /* \"#utility.yul\":6165:6272   */\n  swap3\n  swap2\n  pop\n  pop\n  jump\t// out\n    /* \"#utility.yul\":6278:6671   */\ntag_41:\n    /* \"#utility.yul\":6347:6353   */\n  0x00\n    /* \"#utility.yul\":6397:6398   */\n  0x08\n    /* \"#utility.yul\":6385:6395   */\n  dup4\n    /* \"#utility.yul\":6381:6399   */\n  mul\n    /* \"#utility.yul\":6420:6517   */\n  tag_124\n    /* \"#utility.yul\":6450:6516   */\n  0xffffffffffffffffffffffffffffffffffffffffffffffffffffffffffffffff\n    /* \"#utility.yul\":6439:6448   */\n  dup3\n    /* \"#utility.yul\":6420:6517   */\n  tag_40\n  jump\t// in\ntag_124:\n    /* \"#utility.yul\":6538:6577   */\n  tag_125\n    /* \"#utility.yul\":6568:6576   */\n  dup7\n    /* \"#utility.yul\":6557:6566   */\n  dup4\n    /* \"#utility.yul\":6538:6577   */\n  tag_40\n  jump\t// in\ntag_125:\n    /* \"#utility.yul\":6526:6577   */\n  swap6\n  pop\n    /* \"#utility.yul\":6610:6614   */\n  dup1\n    /* \"#utility.yul\":6606:6615   */\n  not\n    /* \"#utility.yul\":6599:6604   */\n  dup5\n    /* \"#utility.yul\":6595:6616   */\n  and\n    /* \"#utility.yul\":6586:6616   */\n  swap4\n  pop\n    /* \"#utility.yul\":6659:6663   */\n  dup1\n    /* \"#utility.yul\":6649:6657   */\n  dup7\n    /* \"#utility.yul\":6645:6664   */\n  and\n    /* \"#utility.yul\":6638:6643   */\n  dup5\n    /* \"#utility.yul\":6635:6665   */\n  or\n    /* \"#utility.yul\":6625:6665   */\n  swap3\n  pop\n    /* \"#utility.yul\":6354:6671   */\n  pop\n  pop\n    /* \"#utility.yul\":6278:6671   */\n  swap4\n  swap3\n  pop\n  pop\n  pop\n  jump\t// out\n    /* \"#utility.yul\":6677:6754   */\ntag_42:\n    /* \"#utility.yul\":6714:6721   */\n  0x00\n    /* \"#utility.yul\":6743:6748   */\n  dup2\n    /* \"#utility.yul\":6732:6748   */\n  swap1\n  pop\n    /* \"#utility.yul\":6677:6754   */\n  swap2\n  swap1\n  pop\n  jump\t// out\n    /* \"#utility.yul\":6760:6820   */\ntag_43:\n    /* \"#utility.yul\":6788:6791   */\n  0x00\n    /* \"#utility.yul\":6809:6814   */\n  dup2\n    /* \"#utility.yul\":6802:6814   */\n  swap1\n  pop\n    /* \"#utility.yul\":6760:6820   */\n  swap2\n  swap1\n  pop\n  jump\t// out\n    /* \"#utility.yul\":6826:6968   */\ntag_44:\n    /* \"#utility.yul\":6876:6885   */\n  0x00\n    /* \"#utility.yul\":6909:6962   */\n  tag_129\n    /* \"#utility.yul\":6927:6961   */\n  tag_130\n    /* \"#utility.yul\":6936:6960   */\n  tag_131\n    /* \"#utility.yul\":6954:6959   */\n  dup5\n    /* \"#utility.yul\":6936:6960   */\n  tag_42\n  jump\t// in\ntag_131:\n    /* \"#utility.yul\":6927:6961   */\n  tag_43\n  jump\t// in\ntag_130:\n    /* \"#utility.yul\":6909:6962   */\n  tag_42\n  jump\t// in\ntag_129:\n    /* \"#utility.yul\":6896:6962   */\n  swap1\n  pop\n    /* \"#utility.yul\":6826:6968   */\n  swap2\n  swap1\n  pop\n  jump\t// out\n    /* \"#utility.yul\":6974:7049   */\ntag_45:\n    /* \"#utility.yul\":7017:7020   */\n  0x00\n    /* \"#utility.yul\":7038:7043   */\n  dup2\n    /* \"#utility.yul\":7031:7043   */\n  swap1\n  pop\n    /* \"#utility.yul\":6974:7049   */\n  swap2\n  swap1\n  pop\n  jump\t// out\n    /* \"#utility.yul\":7055:7324   */\ntag_46:\n    /* \"#utility.yul\":7165:7204   */\n  tag_134\n    /* \"#utility.yul\":7196:7203   */\n  dup4\n    /* \"#utility.yul\":7165:7204   */\n  tag_44\n  jump\t// in\ntag_134:\n    /* \"#utility.yul\":7226:7317   */\n  tag_135\n    /* \"#utility.yul\":7275:7316   */\n  tag_136\n    /* \"#utility.yul\":7299:7315   */\n  dup3\n    /* \"#utility.yul\":7275:7316   */\n  tag_45\n  jump\t// in\ntag_136:\n    /* \"#utility.yul\":7267:7273   */\n  dup5\n    /* \"#utility.yul\":7260:7264   */\n  dup5\n    /* \"#utility.yul\":7254:7265   */\n  sload\n    /* \"#utility.yul\":7226:7317   */\n  tag_41\n  jump\t// in\ntag_135:\n    /* \"#utility.yul\":7220:7224   */\n  dup3\n    /* \"#utility.yul\":7213:7318   */\n  sstore\n    /* \"#utility.yul\":7131:7324   */\n  pop\n    /* \"#utility.yul\":7055:7324   */\n  pop\n  pop\n  pop\n  jump\t// out\n    /* \"#utility.yul\":7330:7403   */\ntag_47:\n    /* \"#utility.yul\":7375:7378   */\n  0x00\n    /* \"#utility.yul\":7330:7403   */\n  swap1\n  jump\t// out\n    /* \"#utility.yul\":7409:7598   */\ntag_48:\n    /* \"#utility.yul\":7486:7518   */\n  tag_139\n  tag_47\n  jump\t// in\ntag_139:\n    /* \"#utility.yul\":7527:7592   */\n  tag_140\n    /* \"#utility.yul\":7585:7591   */\n  dup2\n    /* \"#utility.yul\":7577:7583   */\n  dup5\n    /* \"#utility.yul\":7571:7575   */\n  dup5\n    /* \"#utility.yul\":7527:7592   */\n  tag_46\n  jump\t// in\ntag_140:\n    /* \"#utility.yul\":7462:7598   */\n  pop\n    /* \"#utility.yul\":7409:7598   */\n  pop\n  pop\n  jump\t// out\n    /* \"#utility.yul\":7604:7790   */\ntag_49:\n    /* \"#utility.yul\":7664:7784   */\ntag_142:\n    /* \"#utility.yul\":7681:7684   */\n  dup2\n    /* \"#utility.yul\":7674:7679   */\n  dup2\n    /* \"#utility.yul\":7671:7685   */\n  lt\n    /* \"#utility.yul\":7664:7784   */\n  iszero\n  tag_144\n  jumpi\n    /* \"#utility.yul\":7735:7774   */\n  tag_145\n    /* \"#utility.yul\":7772:7773   */\n  0x00\n    /* \"#utility.yul\":7765:7770   */\n  dup3\n    /* \"#utility.yul\":7735:7774   */\n  tag_48\n  jump\t// in\ntag_145:\n    /* \"#utility.yul\":7708:7709   */\n  0x01\n    /* \"#utility.yul\":7701:7706   */\n  dup2\n    /* \"#utility.yul\":7697:7710   */\n  add\n    /* \"#utility.yul\":7688:7710   */\n  swap1\n  pop\n    /* \"#utility.yul\":7664:7784   */\n  jump(tag_142)\ntag_144:\n    /* \"#utility.yul\":7604:7790   */\n  pop\n  pop\n  jump\t// out\n    /* \"#utility.yul\":7796:8339   */\ntag_50:\n    /* \"#utility.yul\":7897:7899   */\n  0x1f\n    /* \"#utility.yul\":7892:7895   */\n  dup3\n    /* \"#utility.yul\":7889:7900   */\n  gt\n    /* \"#utility.yul\":7886:8332   */\n  iszero\n  tag_147\n  jumpi\n    /* \"#utility.yul\":7931:7969   */\n  tag_148\n    /* \"#utility.yul\":7963:7968   */\n  dup2\n    /* \"#utility.yul\":7931:7969   */\n  tag_38\n  jump\t// in\ntag_148:\n    /* \"#utility.yul\":8015:8044   */\n  tag_149\n    /* \"#utility.yul\":8033:8043   */\n  dup5\n    /* \"#utility.yul\":8015:8044   */\n  tag_39\n  jump\t// in\ntag_149:\n    /* \"#utility.yul\":8005:8013   */\n  dup2\n    /* \"#utility.yul\":8001:8045   */\n  add\n    /* \"#utility.yul\":8198:8200   */\n  0x20\n    /* \"#utility.yul\":8186:8196   */\n  dup6\n    /* \"#utility.yul\":8183:8201   */\n  lt\n    /* \"#utility.yul\":8180:8229   */\n  iszero\n  tag_150\n  jumpi\n    /* \"#utility.yul\":8219:8227   */\n  dup2\n    /* \"#utility.yul\":8204:8227   */\n  swap1\n  pop\n    /* \"#utility.yul\":8180:8229   */\ntag_150:\n    /* \"#utility.yul\":8242:8322   */\n  tag_151\n    /* \"#utility.yul\":8298:8320   */\n  tag_152\n    /* \"#utility.yul\":8316:8319   */\n  dup6\n    /* \"#utility.yul\":8298:8320   */\n  tag_39\n  jump\t// in\ntag_152:\n    /* \"#utility.yul\":8288:8296   */\n  dup4\n    /* \"#utility.yul\":8284:8321   */\n  add\n    /* \"#utility.yul\":8271:8282   */\n  dup3\n    /* \"#utility.yul\":8242:8322   */\n  tag_49\n  jump\t// in\ntag_151:\n    /* \"#utility.yul\":7901:8332   */\n  pop\n  pop\n    /* \"#utility.yul\":7886:8332   */\ntag_147:\n    /* \"#utility.yul\":7796:8339   */\n  pop\n  pop\n  pop\n  jump\t// out\n    /* \"#utility.yul\":8345:8462   */\ntag_51:\n    /* \"#utility.yul\":8399:8407   */\n  0x00\n    /* \"#utility.yul\":8449:8454   */\n  dup3\n    /* \"#utility.yul\":8443:8447   */\n  dup3\n    /* \"#utility.yul\":8439:8455   */\n  shr\n    /* \"#utility.yul\":8418:8455   */\n  swap1\n  pop\n    /* \"#utility.yul\":8345:8462   */\n  swap3\n  swap2\n  pop\n  pop\n  jump\t// out\n    /* \"#utility.yul\":8468:8637   */\ntag_52:\n    /* \"#utility.yul\":8512:8518   */\n  0x00\n    /* \"#utility.yul\":8545:8596   */\n  tag_155\n    /* \"#utility.yul\":8593:8594   */\n  0x00\n    /* \"#utility.yul\":8589:8595   */\n  not\n    /* \"#utility.yul\":8581:8586   */\n  dup5\n    /* \"#utility.yul\":8578:8579   */\n  0x08\n    /* \"#utility.yul\":8574:8587   */\n  mul\n    /* \"#utility.yul\":8545:8596   */\n  tag_51\n  jump\t// in\ntag_155:\n    /* \"#utility.yul\":8541:8597   */\n  not\n    /* \"#utility.yul\":8626:8630   */\n  dup1\n    /* \"#utility.yul\":8620:8624   */\n  dup4\n    /* \"#utility.yul\":8616:8631   */\n  and\n    /* \"#utility.yul\":8606:8631   */\n  swap2\n  pop\n    /* \"#utility.yul\":8519:8637   */\n  pop\n    /* \"#utility.yul\":8468:8637   */\n  swap3\n  swap2\n  pop\n  pop\n  jump\t// out\n    /* \"#utility.yul\":8642:8937   */\ntag_53:\n    /* \"#utility.yul\":8718:8722   */\n  0x00\n    /* \"#utility.yul\":8864:8893   */\n  tag_157\n    /* \"#utility.yul\":8889:8892   */\n  dup4\n    /* \"#utility.yul\":8883:8887   */\n  dup4\n    /* \"#utility.yul\":8864:8893   */\n  tag_52\n  jump\t// in\ntag_157:\n    /* \"#utility.yul\":8856:8893   */\n  swap2\n  pop\n    /* \"#utility.yul\":8926:8929   */\n  dup3\n    /* \"#utility.yul\":8923:8924   */\n  0x02\n    /* \"#utility.yul\":8919:8930   */\n  mul\n    /* \"#utility.yul\":8913:8917   */\n  dup3\n    /* \"#utility.yul\":8910:8931   */\n  or\n    /* \"#utility.yul\":8902:8931   */\n  swap1\n  pop\n    /* \"#utility.yul\":8642:8937   */\n  swap3\n  swap2\n  pop\n  pop\n  jump\t// out\n    /* \"#utility.yul\":8942:10337   */\ntag_14:\n    /* \"#utility.yul\":9059:9096   */\n  tag_159\n    /* \"#utility.yul\":9092:9095   */\n  dup3\n    /* \"#utility.yul\":9059:9096   */\n  tag_35\n  jump\t// in\ntag_159:\n    /* \"#utility.yul\":9161:9179   */\n  0xffffffffffffffff\n    /* \"#utility.yul\":9153:9159   */\n  dup2\n    /* \"#utility.yul\":9150:9180   */\n  gt\n    /* \"#utility.yul\":9147:9203   */\n  iszero\n  tag_160\n  jumpi\n    /* \"#utility.yul\":9183:9201   */\n  tag_161\n  tag_23\n  jump\t// in\ntag_161:\n    /* \"#utility.yul\":9147:9203   */\ntag_160:\n    /* \"#utility.yul\":9227:9265   */\n  tag_162\n    /* \"#utility.yul\":9259:9263   */\n  dup3\n    /* \"#utility.yul\":9253:9264   */\n  sload\n    /* \"#utility.yul\":9227:9265   */\n  tag_37\n  jump\t// in\ntag_162:\n    /* \"#utility.yul\":9312:9379   */\n  tag_163\n    /* \"#utility.yul\":9372:9378   */\n  dup3\n    /* \"#utility.yul\":9364:9370   */\n  dup3\n    /* \"#utility.yul\":9358:9362   */\n  dup6\n    /* \"#utility.yul\":9312:9379   */\n  tag_50\n  jump\t// in\ntag_163:\n    /* \"#utility.yul\":9406:9407   */\n  0x00\n    /* \"#utility.yul\":9430:9434   */\n  0x20\n    /* \"#utility.yul\":9417:9434   */\n  swap1\n  pop\n    /* \"#utility.yul\":9462:9464   */\n  0x1f\n    /* \"#utility.yul\":9454:9460   */\n  dup4\n    /* \"#utility.yul\":9451:9465   */\n  gt\n    /* \"#utility.yul\":9479:9480   */\n  0x01\n    /* \"#utility.yul\":9474:10092   */\n  dup2\n  eq\n  tag_165\n  jumpi\n    /* \"#utility.yul\":10136:10137   */\n  0x00\n    /* \"#utility.yul\":10153:10159   */\n  dup5\n    /* \"#utility.yul\":10150:10227   */\n  iszero\n  tag_166\n  jumpi\n    /* \"#utility.yul\":10202:10211   */\n  dup3\n    /* \"#utility.yul\":10197:10200   */\n  dup8\n    /* \"#utility.yul\":10193:10212   */\n  add\n    /* \"#utility.yul\":10187:10213   */\n  mload\n    /* \"#utility.yul\":10178:10213   */\n  swap1\n  pop\n    /* \"#utility.yul\":10150:10227   */\ntag_166:\n    /* \"#utility.yul\":10253:10320   */\n  tag_167\n    /* \"#utility.yul\":10313:10319   */\n  dup6\n    /* \"#utility.yul\":10306:10311   */\n  dup3\n    /* \"#utility.yul\":10253:10320   */\n  tag_53\n  jump\t// in\ntag_167:\n    /* \"#utility.yul\":10247:10251   */\n  dup7\n    /* \"#utility.yul\":10240:10321   */\n  sstore\n    /* \"#utility.yul\":10109:10331   */\n  pop\n    /* \"#utility.yul\":9444:10331   */\n  jump(tag_164)\n    /* \"#utility.yul\":9474:10092   */\ntag_165:\n    /* \"#utility.yul\":9526:9530   */\n  0x1f\n    /* \"#utility.yul\":9522:9531   */\n  not\n    /* \"#utility.yul\":9514:9520   */\n  dup5\n    /* \"#utility.yul\":9510:9532   */\n  and\n    /* \"#utility.yul\":9560:9597   */\n  tag_168\n    /* \"#utility.yul\":9592:9596   */\n  dup7\n    /* \"#utility.yul\":9560:9597   */\n  tag_38\n  jump\t// in\ntag_168:\n    /* \"#utility.yul\":9619:9620   */\n  0x00\n    /* \"#utility.yul\":9633:9841   */\ntag_169:\n    /* \"#utility.yul\":9647:9654   */\n  dup3\n    /* \"#utility.yul\":9644:9645   */\n  dup2\n    /* \"#utility.yul\":9641:9655   */\n  lt\n    /* \"#utility.yul\":9633:9841   */\n  iszero\n  tag_171\n  jumpi\n    /* \"#utility.yul\":9726:9735   */\n  dup5\n    /* \"#utility.yul\":9721:9724   */\n  dup10\n    /* \"#utility.yul\":9717:9736   */\n  add\n    /* \"#utility.yul\":9711:9737   */\n  mload\n    /* \"#utility.yul\":9703:9709   */\n  dup3\n    /* \"#utility.yul\":9696:9738   */\n  sstore\n    /* \"#utility.yul\":9777:9778   */\n  0x01\n    /* \"#utility.yul\":9769:9775   */\n  dup3\n    /* \"#utility.yul\":9765:9779   */\n  add\n    /* \"#utility.yul\":9755:9779   */\n  swap2\n  pop\n    /* \"#utility.yul\":9824:9826   */\n  0x20\n    /* \"#utility.yul\":9813:9822   */\n  dup6\n    /* \"#utility.yul\":9809:9827   */\n  add\n    /* \"#utility.yul\":9796:9827   */\n  swap5\n  pop\n    /* \"#utility.yul\":9670:9674   */\n  0x20\n    /* \"#utility.yul\":9667:9668   */\n  dup2\n    /* \"#utility.yul\":9663:9675   */\n  add\n    /* \"#utility.yul\":9658:9675   */\n  swap1\n  pop\n    /* \"#utility.yul\":9633:9841   */\n  jump(tag_169)\ntag_171:\n    /* \"#utility.yul\":9869:9875   */\n  dup7\n    /* \"#utility.yul\":9860:9867   */\n  dup4\n    /* \"#utility.yul\":9857:9876   */\n  lt\n    /* \"#utility.yul\":9854:10033   */\n  iszero\n  tag_172\n  jumpi\n    /* \"#utility.yul\":9927:9936   */\n  dup5\n    /* \"#utility.yul\":9922:9925   */\n  dup10\n    /* \"#utility.yul\":9918:9937   */\n  add\n    /* \"#utility.yul\":9912:9938   */\n  mload\n    /* \"#utility.yul\":9970:10018   */\n  tag_173\n    /* \"#utility.yul\":10012:10016   */\n  0x1f\n    /* \"#utility.yul\":10004:10010   */\n  dup10\n    /* \"#utility.yul\":10000:10017   */\n  and\n    /* \"#utility.yul\":9989:9998   */\n  dup3\n    /* \"#utility.yul\":9970:10018   */\n  tag_52\n  jump\t// in\ntag_173:\n    /* \"#utility.yul\":9962:9968   */\n  dup4\n    /* \"#utility.yul\":9955:10019   */\n  sstore\n    /* \"#utility.yul\":9877:10033   */\n  pop\n    /* \"#utility.yul\":9854:10033   */\ntag_172:\n    /* \"#utility.yul\":10079:10080   */\n  0x01\n    /* \"#utility.yul\":10075:10076   */\n  0x02\n    /* \"#utility.yul\":10067:10073   */\n  dup9\n    /* \"#utility.yul\":10063:10077   */\n  mul\n    /* \"#utility.yul\":10059:10081   */\n  add\n    /* \"#utility.yul\":10053:10057   */\n  dup9\n    /* \"#utility.yul\":10046:10082   */\n  sstore\n    /* \"#utility.yul\":9481:10092   */\n  pop\n  pop\n  pop\n    /* \"#utility.yul\":9444:10331   */\ntag_164:\n  pop\n    /* \"#utility.yul\":9034:10337   */\n  pop\n  pop\n  pop\n    /* \"#utility.yul\":8942:10337   */\n  pop\n  pop\n  jump\t// out\n    /* \"#utility.yul\":10343:10523   */\ntag_54:\n    /* \"#utility.yul\":10391:10468   */\n  0x4e487b7100000000000000000000000000000000000000000000000000000000\n    /* \"#utility.yul\":10388:10389   */\n  0x00\n    /* \"#utility.yul\":10381:10469   */\n  mstore\n    /* \"#utility.yul\":10488:10492   */\n  0x11\n    /* \"#utility.yul\":10485:10486   */\n  0x04\n    /* \"#utility.yul\":10478:10493   */\n  mstore\n    /* \"#utility.yul\":10512:10516   */\n  0x24\n    /* \"#utility.yul\":10509:10510   */\n  0x00\n    /* \"#utility.yul\":10502:10517   */\n  revert\n    /* \"#utility.yul\":10529:10762   */\ntag_16:\n    /* \"#utility.yul\":10568:10571   */\n  0x00\n    /* \"#utility.yul\":10591:10615   */\n  tag_176\n    /* \"#utility.yul\":10609:10614   */\n  dup3\n    /* \"#utility.yul\":10591:10615   */\n  tag_42\n  jump\t// in\ntag_176:\n    /* \"#utility.yul\":10582:10615   */\n  swap2\n  pop\n    /* \"#utility.yul\":10637:10703   */\n  0xffffffffffffffffffffffffffffffffffffffffffffffffffffffffffffffff\n    /* \"#utility.yul\":10630:10635   */\n  dup3\n    /* \"#utility.yul\":10627:10704   */\n  sub\n    /* \"#utility.yul\":10624:10727   */\n  tag_177\n  jumpi\n    /* \"#utility.yul\":10707:10725   */\n  tag_178\n  tag_54\n  jump\t// in\ntag_178:\n    /* \"#utility.yul\":10624:10727   */\ntag_177:\n    /* \"#utility.yul\":10754:10755   */\n  0x01\n    /* \"#utility.yul\":10747:10752   */\n  dup3\n    /* \"#utility.yul\":10743:10756   */\n  add\n    /* \"#utility.yul\":10736:10756   */\n  swap1\n  pop\n    /* \"#utility.yul\":10529:10762   */\n  swap2\n  swap1\n  pop\n  jump\t// out\n    /* \"contracts/VotingProject.sol\":69:3873  contract VotingProject {... */\ntag_17:\n  dataSize(sub_0)\n  dup1\n  dataOffset(sub_0)\n  0x00\n  codecopy\n  0x00\n  return\nstop\n\nsub_0: assembly {\n        /* \"contracts/VotingProject.sol\":69:3873  contract VotingProject {... */\n      mstore(0x40, 0x80)\n      callvalue\n      dup1\n      iszero\n      tag_1\n      jumpi\n      0x00\n      dup1\n      revert\n    tag_1:\n      pop\n      jumpi(tag_2, lt(calldatasize, 0x04))\n      shr(0xe0, calldataload(0x00))\n      dup1\n      0x74aeb9d3\n      gt\n      tag_11\n      jumpi\n      dup1\n      0x74aeb9d3\n      eq\n      tag_7\n      jumpi\n      dup1\n      0x87f7b975\n      eq\n      tag_8\n      jumpi\n      dup1\n      0xa0f2c291\n      eq\n      tag_9\n      jumpi\n      dup1\n      0xa3ec138d\n      eq\n      tag_10\n      jumpi\n      jump(tag_2)\n    tag_11:\n      dup1\n      0x0121b93f\n      eq\n      tag_3\n      jumpi\n      dup1\n      0x013cf08b\n      eq\n      tag_4\n      jumpi\n      dup1\n      0x5c19a95c\n      eq\n      tag_5\n      jumpi\n      dup1\n      0x609ff1bd\n      eq\n      tag_6\n      jumpi\n    tag_2:\n      0x00\n      dup1\n      revert\n        /* \"contracts/VotingProject.sol\":1578:2024  function vote(uint proposalIndex) public {... */\n    tag_3:\n      tag_12\n      0x04\n      dup1\n      calldatasize\n      sub\n      dup2\n      add\n      swap1\n      tag_13\n      swap2\n      swap1\n      tag_14\n      jump\t// in\n    tag_13:\n      tag_15\n      jump\t// in\n    tag_12:\n      stop\n        /* \"contracts/VotingProject.sol\":809:836  Proposal[] public proposals */\n    tag_4:\n      tag_16\n      0x04\n      dup1\n      calldatasize\n      sub\n      dup2\n      add\n      swap1\n      tag_17\n      swap2\n      swap1\n      tag_14\n      jump\t// in\n    tag_17:\n      tag_18\n      jump\t// in\n    tag_16:\n      mload(0x40)\n      tag_19\n      swap3\n      swap2\n      swap1\n      tag_20\n      jump\t// in\n    tag_19:\n      mload(0x40)\n      dup1\n      swap2\n      sub\n      swap1\n      return\n        /* \"contracts/VotingProject.sol\":2950:3652  function delegate(address to) external {... */\n    tag_5:\n      tag_21\n      0x04\n      dup1\n      calldatasize\n      sub\n      dup2\n      add\n      swap1\n      tag_22\n      swap2\n      swap1\n      tag_23\n      jump\t// in\n    tag_22:\n      tag_24\n      jump\t// in\n    tag_21:\n      stop\n        /* \"contracts/VotingProject.sol\":2471:2832  function winningProposal() public view returns (uint winningProposalIndex) {... */\n    tag_6:\n      tag_25\n      tag_26\n      jump\t// in\n    tag_25:\n      mload(0x40)\n      tag_27\n      swap2\n      swap1\n      tag_28\n      jump\t// in\n    tag_27:\n      mload(0x40)\n      dup1\n      swap2\n      sub\n      swap1\n      return\n        /* \"contracts/VotingProject.sol\":2115:2412  function abilityToVote(address voter) public {... */\n    tag_7:\n      tag_29\n      0x04\n      dup1\n      calldatasize\n      sub\n      dup2\n      add\n      swap1\n      tag_30\n      swap2\n      swap1\n      tag_23\n      jump\t// in\n    tag_30:\n      tag_31\n      jump\t// in\n    tag_29:\n      stop\n        /* \"contracts/VotingProject.sol\":227:250  address public chairman */\n    tag_8:\n      tag_32\n      tag_33\n      jump\t// in\n    tag_32:\n      mload(0x40)\n      tag_34\n      swap2\n      swap1\n      tag_35\n      jump\t// in\n    tag_34:\n      mload(0x40)\n      dup1\n      swap2\n      sub\n      swap1\n      return\n        /* \"contracts/VotingProject.sol\":3727:3868  function winnerProposalName() public view returns (string memory winnerName){... */\n    tag_9:\n      tag_36\n      tag_37\n      jump\t// in\n    tag_36:\n      mload(0x40)\n      tag_38\n      swap2\n      swap1\n      tag_39\n      jump\t// in\n    tag_38:\n      mload(0x40)\n      dup1\n      swap2\n      sub\n      swap1\n      return\n        /* \"contracts/VotingProject.sol\":1000:1040  mapping (address => Voter) public voters */\n    tag_10:\n      tag_40\n      0x04\n      dup1\n      calldatasize\n      sub\n      dup2\n      add\n      swap1\n      tag_41\n      swap2\n      swap1\n      tag_23\n      jump\t// in\n    tag_41:\n      tag_42\n      jump\t// in\n    tag_40:\n      mload(0x40)\n      tag_43\n      swap5\n      swap4\n      swap3\n      swap2\n      swap1\n      tag_44\n      jump\t// in\n    tag_43:\n      mload(0x40)\n      dup1\n      swap2\n      sub\n      swap1\n      return\n        /* \"contracts/VotingProject.sol\":1578:2024  function vote(uint proposalIndex) public {... */\n    tag_15:\n        /* \"contracts/VotingProject.sol\":1630:1650  Voter storage sender */\n      0x00\n        /* \"contracts/VotingProject.sol\":1653:1659  voters */\n      0x02\n        /* \"contracts/VotingProject.sol\":1653:1671  voters[msg.sender] */\n      0x00\n        /* \"contracts/VotingProject.sol\":1660:1670  msg.sender */\n      caller\n        /* \"contracts/VotingProject.sol\":1653:1671  voters[msg.sender] */\n      0xffffffffffffffffffffffffffffffffffffffff\n      and\n      0xffffffffffffffffffffffffffffffffffffffff\n      and\n      dup2\n      mstore\n      0x20\n      add\n      swap1\n      dup2\n      mstore\n      0x20\n      add\n      0x00\n      keccak256\n        /* \"contracts/VotingProject.sol\":1630:1671  Voter storage sender = voters[msg.sender] */\n      swap1\n      pop\n        /* \"contracts/VotingProject.sol\":1691:1697  sender */\n      dup1\n        /* \"contracts/VotingProject.sol\":1691:1708  sender.votedOrNot */\n      0x00\n      add\n      0x00\n      swap1\n      sload\n      swap1\n      0x0100\n      exp\n      swap1\n      div\n      0xff\n      and\n        /* \"contracts/VotingProject.sol\":1690:1708  !sender.votedOrNot */\n      iszero\n        /* \"contracts/VotingProject.sol\":1682:1727  require(!sender.votedOrNot, \"Already voted!\") */\n      tag_46\n      jumpi\n      mload(0x40)\n      0x08c379a000000000000000000000000000000000000000000000000000000000\n      dup2\n      mstore\n      0x04\n      add\n      tag_47\n      swap1\n      tag_48\n      jump\t// in\n    tag_47:\n      mload(0x40)\n      dup1\n      swap2\n      sub\n      swap1\n      revert\n    tag_46:\n        /* \"contracts/VotingProject.sol\":1762:1763  0 */\n      0x00\n        /* \"contracts/VotingProject.sol\":1746:1752  sender */\n      dup2\n        /* \"contracts/VotingProject.sol\":1746:1759  sender.weight */\n      0x01\n      add\n      sload\n        /* \"contracts/VotingProject.sol\":1746:1763  sender.weight > 0 */\n      gt\n        /* \"contracts/VotingProject.sol\":1738:1788  require(sender.weight > 0, \"Has no right to vote\") */\n      tag_49\n      jumpi\n      mload(0x40)\n      0x08c379a000000000000000000000000000000000000000000000000000000000\n      dup2\n      mstore\n      0x04\n      add\n      tag_50\n      swap1\n      tag_51\n      jump\t// in\n    tag_50:\n      mload(0x40)\n      dup1\n      swap2\n      sub\n      swap1\n      revert\n    tag_49:\n        /* \"contracts/VotingProject.sol\":1823:1832  proposals */\n      0x01\n        /* \"contracts/VotingProject.sol\":1823:1839  proposals.length */\n      dup1\n      sload\n      swap1\n      pop\n        /* \"contracts/VotingProject.sol\":1807:1820  proposalIndex */\n      dup3\n        /* \"contracts/VotingProject.sol\":1807:1839  proposalIndex < proposals.length */\n      lt\n        /* \"contracts/VotingProject.sol\":1799:1870  require(proposalIndex < proposals.length, \"The proposal doesn't exist\") */\n      tag_52\n      jumpi\n      mload(0x40)\n      0x08c379a000000000000000000000000000000000000000000000000000000000\n      dup2\n      mstore\n      0x04\n      add\n      tag_53\n      swap1\n      tag_54\n      jump\t// in\n    tag_53:\n      mload(0x40)\n      dup1\n      swap2\n      sub\n      swap1\n      revert\n    tag_52:\n        /* \"contracts/VotingProject.sol\":1901:1905  true */\n      0x01\n        /* \"contracts/VotingProject.sol\":1881:1887  sender */\n      dup2\n        /* \"contracts/VotingProject.sol\":1881:1898  sender.votedOrNot */\n      0x00\n      add\n      0x00\n        /* \"contracts/VotingProject.sol\":1881:1905  sender.votedOrNot = true */\n      0x0100\n      exp\n      dup2\n      sload\n      dup2\n      0xff\n      mul\n      not\n      and\n      swap1\n      dup4\n      iszero\n      iszero\n      mul\n      or\n      swap1\n      sstore\n      pop\n        /* \"contracts/VotingProject.sol\":1939:1952  proposalIndex */\n      dup2\n        /* \"contracts/VotingProject.sol\":1916:1922  sender */\n      dup2\n        /* \"contracts/VotingProject.sol\":1916:1936  sender.votedProposal */\n      0x02\n      add\n        /* \"contracts/VotingProject.sol\":1916:1952  sender.votedProposal = proposalIndex */\n      dup2\n      swap1\n      sstore\n      pop\n        /* \"contracts/VotingProject.sol\":2003:2009  sender */\n      dup1\n        /* \"contracts/VotingProject.sol\":2003:2016  sender.weight */\n      0x01\n      add\n      sload\n        /* \"contracts/VotingProject.sol\":1965:1974  proposals */\n      0x01\n        /* \"contracts/VotingProject.sol\":1975:1988  proposalIndex */\n      dup4\n        /* \"contracts/VotingProject.sol\":1965:1989  proposals[proposalIndex] */\n      dup2\n      sload\n      dup2\n      lt\n      tag_55\n      jumpi\n      tag_56\n      tag_57\n      jump\t// in\n    tag_56:\n    tag_55:\n      swap1\n      0x00\n      mstore\n      keccak256(0x00, 0x20)\n      swap1\n      0x02\n      mul\n      add\n        /* \"contracts/VotingProject.sol\":1965:1999  proposals[proposalIndex].voteCount */\n      0x01\n      add\n      0x00\n        /* \"contracts/VotingProject.sol\":1965:2016  proposals[proposalIndex].voteCount += sender.weight */\n      dup3\n      dup3\n      sload\n      tag_59\n      swap2\n      swap1\n      tag_60\n      jump\t// in\n    tag_59:\n      swap3\n      pop\n      pop\n      dup2\n      swap1\n      sstore\n      pop\n        /* \"contracts/VotingProject.sol\":1619:2024  {... */\n      pop\n        /* \"contracts/VotingProject.sol\":1578:2024  function vote(uint proposalIndex) public {... */\n      pop\n      jump\t// out\n        /* \"contracts/VotingProject.sol\":809:836  Proposal[] public proposals */\n    tag_18:\n      0x01\n      dup2\n      dup2\n      sload\n      dup2\n      lt\n      tag_61\n      jumpi\n      0x00\n      dup1\n      revert\n    tag_61:\n      swap1\n      0x00\n      mstore\n      keccak256(0x00, 0x20)\n      swap1\n      0x02\n      mul\n      add\n      0x00\n      swap2\n      pop\n      swap1\n      pop\n      dup1\n      0x00\n      add\n      dup1\n      sload\n      tag_63\n      swap1\n      tag_64\n      jump\t// in\n    tag_63:\n      dup1\n      0x1f\n      add\n      0x20\n      dup1\n      swap2\n      div\n      mul\n      0x20\n      add\n      mload(0x40)\n      swap1\n      dup2\n      add\n      0x40\n      mstore\n      dup1\n      swap3\n      swap2\n      swap1\n      dup2\n      dup2\n      mstore\n      0x20\n      add\n      dup3\n      dup1\n      sload\n      tag_65\n      swap1\n      tag_64\n      jump\t// in\n    tag_65:\n      dup1\n      iszero\n      tag_66\n      jumpi\n      dup1\n      0x1f\n      lt\n      tag_67\n      jumpi\n      0x0100\n      dup1\n      dup4\n      sload\n      div\n      mul\n      dup4\n      mstore\n      swap2\n      0x20\n      add\n      swap2\n      jump(tag_66)\n    tag_67:\n      dup3\n      add\n      swap2\n      swap1\n      0x00\n      mstore\n      keccak256(0x00, 0x20)\n      swap1\n    tag_68:\n      dup2\n      sload\n      dup2\n      mstore\n      swap1\n      0x01\n      add\n      swap1\n      0x20\n      add\n      dup1\n      dup4\n      gt\n      tag_68\n      jumpi\n      dup3\n      swap1\n      sub\n      0x1f\n      and\n      dup3\n      add\n      swap2\n    tag_66:\n      pop\n      pop\n      pop\n      pop\n      pop\n      swap1\n      dup1\n      0x01\n      add\n      sload\n      swap1\n      pop\n      dup3\n      jump\t// out\n        /* \"contracts/VotingProject.sol\":2950:3652  function delegate(address to) external {... */\n    tag_24:\n        /* \"contracts/VotingProject.sol\":3000:3019  Voter storage voter */\n      0x00\n        /* \"contracts/VotingProject.sol\":3022:3028  voters */\n      0x02\n        /* \"contracts/VotingProject.sol\":3022:3040  voters[msg.sender] */\n      0x00\n        /* \"contracts/VotingProject.sol\":3029:3039  msg.sender */\n      caller\n        /* \"contracts/VotingProject.sol\":3022:3040  voters[msg.sender] */\n      0xffffffffffffffffffffffffffffffffffffffff\n      and\n      0xffffffffffffffffffffffffffffffffffffffff\n      and\n      dup2\n      mstore\n      0x20\n      add\n      swap1\n      dup2\n      mstore\n      0x20\n      add\n      0x00\n      keccak256\n        /* \"contracts/VotingProject.sol\":3000:3040  Voter storage voter = voters[msg.sender] */\n      swap1\n      pop\n        /* \"contracts/VotingProject.sol\":3060:3065  voter */\n      dup1\n        /* \"contracts/VotingProject.sol\":3060:3076  voter.votedOrNot */\n      0x00\n      add\n      0x00\n      swap1\n      sload\n      swap1\n      0x0100\n      exp\n      swap1\n      div\n      0xff\n      and\n        /* \"contracts/VotingProject.sol\":3059:3076  !voter.votedOrNot */\n      iszero\n        /* \"contracts/VotingProject.sol\":3051:3098  require(!voter.votedOrNot, \"You already voted\") */\n      tag_70\n      jumpi\n      mload(0x40)\n      0x08c379a000000000000000000000000000000000000000000000000000000000\n      dup2\n      mstore\n      0x04\n      add\n      tag_71\n      swap1\n      tag_72\n      jump\t// in\n    tag_71:\n      mload(0x40)\n      dup1\n      swap2\n      sub\n      swap1\n      revert\n    tag_70:\n        /* \"contracts/VotingProject.sol\":3123:3133  msg.sender */\n      caller\n        /* \"contracts/VotingProject.sol\":3117:3133  to != msg.sender */\n      0xffffffffffffffffffffffffffffffffffffffff\n      and\n        /* \"contracts/VotingProject.sol\":3117:3119  to */\n      dup3\n        /* \"contracts/VotingProject.sol\":3117:3133  to != msg.sender */\n      0xffffffffffffffffffffffffffffffffffffffff\n      and\n      sub\n        /* \"contracts/VotingProject.sol\":3109:3168  require(to != msg.sender, \"You can't delegate to yourself\") */\n      tag_73\n      jumpi\n      mload(0x40)\n      0x08c379a000000000000000000000000000000000000000000000000000000000\n      dup2\n      mstore\n      0x04\n      add\n      tag_74\n      swap1\n      tag_75\n      jump\t// in\n    tag_74:\n      mload(0x40)\n      dup1\n      swap2\n      sub\n      swap1\n      revert\n    tag_73:\n        /* \"contracts/VotingProject.sol\":3181:3340  while(voters[to].delegate != address(0)){... */\n    tag_76:\n        /* \"contracts/VotingProject.sol\":3218:3219  0 */\n      0x00\n        /* \"contracts/VotingProject.sol\":3187:3220  voters[to].delegate != address(0) */\n      0xffffffffffffffffffffffffffffffffffffffff\n      and\n        /* \"contracts/VotingProject.sol\":3187:3193  voters */\n      0x02\n        /* \"contracts/VotingProject.sol\":3187:3197  voters[to] */\n      0x00\n        /* \"contracts/VotingProject.sol\":3194:3196  to */\n      dup5\n        /* \"contracts/VotingProject.sol\":3187:3197  voters[to] */\n      0xffffffffffffffffffffffffffffffffffffffff\n      and\n      0xffffffffffffffffffffffffffffffffffffffff\n      and\n      dup2\n      mstore\n      0x20\n      add\n      swap1\n      dup2\n      mstore\n      0x20\n      add\n      0x00\n      keccak256\n        /* \"contracts/VotingProject.sol\":3187:3206  voters[to].delegate */\n      0x00\n      add\n      0x01\n      swap1\n      sload\n      swap1\n      0x0100\n      exp\n      swap1\n      div\n      0xffffffffffffffffffffffffffffffffffffffff\n      and\n        /* \"contracts/VotingProject.sol\":3187:3220  voters[to].delegate != address(0) */\n      0xffffffffffffffffffffffffffffffffffffffff\n      and\n      eq\n        /* \"contracts/VotingProject.sol\":3181:3340  while(voters[to].delegate != address(0)){... */\n      tag_77\n      jumpi\n        /* \"contracts/VotingProject.sol\":3241:3247  voters */\n      0x02\n        /* \"contracts/VotingProject.sol\":3241:3251  voters[to] */\n      0x00\n        /* \"contracts/VotingProject.sol\":3248:3250  to */\n      dup4\n        /* \"contracts/VotingProject.sol\":3241:3251  voters[to] */\n      0xffffffffffffffffffffffffffffffffffffffff\n      and\n      0xffffffffffffffffffffffffffffffffffffffff\n      and\n      dup2\n      mstore\n      0x20\n      add\n      swap1\n      dup2\n      mstore\n      0x20\n      add\n      0x00\n      keccak256\n        /* \"contracts/VotingProject.sol\":3241:3260  voters[to].delegate */\n      0x00\n      add\n      0x01\n      swap1\n      sload\n      swap1\n      0x0100\n      exp\n      swap1\n      div\n      0xffffffffffffffffffffffffffffffffffffffff\n      and\n        /* \"contracts/VotingProject.sol\":3236:3260  to = voters[to].delegate */\n      swap2\n      pop\n        /* \"contracts/VotingProject.sol\":3291:3301  msg.sender */\n      caller\n        /* \"contracts/VotingProject.sol\":3285:3301  to != msg.sender */\n      0xffffffffffffffffffffffffffffffffffffffff\n      and\n        /* \"contracts/VotingProject.sol\":3285:3287  to */\n      dup3\n        /* \"contracts/VotingProject.sol\":3285:3301  to != msg.sender */\n      0xffffffffffffffffffffffffffffffffffffffff\n      and\n      sub\n        /* \"contracts/VotingProject.sol\":3277:3328  require(to != msg.sender, \"Found an infinite loop\") */\n      tag_78\n      jumpi\n      mload(0x40)\n      0x08c379a000000000000000000000000000000000000000000000000000000000\n      dup2\n      mstore\n      0x04\n      add\n      tag_79\n      swap1\n      tag_80\n      jump\t// in\n    tag_79:\n      mload(0x40)\n      dup1\n      swap2\n      sub\n      swap1\n      revert\n    tag_78:\n        /* \"contracts/VotingProject.sol\":3181:3340  while(voters[to].delegate != address(0)){... */\n      jump(tag_76)\n    tag_77:\n        /* \"contracts/VotingProject.sol\":3369:3373  true */\n      0x01\n        /* \"contracts/VotingProject.sol\":3350:3355  voter */\n      dup2\n        /* \"contracts/VotingProject.sol\":3350:3366  voter.votedOrNot */\n      0x00\n      add\n      0x00\n        /* \"contracts/VotingProject.sol\":3350:3373  voter.votedOrNot = true */\n      0x0100\n      exp\n      dup2\n      sload\n      dup2\n      0xff\n      mul\n      not\n      and\n      swap1\n      dup4\n      iszero\n      iszero\n      mul\n      or\n      swap1\n      sstore\n      pop\n        /* \"contracts/VotingProject.sol\":3401:3403  to */\n      dup2\n        /* \"contracts/VotingProject.sol\":3384:3389  voter */\n      dup2\n        /* \"contracts/VotingProject.sol\":3384:3398  voter.delegate */\n      0x00\n      add\n      0x01\n        /* \"contracts/VotingProject.sol\":3384:3403  voter.delegate = to */\n      0x0100\n      exp\n      dup2\n      sload\n      dup2\n      0xffffffffffffffffffffffffffffffffffffffff\n      mul\n      not\n      and\n      swap1\n      dup4\n      0xffffffffffffffffffffffffffffffffffffffff\n      and\n      mul\n      or\n      swap1\n      sstore\n      pop\n        /* \"contracts/VotingProject.sol\":3414:3437  Voter storage _delegate */\n      0x00\n        /* \"contracts/VotingProject.sol\":3440:3446  voters */\n      0x02\n        /* \"contracts/VotingProject.sol\":3440:3450  voters[to] */\n      0x00\n        /* \"contracts/VotingProject.sol\":3447:3449  to */\n      dup5\n        /* \"contracts/VotingProject.sol\":3440:3450  voters[to] */\n      0xffffffffffffffffffffffffffffffffffffffff\n      and\n      0xffffffffffffffffffffffffffffffffffffffff\n      and\n      dup2\n      mstore\n      0x20\n      add\n      swap1\n      dup2\n      mstore\n      0x20\n      add\n      0x00\n      keccak256\n        /* \"contracts/VotingProject.sol\":3414:3450  Voter storage _delegate = voters[to] */\n      swap1\n      pop\n        /* \"contracts/VotingProject.sol\":3464:3473  _delegate */\n      dup1\n        /* \"contracts/VotingProject.sol\":3464:3484  _delegate.votedOrNot */\n      0x00\n      add\n      0x00\n      swap1\n      sload\n      swap1\n      0x0100\n      exp\n      swap1\n      div\n      0xff\n      and\n        /* \"contracts/VotingProject.sol\":3461:3645  if(_delegate.votedOrNot){... */\n      iszero\n      tag_81\n      jumpi\n        /* \"contracts/VotingProject.sol\":3548:3553  voter */\n      dup2\n        /* \"contracts/VotingProject.sol\":3548:3560  voter.weight */\n      0x01\n      add\n      sload\n        /* \"contracts/VotingProject.sol\":3500:3509  proposals */\n      0x01\n        /* \"contracts/VotingProject.sol\":3510:3519  _delegate */\n      dup3\n        /* \"contracts/VotingProject.sol\":3510:3533  _delegate.votedProposal */\n      0x02\n      add\n      sload\n        /* \"contracts/VotingProject.sol\":3500:3534  proposals[_delegate.votedProposal] */\n      dup2\n      sload\n      dup2\n      lt\n      tag_82\n      jumpi\n      tag_83\n      tag_57\n      jump\t// in\n    tag_83:\n    tag_82:\n      swap1\n      0x00\n      mstore\n      keccak256(0x00, 0x20)\n      swap1\n      0x02\n      mul\n      add\n        /* \"contracts/VotingProject.sol\":3500:3544  proposals[_delegate.votedProposal].voteCount */\n      0x01\n      add\n      0x00\n        /* \"contracts/VotingProject.sol\":3500:3560  proposals[_delegate.votedProposal].voteCount += voter.weight */\n      dup3\n      dup3\n      sload\n      tag_85\n      swap2\n      swap1\n      tag_60\n      jump\t// in\n    tag_85:\n      swap3\n      pop\n      pop\n      dup2\n      swap1\n      sstore\n      pop\n        /* \"contracts/VotingProject.sol\":3461:3645  if(_delegate.votedOrNot){... */\n      jump(tag_86)\n    tag_81:\n        /* \"contracts/VotingProject.sol\":3621:3626  voter */\n      dup2\n        /* \"contracts/VotingProject.sol\":3621:3633  voter.weight */\n      0x01\n      add\n      sload\n        /* \"contracts/VotingProject.sol\":3601:3610  _delegate */\n      dup2\n        /* \"contracts/VotingProject.sol\":3601:3617  _delegate.weight */\n      0x01\n      add\n      0x00\n        /* \"contracts/VotingProject.sol\":3601:3633  _delegate.weight += voter.weight */\n      dup3\n      dup3\n      sload\n      tag_87\n      swap2\n      swap1\n      tag_60\n      jump\t// in\n    tag_87:\n      swap3\n      pop\n      pop\n      dup2\n      swap1\n      sstore\n      pop\n        /* \"contracts/VotingProject.sol\":3461:3645  if(_delegate.votedOrNot){... */\n    tag_86:\n        /* \"contracts/VotingProject.sol\":2989:3652  {... */\n      pop\n      pop\n        /* \"contracts/VotingProject.sol\":2950:3652  function delegate(address to) external {... */\n      pop\n      jump\t// out\n        /* \"contracts/VotingProject.sol\":2471:2832  function winningProposal() public view returns (uint winningProposalIndex) {... */\n    tag_26:\n        /* \"contracts/VotingProject.sol\":2519:2544  uint winningProposalIndex */\n      0x00\n        /* \"contracts/VotingProject.sol\":2557:2578  uint winningVoteCount */\n      dup1\n        /* \"contracts/VotingProject.sol\":2581:2582  0 */\n      0x00\n        /* \"contracts/VotingProject.sol\":2557:2582  uint winningVoteCount = 0 */\n      swap1\n      pop\n        /* \"contracts/VotingProject.sol\":2597:2603  uint i */\n      0x00\n        /* \"contracts/VotingProject.sol\":2593:2825  for(uint i = 0; i < proposals.length; i++){... */\n    tag_89:\n        /* \"contracts/VotingProject.sol\":2613:2622  proposals */\n      0x01\n        /* \"contracts/VotingProject.sol\":2613:2629  proposals.length */\n      dup1\n      sload\n      swap1\n      pop\n        /* \"contracts/VotingProject.sol\":2609:2610  i */\n      dup2\n        /* \"contracts/VotingProject.sol\":2609:2629  i < proposals.length */\n      lt\n        /* \"contracts/VotingProject.sol\":2593:2825  for(uint i = 0; i < proposals.length; i++){... */\n      iszero\n      tag_90\n      jumpi\n        /* \"contracts/VotingProject.sol\":2678:2694  winningVoteCount */\n      dup2\n        /* \"contracts/VotingProject.sol\":2653:2662  proposals */\n      0x01\n        /* \"contracts/VotingProject.sol\":2663:2664  i */\n      dup3\n        /* \"contracts/VotingProject.sol\":2653:2665  proposals[i] */\n      dup2\n      sload\n      dup2\n      lt\n      tag_92\n      jumpi\n      tag_93\n      tag_57\n      jump\t// in\n    tag_93:\n    tag_92:\n      swap1\n      0x00\n      mstore\n      keccak256(0x00, 0x20)\n      swap1\n      0x02\n      mul\n      add\n        /* \"contracts/VotingProject.sol\":2653:2675  proposals[i].voteCount */\n      0x01\n      add\n      sload\n        /* \"contracts/VotingProject.sol\":2653:2694  proposals[i].voteCount > winningVoteCount */\n      gt\n        /* \"contracts/VotingProject.sol\":2650:2814  if(proposals[i].voteCount > winningVoteCount){... */\n      iszero\n      tag_95\n      jumpi\n        /* \"contracts/VotingProject.sol\":2733:2742  proposals */\n      0x01\n        /* \"contracts/VotingProject.sol\":2743:2744  i */\n      dup2\n        /* \"contracts/VotingProject.sol\":2733:2745  proposals[i] */\n      dup2\n      sload\n      dup2\n      lt\n      tag_96\n      jumpi\n      tag_97\n      tag_57\n      jump\t// in\n    tag_97:\n    tag_96:\n      swap1\n      0x00\n      mstore\n      keccak256(0x00, 0x20)\n      swap1\n      0x02\n      mul\n      add\n        /* \"contracts/VotingProject.sol\":2733:2755  proposals[i].voteCount */\n      0x01\n      add\n      sload\n        /* \"contracts/VotingProject.sol\":2714:2755  winningVoteCount = proposals[i].voteCount */\n      swap2\n      pop\n        /* \"contracts/VotingProject.sol\":2797:2798  i */\n      dup1\n        /* \"contracts/VotingProject.sol\":2774:2798  winningProposalIndex = i */\n      swap3\n      pop\n        /* \"contracts/VotingProject.sol\":2650:2814  if(proposals[i].voteCount > winningVoteCount){... */\n    tag_95:\n        /* \"contracts/VotingProject.sol\":2631:2634  i++ */\n      dup1\n      dup1\n      tag_99\n      swap1\n      tag_100\n      jump\t// in\n    tag_99:\n      swap2\n      pop\n      pop\n        /* \"contracts/VotingProject.sol\":2593:2825  for(uint i = 0; i < proposals.length; i++){... */\n      jump(tag_89)\n    tag_90:\n      pop\n        /* \"contracts/VotingProject.sol\":2546:2832  {... */\n      pop\n        /* \"contracts/VotingProject.sol\":2471:2832  function winningProposal() public view returns (uint winningProposalIndex) {... */\n      swap1\n      jump\t// out\n        /* \"contracts/VotingProject.sol\":2115:2412  function abilityToVote(address voter) public {... */\n    tag_31:\n        /* \"contracts/VotingProject.sol\":2193:2201  chairman */\n      0x00\n      dup1\n      sload\n      swap1\n      0x0100\n      exp\n      swap1\n      div\n      0xffffffffffffffffffffffffffffffffffffffff\n      and\n        /* \"contracts/VotingProject.sol\":2179:2201  msg.sender == chairman */\n      0xffffffffffffffffffffffffffffffffffffffff\n      and\n        /* \"contracts/VotingProject.sol\":2179:2189  msg.sender */\n      caller\n        /* \"contracts/VotingProject.sol\":2179:2201  msg.sender == chairman */\n      0xffffffffffffffffffffffffffffffffffffffff\n      and\n      eq\n        /* \"contracts/VotingProject.sol\":2171:2252  require(msg.sender == chairman, \"Only the chairman can give the ability to vote\") */\n      tag_102\n      jumpi\n      mload(0x40)\n      0x08c379a000000000000000000000000000000000000000000000000000000000\n      dup2\n      mstore\n      0x04\n      add\n      tag_103\n      swap1\n      tag_104\n      jump\t// in\n    tag_103:\n      mload(0x40)\n      dup1\n      swap2\n      sub\n      swap1\n      revert\n    tag_102:\n        /* \"contracts/VotingProject.sol\":2272:2278  voters */\n      0x02\n        /* \"contracts/VotingProject.sol\":2272:2285  voters[voter] */\n      0x00\n        /* \"contracts/VotingProject.sol\":2279:2284  voter */\n      dup3\n        /* \"contracts/VotingProject.sol\":2272:2285  voters[voter] */\n      0xffffffffffffffffffffffffffffffffffffffff\n      and\n      0xffffffffffffffffffffffffffffffffffffffff\n      and\n      dup2\n      mstore\n      0x20\n      add\n      swap1\n      dup2\n      mstore\n      0x20\n      add\n      0x00\n      keccak256\n        /* \"contracts/VotingProject.sol\":2272:2296  voters[voter].votedOrNot */\n      0x00\n      add\n      0x00\n      swap1\n      sload\n      swap1\n      0x0100\n      exp\n      swap1\n      div\n      0xff\n      and\n        /* \"contracts/VotingProject.sol\":2271:2296  !voters[voter].votedOrNot */\n      iszero\n        /* \"contracts/VotingProject.sol\":2263:2324  require(!voters[voter].votedOrNot, \"The voter already voted\") */\n      tag_105\n      jumpi\n      mload(0x40)\n      0x08c379a000000000000000000000000000000000000000000000000000000000\n      dup2\n      mstore\n      0x04\n      add\n      tag_106\n      swap1\n      tag_107\n      jump\t// in\n    tag_106:\n      mload(0x40)\n      dup1\n      swap2\n      sub\n      swap1\n      revert\n    tag_105:\n        /* \"contracts/VotingProject.sol\":2367:2368  0 */\n      0x00\n        /* \"contracts/VotingProject.sol\":2343:2349  voters */\n      0x02\n        /* \"contracts/VotingProject.sol\":2343:2356  voters[voter] */\n      0x00\n        /* \"contracts/VotingProject.sol\":2350:2355  voter */\n      dup4\n        /* \"contracts/VotingProject.sol\":2343:2356  voters[voter] */\n      0xffffffffffffffffffffffffffffffffffffffff\n      and\n      0xffffffffffffffffffffffffffffffffffffffff\n      and\n      dup2\n      mstore\n      0x20\n      add\n      swap1\n      dup2\n      mstore\n      0x20\n      add\n      0x00\n      keccak256\n        /* \"contracts/VotingProject.sol\":2343:2363  voters[voter].weight */\n      0x01\n      add\n      sload\n        /* \"contracts/VotingProject.sol\":2343:2368  voters[voter].weight == 0 */\n      eq\n        /* \"contracts/VotingProject.sol\":2335:2369  require(voters[voter].weight == 0) */\n      tag_108\n      jumpi\n      0x00\n      dup1\n      revert\n    tag_108:\n        /* \"contracts/VotingProject.sol\":2403:2404  1 */\n      0x01\n        /* \"contracts/VotingProject.sol\":2380:2386  voters */\n      0x02\n        /* \"contracts/VotingProject.sol\":2380:2393  voters[voter] */\n      0x00\n        /* \"contracts/VotingProject.sol\":2387:2392  voter */\n      dup4\n        /* \"contracts/VotingProject.sol\":2380:2393  voters[voter] */\n      0xffffffffffffffffffffffffffffffffffffffff\n      and\n      0xffffffffffffffffffffffffffffffffffffffff\n      and\n      dup2\n      mstore\n      0x20\n      add\n      swap1\n      dup2\n      mstore\n      0x20\n      add\n      0x00\n      keccak256\n        /* \"contracts/VotingProject.sol\":2380:2400  voters[voter].weight */\n      0x01\n      add\n        /* \"contracts/VotingProject.sol\":2380:2404  voters[voter].weight = 1 */\n      dup2\n      swap1\n      sstore\n      pop\n        /* \"contracts/VotingProject.sol\":2115:2412  function abilityToVote(address voter) public {... */\n      pop\n      jump\t// out\n        /* \"contracts/VotingProject.sol\":227:250  address public chairman */\n    tag_33:\n      0x00\n      dup1\n      sload\n      swap1\n      0x0100\n      exp\n      swap1\n      div\n      0xffffffffffffffffffffffffffffffffffffffff\n      and\n      dup2\n      jump\t// out\n        /* \"contracts/VotingProject.sol\":3727:3868  function winnerProposalName() public view returns (string memory winnerName){... */\n    tag_37:\n        /* \"contracts/VotingProject.sol\":3778:3802  string memory winnerName */\n      0x60\n        /* \"contracts/VotingProject.sol\":3827:3836  proposals */\n      0x01\n        /* \"contracts/VotingProject.sol\":3837:3854  winningProposal() */\n      tag_110\n        /* \"contracts/VotingProject.sol\":3837:3852  winningProposal */\n      tag_26\n        /* \"contracts/VotingProject.sol\":3837:3854  winningProposal() */\n      jump\t// in\n    tag_110:\n        /* \"contracts/VotingProject.sol\":3827:3855  proposals[winningProposal()] */\n      dup2\n      sload\n      dup2\n      lt\n      tag_111\n      jumpi\n      tag_112\n      tag_57\n      jump\t// in\n    tag_112:\n    tag_111:\n      swap1\n      0x00\n      mstore\n      keccak256(0x00, 0x20)\n      swap1\n      0x02\n      mul\n      add\n        /* \"contracts/VotingProject.sol\":3827:3860  proposals[winningProposal()].name */\n      0x00\n      add\n        /* \"contracts/VotingProject.sol\":3814:3860  winnerName = proposals[winningProposal()].name */\n      dup1\n      sload\n      tag_114\n      swap1\n      tag_64\n      jump\t// in\n    tag_114:\n      dup1\n      0x1f\n      add\n      0x20\n      dup1\n      swap2\n      div\n      mul\n      0x20\n      add\n      mload(0x40)\n      swap1\n      dup2\n      add\n      0x40\n      mstore\n      dup1\n      swap3\n      swap2\n      swap1\n      dup2\n      dup2\n      mstore\n      0x20\n      add\n      dup3\n      dup1\n      sload\n      tag_115\n      swap1\n      tag_64\n      jump\t// in\n    tag_115:\n      dup1\n      iszero\n      tag_116\n      jumpi\n      dup1\n      0x1f\n      lt\n      tag_117\n      jumpi\n      0x0100\n      dup1\n      dup4\n      sload\n      div\n      mul\n      dup4\n      mstore\n      swap2\n      0x20\n      add\n      swap2\n      jump(tag_116)\n    tag_117:\n      dup3\n      add\n      swap2\n      swap1\n      0x00\n      mstore\n      keccak256(0x00, 0x20)\n      swap1\n    tag_118:\n      dup2\n      sload\n      dup2\n      mstore\n      swap1\n      0x01\n      add\n      swap1\n      0x20\n      add\n      dup1\n      dup4\n      gt\n      tag_118\n      jumpi\n      dup3\n      swap1\n      sub\n      0x1f\n      and\n      dup3\n      add\n      swap2\n    tag_116:\n      pop\n      pop\n      pop\n      pop\n      pop\n      swap1\n      pop\n        /* \"contracts/VotingProject.sol\":3727:3868  function winnerProposalName() public view returns (string memory winnerName){... */\n      swap1\n      jump\t// out\n        /* \"contracts/VotingProject.sol\":1000:1040  mapping (address => Voter) public voters */\n    tag_42:\n      mstore(0x20, 0x02)\n      dup1\n      0x00\n      mstore\n      keccak256(0x00, 0x40)\n      0x00\n      swap2\n      pop\n      swap1\n      pop\n      dup1\n      0x00\n      add\n      0x00\n      swap1\n      sload\n      swap1\n      0x0100\n      exp\n      swap1\n      div\n      0xff\n      and\n      swap1\n      dup1\n      0x00\n      add\n      0x01\n      swap1\n      sload\n      swap1\n      0x0100\n      exp\n      swap1\n      div\n      0xffffffffffffffffffffffffffffffffffffffff\n      and\n      swap1\n      dup1\n      0x01\n      add\n      sload\n      swap1\n      dup1\n      0x02\n      add\n      sload\n      swap1\n      pop\n      dup5\n      jump\t// out\n        /* \"#utility.yul\":88:205   */\n    tag_120:\n        /* \"#utility.yul\":197:198   */\n      0x00\n        /* \"#utility.yul\":194:195   */\n      dup1\n        /* \"#utility.yul\":187:199   */\n      revert\n        /* \"#utility.yul\":334:411   */\n    tag_122:\n        /* \"#utility.yul\":371:378   */\n      0x00\n        /* \"#utility.yul\":400:405   */\n      dup2\n        /* \"#utility.yul\":389:405   */\n      swap1\n      pop\n        /* \"#utility.yul\":334:411   */\n      swap2\n      swap1\n      pop\n      jump\t// out\n        /* \"#utility.yul\":417:539   */\n    tag_123:\n        /* \"#utility.yul\":490:514   */\n      tag_162\n        /* \"#utility.yul\":508:513   */\n      dup2\n        /* \"#utility.yul\":490:514   */\n      tag_122\n      jump\t// in\n    tag_162:\n        /* \"#utility.yul\":483:488   */\n      dup2\n        /* \"#utility.yul\":480:515   */\n      eq\n        /* \"#utility.yul\":470:533   */\n      tag_163\n      jumpi\n        /* \"#utility.yul\":529:530   */\n      0x00\n        /* \"#utility.yul\":526:527   */\n      dup1\n        /* \"#utility.yul\":519:531   */\n      revert\n        /* \"#utility.yul\":470:533   */\n    tag_163:\n        /* \"#utility.yul\":417:539   */\n      pop\n      jump\t// out\n        /* \"#utility.yul\":545:684   */\n    tag_124:\n        /* \"#utility.yul\":591:596   */\n      0x00\n        /* \"#utility.yul\":629:635   */\n      dup2\n        /* \"#utility.yul\":616:636   */\n      calldataload\n        /* \"#utility.yul\":607:636   */\n      swap1\n      pop\n        /* \"#utility.yul\":645:678   */\n      tag_165\n        /* \"#utility.yul\":672:677   */\n      dup2\n        /* \"#utility.yul\":645:678   */\n      tag_123\n      jump\t// in\n    tag_165:\n        /* \"#utility.yul\":545:684   */\n      swap3\n      swap2\n      pop\n      pop\n      jump\t// out\n        /* \"#utility.yul\":690:1019   */\n    tag_14:\n        /* \"#utility.yul\":749:755   */\n      0x00\n        /* \"#utility.yul\":798:800   */\n      0x20\n        /* \"#utility.yul\":786:795   */\n      dup3\n        /* \"#utility.yul\":777:784   */\n      dup5\n        /* \"#utility.yul\":773:796   */\n      sub\n        /* \"#utility.yul\":769:801   */\n      slt\n        /* \"#utility.yul\":766:885   */\n      iszero\n      tag_167\n      jumpi\n        /* \"#utility.yul\":804:883   */\n      tag_168\n      tag_120\n      jump\t// in\n    tag_168:\n        /* \"#utility.yul\":766:885   */\n    tag_167:\n        /* \"#utility.yul\":924:925   */\n      0x00\n        /* \"#utility.yul\":949:1002   */\n      tag_169\n        /* \"#utility.yul\":994:1001   */\n      dup5\n        /* \"#utility.yul\":985:991   */\n      dup3\n        /* \"#utility.yul\":974:983   */\n      dup6\n        /* \"#utility.yul\":970:992   */\n      add\n        /* \"#utility.yul\":949:1002   */\n      tag_124\n      jump\t// in\n    tag_169:\n        /* \"#utility.yul\":939:1002   */\n      swap2\n      pop\n        /* \"#utility.yul\":895:1012   */\n      pop\n        /* \"#utility.yul\":690:1019   */\n      swap3\n      swap2\n      pop\n      pop\n      jump\t// out\n        /* \"#utility.yul\":1025:1124   */\n    tag_125:\n        /* \"#utility.yul\":1077:1083   */\n      0x00\n        /* \"#utility.yul\":1111:1116   */\n      dup2\n        /* \"#utility.yul\":1105:1117   */\n      mload\n        /* \"#utility.yul\":1095:1117   */\n      swap1\n      pop\n        /* \"#utility.yul\":1025:1124   */\n      swap2\n      swap1\n      pop\n      jump\t// out\n        /* \"#utility.yul\":1130:1299   */\n    tag_126:\n        /* \"#utility.yul\":1214:1225   */\n      0x00\n        /* \"#utility.yul\":1248:1254   */\n      dup3\n        /* \"#utility.yul\":1243:1246   */\n      dup3\n        /* \"#utility.yul\":1236:1255   */\n      mstore\n        /* \"#utility.yul\":1288:1292   */\n      0x20\n        /* \"#utility.yul\":1283:1286   */\n      dup3\n        /* \"#utility.yul\":1279:1293   */\n      add\n        /* \"#utility.yul\":1264:1293   */\n      swap1\n      pop\n        /* \"#utility.yul\":1130:1299   */\n      swap3\n      swap2\n      pop\n      pop\n      jump\t// out\n        /* \"#utility.yul\":1305:1551   */\n    tag_127:\n        /* \"#utility.yul\":1386:1387   */\n      0x00\n        /* \"#utility.yul\":1396:1509   */\n    tag_173:\n        /* \"#utility.yul\":1410:1416   */\n      dup4\n        /* \"#utility.yul\":1407:1408   */\n      dup2\n        /* \"#utility.yul\":1404:1417   */\n      lt\n        /* \"#utility.yul\":1396:1509   */\n      iszero\n      tag_175\n      jumpi\n        /* \"#utility.yul\":1495:1496   */\n      dup1\n        /* \"#utility.yul\":1490:1493   */\n      dup3\n        /* \"#utility.yul\":1486:1497   */\n      add\n        /* \"#utility.yul\":1480:1498   */\n      mload\n        /* \"#utility.yul\":1476:1477   */\n      dup2\n        /* \"#utility.yul\":1471:1474   */\n      dup5\n        /* \"#utility.yul\":1467:1478   */\n      add\n        /* \"#utility.yul\":1460:1499   */\n      mstore\n        /* \"#utility.yul\":1432:1434   */\n      0x20\n        /* \"#utility.yul\":1429:1430   */\n      dup2\n        /* \"#utility.yul\":1425:1435   */\n      add\n        /* \"#utility.yul\":1420:1435   */\n      swap1\n      pop\n        /* \"#utility.yul\":1396:1509   */\n      jump(tag_173)\n    tag_175:\n        /* \"#utility.yul\":1543:1544   */\n      0x00\n        /* \"#utility.yul\":1534:1540   */\n      dup5\n        /* \"#utility.yul\":1529:1532   */\n      dup5\n        /* \"#utility.yul\":1525:1541   */\n      add\n        /* \"#utility.yul\":1518:1545   */\n      mstore\n        /* \"#utility.yul\":1367:1551   */\n      pop\n        /* \"#utility.yul\":1305:1551   */\n      pop\n      pop\n      pop\n      jump\t// out\n        /* \"#utility.yul\":1557:1659   */\n    tag_128:\n        /* \"#utility.yul\":1598:1604   */\n      0x00\n        /* \"#utility.yul\":1649:1651   */\n      0x1f\n        /* \"#utility.yul\":1645:1652   */\n      not\n        /* \"#utility.yul\":1640:1642   */\n      0x1f\n        /* \"#utility.yul\":1633:1638   */\n      dup4\n        /* \"#utility.yul\":1629:1643   */\n      add\n        /* \"#utility.yul\":1625:1653   */\n      and\n        /* \"#utility.yul\":1615:1653   */\n      swap1\n      pop\n        /* \"#utility.yul\":1557:1659   */\n      swap2\n      swap1\n      pop\n      jump\t// out\n        /* \"#utility.yul\":1665:2042   */\n    tag_129:\n        /* \"#utility.yul\":1753:1756   */\n      0x00\n        /* \"#utility.yul\":1781:1820   */\n      tag_178\n        /* \"#utility.yul\":1814:1819   */\n      dup3\n        /* \"#utility.yul\":1781:1820   */\n      tag_125\n      jump\t// in\n    tag_178:\n        /* \"#utility.yul\":1836:1907   */\n      tag_179\n        /* \"#utility.yul\":1900:1906   */\n      dup2\n        /* \"#utility.yul\":1895:1898   */\n      dup6\n        /* \"#utility.yul\":1836:1907   */\n      tag_126\n      jump\t// in\n    tag_179:\n        /* \"#utility.yul\":1829:1907   */\n      swap4\n      pop\n        /* \"#utility.yul\":1916:1981   */\n      tag_180\n        /* \"#utility.yul\":1974:1980   */\n      dup2\n        /* \"#utility.yul\":1969:1972   */\n      dup6\n        /* \"#utility.yul\":1962:1966   */\n      0x20\n        /* \"#utility.yul\":1955:1960   */\n      dup7\n        /* \"#utility.yul\":1951:1967   */\n      add\n        /* \"#utility.yul\":1916:1981   */\n      tag_127\n      jump\t// in\n    tag_180:\n        /* \"#utility.yul\":2006:2035   */\n      tag_181\n        /* \"#utility.yul\":2028:2034   */\n      dup2\n        /* \"#utility.yul\":2006:2035   */\n      tag_128\n      jump\t// in\n    tag_181:\n        /* \"#utility.yul\":2001:2004   */\n      dup5\n        /* \"#utility.yul\":1997:2036   */\n      add\n        /* \"#utility.yul\":1990:2036   */\n      swap2\n      pop\n        /* \"#utility.yul\":1757:2042   */\n      pop\n        /* \"#utility.yul\":1665:2042   */\n      swap3\n      swap2\n      pop\n      pop\n      jump\t// out\n        /* \"#utility.yul\":2048:2166   */\n    tag_130:\n        /* \"#utility.yul\":2135:2159   */\n      tag_183\n        /* \"#utility.yul\":2153:2158   */\n      dup2\n        /* \"#utility.yul\":2135:2159   */\n      tag_122\n      jump\t// in\n    tag_183:\n        /* \"#utility.yul\":2130:2133   */\n      dup3\n        /* \"#utility.yul\":2123:2160   */\n      mstore\n        /* \"#utility.yul\":2048:2166   */\n      pop\n      pop\n      jump\t// out\n        /* \"#utility.yul\":2172:2595   */\n    tag_20:\n        /* \"#utility.yul\":2313:2317   */\n      0x00\n        /* \"#utility.yul\":2351:2353   */\n      0x40\n        /* \"#utility.yul\":2340:2349   */\n      dup3\n        /* \"#utility.yul\":2336:2354   */\n      add\n        /* \"#utility.yul\":2328:2354   */\n      swap1\n      pop\n        /* \"#utility.yul\":2400:2409   */\n      dup2\n        /* \"#utility.yul\":2394:2398   */\n      dup2\n        /* \"#utility.yul\":2390:2410   */\n      sub\n        /* \"#utility.yul\":2386:2387   */\n      0x00\n        /* \"#utility.yul\":2375:2384   */\n      dup4\n        /* \"#utility.yul\":2371:2388   */\n      add\n        /* \"#utility.yul\":2364:2411   */\n      mstore\n        /* \"#utility.yul\":2428:2506   */\n      tag_185\n        /* \"#utility.yul\":2501:2505   */\n      dup2\n        /* \"#utility.yul\":2492:2498   */\n      dup6\n        /* \"#utility.yul\":2428:2506   */\n      tag_129\n      jump\t// in\n    tag_185:\n        /* \"#utility.yul\":2420:2506   */\n      swap1\n      pop\n        /* \"#utility.yul\":2516:2588   */\n      tag_186\n        /* \"#utility.yul\":2584:2586   */\n      0x20\n        /* \"#utility.yul\":2573:2582   */\n      dup4\n        /* \"#utility.yul\":2569:2587   */\n      add\n        /* \"#utility.yul\":2560:2566   */\n      dup5\n        /* \"#utility.yul\":2516:2588   */\n      tag_130\n      jump\t// in\n    tag_186:\n        /* \"#utility.yul\":2172:2595   */\n      swap4\n      swap3\n      pop\n      pop\n      pop\n      jump\t// out\n        /* \"#utility.yul\":2601:2727   */\n    tag_131:\n        /* \"#utility.yul\":2638:2645   */\n      0x00\n        /* \"#utility.yul\":2678:2720   */\n      0xffffffffffffffffffffffffffffffffffffffff\n        /* \"#utility.yul\":2671:2676   */\n      dup3\n        /* \"#utility.yul\":2667:2721   */\n      and\n        /* \"#utility.yul\":2656:2721   */\n      swap1\n      pop\n        /* \"#utility.yul\":2601:2727   */\n      swap2\n      swap1\n      pop\n      jump\t// out\n        /* \"#utility.yul\":2733:2829   */\n    tag_132:\n        /* \"#utility.yul\":2770:2777   */\n      0x00\n        /* \"#utility.yul\":2799:2823   */\n      tag_189\n        /* \"#utility.yul\":2817:2822   */\n      dup3\n        /* \"#utility.yul\":2799:2823   */\n      tag_131\n      jump\t// in\n    tag_189:\n        /* \"#utility.yul\":2788:2823   */\n      swap1\n      pop\n        /* \"#utility.yul\":2733:2829   */\n      swap2\n      swap1\n      pop\n      jump\t// out\n        /* \"#utility.yul\":2835:2957   */\n    tag_133:\n        /* \"#utility.yul\":2908:2932   */\n      tag_191\n        /* \"#utility.yul\":2926:2931   */\n      dup2\n        /* \"#utility.yul\":2908:2932   */\n      tag_132\n      jump\t// in\n    tag_191:\n        /* \"#utility.yul\":2901:2906   */\n      dup2\n        /* \"#utility.yul\":2898:2933   */\n      eq\n        /* \"#utility.yul\":2888:2951   */\n      tag_192\n      jumpi\n        /* \"#utility.yul\":2947:2948   */\n      0x00\n        /* \"#utility.yul\":2944:2945   */\n      dup1\n        /* \"#utility.yul\":2937:2949   */\n      revert\n        /* \"#utility.yul\":2888:2951   */\n    tag_192:\n        /* \"#utility.yul\":2835:2957   */\n      pop\n      jump\t// out\n        /* \"#utility.yul\":2963:3102   */\n    tag_134:\n        /* \"#utility.yul\":3009:3014   */\n      0x00\n        /* \"#utility.yul\":3047:3053   */\n      dup2\n        /* \"#utility.yul\":3034:3054   */\n      calldataload\n        /* \"#utility.yul\":3025:3054   */\n      swap1\n      pop\n        /* \"#utility.yul\":3063:3096   */\n      tag_194\n        /* \"#utility.yul\":3090:3095   */\n      dup2\n        /* \"#utility.yul\":3063:3096   */\n      tag_133\n      jump\t// in\n    tag_194:\n        /* \"#utility.yul\":2963:3102   */\n      swap3\n      swap2\n      pop\n      pop\n      jump\t// out\n        /* \"#utility.yul\":3108:3437   */\n    tag_23:\n        /* \"#utility.yul\":3167:3173   */\n      0x00\n        /* \"#utility.yul\":3216:3218   */\n      0x20\n        /* \"#utility.yul\":3204:3213   */\n      dup3\n        /* \"#utility.yul\":3195:3202   */\n      dup5\n        /* \"#utility.yul\":3191:3214   */\n      sub\n        /* \"#utility.yul\":3187:3219   */\n      slt\n        /* \"#utility.yul\":3184:3303   */\n      iszero\n      tag_196\n      jumpi\n        /* \"#utility.yul\":3222:3301   */\n      tag_197\n      tag_120\n      jump\t// in\n    tag_197:\n        /* \"#utility.yul\":3184:3303   */\n    tag_196:\n        /* \"#utility.yul\":3342:3343   */\n      0x00\n        /* \"#utility.yul\":3367:3420   */\n      tag_198\n        /* \"#utility.yul\":3412:3419   */\n      dup5\n        /* \"#utility.yul\":3403:3409   */\n      dup3\n        /* \"#utility.yul\":3392:3401   */\n      dup6\n        /* \"#utility.yul\":3388:3410   */\n      add\n        /* \"#utility.yul\":3367:3420   */\n      tag_134\n      jump\t// in\n    tag_198:\n        /* \"#utility.yul\":3357:3420   */\n      swap2\n      pop\n        /* \"#utility.yul\":3313:3430   */\n      pop\n        /* \"#utility.yul\":3108:3437   */\n      swap3\n      swap2\n      pop\n      pop\n      jump\t// out\n        /* \"#utility.yul\":3443:3665   */\n    tag_28:\n        /* \"#utility.yul\":3536:3540   */\n      0x00\n        /* \"#utility.yul\":3574:3576   */\n      0x20\n        /* \"#utility.yul\":3563:3572   */\n      dup3\n        /* \"#utility.yul\":3559:3577   */\n      add\n        /* \"#utility.yul\":3551:3577   */\n      swap1\n      pop\n        /* \"#utility.yul\":3587:3658   */\n      tag_200\n        /* \"#utility.yul\":3655:3656   */\n      0x00\n        /* \"#utility.yul\":3644:3653   */\n      dup4\n        /* \"#utility.yul\":3640:3657   */\n      add\n        /* \"#utility.yul\":3631:3637   */\n      dup5\n        /* \"#utility.yul\":3587:3658   */\n      tag_130\n      jump\t// in\n    tag_200:\n        /* \"#utility.yul\":3443:3665   */\n      swap3\n      swap2\n      pop\n      pop\n      jump\t// out\n        /* \"#utility.yul\":3671:3789   */\n    tag_135:\n        /* \"#utility.yul\":3758:3782   */\n      tag_202\n        /* \"#utility.yul\":3776:3781   */\n      dup2\n        /* \"#utility.yul\":3758:3782   */\n      tag_132\n      jump\t// in\n    tag_202:\n        /* \"#utility.yul\":3753:3756   */\n      dup3\n        /* \"#utility.yul\":3746:3783   */\n      mstore\n        /* \"#utility.yul\":3671:3789   */\n      pop\n      pop\n      jump\t// out\n        /* \"#utility.yul\":3795:4017   */\n    tag_35:\n        /* \"#utility.yul\":3888:3892   */\n      0x00\n        /* \"#utility.yul\":3926:3928   */\n      0x20\n        /* \"#utility.yul\":3915:3924   */\n      dup3\n        /* \"#utility.yul\":3911:3929   */\n      add\n        /* \"#utility.yul\":3903:3929   */\n      swap1\n      pop\n        /* \"#utility.yul\":3939:4010   */\n      tag_204\n        /* \"#utility.yul\":4007:4008   */\n      0x00\n        /* \"#utility.yul\":3996:4005   */\n      dup4\n        /* \"#utility.yul\":3992:4009   */\n      add\n        /* \"#utility.yul\":3983:3989   */\n      dup5\n        /* \"#utility.yul\":3939:4010   */\n      tag_135\n      jump\t// in\n    tag_204:\n        /* \"#utility.yul\":3795:4017   */\n      swap3\n      swap2\n      pop\n      pop\n      jump\t// out\n        /* \"#utility.yul\":4023:4336   */\n    tag_39:\n        /* \"#utility.yul\":4136:4140   */\n      0x00\n        /* \"#utility.yul\":4174:4176   */\n      0x20\n        /* \"#utility.yul\":4163:4172   */\n      dup3\n        /* \"#utility.yul\":4159:4177   */\n      add\n        /* \"#utility.yul\":4151:4177   */\n      swap1\n      pop\n        /* \"#utility.yul\":4223:4232   */\n      dup2\n        /* \"#utility.yul\":4217:4221   */\n      dup2\n        /* \"#utility.yul\":4213:4233   */\n      sub\n        /* \"#utility.yul\":4209:4210   */\n      0x00\n        /* \"#utility.yul\":4198:4207   */\n      dup4\n        /* \"#utility.yul\":4194:4211   */\n      add\n        /* \"#utility.yul\":4187:4234   */\n      mstore\n        /* \"#utility.yul\":4251:4329   */\n      tag_206\n        /* \"#utility.yul\":4324:4328   */\n      dup2\n        /* \"#utility.yul\":4315:4321   */\n      dup5\n        /* \"#utility.yul\":4251:4329   */\n      tag_129\n      jump\t// in\n    tag_206:\n        /* \"#utility.yul\":4243:4329   */\n      swap1\n      pop\n        /* \"#utility.yul\":4023:4336   */\n      swap3\n      swap2\n      pop\n      pop\n      jump\t// out\n        /* \"#utility.yul\":4342:4432   */\n    tag_136:\n        /* \"#utility.yul\":4376:4383   */\n      0x00\n        /* \"#utility.yul\":4419:4424   */\n      dup2\n        /* \"#utility.yul\":4412:4425   */\n      iszero\n        /* \"#utility.yul\":4405:4426   */\n      iszero\n        /* \"#utility.yul\":4394:4426   */\n      swap1\n      pop\n        /* \"#utility.yul\":4342:4432   */\n      swap2\n      swap1\n      pop\n      jump\t// out\n        /* \"#utility.yul\":4438:4547   */\n    tag_137:\n        /* \"#utility.yul\":4519:4540   */\n      tag_209\n        /* \"#utility.yul\":4534:4539   */\n      dup2\n        /* \"#utility.yul\":4519:4540   */\n      tag_136\n      jump\t// in\n    tag_209:\n        /* \"#utility.yul\":4514:4517   */\n      dup3\n        /* \"#utility.yul\":4507:4541   */\n      mstore\n        /* \"#utility.yul\":4438:4547   */\n      pop\n      pop\n      jump\t// out\n        /* \"#utility.yul\":4553:5094   */\n    tag_44:\n        /* \"#utility.yul\":4724:4728   */\n      0x00\n        /* \"#utility.yul\":4762:4765   */\n      0x80\n        /* \"#utility.yul\":4751:4760   */\n      dup3\n        /* \"#utility.yul\":4747:4766   */\n      add\n        /* \"#utility.yul\":4739:4766   */\n      swap1\n      pop\n        /* \"#utility.yul\":4776:4841   */\n      tag_211\n        /* \"#utility.yul\":4838:4839   */\n      0x00\n        /* \"#utility.yul\":4827:4836   */\n      dup4\n        /* \"#utility.yul\":4823:4840   */\n      add\n        /* \"#utility.yul\":4814:4820   */\n      dup8\n        /* \"#utility.yul\":4776:4841   */\n      tag_137\n      jump\t// in\n    tag_211:\n        /* \"#utility.yul\":4851:4923   */\n      tag_212\n        /* \"#utility.yul\":4919:4921   */\n      0x20\n        /* \"#utility.yul\":4908:4917   */\n      dup4\n        /* \"#utility.yul\":4904:4922   */\n      add\n        /* \"#utility.yul\":4895:4901   */\n      dup7\n        /* \"#utility.yul\":4851:4923   */\n      tag_135\n      jump\t// in\n    tag_212:\n        /* \"#utility.yul\":4933:5005   */\n      tag_213\n        /* \"#utility.yul\":5001:5003   */\n      0x40\n        /* \"#utility.yul\":4990:4999   */\n      dup4\n        /* \"#utility.yul\":4986:5004   */\n      add\n        /* \"#utility.yul\":4977:4983   */\n      dup6\n        /* \"#utility.yul\":4933:5005   */\n      tag_130\n      jump\t// in\n    tag_213:\n        /* \"#utility.yul\":5015:5087   */\n      tag_214\n        /* \"#utility.yul\":5083:5085   */\n      0x60\n        /* \"#utility.yul\":5072:5081   */\n      dup4\n        /* \"#utility.yul\":5068:5086   */\n      add\n        /* \"#utility.yul\":5059:5065   */\n      dup5\n        /* \"#utility.yul\":5015:5087   */\n      tag_130\n      jump\t// in\n    tag_214:\n        /* \"#utility.yul\":4553:5094   */\n      swap6\n      swap5\n      pop\n      pop\n      pop\n      pop\n      pop\n      jump\t// out\n        /* \"#utility.yul\":5100:5264   */\n    tag_138:\n        /* \"#utility.yul\":5240:5256   */\n      0x416c726561647920766f74656421000000000000000000000000000000000000\n        /* \"#utility.yul\":5236:5237   */\n      0x00\n        /* \"#utility.yul\":5228:5234   */\n      dup3\n        /* \"#utility.yul\":5224:5238   */\n      add\n        /* \"#utility.yul\":5217:5257   */\n      mstore\n        /* \"#utility.yul\":5100:5264   */\n      pop\n      jump\t// out\n        /* \"#utility.yul\":5270:5636   */\n    tag_139:\n        /* \"#utility.yul\":5412:5415   */\n      0x00\n        /* \"#utility.yul\":5433:5500   */\n      tag_217\n        /* \"#utility.yul\":5497:5499   */\n      0x0e\n        /* \"#utility.yul\":5492:5495   */\n      dup4\n        /* \"#utility.yul\":5433:5500   */\n      tag_126\n      jump\t// in\n    tag_217:\n        /* \"#utility.yul\":5426:5500   */\n      swap2\n      pop\n        /* \"#utility.yul\":5509:5602   */\n      tag_218\n        /* \"#utility.yul\":5598:5601   */\n      dup3\n        /* \"#utility.yul\":5509:5602   */\n      tag_138\n      jump\t// in\n    tag_218:\n        /* \"#utility.yul\":5627:5629   */\n      0x20\n        /* \"#utility.yul\":5622:5625   */\n      dup3\n        /* \"#utility.yul\":5618:5630   */\n      add\n        /* \"#utility.yul\":5611:5630   */\n      swap1\n      pop\n        /* \"#utility.yul\":5270:5636   */\n      swap2\n      swap1\n      pop\n      jump\t// out\n        /* \"#utility.yul\":5642:6061   */\n    tag_48:\n        /* \"#utility.yul\":5808:5812   */\n      0x00\n        /* \"#utility.yul\":5846:5848   */\n      0x20\n        /* \"#utility.yul\":5835:5844   */\n      dup3\n        /* \"#utility.yul\":5831:5849   */\n      add\n        /* \"#utility.yul\":5823:5849   */\n      swap1\n      pop\n        /* \"#utility.yul\":5895:5904   */\n      dup2\n        /* \"#utility.yul\":5889:5893   */\n      dup2\n        /* \"#utility.yul\":5885:5905   */\n      sub\n        /* \"#utility.yul\":5881:5882   */\n      0x00\n        /* \"#utility.yul\":5870:5879   */\n      dup4\n        /* \"#utility.yul\":5866:5883   */\n      add\n        /* \"#utility.yul\":5859:5906   */\n      mstore\n        /* \"#utility.yul\":5923:6054   */\n      tag_220\n        /* \"#utility.yul\":6049:6053   */\n      dup2\n        /* \"#utility.yul\":5923:6054   */\n      tag_139\n      jump\t// in\n    tag_220:\n        /* \"#utility.yul\":5915:6054   */\n      swap1\n      pop\n        /* \"#utility.yul\":5642:6061   */\n      swap2\n      swap1\n      pop\n      jump\t// out\n        /* \"#utility.yul\":6067:6237   */\n    tag_140:\n        /* \"#utility.yul\":6207:6229   */\n      0x486173206e6f20726967687420746f20766f7465000000000000000000000000\n        /* \"#utility.yul\":6203:6204   */\n      0x00\n        /* \"#utility.yul\":6195:6201   */\n      dup3\n        /* \"#utility.yul\":6191:6205   */\n      add\n        /* \"#utility.yul\":6184:6230   */\n      mstore\n        /* \"#utility.yul\":6067:6237   */\n      pop\n      jump\t// out\n        /* \"#utility.yul\":6243:6609   */\n    tag_141:\n        /* \"#utility.yul\":6385:6388   */\n      0x00\n        /* \"#utility.yul\":6406:6473   */\n      tag_223\n        /* \"#utility.yul\":6470:6472   */\n      0x14\n        /* \"#utility.yul\":6465:6468   */\n      dup4\n        /* \"#utility.yul\":6406:6473   */\n      tag_126\n      jump\t// in\n    tag_223:\n        /* \"#utility.yul\":6399:6473   */\n      swap2\n      pop\n        /* \"#utility.yul\":6482:6575   */\n      tag_224\n        /* \"#utility.yul\":6571:6574   */\n      dup3\n        /* \"#utility.yul\":6482:6575   */\n      tag_140\n      jump\t// in\n    tag_224:\n        /* \"#utility.yul\":6600:6602   */\n      0x20\n        /* \"#utility.yul\":6595:6598   */\n      dup3\n        /* \"#utility.yul\":6591:6603   */\n      add\n        /* \"#utility.yul\":6584:6603   */\n      swap1\n      pop\n        /* \"#utility.yul\":6243:6609   */\n      swap2\n      swap1\n      pop\n      jump\t// out\n        /* \"#utility.yul\":6615:7034   */\n    tag_51:\n        /* \"#utility.yul\":6781:6785   */\n      0x00\n        /* \"#utility.yul\":6819:6821   */\n      0x20\n        /* \"#utility.yul\":6808:6817   */\n      dup3\n        /* \"#utility.yul\":6804:6822   */\n      add\n        /* \"#utility.yul\":6796:6822   */\n      swap1\n      pop\n        /* \"#utility.yul\":6868:6877   */\n      dup2\n        /* \"#utility.yul\":6862:6866   */\n      dup2\n        /* \"#utility.yul\":6858:6878   */\n      sub\n        /* \"#utility.yul\":6854:6855   */\n      0x00\n        /* \"#utility.yul\":6843:6852   */\n      dup4\n        /* \"#utility.yul\":6839:6856   */\n      add\n        /* \"#utility.yul\":6832:6879   */\n      mstore\n        /* \"#utility.yul\":6896:7027   */\n      tag_226\n        /* \"#utility.yul\":7022:7026   */\n      dup2\n        /* \"#utility.yul\":6896:7027   */\n      tag_141\n      jump\t// in\n    tag_226:\n        /* \"#utility.yul\":6888:7027   */\n      swap1\n      pop\n        /* \"#utility.yul\":6615:7034   */\n      swap2\n      swap1\n      pop\n      jump\t// out\n        /* \"#utility.yul\":7040:7216   */\n    tag_142:\n        /* \"#utility.yul\":7180:7208   */\n      0x5468652070726f706f73616c20646f65736e2774206578697374000000000000\n        /* \"#utility.yul\":7176:7177   */\n      0x00\n        /* \"#utility.yul\":7168:7174   */\n      dup3\n        /* \"#utility.yul\":7164:7178   */\n      add\n        /* \"#utility.yul\":7157:7209   */\n      mstore\n        /* \"#utility.yul\":7040:7216   */\n      pop\n      jump\t// out\n        /* \"#utility.yul\":7222:7588   */\n    tag_143:\n        /* \"#utility.yul\":7364:7367   */\n      0x00\n        /* \"#utility.yul\":7385:7452   */\n      tag_229\n        /* \"#utility.yul\":7449:7451   */\n      0x1a\n        /* \"#utility.yul\":7444:7447   */\n      dup4\n        /* \"#utility.yul\":7385:7452   */\n      tag_126\n      jump\t// in\n    tag_229:\n        /* \"#utility.yul\":7378:7452   */\n      swap2\n      pop\n        /* \"#utility.yul\":7461:7554   */\n      tag_230\n        /* \"#utility.yul\":7550:7553   */\n      dup3\n        /* \"#utility.yul\":7461:7554   */\n      tag_142\n      jump\t// in\n    tag_230:\n        /* \"#utility.yul\":7579:7581   */\n      0x20\n        /* \"#utility.yul\":7574:7577   */\n      dup3\n        /* \"#utility.yul\":7570:7582   */\n      add\n        /* \"#utility.yul\":7563:7582   */\n      swap1\n      pop\n        /* \"#utility.yul\":7222:7588   */\n      swap2\n      swap1\n      pop\n      jump\t// out\n        /* \"#utility.yul\":7594:8013   */\n    tag_54:\n        /* \"#utility.yul\":7760:7764   */\n      0x00\n        /* \"#utility.yul\":7798:7800   */\n      0x20\n        /* \"#utility.yul\":7787:7796   */\n      dup3\n        /* \"#utility.yul\":7783:7801   */\n      add\n        /* \"#utility.yul\":7775:7801   */\n      swap1\n      pop\n        /* \"#utility.yul\":7847:7856   */\n      dup2\n        /* \"#utility.yul\":7841:7845   */\n      dup2\n        /* \"#utility.yul\":7837:7857   */\n      sub\n        /* \"#utility.yul\":7833:7834   */\n      0x00\n        /* \"#utility.yul\":7822:7831   */\n      dup4\n        /* \"#utility.yul\":7818:7835   */\n      add\n        /* \"#utility.yul\":7811:7858   */\n      mstore\n        /* \"#utility.yul\":7875:8006   */\n      tag_232\n        /* \"#utility.yul\":8001:8005   */\n      dup2\n        /* \"#utility.yul\":7875:8006   */\n      tag_143\n      jump\t// in\n    tag_232:\n        /* \"#utility.yul\":7867:8006   */\n      swap1\n      pop\n        /* \"#utility.yul\":7594:8013   */\n      swap2\n      swap1\n      pop\n      jump\t// out\n        /* \"#utility.yul\":8019:8199   */\n    tag_57:\n        /* \"#utility.yul\":8067:8144   */\n      0x4e487b7100000000000000000000000000000000000000000000000000000000\n        /* \"#utility.yul\":8064:8065   */\n      0x00\n        /* \"#utility.yul\":8057:8145   */\n      mstore\n        /* \"#utility.yul\":8164:8168   */\n      0x32\n        /* \"#utility.yul\":8161:8162   */\n      0x04\n        /* \"#utility.yul\":8154:8169   */\n      mstore\n        /* \"#utility.yul\":8188:8192   */\n      0x24\n        /* \"#utility.yul\":8185:8186   */\n      0x00\n        /* \"#utility.yul\":8178:8193   */\n      revert\n        /* \"#utility.yul\":8205:8385   */\n    tag_144:\n        /* \"#utility.yul\":8253:8330   */\n      0x4e487b7100000000000000000000000000000000000000000000000000000000\n        /* \"#utility.yul\":8250:8251   */\n      0x00\n        /* \"#utility.yul\":8243:8331   */\n      mstore\n        /* \"#utility.yul\":8350:8354   */\n      0x11\n        /* \"#utility.yul\":8347:8348   */\n      0x04\n        /* \"#utility.yul\":8340:8355   */\n      mstore\n        /* \"#utility.yul\":8374:8378   */\n      0x24\n        /* \"#utility.yul\":8371:8372   */\n      0x00\n        /* \"#utility.yul\":8364:8379   */\n      revert\n        /* \"#utility.yul\":8391:8582   */\n    tag_60:\n        /* \"#utility.yul\":8431:8434   */\n      0x00\n        /* \"#utility.yul\":8450:8470   */\n      tag_236\n        /* \"#utility.yul\":8468:8469   */\n      dup3\n        /* \"#utility.yul\":8450:8470   */\n      tag_122\n      jump\t// in\n    tag_236:\n        /* \"#utility.yul\":8445:8470   */\n      swap2\n      pop\n        /* \"#utility.yul\":8484:8504   */\n      tag_237\n        /* \"#utility.yul\":8502:8503   */\n      dup4\n        /* \"#utility.yul\":8484:8504   */\n      tag_122\n      jump\t// in\n    tag_237:\n        /* \"#utility.yul\":8479:8504   */\n      swap3\n      pop\n        /* \"#utility.yul\":8527:8528   */\n      dup3\n        /* \"#utility.yul\":8524:8525   */\n      dup3\n        /* \"#utility.yul\":8520:8529   */\n      add\n        /* \"#utility.yul\":8513:8529   */\n      swap1\n      pop\n        /* \"#utility.yul\":8548:8551   */\n      dup1\n        /* \"#utility.yul\":8545:8546   */\n      dup3\n        /* \"#utility.yul\":8542:8552   */\n      gt\n        /* \"#utility.yul\":8539:8575   */\n      iszero\n      tag_238\n      jumpi\n        /* \"#utility.yul\":8555:8573   */\n      tag_239\n      tag_144\n      jump\t// in\n    tag_239:\n        /* \"#utility.yul\":8539:8575   */\n    tag_238:\n        /* \"#utility.yul\":8391:8582   */\n      swap3\n      swap2\n      pop\n      pop\n      jump\t// out\n        /* \"#utility.yul\":8588:8768   */\n    tag_145:\n        /* \"#utility.yul\":8636:8713   */\n      0x4e487b7100000000000000000000000000000000000000000000000000000000\n        /* \"#utility.yul\":8633:8634   */\n      0x00\n        /* \"#utility.yul\":8626:8714   */\n      mstore\n        /* \"#utility.yul\":8733:8737   */\n      0x22\n        /* \"#utility.yul\":8730:8731   */\n      0x04\n        /* \"#utility.yul\":8723:8738   */\n      mstore\n        /* \"#utility.yul\":8757:8761   */\n      0x24\n        /* \"#utility.yul\":8754:8755   */\n      0x00\n        /* \"#utility.yul\":8747:8762   */\n      revert\n        /* \"#utility.yul\":8774:9094   */\n    tag_64:\n        /* \"#utility.yul\":8818:8824   */\n      0x00\n        /* \"#utility.yul\":8855:8856   */\n      0x02\n        /* \"#utility.yul\":8849:8853   */\n      dup3\n        /* \"#utility.yul\":8845:8857   */\n      div\n        /* \"#utility.yul\":8835:8857   */\n      swap1\n      pop\n        /* \"#utility.yul\":8902:8903   */\n      0x01\n        /* \"#utility.yul\":8896:8900   */\n      dup3\n        /* \"#utility.yul\":8892:8904   */\n      and\n        /* \"#utility.yul\":8923:8941   */\n      dup1\n        /* \"#utility.yul\":8913:8994   */\n      tag_242\n      jumpi\n        /* \"#utility.yul\":8979:8983   */\n      0x7f\n        /* \"#utility.yul\":8971:8977   */\n      dup3\n        /* \"#utility.yul\":8967:8984   */\n      and\n        /* \"#utility.yul\":8957:8984   */\n      swap2\n      pop\n        /* \"#utility.yul\":8913:8994   */\n    tag_242:\n        /* \"#utility.yul\":9041:9043   */\n      0x20\n        /* \"#utility.yul\":9033:9039   */\n      dup3\n        /* \"#utility.yul\":9030:9044   */\n      lt\n        /* \"#utility.yul\":9010:9028   */\n      dup2\n        /* \"#utility.yul\":9007:9045   */\n      sub\n        /* \"#utility.yul\":9004:9088   */\n      tag_243\n      jumpi\n        /* \"#utility.yul\":9060:9078   */\n      tag_244\n      tag_145\n      jump\t// in\n    tag_244:\n        /* \"#utility.yul\":9004:9088   */\n    tag_243:\n        /* \"#utility.yul\":8825:9094   */\n      pop\n        /* \"#utility.yul\":8774:9094   */\n      swap2\n      swap1\n      pop\n      jump\t// out\n        /* \"#utility.yul\":9100:9267   */\n    tag_146:\n        /* \"#utility.yul\":9240:9259   */\n      0x596f7520616c726561647920766f746564000000000000000000000000000000\n        /* \"#utility.yul\":9236:9237   */\n      0x00\n        /* \"#utility.yul\":9228:9234   */\n      dup3\n        /* \"#utility.yul\":9224:9238   */\n      add\n        /* \"#utility.yul\":9217:9260   */\n      mstore\n        /* \"#utility.yul\":9100:9267   */\n      pop\n      jump\t// out\n        /* \"#utility.yul\":9273:9639   */\n    tag_147:\n        /* \"#utility.yul\":9415:9418   */\n      0x00\n        /* \"#utility.yul\":9436:9503   */\n      tag_247\n        /* \"#utility.yul\":9500:9502   */\n      0x11\n        /* \"#utility.yul\":9495:9498   */\n      dup4\n        /* \"#utility.yul\":9436:9503   */\n      tag_126\n      jump\t// in\n    tag_247:\n        /* \"#utility.yul\":9429:9503   */\n      swap2\n      pop\n        /* \"#utility.yul\":9512:9605   */\n      tag_248\n        /* \"#utility.yul\":9601:9604   */\n      dup3\n        /* \"#utility.yul\":9512:9605   */\n      tag_146\n      jump\t// in\n    tag_248:\n        /* \"#utility.yul\":9630:9632   */\n      0x20\n        /* \"#utility.yul\":9625:9628   */\n      dup3\n        /* \"#utility.yul\":9621:9633   */\n      add\n        /* \"#utility.yul\":9614:9633   */\n      swap1\n      pop\n        /* \"#utility.yul\":9273:9639   */\n      swap2\n      swap1\n      pop\n      jump\t// out\n        /* \"#utility.yul\":9645:10064   */\n    tag_72:\n        /* \"#utility.yul\":9811:9815   */\n      0x00\n        /* \"#utility.yul\":9849:9851   */\n      0x20\n        /* \"#utility.yul\":9838:9847   */\n      dup3\n        /* \"#utility.yul\":9834:9852   */\n      add\n        /* \"#utility.yul\":9826:9852   */\n      swap1\n      pop\n        /* \"#utility.yul\":9898:9907   */\n      dup2\n        /* \"#utility.yul\":9892:9896   */\n      dup2\n        /* \"#utility.yul\":9888:9908   */\n      sub\n        /* \"#utility.yul\":9884:9885   */\n      0x00\n        /* \"#utility.yul\":9873:9882   */\n      dup4\n        /* \"#utility.yul\":9869:9886   */\n      add\n        /* \"#utility.yul\":9862:9909   */\n      mstore\n        /* \"#utility.yul\":9926:10057   */\n      tag_250\n        /* \"#utility.yul\":10052:10056   */\n      dup2\n        /* \"#utility.yul\":9926:10057   */\n      tag_147\n      jump\t// in\n    tag_250:\n        /* \"#utility.yul\":9918:10057   */\n      swap1\n      pop\n        /* \"#utility.yul\":9645:10064   */\n      swap2\n      swap1\n      pop\n      jump\t// out\n        /* \"#utility.yul\":10070:10250   */\n    tag_148:\n        /* \"#utility.yul\":10210:10242   */\n      0x596f752063616e27742064656c656761746520746f20796f757273656c660000\n        /* \"#utility.yul\":10206:10207   */\n      0x00\n        /* \"#utility.yul\":10198:10204   */\n      dup3\n        /* \"#utility.yul\":10194:10208   */\n      add\n        /* \"#utility.yul\":10187:10243   */\n      mstore\n        /* \"#utility.yul\":10070:10250   */\n      pop\n      jump\t// out\n        /* \"#utility.yul\":10256:10622   */\n    tag_149:\n        /* \"#utility.yul\":10398:10401   */\n      0x00\n        /* \"#utility.yul\":10419:10486   */\n      tag_253\n        /* \"#utility.yul\":10483:10485   */\n      0x1e\n        /* \"#utility.yul\":10478:10481   */\n      dup4\n        /* \"#utility.yul\":10419:10486   */\n      tag_126\n      jump\t// in\n    tag_253:\n        /* \"#utility.yul\":10412:10486   */\n      swap2\n      pop\n        /* \"#utility.yul\":10495:10588   */\n      tag_254\n        /* \"#utility.yul\":10584:10587   */\n      dup3\n        /* \"#utility.yul\":10495:10588   */\n      tag_148\n      jump\t// in\n    tag_254:\n        /* \"#utility.yul\":10613:10615   */\n      0x20\n        /* \"#utility.yul\":10608:10611   */\n      dup3\n        /* \"#utility.yul\":10604:10616   */\n      add\n        /* \"#utility.yul\":10597:10616   */\n      swap1\n      pop\n        /* \"#utility.yul\":10256:10622   */\n      swap2\n      swap1\n      pop\n      jump\t// out\n        /* \"#utility.yul\":10628:11047   */\n    tag_75:\n        /* \"#utility.yul\":10794:10798   */\n      0x00\n        /* \"#utility.yul\":10832:10834   */\n      0x20\n        /* \"#utility.yul\":10821:10830   */\n      dup3\n        /* \"#utility.yul\":10817:10835   */\n      add\n        /* \"#utility.yul\":10809:10835   */\n      swap1\n      pop\n        /* \"#utility.yul\":10881:10890   */\n      dup2\n        /* \"#utility.yul\":10875:10879   */\n      dup2\n        /* \"#utility.yul\":10871:10891   */\n      sub\n        /* \"#utility.yul\":10867:10868   */\n      0x00\n        /* \"#utility.yul\":10856:10865   */\n      dup4\n        /* \"#utility.yul\":10852:10869   */\n      add\n        /* \"#utility.yul\":10845:10892   */\n      mstore\n        /* \"#utility.yul\":10909:11040   */\n      tag_256\n        /* \"#utility.yul\":11035:11039   */\n      dup2\n        /* \"#utility.yul\":10909:11040   */\n      tag_149\n      jump\t// in\n    tag_256:\n        /* \"#utility.yul\":10901:11040   */\n      swap1\n      pop\n        /* \"#utility.yul\":10628:11047   */\n      swap2\n      swap1\n      pop\n      jump\t// out\n        /* \"#utility.yul\":11053:11225   */\n    tag_150:\n        /* \"#utility.yul\":11193:11217   */\n      0x466f756e6420616e20696e66696e697465206c6f6f7000000000000000000000\n        /* \"#utility.yul\":11189:11190   */\n      0x00\n        /* \"#utility.yul\":11181:11187   */\n      dup3\n        /* \"#utility.yul\":11177:11191   */\n      add\n        /* \"#utility.yul\":11170:11218   */\n      mstore\n        /* \"#utility.yul\":11053:11225   */\n      pop\n      jump\t// out\n        /* \"#utility.yul\":11231:11597   */\n    tag_151:\n        /* \"#utility.yul\":11373:11376   */\n      0x00\n        /* \"#utility.yul\":11394:11461   */\n      tag_259\n        /* \"#utility.yul\":11458:11460   */\n      0x16\n        /* \"#utility.yul\":11453:11456   */\n      dup4\n        /* \"#utility.yul\":11394:11461   */\n      tag_126\n      jump\t// in\n    tag_259:\n        /* \"#utility.yul\":11387:11461   */\n      swap2\n      pop\n        /* \"#utility.yul\":11470:11563   */\n      tag_260\n        /* \"#utility.yul\":11559:11562   */\n      dup3\n        /* \"#utility.yul\":11470:11563   */\n      tag_150\n      jump\t// in\n    tag_260:\n        /* \"#utility.yul\":11588:11590   */\n      0x20\n        /* \"#utility.yul\":11583:11586   */\n      dup3\n        /* \"#utility.yul\":11579:11591   */\n      add\n        /* \"#utility.yul\":11572:11591   */\n      swap1\n      pop\n        /* \"#utility.yul\":11231:11597   */\n      swap2\n      swap1\n      pop\n      jump\t// out\n        /* \"#utility.yul\":11603:12022   */\n    tag_80:\n        /* \"#utility.yul\":11769:11773   */\n      0x00\n        /* \"#utility.yul\":11807:11809   */\n      0x20\n        /* \"#utility.yul\":11796:11805   */\n      dup3\n        /* \"#utility.yul\":11792:11810   */\n      add\n        /* \"#utility.yul\":11784:11810   */\n      swap1\n      pop\n        /* \"#utility.yul\":11856:11865   */\n      dup2\n        /* \"#utility.yul\":11850:11854   */\n      dup2\n        /* \"#utility.yul\":11846:11866   */\n      sub\n        /* \"#utility.yul\":11842:11843   */\n      0x00\n        /* \"#utility.yul\":11831:11840   */\n      dup4\n        /* \"#utility.yul\":11827:11844   */\n      add\n        /* \"#utility.yul\":11820:11867   */\n      mstore\n        /* \"#utility.yul\":11884:12015   */\n      tag_262\n        /* \"#utility.yul\":12010:12014   */\n      dup2\n        /* \"#utility.yul\":11884:12015   */\n      tag_151\n      jump\t// in\n    tag_262:\n        /* \"#utility.yul\":11876:12015   */\n      swap1\n      pop\n        /* \"#utility.yul\":11603:12022   */\n      swap2\n      swap1\n      pop\n      jump\t// out\n        /* \"#utility.yul\":12028:12261   */\n    tag_100:\n        /* \"#utility.yul\":12067:12070   */\n      0x00\n        /* \"#utility.yul\":12090:12114   */\n      tag_264\n        /* \"#utility.yul\":12108:12113   */\n      dup3\n        /* \"#utility.yul\":12090:12114   */\n      tag_122\n      jump\t// in\n    tag_264:\n        /* \"#utility.yul\":12081:12114   */\n      swap2\n      pop\n        /* \"#utility.yul\":12136:12202   */\n      0xffffffffffffffffffffffffffffffffffffffffffffffffffffffffffffffff\n        /* \"#utility.yul\":12129:12134   */\n      dup3\n        /* \"#utility.yul\":12126:12203   */\n      sub\n        /* \"#utility.yul\":12123:12226   */\n      tag_265\n      jumpi\n        /* \"#utility.yul\":12206:12224   */\n      tag_266\n      tag_144\n      jump\t// in\n    tag_266:\n        /* \"#utility.yul\":12123:12226   */\n    tag_265:\n        /* \"#utility.yul\":12253:12254   */\n      0x01\n        /* \"#utility.yul\":12246:12251   */\n      dup3\n        /* \"#utility.yul\":12242:12255   */\n      add\n        /* \"#utility.yul\":12235:12255   */\n      swap1\n      pop\n        /* \"#utility.yul\":12028:12261   */\n      swap2\n      swap1\n      pop\n      jump\t// out\n        /* \"#utility.yul\":12267:12500   */\n    tag_152:\n        /* \"#utility.yul\":12407:12441   */\n      0x4f6e6c79207468652063686169726d616e2063616e2067697665207468652061\n        /* \"#utility.yul\":12403:12404   */\n      0x00\n        /* \"#utility.yul\":12395:12401   */\n      dup3\n        /* \"#utility.yul\":12391:12405   */\n      add\n        /* \"#utility.yul\":12384:12442   */\n      mstore\n        /* \"#utility.yul\":12476:12492   */\n      0x62696c69747920746f20766f7465000000000000000000000000000000000000\n        /* \"#utility.yul\":12471:12473   */\n      0x20\n        /* \"#utility.yul\":12463:12469   */\n      dup3\n        /* \"#utility.yul\":12459:12474   */\n      add\n        /* \"#utility.yul\":12452:12493   */\n      mstore\n        /* \"#utility.yul\":12267:12500   */\n      pop\n      jump\t// out\n        /* \"#utility.yul\":12506:12872   */\n    tag_153:\n        /* \"#utility.yul\":12648:12651   */\n      0x00\n        /* \"#utility.yul\":12669:12736   */\n      tag_269\n        /* \"#utility.yul\":12733:12735   */\n      0x2e\n        /* \"#utility.yul\":12728:12731   */\n      dup4\n        /* \"#utility.yul\":12669:12736   */\n      tag_126\n      jump\t// in\n    tag_269:\n        /* \"#utility.yul\":12662:12736   */\n      swap2\n      pop\n        /* \"#utility.yul\":12745:12838   */\n      tag_270\n        /* \"#utility.yul\":12834:12837   */\n      dup3\n        /* \"#utility.yul\":12745:12838   */\n      tag_152\n      jump\t// in\n    tag_270:\n        /* \"#utility.yul\":12863:12865   */\n      0x40\n        /* \"#utility.yul\":12858:12861   */\n      dup3\n        /* \"#utility.yul\":12854:12866   */\n      add\n        /* \"#utility.yul\":12847:12866   */\n      swap1\n      pop\n        /* \"#utility.yul\":12506:12872   */\n      swap2\n      swap1\n      pop\n      jump\t// out\n        /* \"#utility.yul\":12878:13297   */\n    tag_104:\n        /* \"#utility.yul\":13044:13048   */\n      0x00\n        /* \"#utility.yul\":13082:13084   */\n      0x20\n        /* \"#utility.yul\":13071:13080   */\n      dup3\n        /* \"#utility.yul\":13067:13085   */\n      add\n        /* \"#utility.yul\":13059:13085   */\n      swap1\n      pop\n        /* \"#utility.yul\":13131:13140   */\n      dup2\n        /* \"#utility.yul\":13125:13129   */\n      dup2\n        /* \"#utility.yul\":13121:13141   */\n      sub\n        /* \"#utility.yul\":13117:13118   */\n      0x00\n        /* \"#utility.yul\":13106:13115   */\n      dup4\n        /* \"#utility.yul\":13102:13119   */\n      add\n        /* \"#utility.yul\":13095:13142   */\n      mstore\n        /* \"#utility.yul\":13159:13290   */\n      tag_272\n        /* \"#utility.yul\":13285:13289   */\n      dup2\n        /* \"#utility.yul\":13159:13290   */\n      tag_153\n      jump\t// in\n    tag_272:\n        /* \"#utility.yul\":13151:13290   */\n      swap1\n      pop\n        /* \"#utility.yul\":12878:13297   */\n      swap2\n      swap1\n      pop\n      jump\t// out\n        /* \"#utility.yul\":13303:13476   */\n    tag_154:\n        /* \"#utility.yul\":13443:13468   */\n      0x54686520766f74657220616c726561647920766f746564000000000000000000\n        /* \"#utility.yul\":13439:13440   */\n      0x00\n        /* \"#utility.yul\":13431:13437   */\n      dup3\n        /* \"#utility.yul\":13427:13441   */\n      add\n        /* \"#utility.yul\":13420:13469   */\n      mstore\n        /* \"#utility.yul\":13303:13476   */\n      pop\n      jump\t// out\n        /* \"#utility.yul\":13482:13848   */\n    tag_155:\n        /* \"#utility.yul\":13624:13627   */\n      0x00\n        /* \"#utility.yul\":13645:13712   */\n      tag_275\n        /* \"#utility.yul\":13709:13711   */\n      0x17\n        /* \"#utility.yul\":13704:13707   */\n      dup4\n        /* \"#utility.yul\":13645:13712   */\n      tag_126\n      jump\t// in\n    tag_275:\n        /* \"#utility.yul\":13638:13712   */\n      swap2\n      pop\n        /* \"#utility.yul\":13721:13814   */\n      tag_276\n        /* \"#utility.yul\":13810:13813   */\n      dup3\n        /* \"#utility.yul\":13721:13814   */\n      tag_154\n      jump\t// in\n    tag_276:\n        /* \"#utility.yul\":13839:13841   */\n      0x20\n        /* \"#utility.yul\":13834:13837   */\n      dup3\n        /* \"#utility.yul\":13830:13842   */\n      add\n        /* \"#utility.yul\":13823:13842   */\n      swap1\n      pop\n        /* \"#utility.yul\":13482:13848   */\n      swap2\n      swap1\n      pop\n      jump\t// out\n        /* \"#utility.yul\":13854:14273   */\n    tag_107:\n        /* \"#utility.yul\":14020:14024   */\n      0x00\n        /* \"#utility.yul\":14058:14060   */\n      0x20\n        /* \"#utility.yul\":14047:14056   */\n      dup3\n        /* \"#utility.yul\":14043:14061   */\n      add\n        /* \"#utility.yul\":14035:14061   */\n      swap1\n      pop\n        /* \"#utility.yul\":14107:14116   */\n      dup2\n        /* \"#utility.yul\":14101:14105   */\n      dup2\n        /* \"#utility.yul\":14097:14117   */\n      sub\n        /* \"#utility.yul\":14093:14094   */\n      0x00\n        /* \"#utility.yul\":14082:14091   */\n      dup4\n        /* \"#utility.yul\":14078:14095   */\n      add\n        /* \"#utility.yul\":14071:14118   */\n      mstore\n        /* \"#utility.yul\":14135:14266   */\n      tag_278\n        /* \"#utility.yul\":14261:14265   */\n      dup2\n        /* \"#utility.yul\":14135:14266   */\n      tag_155\n      jump\t// in\n    tag_278:\n        /* \"#utility.yul\":14127:14266   */\n      swap1\n      pop\n        /* \"#utility.yul\":13854:14273   */\n      swap2\n      swap1\n      pop\n      jump\t// out\n\n    auxdata: 0xa2646970667358221220b043c6ace91db1859ece3b9a8336a27002416e8ccd58d5aa6ebc4c067804136964736f6c63430008140033\n}\n",
				"bytecode": {
					"linkReferences": {},
					"object": "608060405234801562000010575f80fd5b50604051620019a3380380620019a3833981810160405281019062000036919062000398565b335f806101000a81548173ffffffffffffffffffffffffffffffffffffffff021916908373ffffffffffffffffffffffffffffffffffffffff1602179055505f5b8151811015620001135760016040518060400160405280848481518110620000a457620000a3620003e7565b5b602002602001015181526020015f815250908060018154018082558091505060019003905f5260205f2090600202015f909190919091505f820151815f019081620000f091906200064b565b5060208201518160010155505080806200010a906200075c565b91505062000077565b5050620007a8565b5f604051905090565b5f80fd5b5f80fd5b5f80fd5b5f601f19601f8301169050919050565b7f4e487b71000000000000000000000000000000000000000000000000000000005f52604160045260245ffd5b620001788262000130565b810181811067ffffffffffffffff821117156200019a576200019962000140565b5b80604052505050565b5f620001ae6200011b565b9050620001bc82826200016d565b919050565b5f67ffffffffffffffff821115620001de57620001dd62000140565b5b602082029050602081019050919050565b5f80fd5b5f80fd5b5f67ffffffffffffffff82111562000214576200021362000140565b5b6200021f8262000130565b9050602081019050919050565b5f5b838110156200024b5780820151818401526020810190506200022e565b5f8484015250505050565b5f6200026c6200026684620001f7565b620001a3565b9050828152602081018484840111156200028b576200028a620001f3565b5b620002988482856200022c565b509392505050565b5f82601f830112620002b757620002b66200012c565b5b8151620002c984826020860162000256565b91505092915050565b5f620002e8620002e284620001c1565b620001a3565b905080838252602082019050602084028301858111156200030e576200030d620001ef565b5b835b818110156200035c57805167ffffffffffffffff8111156200033757620003366200012c565b5b808601620003468982620002a0565b8552602085019450505060208101905062000310565b5050509392505050565b5f82601f8301126200037d576200037c6200012c565b5b81516200038f848260208601620002d2565b91505092915050565b5f60208284031215620003b057620003af62000124565b5b5f82015167ffffffffffffffff811115620003d057620003cf62000128565b5b620003de8482850162000366565b91505092915050565b7f4e487b71000000000000000000000000000000000000000000000000000000005f52603260045260245ffd5b5f81519050919050565b7f4e487b71000000000000000000000000000000000000000000000000000000005f52602260045260245ffd5b5f60028204905060018216806200046357607f821691505b6020821081036200047957620004786200041e565b5b50919050565b5f819050815f5260205f209050919050565b5f6020601f8301049050919050565b5f82821b905092915050565b5f60088302620004dd7fffffffffffffffffffffffffffffffffffffffffffffffffffffffffffffffff82620004a0565b620004e98683620004a0565b95508019841693508086168417925050509392505050565b5f819050919050565b5f819050919050565b5f620005336200052d620005278462000501565b6200050a565b62000501565b9050919050565b5f819050919050565b6200054e8362000513565b620005666200055d826200053a565b848454620004ac565b825550505050565b5f90565b6200057c6200056e565b6200058981848462000543565b505050565b5b81811015620005b057620005a45f8262000572565b6001810190506200058f565b5050565b601f821115620005ff57620005c9816200047f565b620005d48462000491565b81016020851015620005e4578190505b620005fc620005f38562000491565b8301826200058e565b50505b505050565b5f82821c905092915050565b5f620006215f198460080262000604565b1980831691505092915050565b5f6200063b838362000610565b9150826002028217905092915050565b620006568262000414565b67ffffffffffffffff81111562000672576200067162000140565b5b6200067e82546200044b565b6200068b828285620005b4565b5f60209050601f831160018114620006c1575f8415620006ac578287015190505b620006b885826200062e565b86555062000727565b601f198416620006d1866200047f565b5f5b82811015620006fa57848901518255600182019150602085019450602081019050620006d3565b868310156200071a578489015162000716601f89168262000610565b8355505b6001600288020188555050505b505050505050565b7f4e487b71000000000000000000000000000000000000000000000000000000005f52601160045260245ffd5b5f620007688262000501565b91507fffffffffffffffffffffffffffffffffffffffffffffffffffffffffffffffff82036200079d576200079c6200072f565b5b600182019050919050565b6111ed80620007b65f395ff3fe608060405234801561000f575f80fd5b5060043610610086575f3560e01c806374aeb9d31161005957806374aeb9d31461011157806387f7b9751461012d578063a0f2c2911461014b578063a3ec138d1461016957610086565b80630121b93f1461008a578063013cf08b146100a65780635c19a95c146100d7578063609ff1bd146100f3575b5f80fd5b6100a4600480360381019061009f9190610aeb565b61019c565b005b6100c060048036038101906100bb9190610aeb565b61031e565b6040516100ce929190610baf565b60405180910390f35b6100f160048036038101906100ec9190610c37565b6103d3565b005b6100fb610755565b6040516101089190610c62565b60405180910390f35b61012b60048036038101906101269190610c37565b6107d6565b005b610135610983565b6040516101429190610c8a565b60405180910390f35b6101536109a6565b6040516101609190610ca3565b60405180910390f35b610183600480360381019061017e9190610c37565b610a5d565b6040516101939493929190610cdd565b60405180910390f35b5f60025f3373ffffffffffffffffffffffffffffffffffffffff1673ffffffffffffffffffffffffffffffffffffffff1681526020019081526020015f209050805f015f9054906101000a900460ff161561022c576040517f08c379a000000000000000000000000000000000000000000000000000000000815260040161022390610d6a565b60405180910390fd5b5f816001015411610272576040517f08c379a000000000000000000000000000000000000000000000000000000000815260040161026990610dd2565b60405180910390fd5b60018054905082106102b9576040517f08c379a00000000000000000000000000000000000000000000000000000000081526004016102b090610e3a565b60405180910390fd5b6001815f015f6101000a81548160ff0219169083151502179055508181600201819055508060010154600183815481106102f6576102f5610e58565b5b905f5260205f2090600202016001015f8282546103139190610eb2565b925050819055505050565b6001818154811061032d575f80fd5b905f5260205f2090600202015f91509050805f01805461034c90610f12565b80601f016020809104026020016040519081016040528092919081815260200182805461037890610f12565b80156103c35780601f1061039a576101008083540402835291602001916103c3565b820191905f5260205f20905b8154815290600101906020018083116103a657829003601f168201915b5050505050908060010154905082565b5f60025f3373ffffffffffffffffffffffffffffffffffffffff1673ffffffffffffffffffffffffffffffffffffffff1681526020019081526020015f209050805f015f9054906101000a900460ff1615610463576040517f08c379a000000000000000000000000000000000000000000000000000000000815260040161045a90610f8c565b60405180910390fd5b3373ffffffffffffffffffffffffffffffffffffffff168273ffffffffffffffffffffffffffffffffffffffff16036104d1576040517f08c379a00000000000000000000000000000000000000000000000000000000081526004016104c890610ff4565b60405180910390fd5b5b5f73ffffffffffffffffffffffffffffffffffffffff1660025f8473ffffffffffffffffffffffffffffffffffffffff1673ffffffffffffffffffffffffffffffffffffffff1681526020019081526020015f205f0160019054906101000a900473ffffffffffffffffffffffffffffffffffffffff1673ffffffffffffffffffffffffffffffffffffffff16146106395760025f8373ffffffffffffffffffffffffffffffffffffffff1673ffffffffffffffffffffffffffffffffffffffff1681526020019081526020015f205f0160019054906101000a900473ffffffffffffffffffffffffffffffffffffffff1691503373ffffffffffffffffffffffffffffffffffffffff168273ffffffffffffffffffffffffffffffffffffffff1603610634576040517f08c379a000000000000000000000000000000000000000000000000000000000815260040161062b9061105c565b60405180910390fd5b6104d2565b6001815f015f6101000a81548160ff02191690831515021790555081815f0160016101000a81548173ffffffffffffffffffffffffffffffffffffffff021916908373ffffffffffffffffffffffffffffffffffffffff1602179055505f60025f8473ffffffffffffffffffffffffffffffffffffffff1673ffffffffffffffffffffffffffffffffffffffff1681526020019081526020015f209050805f015f9054906101000a900460ff1615610731578160010154600182600201548154811061070857610707610e58565b5b905f5260205f2090600202016001015f8282546107259190610eb2565b92505081905550610750565b8160010154816001015f8282546107489190610eb2565b925050819055505b505050565b5f805f90505f5b6001805490508110156107d157816001828154811061077e5761077d610e58565b5b905f5260205f2090600202016001015411156107be57600181815481106107a8576107a7610e58565b5b905f5260205f2090600202016001015491508092505b80806107c99061107a565b91505061075c565b505090565b5f8054906101000a900473ffffffffffffffffffffffffffffffffffffffff1673ffffffffffffffffffffffffffffffffffffffff163373ffffffffffffffffffffffffffffffffffffffff1614610863576040517f08c379a000000000000000000000000000000000000000000000000000000000815260040161085a90611131565b60405180910390fd5b60025f8273ffffffffffffffffffffffffffffffffffffffff1673ffffffffffffffffffffffffffffffffffffffff1681526020019081526020015f205f015f9054906101000a900460ff16156108ef576040517f08c379a00000000000000000000000000000000000000000000000000000000081526004016108e690611199565b60405180910390fd5b5f60025f8373ffffffffffffffffffffffffffffffffffffffff1673ffffffffffffffffffffffffffffffffffffffff1681526020019081526020015f20600101541461093a575f80fd5b600160025f8373ffffffffffffffffffffffffffffffffffffffff1673ffffffffffffffffffffffffffffffffffffffff1681526020019081526020015f206001018190555050565b5f8054906101000a900473ffffffffffffffffffffffffffffffffffffffff1681565b606060016109b2610755565b815481106109c3576109c2610e58565b5b905f5260205f2090600202015f0180546109dc90610f12565b80601f0160208091040260200160405190810160405280929190818152602001828054610a0890610f12565b8015610a535780601f10610a2a57610100808354040283529160200191610a53565b820191905f5260205f20905b815481529060010190602001808311610a3657829003601f168201915b5050505050905090565b6002602052805f5260405f205f91509050805f015f9054906101000a900460ff1690805f0160019054906101000a900473ffffffffffffffffffffffffffffffffffffffff16908060010154908060020154905084565b5f80fd5b5f819050919050565b610aca81610ab8565b8114610ad4575f80fd5b50565b5f81359050610ae581610ac1565b92915050565b5f60208284031215610b0057610aff610ab4565b5b5f610b0d84828501610ad7565b91505092915050565b5f81519050919050565b5f82825260208201905092915050565b5f5b83811015610b4d578082015181840152602081019050610b32565b5f8484015250505050565b5f601f19601f8301169050919050565b5f610b7282610b16565b610b7c8185610b20565b9350610b8c818560208601610b30565b610b9581610b58565b840191505092915050565b610ba981610ab8565b82525050565b5f6040820190508181035f830152610bc78185610b68565b9050610bd66020830184610ba0565b9392505050565b5f73ffffffffffffffffffffffffffffffffffffffff82169050919050565b5f610c0682610bdd565b9050919050565b610c1681610bfc565b8114610c20575f80fd5b50565b5f81359050610c3181610c0d565b92915050565b5f60208284031215610c4c57610c4b610ab4565b5b5f610c5984828501610c23565b91505092915050565b5f602082019050610c755f830184610ba0565b92915050565b610c8481610bfc565b82525050565b5f602082019050610c9d5f830184610c7b565b92915050565b5f6020820190508181035f830152610cbb8184610b68565b905092915050565b5f8115159050919050565b610cd781610cc3565b82525050565b5f608082019050610cf05f830187610cce565b610cfd6020830186610c7b565b610d0a6040830185610ba0565b610d176060830184610ba0565b95945050505050565b7f416c726561647920766f746564210000000000000000000000000000000000005f82015250565b5f610d54600e83610b20565b9150610d5f82610d20565b602082019050919050565b5f6020820190508181035f830152610d8181610d48565b9050919050565b7f486173206e6f20726967687420746f20766f74650000000000000000000000005f82015250565b5f610dbc601483610b20565b9150610dc782610d88565b602082019050919050565b5f6020820190508181035f830152610de981610db0565b9050919050565b7f5468652070726f706f73616c20646f65736e27742065786973740000000000005f82015250565b5f610e24601a83610b20565b9150610e2f82610df0565b602082019050919050565b5f6020820190508181035f830152610e5181610e18565b9050919050565b7f4e487b71000000000000000000000000000000000000000000000000000000005f52603260045260245ffd5b7f4e487b71000000000000000000000000000000000000000000000000000000005f52601160045260245ffd5b5f610ebc82610ab8565b9150610ec783610ab8565b9250828201905080821115610edf57610ede610e85565b5b92915050565b7f4e487b71000000000000000000000000000000000000000000000000000000005f52602260045260245ffd5b5f6002820490506001821680610f2957607f821691505b602082108103610f3c57610f3b610ee5565b5b50919050565b7f596f7520616c726561647920766f7465640000000000000000000000000000005f82015250565b5f610f76601183610b20565b9150610f8182610f42565b602082019050919050565b5f6020820190508181035f830152610fa381610f6a565b9050919050565b7f596f752063616e27742064656c656761746520746f20796f757273656c6600005f82015250565b5f610fde601e83610b20565b9150610fe982610faa565b602082019050919050565b5f6020820190508181035f83015261100b81610fd2565b9050919050565b7f466f756e6420616e20696e66696e697465206c6f6f70000000000000000000005f82015250565b5f611046601683610b20565b915061105182611012565b602082019050919050565b5f6020820190508181035f8301526110738161103a565b9050919050565b5f61108482610ab8565b91507fffffffffffffffffffffffffffffffffffffffffffffffffffffffffffffffff82036110b6576110b5610e85565b5b600182019050919050565b7f4f6e6c79207468652063686169726d616e2063616e20676976652074686520615f8201527f62696c69747920746f20766f7465000000000000000000000000000000000000602082015250565b5f61111b602e83610b20565b9150611126826110c1565b604082019050919050565b5f6020820190508181035f8301526111488161110f565b9050919050565b7f54686520766f74657220616c726561647920766f7465640000000000000000005f82015250565b5f611183601783610b20565b915061118e8261114f565b602082019050919050565b5f6020820190508181035f8301526111b081611177565b905091905056fea2646970667358221220b043c6ace91db1859ece3b9a8336a27002416e8ccd58d5aa6ebc4c067804136964736f6c63430008140033",
					"opcodes": "PUSH1 0x80 PUSH1 0x40 MSTORE CALLVALUE DUP1 ISZERO PUSH3 0x10 JUMPI PUSH0 DUP1 REVERT JUMPDEST POP PUSH1 0x40 MLOAD PUSH3 0x19A3 CODESIZE SUB DUP1 PUSH3 0x19A3 DUP4 CODECOPY DUP2 DUP2 ADD PUSH1 0x40 MSTORE DUP2 ADD SWAP1 PUSH3 0x36 SWAP2 SWAP1 PUSH3 0x398 JUMP JUMPDEST CALLER PUSH0 DUP1 PUSH2 0x100 EXP DUP2 SLOAD DUP2 PUSH20 0xFFFFFFFFFFFFFFFFFFFFFFFFFFFFFFFFFFFFFFFF MUL NOT AND SWAP1 DUP4 PUSH20 0xFFFFFFFFFFFFFFFFFFFFFFFFFFFFFFFFFFFFFFFF AND MUL OR SWAP1 SSTORE POP PUSH0 JUMPDEST DUP2 MLOAD DUP2 LT ISZERO PUSH3 0x113 JUMPI PUSH1 0x1 PUSH1 0x40 MLOAD DUP1 PUSH1 0x40 ADD PUSH1 0x40 MSTORE DUP1 DUP5 DUP5 DUP2 MLOAD DUP2 LT PUSH3 0xA4 JUMPI PUSH3 0xA3 PUSH3 0x3E7 JUMP JUMPDEST JUMPDEST PUSH1 0x20 MUL PUSH1 0x20 ADD ADD MLOAD DUP2 MSTORE PUSH1 0x20 ADD PUSH0 DUP2 MSTORE POP SWAP1 DUP1 PUSH1 0x1 DUP2 SLOAD ADD DUP1 DUP3 SSTORE DUP1 SWAP2 POP POP PUSH1 0x1 SWAP1 SUB SWAP1 PUSH0 MSTORE PUSH1 0x20 PUSH0 KECCAK256 SWAP1 PUSH1 0x2 MUL ADD PUSH0 SWAP1 SWAP2 SWAP1 SWAP2 SWAP1 SWAP2 POP PUSH0 DUP3 ADD MLOAD DUP2 PUSH0 ADD SWAP1 DUP2 PUSH3 0xF0 SWAP2 SWAP1 PUSH3 0x64B JUMP JUMPDEST POP PUSH1 0x20 DUP3 ADD MLOAD DUP2 PUSH1 0x1 ADD SSTORE POP POP DUP1 DUP1 PUSH3 0x10A SWAP1 PUSH3 0x75C JUMP JUMPDEST SWAP2 POP POP PUSH3 0x77 JUMP JUMPDEST POP POP PUSH3 0x7A8 JUMP JUMPDEST PUSH0 PUSH1 0x40 MLOAD SWAP1 POP SWAP1 JUMP JUMPDEST PUSH0 DUP1 REVERT JUMPDEST PUSH0 DUP1 REVERT JUMPDEST PUSH0 DUP1 REVERT JUMPDEST PUSH0 PUSH1 0x1F NOT PUSH1 0x1F DUP4 ADD AND SWAP1 POP SWAP2 SWAP1 POP JUMP JUMPDEST PUSH32 0x4E487B7100000000000000000000000000000000000000000000000000000000 PUSH0 MSTORE PUSH1 0x41 PUSH1 0x4 MSTORE PUSH1 0x24 PUSH0 REVERT JUMPDEST PUSH3 0x178 DUP3 PUSH3 0x130 JUMP JUMPDEST DUP2 ADD DUP2 DUP2 LT PUSH8 0xFFFFFFFFFFFFFFFF DUP3 GT OR ISZERO PUSH3 0x19A JUMPI PUSH3 0x199 PUSH3 0x140 JUMP JUMPDEST JUMPDEST DUP1 PUSH1 0x40 MSTORE POP POP POP JUMP JUMPDEST PUSH0 PUSH3 0x1AE PUSH3 0x11B JUMP JUMPDEST SWAP1 POP PUSH3 0x1BC DUP3 DUP3 PUSH3 0x16D JUMP JUMPDEST SWAP2 SWAP1 POP JUMP JUMPDEST PUSH0 PUSH8 0xFFFFFFFFFFFFFFFF DUP3 GT ISZERO PUSH3 0x1DE JUMPI PUSH3 0x1DD PUSH3 0x140 JUMP JUMPDEST JUMPDEST PUSH1 0x20 DUP3 MUL SWAP1 POP PUSH1 0x20 DUP2 ADD SWAP1 POP SWAP2 SWAP1 POP JUMP JUMPDEST PUSH0 DUP1 REVERT JUMPDEST PUSH0 DUP1 REVERT JUMPDEST PUSH0 PUSH8 0xFFFFFFFFFFFFFFFF DUP3 GT ISZERO PUSH3 0x214 JUMPI PUSH3 0x213 PUSH3 0x140 JUMP JUMPDEST JUMPDEST PUSH3 0x21F DUP3 PUSH3 0x130 JUMP JUMPDEST SWAP1 POP PUSH1 0x20 DUP2 ADD SWAP1 POP SWAP2 SWAP1 POP JUMP JUMPDEST PUSH0 JUMPDEST DUP4 DUP2 LT ISZERO PUSH3 0x24B JUMPI DUP1 DUP3 ADD MLOAD DUP2 DUP5 ADD MSTORE PUSH1 0x20 DUP2 ADD SWAP1 POP PUSH3 0x22E JUMP JUMPDEST PUSH0 DUP5 DUP5 ADD MSTORE POP POP POP POP JUMP JUMPDEST PUSH0 PUSH3 0x26C PUSH3 0x266 DUP5 PUSH3 0x1F7 JUMP JUMPDEST PUSH3 0x1A3 JUMP JUMPDEST SWAP1 POP DUP3 DUP2 MSTORE PUSH1 0x20 DUP2 ADD DUP5 DUP5 DUP5 ADD GT ISZERO PUSH3 0x28B JUMPI PUSH3 0x28A PUSH3 0x1F3 JUMP JUMPDEST JUMPDEST PUSH3 0x298 DUP5 DUP3 DUP6 PUSH3 0x22C JUMP JUMPDEST POP SWAP4 SWAP3 POP POP POP JUMP JUMPDEST PUSH0 DUP3 PUSH1 0x1F DUP4 ADD SLT PUSH3 0x2B7 JUMPI PUSH3 0x2B6 PUSH3 0x12C JUMP JUMPDEST JUMPDEST DUP2 MLOAD PUSH3 0x2C9 DUP5 DUP3 PUSH1 0x20 DUP7 ADD PUSH3 0x256 JUMP JUMPDEST SWAP2 POP POP SWAP3 SWAP2 POP POP JUMP JUMPDEST PUSH0 PUSH3 0x2E8 PUSH3 0x2E2 DUP5 PUSH3 0x1C1 JUMP JUMPDEST PUSH3 0x1A3 JUMP JUMPDEST SWAP1 POP DUP1 DUP4 DUP3 MSTORE PUSH1 0x20 DUP3 ADD SWAP1 POP PUSH1 0x20 DUP5 MUL DUP4 ADD DUP6 DUP2 GT ISZERO PUSH3 0x30E JUMPI PUSH3 0x30D PUSH3 0x1EF JUMP JUMPDEST JUMPDEST DUP4 JUMPDEST DUP2 DUP2 LT ISZERO PUSH3 0x35C JUMPI DUP1 MLOAD PUSH8 0xFFFFFFFFFFFFFFFF DUP2 GT ISZERO PUSH3 0x337 JUMPI PUSH3 0x336 PUSH3 0x12C JUMP JUMPDEST JUMPDEST DUP1 DUP7 ADD PUSH3 0x346 DUP10 DUP3 PUSH3 0x2A0 JUMP JUMPDEST DUP6 MSTORE PUSH1 0x20 DUP6 ADD SWAP5 POP POP POP PUSH1 0x20 DUP2 ADD SWAP1 POP PUSH3 0x310 JUMP JUMPDEST POP POP POP SWAP4 SWAP3 POP POP POP JUMP JUMPDEST PUSH0 DUP3 PUSH1 0x1F DUP4 ADD SLT PUSH3 0x37D JUMPI PUSH3 0x37C PUSH3 0x12C JUMP JUMPDEST JUMPDEST DUP2 MLOAD PUSH3 0x38F DUP5 DUP3 PUSH1 0x20 DUP7 ADD PUSH3 0x2D2 JUMP JUMPDEST SWAP2 POP POP SWAP3 SWAP2 POP POP JUMP JUMPDEST PUSH0 PUSH1 0x20 DUP3 DUP5 SUB SLT ISZERO PUSH3 0x3B0 JUMPI PUSH3 0x3AF PUSH3 0x124 JUMP JUMPDEST JUMPDEST PUSH0 DUP3 ADD MLOAD PUSH8 0xFFFFFFFFFFFFFFFF DUP2 GT ISZERO PUSH3 0x3D0 JUMPI PUSH3 0x3CF PUSH3 0x128 JUMP JUMPDEST JUMPDEST PUSH3 0x3DE DUP5 DUP3 DUP6 ADD PUSH3 0x366 JUMP JUMPDEST SWAP2 POP POP SWAP3 SWAP2 POP POP JUMP JUMPDEST PUSH32 0x4E487B7100000000000000000000000000000000000000000000000000000000 PUSH0 MSTORE PUSH1 0x32 PUSH1 0x4 MSTORE PUSH1 0x24 PUSH0 REVERT JUMPDEST PUSH0 DUP2 MLOAD SWAP1 POP SWAP2 SWAP1 POP JUMP JUMPDEST PUSH32 0x4E487B7100000000000000000000000000000000000000000000000000000000 PUSH0 MSTORE PUSH1 0x22 PUSH1 0x4 MSTORE PUSH1 0x24 PUSH0 REVERT JUMPDEST PUSH0 PUSH1 0x2 DUP3 DIV SWAP1 POP PUSH1 0x1 DUP3 AND DUP1 PUSH3 0x463 JUMPI PUSH1 0x7F DUP3 AND SWAP2 POP JUMPDEST PUSH1 0x20 DUP3 LT DUP2 SUB PUSH3 0x479 JUMPI PUSH3 0x478 PUSH3 0x41E JUMP JUMPDEST JUMPDEST POP SWAP2 SWAP1 POP JUMP JUMPDEST PUSH0 DUP2 SWAP1 POP DUP2 PUSH0 MSTORE PUSH1 0x20 PUSH0 KECCAK256 SWAP1 POP SWAP2 SWAP1 POP JUMP JUMPDEST PUSH0 PUSH1 0x20 PUSH1 0x1F DUP4 ADD DIV SWAP1 POP SWAP2 SWAP1 POP JUMP JUMPDEST PUSH0 DUP3 DUP3 SHL SWAP1 POP SWAP3 SWAP2 POP POP JUMP JUMPDEST PUSH0 PUSH1 0x8 DUP4 MUL PUSH3 0x4DD PUSH32 0xFFFFFFFFFFFFFFFFFFFFFFFFFFFFFFFFFFFFFFFFFFFFFFFFFFFFFFFFFFFFFFFF DUP3 PUSH3 0x4A0 JUMP JUMPDEST PUSH3 0x4E9 DUP7 DUP4 PUSH3 0x4A0 JUMP JUMPDEST SWAP6 POP DUP1 NOT DUP5 AND SWAP4 POP DUP1 DUP7 AND DUP5 OR SWAP3 POP POP POP SWAP4 SWAP3 POP POP POP JUMP JUMPDEST PUSH0 DUP2 SWAP1 POP SWAP2 SWAP1 POP JUMP JUMPDEST PUSH0 DUP2 SWAP1 POP SWAP2 SWAP1 POP JUMP JUMPDEST PUSH0 PUSH3 0x533 PUSH3 0x52D PUSH3 0x527 DUP5 PUSH3 0x501 JUMP JUMPDEST PUSH3 0x50A JUMP JUMPDEST PUSH3 0x501 JUMP JUMPDEST SWAP1 POP SWAP2 SWAP1 POP JUMP JUMPDEST PUSH0 DUP2 SWAP1 POP SWAP2 SWAP1 POP JUMP JUMPDEST PUSH3 0x54E DUP4 PUSH3 0x513 JUMP JUMPDEST PUSH3 0x566 PUSH3 0x55D DUP3 PUSH3 0x53A JUMP JUMPDEST DUP5 DUP5 SLOAD PUSH3 0x4AC JUMP JUMPDEST DUP3 SSTORE POP POP POP POP JUMP JUMPDEST PUSH0 SWAP1 JUMP JUMPDEST PUSH3 0x57C PUSH3 0x56E JUMP JUMPDEST PUSH3 0x589 DUP2 DUP5 DUP5 PUSH3 0x543 JUMP JUMPDEST POP POP POP JUMP JUMPDEST JUMPDEST DUP2 DUP2 LT ISZERO PUSH3 0x5B0 JUMPI PUSH3 0x5A4 PUSH0 DUP3 PUSH3 0x572 JUMP JUMPDEST PUSH1 0x1 DUP2 ADD SWAP1 POP PUSH3 0x58F JUMP JUMPDEST POP POP JUMP JUMPDEST PUSH1 0x1F DUP3 GT ISZERO PUSH3 0x5FF JUMPI PUSH3 0x5C9 DUP2 PUSH3 0x47F JUMP JUMPDEST PUSH3 0x5D4 DUP5 PUSH3 0x491 JUMP JUMPDEST DUP2 ADD PUSH1 0x20 DUP6 LT ISZERO PUSH3 0x5E4 JUMPI DUP2 SWAP1 POP JUMPDEST PUSH3 0x5FC PUSH3 0x5F3 DUP6 PUSH3 0x491 JUMP JUMPDEST DUP4 ADD DUP3 PUSH3 0x58E JUMP JUMPDEST POP POP JUMPDEST POP POP POP JUMP JUMPDEST PUSH0 DUP3 DUP3 SHR SWAP1 POP SWAP3 SWAP2 POP POP JUMP JUMPDEST PUSH0 PUSH3 0x621 PUSH0 NOT DUP5 PUSH1 0x8 MUL PUSH3 0x604 JUMP JUMPDEST NOT DUP1 DUP4 AND SWAP2 POP POP SWAP3 SWAP2 POP POP JUMP JUMPDEST PUSH0 PUSH3 0x63B DUP4 DUP4 PUSH3 0x610 JUMP JUMPDEST SWAP2 POP DUP3 PUSH1 0x2 MUL DUP3 OR SWAP1 POP SWAP3 SWAP2 POP POP JUMP JUMPDEST PUSH3 0x656 DUP3 PUSH3 0x414 JUMP JUMPDEST PUSH8 0xFFFFFFFFFFFFFFFF DUP2 GT ISZERO PUSH3 0x672 JUMPI PUSH3 0x671 PUSH3 0x140 JUMP JUMPDEST JUMPDEST PUSH3 0x67E DUP3 SLOAD PUSH3 0x44B JUMP JUMPDEST PUSH3 0x68B DUP3 DUP3 DUP6 PUSH3 0x5B4 JUMP JUMPDEST PUSH0 PUSH1 0x20 SWAP1 POP PUSH1 0x1F DUP4 GT PUSH1 0x1 DUP2 EQ PUSH3 0x6C1 JUMPI PUSH0 DUP5 ISZERO PUSH3 0x6AC JUMPI DUP3 DUP8 ADD MLOAD SWAP1 POP JUMPDEST PUSH3 0x6B8 DUP6 DUP3 PUSH3 0x62E JUMP JUMPDEST DUP7 SSTORE POP PUSH3 0x727 JUMP JUMPDEST PUSH1 0x1F NOT DUP5 AND PUSH3 0x6D1 DUP7 PUSH3 0x47F JUMP JUMPDEST PUSH0 JUMPDEST DUP3 DUP2 LT ISZERO PUSH3 0x6FA JUMPI DUP5 DUP10 ADD MLOAD DUP3 SSTORE PUSH1 0x1 DUP3 ADD SWAP2 POP PUSH1 0x20 DUP6 ADD SWAP5 POP PUSH1 0x20 DUP2 ADD SWAP1 POP PUSH3 0x6D3 JUMP JUMPDEST DUP7 DUP4 LT ISZERO PUSH3 0x71A JUMPI DUP5 DUP10 ADD MLOAD PUSH3 0x716 PUSH1 0x1F DUP10 AND DUP3 PUSH3 0x610 JUMP JUMPDEST DUP4 SSTORE POP JUMPDEST PUSH1 0x1 PUSH1 0x2 DUP9 MUL ADD DUP9 SSTORE POP POP POP JUMPDEST POP POP POP POP POP POP JUMP JUMPDEST PUSH32 0x4E487B7100000000000000000000000000000000000000000000000000000000 PUSH0 MSTORE PUSH1 0x11 PUSH1 0x4 MSTORE PUSH1 0x24 PUSH0 REVERT JUMPDEST PUSH0 PUSH3 0x768 DUP3 PUSH3 0x501 JUMP JUMPDEST SWAP2 POP PUSH32 0xFFFFFFFFFFFFFFFFFFFFFFFFFFFFFFFFFFFFFFFFFFFFFFFFFFFFFFFFFFFFFFFF DUP3 SUB PUSH3 0x79D JUMPI PUSH3 0x79C PUSH3 0x72F JUMP JUMPDEST JUMPDEST PUSH1 0x1 DUP3 ADD SWAP1 POP SWAP2 SWAP1 POP JUMP JUMPDEST PUSH2 0x11ED DUP1 PUSH3 0x7B6 PUSH0 CODECOPY PUSH0 RETURN INVALID PUSH1 0x80 PUSH1 0x40 MSTORE CALLVALUE DUP1 ISZERO PUSH2 0xF JUMPI PUSH0 DUP1 REVERT JUMPDEST POP PUSH1 0x4 CALLDATASIZE LT PUSH2 0x86 JUMPI PUSH0 CALLDATALOAD PUSH1 0xE0 SHR DUP1 PUSH4 0x74AEB9D3 GT PUSH2 0x59 JUMPI DUP1 PUSH4 0x74AEB9D3 EQ PUSH2 0x111 JUMPI DUP1 PUSH4 0x87F7B975 EQ PUSH2 0x12D JUMPI DUP1 PUSH4 0xA0F2C291 EQ PUSH2 0x14B JUMPI DUP1 PUSH4 0xA3EC138D EQ PUSH2 0x169 JUMPI PUSH2 0x86 JUMP JUMPDEST DUP1 PUSH4 0x121B93F EQ PUSH2 0x8A JUMPI DUP1 PUSH4 0x13CF08B EQ PUSH2 0xA6 JUMPI DUP1 PUSH4 0x5C19A95C EQ PUSH2 0xD7 JUMPI DUP1 PUSH4 0x609FF1BD EQ PUSH2 0xF3 JUMPI JUMPDEST PUSH0 DUP1 REVERT JUMPDEST PUSH2 0xA4 PUSH1 0x4 DUP1 CALLDATASIZE SUB DUP2 ADD SWAP1 PUSH2 0x9F SWAP2 SWAP1 PUSH2 0xAEB JUMP JUMPDEST PUSH2 0x19C JUMP JUMPDEST STOP JUMPDEST PUSH2 0xC0 PUSH1 0x4 DUP1 CALLDATASIZE SUB DUP2 ADD SWAP1 PUSH2 0xBB SWAP2 SWAP1 PUSH2 0xAEB JUMP JUMPDEST PUSH2 0x31E JUMP JUMPDEST PUSH1 0x40 MLOAD PUSH2 0xCE SWAP3 SWAP2 SWAP1 PUSH2 0xBAF JUMP JUMPDEST PUSH1 0x40 MLOAD DUP1 SWAP2 SUB SWAP1 RETURN JUMPDEST PUSH2 0xF1 PUSH1 0x4 DUP1 CALLDATASIZE SUB DUP2 ADD SWAP1 PUSH2 0xEC SWAP2 SWAP1 PUSH2 0xC37 JUMP JUMPDEST PUSH2 0x3D3 JUMP JUMPDEST STOP JUMPDEST PUSH2 0xFB PUSH2 0x755 JUMP JUMPDEST PUSH1 0x40 MLOAD PUSH2 0x108 SWAP2 SWAP1 PUSH2 0xC62 JUMP JUMPDEST PUSH1 0x40 MLOAD DUP1 SWAP2 SUB SWAP1 RETURN JUMPDEST PUSH2 0x12B PUSH1 0x4 DUP1 CALLDATASIZE SUB DUP2 ADD SWAP1 PUSH2 0x126 SWAP2 SWAP1 PUSH2 0xC37 JUMP JUMPDEST PUSH2 0x7D6 JUMP JUMPDEST STOP JUMPDEST PUSH2 0x135 PUSH2 0x983 JUMP JUMPDEST PUSH1 0x40 MLOAD PUSH2 0x142 SWAP2 SWAP1 PUSH2 0xC8A JUMP JUMPDEST PUSH1 0x40 MLOAD DUP1 SWAP2 SUB SWAP1 RETURN JUMPDEST PUSH2 0x153 PUSH2 0x9A6 JUMP JUMPDEST PUSH1 0x40 MLOAD PUSH2 0x160 SWAP2 SWAP1 PUSH2 0xCA3 JUMP JUMPDEST PUSH1 0x40 MLOAD DUP1 SWAP2 SUB SWAP1 RETURN JUMPDEST PUSH2 0x183 PUSH1 0x4 DUP1 CALLDATASIZE SUB DUP2 ADD SWAP1 PUSH2 0x17E SWAP2 SWAP1 PUSH2 0xC37 JUMP JUMPDEST PUSH2 0xA5D JUMP JUMPDEST PUSH1 0x40 MLOAD PUSH2 0x193 SWAP5 SWAP4 SWAP3 SWAP2 SWAP1 PUSH2 0xCDD JUMP JUMPDEST PUSH1 0x40 MLOAD DUP1 SWAP2 SUB SWAP1 RETURN JUMPDEST PUSH0 PUSH1 0x2 PUSH0 CALLER PUSH20 0xFFFFFFFFFFFFFFFFFFFFFFFFFFFFFFFFFFFFFFFF AND PUSH20 0xFFFFFFFFFFFFFFFFFFFFFFFFFFFFFFFFFFFFFFFF AND DUP2 MSTORE PUSH1 0x20 ADD SWAP1 DUP2 MSTORE PUSH1 0x20 ADD PUSH0 KECCAK256 SWAP1 POP DUP1 PUSH0 ADD PUSH0 SWAP1 SLOAD SWAP1 PUSH2 0x100 EXP SWAP1 DIV PUSH1 0xFF AND ISZERO PUSH2 0x22C JUMPI PUSH1 0x40 MLOAD PUSH32 0x8C379A000000000000000000000000000000000000000000000000000000000 DUP2 MSTORE PUSH1 0x4 ADD PUSH2 0x223 SWAP1 PUSH2 0xD6A JUMP JUMPDEST PUSH1 0x40 MLOAD DUP1 SWAP2 SUB SWAP1 REVERT JUMPDEST PUSH0 DUP2 PUSH1 0x1 ADD SLOAD GT PUSH2 0x272 JUMPI PUSH1 0x40 MLOAD PUSH32 0x8C379A000000000000000000000000000000000000000000000000000000000 DUP2 MSTORE PUSH1 0x4 ADD PUSH2 0x269 SWAP1 PUSH2 0xDD2 JUMP JUMPDEST PUSH1 0x40 MLOAD DUP1 SWAP2 SUB SWAP1 REVERT JUMPDEST PUSH1 0x1 DUP1 SLOAD SWAP1 POP DUP3 LT PUSH2 0x2B9 JUMPI PUSH1 0x40 MLOAD PUSH32 0x8C379A000000000000000000000000000000000000000000000000000000000 DUP2 MSTORE PUSH1 0x4 ADD PUSH2 0x2B0 SWAP1 PUSH2 0xE3A JUMP JUMPDEST PUSH1 0x40 MLOAD DUP1 SWAP2 SUB SWAP1 REVERT JUMPDEST PUSH1 0x1 DUP2 PUSH0 ADD PUSH0 PUSH2 0x100 EXP DUP2 SLOAD DUP2 PUSH1 0xFF MUL NOT AND SWAP1 DUP4 ISZERO ISZERO MUL OR SWAP1 SSTORE POP DUP2 DUP2 PUSH1 0x2 ADD DUP2 SWAP1 SSTORE POP DUP1 PUSH1 0x1 ADD SLOAD PUSH1 0x1 DUP4 DUP2 SLOAD DUP2 LT PUSH2 0x2F6 JUMPI PUSH2 0x2F5 PUSH2 0xE58 JUMP JUMPDEST JUMPDEST SWAP1 PUSH0 MSTORE PUSH1 0x20 PUSH0 KECCAK256 SWAP1 PUSH1 0x2 MUL ADD PUSH1 0x1 ADD PUSH0 DUP3 DUP3 SLOAD PUSH2 0x313 SWAP2 SWAP1 PUSH2 0xEB2 JUMP JUMPDEST SWAP3 POP POP DUP2 SWAP1 SSTORE POP POP POP JUMP JUMPDEST PUSH1 0x1 DUP2 DUP2 SLOAD DUP2 LT PUSH2 0x32D JUMPI PUSH0 DUP1 REVERT JUMPDEST SWAP1 PUSH0 MSTORE PUSH1 0x20 PUSH0 KECCAK256 SWAP1 PUSH1 0x2 MUL ADD PUSH0 SWAP2 POP SWAP1 POP DUP1 PUSH0 ADD DUP1 SLOAD PUSH2 0x34C SWAP1 PUSH2 0xF12 JUMP JUMPDEST DUP1 PUSH1 0x1F ADD PUSH1 0x20 DUP1 SWAP2 DIV MUL PUSH1 0x20 ADD PUSH1 0x40 MLOAD SWAP1 DUP2 ADD PUSH1 0x40 MSTORE DUP1 SWAP3 SWAP2 SWAP1 DUP2 DUP2 MSTORE PUSH1 0x20 ADD DUP3 DUP1 SLOAD PUSH2 0x378 SWAP1 PUSH2 0xF12 JUMP JUMPDEST DUP1 ISZERO PUSH2 0x3C3 JUMPI DUP1 PUSH1 0x1F LT PUSH2 0x39A JUMPI PUSH2 0x100 DUP1 DUP4 SLOAD DIV MUL DUP4 MSTORE SWAP2 PUSH1 0x20 ADD SWAP2 PUSH2 0x3C3 JUMP JUMPDEST DUP3 ADD SWAP2 SWAP1 PUSH0 MSTORE PUSH1 0x20 PUSH0 KECCAK256 SWAP1 JUMPDEST DUP2 SLOAD DUP2 MSTORE SWAP1 PUSH1 0x1 ADD SWAP1 PUSH1 0x20 ADD DUP1 DUP4 GT PUSH2 0x3A6 JUMPI DUP3 SWAP1 SUB PUSH1 0x1F AND DUP3 ADD SWAP2 JUMPDEST POP POP POP POP POP SWAP1 DUP1 PUSH1 0x1 ADD SLOAD SWAP1 POP DUP3 JUMP JUMPDEST PUSH0 PUSH1 0x2 PUSH0 CALLER PUSH20 0xFFFFFFFFFFFFFFFFFFFFFFFFFFFFFFFFFFFFFFFF AND PUSH20 0xFFFFFFFFFFFFFFFFFFFFFFFFFFFFFFFFFFFFFFFF AND DUP2 MSTORE PUSH1 0x20 ADD SWAP1 DUP2 MSTORE PUSH1 0x20 ADD PUSH0 KECCAK256 SWAP1 POP DUP1 PUSH0 ADD PUSH0 SWAP1 SLOAD SWAP1 PUSH2 0x100 EXP SWAP1 DIV PUSH1 0xFF AND ISZERO PUSH2 0x463 JUMPI PUSH1 0x40 MLOAD PUSH32 0x8C379A000000000000000000000000000000000000000000000000000000000 DUP2 MSTORE PUSH1 0x4 ADD PUSH2 0x45A SWAP1 PUSH2 0xF8C JUMP JUMPDEST PUSH1 0x40 MLOAD DUP1 SWAP2 SUB SWAP1 REVERT JUMPDEST CALLER PUSH20 0xFFFFFFFFFFFFFFFFFFFFFFFFFFFFFFFFFFFFFFFF AND DUP3 PUSH20 0xFFFFFFFFFFFFFFFFFFFFFFFFFFFFFFFFFFFFFFFF AND SUB PUSH2 0x4D1 JUMPI PUSH1 0x40 MLOAD PUSH32 0x8C379A000000000000000000000000000000000000000000000000000000000 DUP2 MSTORE PUSH1 0x4 ADD PUSH2 0x4C8 SWAP1 PUSH2 0xFF4 JUMP JUMPDEST PUSH1 0x40 MLOAD DUP1 SWAP2 SUB SWAP1 REVERT JUMPDEST JUMPDEST PUSH0 PUSH20 0xFFFFFFFFFFFFFFFFFFFFFFFFFFFFFFFFFFFFFFFF AND PUSH1 0x2 PUSH0 DUP5 PUSH20 0xFFFFFFFFFFFFFFFFFFFFFFFFFFFFFFFFFFFFFFFF AND PUSH20 0xFFFFFFFFFFFFFFFFFFFFFFFFFFFFFFFFFFFFFFFF AND DUP2 MSTORE PUSH1 0x20 ADD SWAP1 DUP2 MSTORE PUSH1 0x20 ADD PUSH0 KECCAK256 PUSH0 ADD PUSH1 0x1 SWAP1 SLOAD SWAP1 PUSH2 0x100 EXP SWAP1 DIV PUSH20 0xFFFFFFFFFFFFFFFFFFFFFFFFFFFFFFFFFFFFFFFF AND PUSH20 0xFFFFFFFFFFFFFFFFFFFFFFFFFFFFFFFFFFFFFFFF AND EQ PUSH2 0x639 JUMPI PUSH1 0x2 PUSH0 DUP4 PUSH20 0xFFFFFFFFFFFFFFFFFFFFFFFFFFFFFFFFFFFFFFFF AND PUSH20 0xFFFFFFFFFFFFFFFFFFFFFFFFFFFFFFFFFFFFFFFF AND DUP2 MSTORE PUSH1 0x20 ADD SWAP1 DUP2 MSTORE PUSH1 0x20 ADD PUSH0 KECCAK256 PUSH0 ADD PUSH1 0x1 SWAP1 SLOAD SWAP1 PUSH2 0x100 EXP SWAP1 DIV PUSH20 0xFFFFFFFFFFFFFFFFFFFFFFFFFFFFFFFFFFFFFFFF AND SWAP2 POP CALLER PUSH20 0xFFFFFFFFFFFFFFFFFFFFFFFFFFFFFFFFFFFFFFFF AND DUP3 PUSH20 0xFFFFFFFFFFFFFFFFFFFFFFFFFFFFFFFFFFFFFFFF AND SUB PUSH2 0x634 JUMPI PUSH1 0x40 MLOAD PUSH32 0x8C379A000000000000000000000000000000000000000000000000000000000 DUP2 MSTORE PUSH1 0x4 ADD PUSH2 0x62B SWAP1 PUSH2 0x105C JUMP JUMPDEST PUSH1 0x40 MLOAD DUP1 SWAP2 SUB SWAP1 REVERT JUMPDEST PUSH2 0x4D2 JUMP JUMPDEST PUSH1 0x1 DUP2 PUSH0 ADD PUSH0 PUSH2 0x100 EXP DUP2 SLOAD DUP2 PUSH1 0xFF MUL NOT AND SWAP1 DUP4 ISZERO ISZERO MUL OR SWAP1 SSTORE POP DUP2 DUP2 PUSH0 ADD PUSH1 0x1 PUSH2 0x100 EXP DUP2 SLOAD DUP2 PUSH20 0xFFFFFFFFFFFFFFFFFFFFFFFFFFFFFFFFFFFFFFFF MUL NOT AND SWAP1 DUP4 PUSH20 0xFFFFFFFFFFFFFFFFFFFFFFFFFFFFFFFFFFFFFFFF AND MUL OR SWAP1 SSTORE POP PUSH0 PUSH1 0x2 PUSH0 DUP5 PUSH20 0xFFFFFFFFFFFFFFFFFFFFFFFFFFFFFFFFFFFFFFFF AND PUSH20 0xFFFFFFFFFFFFFFFFFFFFFFFFFFFFFFFFFFFFFFFF AND DUP2 MSTORE PUSH1 0x20 ADD SWAP1 DUP2 MSTORE PUSH1 0x20 ADD PUSH0 KECCAK256 SWAP1 POP DUP1 PUSH0 ADD PUSH0 SWAP1 SLOAD SWAP1 PUSH2 0x100 EXP SWAP1 DIV PUSH1 0xFF AND ISZERO PUSH2 0x731 JUMPI DUP2 PUSH1 0x1 ADD SLOAD PUSH1 0x1 DUP3 PUSH1 0x2 ADD SLOAD DUP2 SLOAD DUP2 LT PUSH2 0x708 JUMPI PUSH2 0x707 PUSH2 0xE58 JUMP JUMPDEST JUMPDEST SWAP1 PUSH0 MSTORE PUSH1 0x20 PUSH0 KECCAK256 SWAP1 PUSH1 0x2 MUL ADD PUSH1 0x1 ADD PUSH0 DUP3 DUP3 SLOAD PUSH2 0x725 SWAP2 SWAP1 PUSH2 0xEB2 JUMP JUMPDEST SWAP3 POP POP DUP2 SWAP1 SSTORE POP PUSH2 0x750 JUMP JUMPDEST DUP2 PUSH1 0x1 ADD SLOAD DUP2 PUSH1 0x1 ADD PUSH0 DUP3 DUP3 SLOAD PUSH2 0x748 SWAP2 SWAP1 PUSH2 0xEB2 JUMP JUMPDEST SWAP3 POP POP DUP2 SWAP1 SSTORE POP JUMPDEST POP POP POP JUMP JUMPDEST PUSH0 DUP1 PUSH0 SWAP1 POP PUSH0 JUMPDEST PUSH1 0x1 DUP1 SLOAD SWAP1 POP DUP2 LT ISZERO PUSH2 0x7D1 JUMPI DUP2 PUSH1 0x1 DUP3 DUP2 SLOAD DUP2 LT PUSH2 0x77E JUMPI PUSH2 0x77D PUSH2 0xE58 JUMP JUMPDEST JUMPDEST SWAP1 PUSH0 MSTORE PUSH1 0x20 PUSH0 KECCAK256 SWAP1 PUSH1 0x2 MUL ADD PUSH1 0x1 ADD SLOAD GT ISZERO PUSH2 0x7BE JUMPI PUSH1 0x1 DUP2 DUP2 SLOAD DUP2 LT PUSH2 0x7A8 JUMPI PUSH2 0x7A7 PUSH2 0xE58 JUMP JUMPDEST JUMPDEST SWAP1 PUSH0 MSTORE PUSH1 0x20 PUSH0 KECCAK256 SWAP1 PUSH1 0x2 MUL ADD PUSH1 0x1 ADD SLOAD SWAP2 POP DUP1 SWAP3 POP JUMPDEST DUP1 DUP1 PUSH2 0x7C9 SWAP1 PUSH2 0x107A JUMP JUMPDEST SWAP2 POP POP PUSH2 0x75C JUMP JUMPDEST POP POP SWAP1 JUMP JUMPDEST PUSH0 DUP1 SLOAD SWAP1 PUSH2 0x100 EXP SWAP1 DIV PUSH20 0xFFFFFFFFFFFFFFFFFFFFFFFFFFFFFFFFFFFFFFFF AND PUSH20 0xFFFFFFFFFFFFFFFFFFFFFFFFFFFFFFFFFFFFFFFF AND CALLER PUSH20 0xFFFFFFFFFFFFFFFFFFFFFFFFFFFFFFFFFFFFFFFF AND EQ PUSH2 0x863 JUMPI PUSH1 0x40 MLOAD PUSH32 0x8C379A000000000000000000000000000000000000000000000000000000000 DUP2 MSTORE PUSH1 0x4 ADD PUSH2 0x85A SWAP1 PUSH2 0x1131 JUMP JUMPDEST PUSH1 0x40 MLOAD DUP1 SWAP2 SUB SWAP1 REVERT JUMPDEST PUSH1 0x2 PUSH0 DUP3 PUSH20 0xFFFFFFFFFFFFFFFFFFFFFFFFFFFFFFFFFFFFFFFF AND PUSH20 0xFFFFFFFFFFFFFFFFFFFFFFFFFFFFFFFFFFFFFFFF AND DUP2 MSTORE PUSH1 0x20 ADD SWAP1 DUP2 MSTORE PUSH1 0x20 ADD PUSH0 KECCAK256 PUSH0 ADD PUSH0 SWAP1 SLOAD SWAP1 PUSH2 0x100 EXP SWAP1 DIV PUSH1 0xFF AND ISZERO PUSH2 0x8EF JUMPI PUSH1 0x40 MLOAD PUSH32 0x8C379A000000000000000000000000000000000000000000000000000000000 DUP2 MSTORE PUSH1 0x4 ADD PUSH2 0x8E6 SWAP1 PUSH2 0x1199 JUMP JUMPDEST PUSH1 0x40 MLOAD DUP1 SWAP2 SUB SWAP1 REVERT JUMPDEST PUSH0 PUSH1 0x2 PUSH0 DUP4 PUSH20 0xFFFFFFFFFFFFFFFFFFFFFFFFFFFFFFFFFFFFFFFF AND PUSH20 0xFFFFFFFFFFFFFFFFFFFFFFFFFFFFFFFFFFFFFFFF AND DUP2 MSTORE PUSH1 0x20 ADD SWAP1 DUP2 MSTORE PUSH1 0x20 ADD PUSH0 KECCAK256 PUSH1 0x1 ADD SLOAD EQ PUSH2 0x93A JUMPI PUSH0 DUP1 REVERT JUMPDEST PUSH1 0x1 PUSH1 0x2 PUSH0 DUP4 PUSH20 0xFFFFFFFFFFFFFFFFFFFFFFFFFFFFFFFFFFFFFFFF AND PUSH20 0xFFFFFFFFFFFFFFFFFFFFFFFFFFFFFFFFFFFFFFFF AND DUP2 MSTORE PUSH1 0x20 ADD SWAP1 DUP2 MSTORE PUSH1 0x20 ADD PUSH0 KECCAK256 PUSH1 0x1 ADD DUP2 SWAP1 SSTORE POP POP JUMP JUMPDEST PUSH0 DUP1 SLOAD SWAP1 PUSH2 0x100 EXP SWAP1 DIV PUSH20 0xFFFFFFFFFFFFFFFFFFFFFFFFFFFFFFFFFFFFFFFF AND DUP2 JUMP JUMPDEST PUSH1 0x60 PUSH1 0x1 PUSH2 0x9B2 PUSH2 0x755 JUMP JUMPDEST DUP2 SLOAD DUP2 LT PUSH2 0x9C3 JUMPI PUSH2 0x9C2 PUSH2 0xE58 JUMP JUMPDEST JUMPDEST SWAP1 PUSH0 MSTORE PUSH1 0x20 PUSH0 KECCAK256 SWAP1 PUSH1 0x2 MUL ADD PUSH0 ADD DUP1 SLOAD PUSH2 0x9DC SWAP1 PUSH2 0xF12 JUMP JUMPDEST DUP1 PUSH1 0x1F ADD PUSH1 0x20 DUP1 SWAP2 DIV MUL PUSH1 0x20 ADD PUSH1 0x40 MLOAD SWAP1 DUP2 ADD PUSH1 0x40 MSTORE DUP1 SWAP3 SWAP2 SWAP1 DUP2 DUP2 MSTORE PUSH1 0x20 ADD DUP3 DUP1 SLOAD PUSH2 0xA08 SWAP1 PUSH2 0xF12 JUMP JUMPDEST DUP1 ISZERO PUSH2 0xA53 JUMPI DUP1 PUSH1 0x1F LT PUSH2 0xA2A JUMPI PUSH2 0x100 DUP1 DUP4 SLOAD DIV MUL DUP4 MSTORE SWAP2 PUSH1 0x20 ADD SWAP2 PUSH2 0xA53 JUMP JUMPDEST DUP3 ADD SWAP2 SWAP1 PUSH0 MSTORE PUSH1 0x20 PUSH0 KECCAK256 SWAP1 JUMPDEST DUP2 SLOAD DUP2 MSTORE SWAP1 PUSH1 0x1 ADD SWAP1 PUSH1 0x20 ADD DUP1 DUP4 GT PUSH2 0xA36 JUMPI DUP3 SWAP1 SUB PUSH1 0x1F AND DUP3 ADD SWAP2 JUMPDEST POP POP POP POP POP SWAP1 POP SWAP1 JUMP JUMPDEST PUSH1 0x2 PUSH1 0x20 MSTORE DUP1 PUSH0 MSTORE PUSH1 0x40 PUSH0 KECCAK256 PUSH0 SWAP2 POP SWAP1 POP DUP1 PUSH0 ADD PUSH0 SWAP1 SLOAD SWAP1 PUSH2 0x100 EXP SWAP1 DIV PUSH1 0xFF AND SWAP1 DUP1 PUSH0 ADD PUSH1 0x1 SWAP1 SLOAD SWAP1 PUSH2 0x100 EXP SWAP1 DIV PUSH20 0xFFFFFFFFFFFFFFFFFFFFFFFFFFFFFFFFFFFFFFFF AND SWAP1 DUP1 PUSH1 0x1 ADD SLOAD SWAP1 DUP1 PUSH1 0x2 ADD SLOAD SWAP1 POP DUP5 JUMP JUMPDEST PUSH0 DUP1 REVERT JUMPDEST PUSH0 DUP2 SWAP1 POP SWAP2 SWAP1 POP JUMP JUMPDEST PUSH2 0xACA DUP2 PUSH2 0xAB8 JUMP JUMPDEST DUP2 EQ PUSH2 0xAD4 JUMPI PUSH0 DUP1 REVERT JUMPDEST POP JUMP JUMPDEST PUSH0 DUP2 CALLDATALOAD SWAP1 POP PUSH2 0xAE5 DUP2 PUSH2 0xAC1 JUMP JUMPDEST SWAP3 SWAP2 POP POP JUMP JUMPDEST PUSH0 PUSH1 0x20 DUP3 DUP5 SUB SLT ISZERO PUSH2 0xB00 JUMPI PUSH2 0xAFF PUSH2 0xAB4 JUMP JUMPDEST JUMPDEST PUSH0 PUSH2 0xB0D DUP5 DUP3 DUP6 ADD PUSH2 0xAD7 JUMP JUMPDEST SWAP2 POP POP SWAP3 SWAP2 POP POP JUMP JUMPDEST PUSH0 DUP2 MLOAD SWAP1 POP SWAP2 SWAP1 POP JUMP JUMPDEST PUSH0 DUP3 DUP3 MSTORE PUSH1 0x20 DUP3 ADD SWAP1 POP SWAP3 SWAP2 POP POP JUMP JUMPDEST PUSH0 JUMPDEST DUP4 DUP2 LT ISZERO PUSH2 0xB4D JUMPI DUP1 DUP3 ADD MLOAD DUP2 DUP5 ADD MSTORE PUSH1 0x20 DUP2 ADD SWAP1 POP PUSH2 0xB32 JUMP JUMPDEST PUSH0 DUP5 DUP5 ADD MSTORE POP POP POP POP JUMP JUMPDEST PUSH0 PUSH1 0x1F NOT PUSH1 0x1F DUP4 ADD AND SWAP1 POP SWAP2 SWAP1 POP JUMP JUMPDEST PUSH0 PUSH2 0xB72 DUP3 PUSH2 0xB16 JUMP JUMPDEST PUSH2 0xB7C DUP2 DUP6 PUSH2 0xB20 JUMP JUMPDEST SWAP4 POP PUSH2 0xB8C DUP2 DUP6 PUSH1 0x20 DUP7 ADD PUSH2 0xB30 JUMP JUMPDEST PUSH2 0xB95 DUP2 PUSH2 0xB58 JUMP JUMPDEST DUP5 ADD SWAP2 POP POP SWAP3 SWAP2 POP POP JUMP JUMPDEST PUSH2 0xBA9 DUP2 PUSH2 0xAB8 JUMP JUMPDEST DUP3 MSTORE POP POP JUMP JUMPDEST PUSH0 PUSH1 0x40 DUP3 ADD SWAP1 POP DUP2 DUP2 SUB PUSH0 DUP4 ADD MSTORE PUSH2 0xBC7 DUP2 DUP6 PUSH2 0xB68 JUMP JUMPDEST SWAP1 POP PUSH2 0xBD6 PUSH1 0x20 DUP4 ADD DUP5 PUSH2 0xBA0 JUMP JUMPDEST SWAP4 SWAP3 POP POP POP JUMP JUMPDEST PUSH0 PUSH20 0xFFFFFFFFFFFFFFFFFFFFFFFFFFFFFFFFFFFFFFFF DUP3 AND SWAP1 POP SWAP2 SWAP1 POP JUMP JUMPDEST PUSH0 PUSH2 0xC06 DUP3 PUSH2 0xBDD JUMP JUMPDEST SWAP1 POP SWAP2 SWAP1 POP JUMP JUMPDEST PUSH2 0xC16 DUP2 PUSH2 0xBFC JUMP JUMPDEST DUP2 EQ PUSH2 0xC20 JUMPI PUSH0 DUP1 REVERT JUMPDEST POP JUMP JUMPDEST PUSH0 DUP2 CALLDATALOAD SWAP1 POP PUSH2 0xC31 DUP2 PUSH2 0xC0D JUMP JUMPDEST SWAP3 SWAP2 POP POP JUMP JUMPDEST PUSH0 PUSH1 0x20 DUP3 DUP5 SUB SLT ISZERO PUSH2 0xC4C JUMPI PUSH2 0xC4B PUSH2 0xAB4 JUMP JUMPDEST JUMPDEST PUSH0 PUSH2 0xC59 DUP5 DUP3 DUP6 ADD PUSH2 0xC23 JUMP JUMPDEST SWAP2 POP POP SWAP3 SWAP2 POP POP JUMP JUMPDEST PUSH0 PUSH1 0x20 DUP3 ADD SWAP1 POP PUSH2 0xC75 PUSH0 DUP4 ADD DUP5 PUSH2 0xBA0 JUMP JUMPDEST SWAP3 SWAP2 POP POP JUMP JUMPDEST PUSH2 0xC84 DUP2 PUSH2 0xBFC JUMP JUMPDEST DUP3 MSTORE POP POP JUMP JUMPDEST PUSH0 PUSH1 0x20 DUP3 ADD SWAP1 POP PUSH2 0xC9D PUSH0 DUP4 ADD DUP5 PUSH2 0xC7B JUMP JUMPDEST SWAP3 SWAP2 POP POP JUMP JUMPDEST PUSH0 PUSH1 0x20 DUP3 ADD SWAP1 POP DUP2 DUP2 SUB PUSH0 DUP4 ADD MSTORE PUSH2 0xCBB DUP2 DUP5 PUSH2 0xB68 JUMP JUMPDEST SWAP1 POP SWAP3 SWAP2 POP POP JUMP JUMPDEST PUSH0 DUP2 ISZERO ISZERO SWAP1 POP SWAP2 SWAP1 POP JUMP JUMPDEST PUSH2 0xCD7 DUP2 PUSH2 0xCC3 JUMP JUMPDEST DUP3 MSTORE POP POP JUMP JUMPDEST PUSH0 PUSH1 0x80 DUP3 ADD SWAP1 POP PUSH2 0xCF0 PUSH0 DUP4 ADD DUP8 PUSH2 0xCCE JUMP JUMPDEST PUSH2 0xCFD PUSH1 0x20 DUP4 ADD DUP7 PUSH2 0xC7B JUMP JUMPDEST PUSH2 0xD0A PUSH1 0x40 DUP4 ADD DUP6 PUSH2 0xBA0 JUMP JUMPDEST PUSH2 0xD17 PUSH1 0x60 DUP4 ADD DUP5 PUSH2 0xBA0 JUMP JUMPDEST SWAP6 SWAP5 POP POP POP POP POP JUMP JUMPDEST PUSH32 0x416C726561647920766F74656421000000000000000000000000000000000000 PUSH0 DUP3 ADD MSTORE POP JUMP JUMPDEST PUSH0 PUSH2 0xD54 PUSH1 0xE DUP4 PUSH2 0xB20 JUMP JUMPDEST SWAP2 POP PUSH2 0xD5F DUP3 PUSH2 0xD20 JUMP JUMPDEST PUSH1 0x20 DUP3 ADD SWAP1 POP SWAP2 SWAP1 POP JUMP JUMPDEST PUSH0 PUSH1 0x20 DUP3 ADD SWAP1 POP DUP2 DUP2 SUB PUSH0 DUP4 ADD MSTORE PUSH2 0xD81 DUP2 PUSH2 0xD48 JUMP JUMPDEST SWAP1 POP SWAP2 SWAP1 POP JUMP JUMPDEST PUSH32 0x486173206E6F20726967687420746F20766F7465000000000000000000000000 PUSH0 DUP3 ADD MSTORE POP JUMP JUMPDEST PUSH0 PUSH2 0xDBC PUSH1 0x14 DUP4 PUSH2 0xB20 JUMP JUMPDEST SWAP2 POP PUSH2 0xDC7 DUP3 PUSH2 0xD88 JUMP JUMPDEST PUSH1 0x20 DUP3 ADD SWAP1 POP SWAP2 SWAP1 POP JUMP JUMPDEST PUSH0 PUSH1 0x20 DUP3 ADD SWAP1 POP DUP2 DUP2 SUB PUSH0 DUP4 ADD MSTORE PUSH2 0xDE9 DUP2 PUSH2 0xDB0 JUMP JUMPDEST SWAP1 POP SWAP2 SWAP1 POP JUMP JUMPDEST PUSH32 0x5468652070726F706F73616C20646F65736E2774206578697374000000000000 PUSH0 DUP3 ADD MSTORE POP JUMP JUMPDEST PUSH0 PUSH2 0xE24 PUSH1 0x1A DUP4 PUSH2 0xB20 JUMP JUMPDEST SWAP2 POP PUSH2 0xE2F DUP3 PUSH2 0xDF0 JUMP JUMPDEST PUSH1 0x20 DUP3 ADD SWAP1 POP SWAP2 SWAP1 POP JUMP JUMPDEST PUSH0 PUSH1 0x20 DUP3 ADD SWAP1 POP DUP2 DUP2 SUB PUSH0 DUP4 ADD MSTORE PUSH2 0xE51 DUP2 PUSH2 0xE18 JUMP JUMPDEST SWAP1 POP SWAP2 SWAP1 POP JUMP JUMPDEST PUSH32 0x4E487B7100000000000000000000000000000000000000000000000000000000 PUSH0 MSTORE PUSH1 0x32 PUSH1 0x4 MSTORE PUSH1 0x24 PUSH0 REVERT JUMPDEST PUSH32 0x4E487B7100000000000000000000000000000000000000000000000000000000 PUSH0 MSTORE PUSH1 0x11 PUSH1 0x4 MSTORE PUSH1 0x24 PUSH0 REVERT JUMPDEST PUSH0 PUSH2 0xEBC DUP3 PUSH2 0xAB8 JUMP JUMPDEST SWAP2 POP PUSH2 0xEC7 DUP4 PUSH2 0xAB8 JUMP JUMPDEST SWAP3 POP DUP3 DUP3 ADD SWAP1 POP DUP1 DUP3 GT ISZERO PUSH2 0xEDF JUMPI PUSH2 0xEDE PUSH2 0xE85 JUMP JUMPDEST JUMPDEST SWAP3 SWAP2 POP POP JUMP JUMPDEST PUSH32 0x4E487B7100000000000000000000000000000000000000000000000000000000 PUSH0 MSTORE PUSH1 0x22 PUSH1 0x4 MSTORE PUSH1 0x24 PUSH0 REVERT JUMPDEST PUSH0 PUSH1 0x2 DUP3 DIV SWAP1 POP PUSH1 0x1 DUP3 AND DUP1 PUSH2 0xF29 JUMPI PUSH1 0x7F DUP3 AND SWAP2 POP JUMPDEST PUSH1 0x20 DUP3 LT DUP2 SUB PUSH2 0xF3C JUMPI PUSH2 0xF3B PUSH2 0xEE5 JUMP JUMPDEST JUMPDEST POP SWAP2 SWAP1 POP JUMP JUMPDEST PUSH32 0x596F7520616C726561647920766F746564000000000000000000000000000000 PUSH0 DUP3 ADD MSTORE POP JUMP JUMPDEST PUSH0 PUSH2 0xF76 PUSH1 0x11 DUP4 PUSH2 0xB20 JUMP JUMPDEST SWAP2 POP PUSH2 0xF81 DUP3 PUSH2 0xF42 JUMP JUMPDEST PUSH1 0x20 DUP3 ADD SWAP1 POP SWAP2 SWAP1 POP JUMP JUMPDEST PUSH0 PUSH1 0x20 DUP3 ADD SWAP1 POP DUP2 DUP2 SUB PUSH0 DUP4 ADD MSTORE PUSH2 0xFA3 DUP2 PUSH2 0xF6A JUMP JUMPDEST SWAP1 POP SWAP2 SWAP1 POP JUMP JUMPDEST PUSH32 0x596F752063616E27742064656C656761746520746F20796F757273656C660000 PUSH0 DUP3 ADD MSTORE POP JUMP JUMPDEST PUSH0 PUSH2 0xFDE PUSH1 0x1E DUP4 PUSH2 0xB20 JUMP JUMPDEST SWAP2 POP PUSH2 0xFE9 DUP3 PUSH2 0xFAA JUMP JUMPDEST PUSH1 0x20 DUP3 ADD SWAP1 POP SWAP2 SWAP1 POP JUMP JUMPDEST PUSH0 PUSH1 0x20 DUP3 ADD SWAP1 POP DUP2 DUP2 SUB PUSH0 DUP4 ADD MSTORE PUSH2 0x100B DUP2 PUSH2 0xFD2 JUMP JUMPDEST SWAP1 POP SWAP2 SWAP1 POP JUMP JUMPDEST PUSH32 0x466F756E6420616E20696E66696E697465206C6F6F7000000000000000000000 PUSH0 DUP3 ADD MSTORE POP JUMP JUMPDEST PUSH0 PUSH2 0x1046 PUSH1 0x16 DUP4 PUSH2 0xB20 JUMP JUMPDEST SWAP2 POP PUSH2 0x1051 DUP3 PUSH2 0x1012 JUMP JUMPDEST PUSH1 0x20 DUP3 ADD SWAP1 POP SWAP2 SWAP1 POP JUMP JUMPDEST PUSH0 PUSH1 0x20 DUP3 ADD SWAP1 POP DUP2 DUP2 SUB PUSH0 DUP4 ADD MSTORE PUSH2 0x1073 DUP2 PUSH2 0x103A JUMP JUMPDEST SWAP1 POP SWAP2 SWAP1 POP JUMP JUMPDEST PUSH0 PUSH2 0x1084 DUP3 PUSH2 0xAB8 JUMP JUMPDEST SWAP2 POP PUSH32 0xFFFFFFFFFFFFFFFFFFFFFFFFFFFFFFFFFFFFFFFFFFFFFFFFFFFFFFFFFFFFFFFF DUP3 SUB PUSH2 0x10B6 JUMPI PUSH2 0x10B5 PUSH2 0xE85 JUMP JUMPDEST JUMPDEST PUSH1 0x1 DUP3 ADD SWAP1 POP SWAP2 SWAP1 POP JUMP JUMPDEST PUSH32 0x4F6E6C79207468652063686169726D616E2063616E2067697665207468652061 PUSH0 DUP3 ADD MSTORE PUSH32 0x62696C69747920746F20766F7465000000000000000000000000000000000000 PUSH1 0x20 DUP3 ADD MSTORE POP JUMP JUMPDEST PUSH0 PUSH2 0x111B PUSH1 0x2E DUP4 PUSH2 0xB20 JUMP JUMPDEST SWAP2 POP PUSH2 0x1126 DUP3 PUSH2 0x10C1 JUMP JUMPDEST PUSH1 0x40 DUP3 ADD SWAP1 POP SWAP2 SWAP1 POP JUMP JUMPDEST PUSH0 PUSH1 0x20 DUP3 ADD SWAP1 POP DUP2 DUP2 SUB PUSH0 DUP4 ADD MSTORE PUSH2 0x1148 DUP2 PUSH2 0x110F JUMP JUMPDEST SWAP1 POP SWAP2 SWAP1 POP JUMP JUMPDEST PUSH32 0x54686520766F74657220616C726561647920766F746564000000000000000000 PUSH0 DUP3 ADD MSTORE POP JUMP JUMPDEST PUSH0 PUSH2 0x1183 PUSH1 0x17 DUP4 PUSH2 0xB20 JUMP JUMPDEST SWAP2 POP PUSH2 0x118E DUP3 PUSH2 0x114F JUMP JUMPDEST PUSH1 0x20 DUP3 ADD SWAP1 POP SWAP2 SWAP1 POP JUMP JUMPDEST PUSH0 PUSH1 0x20 DUP3 ADD SWAP1 POP DUP2 DUP2 SUB PUSH0 DUP4 ADD MSTORE PUSH2 0x11B0 DUP2 PUSH2 0x1177 JUMP JUMPDEST SWAP1 POP SWAP2 SWAP1 POP JUMP INVALID LOG2 PUSH5 0x6970667358 0x22 SLT KECCAK256 0xB0 NUMBER 0xC6 0xAC 0xE9 SAR 0xB1 DUP6 SWAP15 0xCE EXTCODESIZE SWAP11 DUP4 CALLDATASIZE LOG2 PUSH17 0x2416E8CCD58D5AA6EBC4C067804136964 PUSH20 0x6F6C634300081400330000000000000000000000 "
				},
				"gasEstimates": {
					"creation": {
						"codeDepositCost": "917800",
						"executionCost": "infinite",
						"totalCost": "infinite"
					},
					"external": {
						"abilityToVote(address)": "29287",
						"chairman()": "2527",
						"delegate(address)": "infinite",
						"proposals(uint256)": "infinite",
						"vote(uint256)": "infinite",
						"voters(address)": "infinite",
						"winnerProposalName()": "infinite",
						"winningProposal()": "infinite"
					}
				},
				"methodIdentifiers": {
					"abilityToVote(address)": "74aeb9d3",
					"chairman()": "87f7b975",
					"delegate(address)": "5c19a95c",
					"proposals(uint256)": "013cf08b",
					"vote(uint256)": "0121b93f",
					"voters(address)": "a3ec138d",
					"winnerProposalName()": "a0f2c291",
					"winningProposal()": "609ff1bd"
				}
			},
			"storageLayout": {
				"storage": [
					{
						"astId": 3,
						"contract": "contracts/VotingProject.sol:VotingProject",
						"label": "chairman",
						"offset": 0,
						"slot": "0",
						"type": "t_address"
					},
					{
						"astId": 21,
						"contract": "contracts/VotingProject.sol:VotingProject",
						"label": "proposals",
						"offset": 0,
						"slot": "1",
						"type": "t_array(t_struct(Proposal)17_storage)dyn_storage"
					},
					{
						"astId": 26,
						"contract": "contracts/VotingProject.sol:VotingProject",
						"label": "voters",
						"offset": 0,
						"slot": "2",
						"type": "t_mapping(t_address,t_struct(Voter)12_storage)"
					}
				],
				"types": {
					"t_address": {
						"encoding": "inplace",
						"label": "address",
						"numberOfBytes": "20"
					},
					"t_array(t_struct(Proposal)17_storage)dyn_storage": {
						"base": "t_struct(Proposal)17_storage",
						"encoding": "dynamic_array",
						"label": "struct VotingProject.Proposal[]",
						"numberOfBytes": "32"
					},
					"t_bool": {
						"encoding": "inplace",
						"label": "bool",
						"numberOfBytes": "1"
					},
					"t_mapping(t_address,t_struct(Voter)12_storage)": {
						"encoding": "mapping",
						"key": "t_address",
						"label": "mapping(address => struct VotingProject.Voter)",
						"numberOfBytes": "32",
						"value": "t_struct(Voter)12_storage"
					},
					"t_string_storage": {
						"encoding": "bytes",
						"label": "string",
						"numberOfBytes": "32"
					},
					"t_struct(Proposal)17_storage": {
						"encoding": "inplace",
						"label": "struct VotingProject.Proposal",
						"members": [
							{
								"astId": 14,
								"contract": "contracts/VotingProject.sol:VotingProject",
								"label": "name",
								"offset": 0,
								"slot": "0",
								"type": "t_string_storage"
							},
							{
								"astId": 16,
								"contract": "contracts/VotingProject.sol:VotingProject",
								"label": "voteCount",
								"offset": 0,
								"slot": "1",
								"type": "t_uint256"
							}
						],
						"numberOfBytes": "64"
					},
					"t_struct(Voter)12_storage": {
						"encoding": "inplace",
						"label": "struct VotingProject.Voter",
						"members": [
							{
								"astId": 5,
								"contract": "contracts/VotingProject.sol:VotingProject",
								"label": "votedOrNot",
								"offset": 0,
								"slot": "0",
								"type": "t_bool"
							},
							{
								"astId": 7,
								"contract": "contracts/VotingProject.sol:VotingProject",
								"label": "delegate",
								"offset": 1,
								"slot": "0",
								"type": "t_address"
							},
							{
								"astId": 9,
								"contract": "contracts/VotingProject.sol:VotingProject",
								"label": "weight",
								"offset": 0,
								"slot": "1",
								"type": "t_uint256"
							},
							{
								"astId": 11,
								"contract": "contracts/VotingProject.sol:VotingProject",
								"label": "votedProposal",
								"offset": 0,
								"slot": "2",
								"type": "t_uint256"
							}
						],
						"numberOfBytes": "96"
					},
					"t_uint256": {
						"encoding": "inplace",
						"label": "uint256",
						"numberOfBytes": "32"
					}
				}
			},
			"userdoc": {
				"kind": "user",
				"methods": {},
				"version": 1
			}
		}
	}
}