{
	"contracts/DataTypeChild.sol": {
		"DataTypeChild": {
			"abi": [
				{
					"anonymous": false,
					"inputs": [
						{
							"indexed": false,
							"internalType": "uint256",
							"name": "number",
							"type": "uint256"
						}
					],
					"name": "FirstEvent",
					"type": "event"
				},
				{
					"stateMutability": "payable",
					"type": "fallback"
				},
				{
					"inputs": [],
					"name": "accessParentVariable",
					"outputs": [
						{
							"internalType": "uint256",
							"name": "",
							"type": "uint256"
						}
					],
					"stateMutability": "pure",
					"type": "function"
				},
				{
					"inputs": [],
					"name": "arrayFunction",
					"outputs": [],
					"stateMutability": "nonpayable",
					"type": "function"
				},
				{
					"inputs": [],
					"name": "arrayPopFunction",
					"outputs": [],
					"stateMutability": "nonpayable",
					"type": "function"
				},
				{
					"inputs": [],
					"name": "blockInformation",
					"outputs": [
						{
							"internalType": "uint256",
							"name": "",
							"type": "uint256"
						}
					],
					"stateMutability": "view",
					"type": "function"
				},
				{
					"inputs": [],
					"name": "blockInformation2",
					"outputs": [
						{
							"internalType": "uint256",
							"name": "",
							"type": "uint256"
						}
					],
					"stateMutability": "view",
					"type": "function"
				},
				{
					"inputs": [
						{
							"internalType": "uint256",
							"name": "",
							"type": "uint256"
						}
					],
					"name": "dynamicArray",
					"outputs": [
						{
							"internalType": "uint256",
							"name": "",
							"type": "uint256"
						}
					],
					"stateMutability": "view",
					"type": "function"
				},
				{
					"inputs": [
						{
							"internalType": "uint256",
							"name": "",
							"type": "uint256"
						}
					],
					"name": "firstFunction",
					"outputs": [
						{
							"internalType": "uint256",
							"name": "",
							"type": "uint256"
						}
					],
					"stateMutability": "pure",
					"type": "function"
				},
				{
					"inputs": [
						{
							"internalType": "uint256",
							"name": "number",
							"type": "uint256"
						},
						{
							"internalType": "string",
							"name": "something",
							"type": "string"
						}
					],
					"name": "firstFunction2",
					"outputs": [
						{
							"internalType": "uint256",
							"name": "",
							"type": "uint256"
						}
					],
					"stateMutability": "nonpayable",
					"type": "function"
				},
				{
					"inputs": [],
					"name": "hashFunction",
					"outputs": [
						{
							"internalType": "bytes32",
							"name": "",
							"type": "bytes32"
						}
					],
					"stateMutability": "pure",
					"type": "function"
				},
				{
					"inputs": [],
					"name": "mathIntegrated",
					"outputs": [
						{
							"internalType": "uint256",
							"name": "",
							"type": "uint256"
						}
					],
					"stateMutability": "pure",
					"type": "function"
				},
				{
					"inputs": [],
					"name": "numberUnsigned",
					"outputs": [
						{
							"internalType": "uint256",
							"name": "",
							"type": "uint256"
						}
					],
					"stateMutability": "view",
					"type": "function"
				},
				{
					"inputs": [],
					"name": "transactionInformation",
					"outputs": [
						{
							"internalType": "address",
							"name": "",
							"type": "address"
						}
					],
					"stateMutability": "view",
					"type": "function"
				},
				{
					"inputs": [],
					"name": "transactionInformation2",
					"outputs": [
						{
							"internalType": "uint256",
							"name": "",
							"type": "uint256"
						}
					],
					"stateMutability": "payable",
					"type": "function"
				},
				{
					"inputs": [],
					"name": "transactionInformation3",
					"outputs": [
						{
							"internalType": "bytes",
							"name": "",
							"type": "bytes"
						}
					],
					"stateMutability": "pure",
					"type": "function"
				},
				{
					"stateMutability": "payable",
					"type": "receive"
				}
			],
			"devdoc": {
				"kind": "dev",
				"methods": {},
				"version": 1
			},
			"evm": {
				"assembly": "    /* \"contracts/DataTypeChild.sol\":134:553  contract DataTypeChild is DataType {... */\n  mstore(0x40, 0x80)\n    /* \"contracts/DataType.sol\":916:917  5 */\n  0x05\n    /* \"contracts/DataType.sol\":884:917  uint256 public numberUnsigned = 5 */\n  0x02\n  sstore\n    /* \"contracts/DataType.sol\":1083:1087  true */\n  0x01\n    /* \"contracts/DataType.sol\":1064:1087  bool trueOrFalse = true */\n  0x03\n  exp(0x0100, 0x00)\n  dup2\n  sload\n  dup2\n  0xff\n  mul\n  not\n  and\n  swap1\n  dup4\n  iszero\n  iszero\n  mul\n  or\n  swap1\n  sstore\n  pop\n    /* \"contracts/DataType.sol\":1370:1412  0x330f2E60A42351dd3dEaC65067fA62A77158F996 */\n  0x330f2e60a42351dd3deac65067fa62a77158f996\n    /* \"contracts/DataType.sol\":1347:1412  address addressDeMoi = 0x330f2E60A42351dd3dEaC65067fA62A77158F996 */\n  0x03\n  exp(0x0100, 0x01)\n  dup2\n  sload\n  dup2\n  0xffffffffffffffffffffffffffffffffffffffff\n  mul\n  not\n  and\n  swap1\n  dup4\n  0xffffffffffffffffffffffffffffffffffffffff\n  and\n  mul\n  or\n  swap1\n  sstore\n  pop\n    /* \"contracts/DataType.sol\":1963:1996  string arrayOfCharacter = \"array\" */\n  mload(0x40)\n  dup1\n  0x40\n  add\n  0x40\n  mstore\n  dup1\n  0x05\n  dup2\n  mstore\n  0x20\n  add\n  0x6172726179000000000000000000000000000000000000000000000000000000\n  dup2\n  mstore\n  pop\n  0x07\n  swap1\n  dup2\n  tag_1\n  swap2\n  swap1\n  tag_2\n  jump\t// in\ntag_1:\n  pop\n    /* \"contracts/DataTypeChild.sol\":134:553  contract DataTypeChild is DataType {... */\n  callvalue\n  dup1\n  iszero\n  tag_3\n  jumpi\n  0x00\n  dup1\n  revert\ntag_3:\n  pop\n  jump(tag_4)\n    /* \"#utility.yul\":7:106   */\ntag_5:\n    /* \"#utility.yul\":59:65   */\n  0x00\n    /* \"#utility.yul\":93:98   */\n  dup2\n    /* \"#utility.yul\":87:99   */\n  mload\n    /* \"#utility.yul\":77:99   */\n  swap1\n  pop\n    /* \"#utility.yul\":7:106   */\n  swap2\n  swap1\n  pop\n  jump\t// out\n    /* \"#utility.yul\":112:292   */\ntag_6:\n    /* \"#utility.yul\":160:237   */\n  0x4e487b7100000000000000000000000000000000000000000000000000000000\n    /* \"#utility.yul\":157:158   */\n  0x00\n    /* \"#utility.yul\":150:238   */\n  mstore\n    /* \"#utility.yul\":257:261   */\n  0x41\n    /* \"#utility.yul\":254:255   */\n  0x04\n    /* \"#utility.yul\":247:262   */\n  mstore\n    /* \"#utility.yul\":281:285   */\n  0x24\n    /* \"#utility.yul\":278:279   */\n  0x00\n    /* \"#utility.yul\":271:286   */\n  revert\n    /* \"#utility.yul\":298:478   */\ntag_7:\n    /* \"#utility.yul\":346:423   */\n  0x4e487b7100000000000000000000000000000000000000000000000000000000\n    /* \"#utility.yul\":343:344   */\n  0x00\n    /* \"#utility.yul\":336:424   */\n  mstore\n    /* \"#utility.yul\":443:447   */\n  0x22\n    /* \"#utility.yul\":440:441   */\n  0x04\n    /* \"#utility.yul\":433:448   */\n  mstore\n    /* \"#utility.yul\":467:471   */\n  0x24\n    /* \"#utility.yul\":464:465   */\n  0x00\n    /* \"#utility.yul\":457:472   */\n  revert\n    /* \"#utility.yul\":484:804   */\ntag_8:\n    /* \"#utility.yul\":528:534   */\n  0x00\n    /* \"#utility.yul\":565:566   */\n  0x02\n    /* \"#utility.yul\":559:563   */\n  dup3\n    /* \"#utility.yul\":555:567   */\n  div\n    /* \"#utility.yul\":545:567   */\n  swap1\n  pop\n    /* \"#utility.yul\":612:613   */\n  0x01\n    /* \"#utility.yul\":606:610   */\n  dup3\n    /* \"#utility.yul\":602:614   */\n  and\n    /* \"#utility.yul\":633:651   */\n  dup1\n    /* \"#utility.yul\":623:704   */\n  tag_30\n  jumpi\n    /* \"#utility.yul\":689:693   */\n  0x7f\n    /* \"#utility.yul\":681:687   */\n  dup3\n    /* \"#utility.yul\":677:694   */\n  and\n    /* \"#utility.yul\":667:694   */\n  swap2\n  pop\n    /* \"#utility.yul\":623:704   */\ntag_30:\n    /* \"#utility.yul\":751:753   */\n  0x20\n    /* \"#utility.yul\":743:749   */\n  dup3\n    /* \"#utility.yul\":740:754   */\n  lt\n    /* \"#utility.yul\":720:738   */\n  dup2\n    /* \"#utility.yul\":717:755   */\n  sub\n    /* \"#utility.yul\":714:798   */\n  tag_31\n  jumpi\n    /* \"#utility.yul\":770:788   */\n  tag_32\n  tag_7\n  jump\t// in\ntag_32:\n    /* \"#utility.yul\":714:798   */\ntag_31:\n    /* \"#utility.yul\":535:804   */\n  pop\n    /* \"#utility.yul\":484:804   */\n  swap2\n  swap1\n  pop\n  jump\t// out\n    /* \"#utility.yul\":810:951   */\ntag_9:\n    /* \"#utility.yul\":859:863   */\n  0x00\n    /* \"#utility.yul\":882:885   */\n  dup2\n    /* \"#utility.yul\":874:885   */\n  swap1\n  pop\n    /* \"#utility.yul\":905:908   */\n  dup2\n    /* \"#utility.yul\":902:903   */\n  0x00\n    /* \"#utility.yul\":895:909   */\n  mstore\n    /* \"#utility.yul\":939:943   */\n  0x20\n    /* \"#utility.yul\":936:937   */\n  0x00\n    /* \"#utility.yul\":926:944   */\n  keccak256\n    /* \"#utility.yul\":918:944   */\n  swap1\n  pop\n    /* \"#utility.yul\":810:951   */\n  swap2\n  swap1\n  pop\n  jump\t// out\n    /* \"#utility.yul\":957:1050   */\ntag_10:\n    /* \"#utility.yul\":994:1000   */\n  0x00\n    /* \"#utility.yul\":1041:1043   */\n  0x20\n    /* \"#utility.yul\":1036:1038   */\n  0x1f\n    /* \"#utility.yul\":1029:1034   */\n  dup4\n    /* \"#utility.yul\":1025:1039   */\n  add\n    /* \"#utility.yul\":1021:1044   */\n  div\n    /* \"#utility.yul\":1011:1044   */\n  swap1\n  pop\n    /* \"#utility.yul\":957:1050   */\n  swap2\n  swap1\n  pop\n  jump\t// out\n    /* \"#utility.yul\":1056:1163   */\ntag_11:\n    /* \"#utility.yul\":1100:1108   */\n  0x00\n    /* \"#utility.yul\":1150:1155   */\n  dup3\n    /* \"#utility.yul\":1144:1148   */\n  dup3\n    /* \"#utility.yul\":1140:1156   */\n  shl\n    /* \"#utility.yul\":1119:1156   */\n  swap1\n  pop\n    /* \"#utility.yul\":1056:1163   */\n  swap3\n  swap2\n  pop\n  pop\n  jump\t// out\n    /* \"#utility.yul\":1169:1562   */\ntag_12:\n    /* \"#utility.yul\":1238:1244   */\n  0x00\n    /* \"#utility.yul\":1288:1289   */\n  0x08\n    /* \"#utility.yul\":1276:1286   */\n  dup4\n    /* \"#utility.yul\":1272:1290   */\n  mul\n    /* \"#utility.yul\":1311:1408   */\n  tag_37\n    /* \"#utility.yul\":1341:1407   */\n  0xffffffffffffffffffffffffffffffffffffffffffffffffffffffffffffffff\n    /* \"#utility.yul\":1330:1339   */\n  dup3\n    /* \"#utility.yul\":1311:1408   */\n  tag_11\n  jump\t// in\ntag_37:\n    /* \"#utility.yul\":1429:1468   */\n  tag_38\n    /* \"#utility.yul\":1459:1467   */\n  dup7\n    /* \"#utility.yul\":1448:1457   */\n  dup4\n    /* \"#utility.yul\":1429:1468   */\n  tag_11\n  jump\t// in\ntag_38:\n    /* \"#utility.yul\":1417:1468   */\n  swap6\n  pop\n    /* \"#utility.yul\":1501:1505   */\n  dup1\n    /* \"#utility.yul\":1497:1506   */\n  not\n    /* \"#utility.yul\":1490:1495   */\n  dup5\n    /* \"#utility.yul\":1486:1507   */\n  and\n    /* \"#utility.yul\":1477:1507   */\n  swap4\n  pop\n    /* \"#utility.yul\":1550:1554   */\n  dup1\n    /* \"#utility.yul\":1540:1548   */\n  dup7\n    /* \"#utility.yul\":1536:1555   */\n  and\n    /* \"#utility.yul\":1529:1534   */\n  dup5\n    /* \"#utility.yul\":1526:1556   */\n  or\n    /* \"#utility.yul\":1516:1556   */\n  swap3\n  pop\n    /* \"#utility.yul\":1245:1562   */\n  pop\n  pop\n    /* \"#utility.yul\":1169:1562   */\n  swap4\n  swap3\n  pop\n  pop\n  pop\n  jump\t// out\n    /* \"#utility.yul\":1568:1645   */\ntag_13:\n    /* \"#utility.yul\":1605:1612   */\n  0x00\n    /* \"#utility.yul\":1634:1639   */\n  dup2\n    /* \"#utility.yul\":1623:1639   */\n  swap1\n  pop\n    /* \"#utility.yul\":1568:1645   */\n  swap2\n  swap1\n  pop\n  jump\t// out\n    /* \"#utility.yul\":1651:1711   */\ntag_14:\n    /* \"#utility.yul\":1679:1682   */\n  0x00\n    /* \"#utility.yul\":1700:1705   */\n  dup2\n    /* \"#utility.yul\":1693:1705   */\n  swap1\n  pop\n    /* \"#utility.yul\":1651:1711   */\n  swap2\n  swap1\n  pop\n  jump\t// out\n    /* \"#utility.yul\":1717:1859   */\ntag_15:\n    /* \"#utility.yul\":1767:1776   */\n  0x00\n    /* \"#utility.yul\":1800:1853   */\n  tag_42\n    /* \"#utility.yul\":1818:1852   */\n  tag_43\n    /* \"#utility.yul\":1827:1851   */\n  tag_44\n    /* \"#utility.yul\":1845:1850   */\n  dup5\n    /* \"#utility.yul\":1827:1851   */\n  tag_13\n  jump\t// in\ntag_44:\n    /* \"#utility.yul\":1818:1852   */\n  tag_14\n  jump\t// in\ntag_43:\n    /* \"#utility.yul\":1800:1853   */\n  tag_13\n  jump\t// in\ntag_42:\n    /* \"#utility.yul\":1787:1853   */\n  swap1\n  pop\n    /* \"#utility.yul\":1717:1859   */\n  swap2\n  swap1\n  pop\n  jump\t// out\n    /* \"#utility.yul\":1865:1940   */\ntag_16:\n    /* \"#utility.yul\":1908:1911   */\n  0x00\n    /* \"#utility.yul\":1929:1934   */\n  dup2\n    /* \"#utility.yul\":1922:1934   */\n  swap1\n  pop\n    /* \"#utility.yul\":1865:1940   */\n  swap2\n  swap1\n  pop\n  jump\t// out\n    /* \"#utility.yul\":1946:2215   */\ntag_17:\n    /* \"#utility.yul\":2056:2095   */\n  tag_47\n    /* \"#utility.yul\":2087:2094   */\n  dup4\n    /* \"#utility.yul\":2056:2095   */\n  tag_15\n  jump\t// in\ntag_47:\n    /* \"#utility.yul\":2117:2208   */\n  tag_48\n    /* \"#utility.yul\":2166:2207   */\n  tag_49\n    /* \"#utility.yul\":2190:2206   */\n  dup3\n    /* \"#utility.yul\":2166:2207   */\n  tag_16\n  jump\t// in\ntag_49:\n    /* \"#utility.yul\":2158:2164   */\n  dup5\n    /* \"#utility.yul\":2151:2155   */\n  dup5\n    /* \"#utility.yul\":2145:2156   */\n  sload\n    /* \"#utility.yul\":2117:2208   */\n  tag_12\n  jump\t// in\ntag_48:\n    /* \"#utility.yul\":2111:2115   */\n  dup3\n    /* \"#utility.yul\":2104:2209   */\n  sstore\n    /* \"#utility.yul\":2022:2215   */\n  pop\n    /* \"#utility.yul\":1946:2215   */\n  pop\n  pop\n  pop\n  jump\t// out\n    /* \"#utility.yul\":2221:2294   */\ntag_18:\n    /* \"#utility.yul\":2266:2269   */\n  0x00\n    /* \"#utility.yul\":2221:2294   */\n  swap1\n  jump\t// out\n    /* \"#utility.yul\":2300:2489   */\ntag_19:\n    /* \"#utility.yul\":2377:2409   */\n  tag_52\n  tag_18\n  jump\t// in\ntag_52:\n    /* \"#utility.yul\":2418:2483   */\n  tag_53\n    /* \"#utility.yul\":2476:2482   */\n  dup2\n    /* \"#utility.yul\":2468:2474   */\n  dup5\n    /* \"#utility.yul\":2462:2466   */\n  dup5\n    /* \"#utility.yul\":2418:2483   */\n  tag_17\n  jump\t// in\ntag_53:\n    /* \"#utility.yul\":2353:2489   */\n  pop\n    /* \"#utility.yul\":2300:2489   */\n  pop\n  pop\n  jump\t// out\n    /* \"#utility.yul\":2495:2681   */\ntag_20:\n    /* \"#utility.yul\":2555:2675   */\ntag_55:\n    /* \"#utility.yul\":2572:2575   */\n  dup2\n    /* \"#utility.yul\":2565:2570   */\n  dup2\n    /* \"#utility.yul\":2562:2576   */\n  lt\n    /* \"#utility.yul\":2555:2675   */\n  iszero\n  tag_57\n  jumpi\n    /* \"#utility.yul\":2626:2665   */\n  tag_58\n    /* \"#utility.yul\":2663:2664   */\n  0x00\n    /* \"#utility.yul\":2656:2661   */\n  dup3\n    /* \"#utility.yul\":2626:2665   */\n  tag_19\n  jump\t// in\ntag_58:\n    /* \"#utility.yul\":2599:2600   */\n  0x01\n    /* \"#utility.yul\":2592:2597   */\n  dup2\n    /* \"#utility.yul\":2588:2601   */\n  add\n    /* \"#utility.yul\":2579:2601   */\n  swap1\n  pop\n    /* \"#utility.yul\":2555:2675   */\n  jump(tag_55)\ntag_57:\n    /* \"#utility.yul\":2495:2681   */\n  pop\n  pop\n  jump\t// out\n    /* \"#utility.yul\":2687:3230   */\ntag_21:\n    /* \"#utility.yul\":2788:2790   */\n  0x1f\n    /* \"#utility.yul\":2783:2786   */\n  dup3\n    /* \"#utility.yul\":2780:2791   */\n  gt\n    /* \"#utility.yul\":2777:3223   */\n  iszero\n  tag_60\n  jumpi\n    /* \"#utility.yul\":2822:2860   */\n  tag_61\n    /* \"#utility.yul\":2854:2859   */\n  dup2\n    /* \"#utility.yul\":2822:2860   */\n  tag_9\n  jump\t// in\ntag_61:\n    /* \"#utility.yul\":2906:2935   */\n  tag_62\n    /* \"#utility.yul\":2924:2934   */\n  dup5\n    /* \"#utility.yul\":2906:2935   */\n  tag_10\n  jump\t// in\ntag_62:\n    /* \"#utility.yul\":2896:2904   */\n  dup2\n    /* \"#utility.yul\":2892:2936   */\n  add\n    /* \"#utility.yul\":3089:3091   */\n  0x20\n    /* \"#utility.yul\":3077:3087   */\n  dup6\n    /* \"#utility.yul\":3074:3092   */\n  lt\n    /* \"#utility.yul\":3071:3120   */\n  iszero\n  tag_63\n  jumpi\n    /* \"#utility.yul\":3110:3118   */\n  dup2\n    /* \"#utility.yul\":3095:3118   */\n  swap1\n  pop\n    /* \"#utility.yul\":3071:3120   */\ntag_63:\n    /* \"#utility.yul\":3133:3213   */\n  tag_64\n    /* \"#utility.yul\":3189:3211   */\n  tag_65\n    /* \"#utility.yul\":3207:3210   */\n  dup6\n    /* \"#utility.yul\":3189:3211   */\n  tag_10\n  jump\t// in\ntag_65:\n    /* \"#utility.yul\":3179:3187   */\n  dup4\n    /* \"#utility.yul\":3175:3212   */\n  add\n    /* \"#utility.yul\":3162:3173   */\n  dup3\n    /* \"#utility.yul\":3133:3213   */\n  tag_20\n  jump\t// in\ntag_64:\n    /* \"#utility.yul\":2792:3223   */\n  pop\n  pop\n    /* \"#utility.yul\":2777:3223   */\ntag_60:\n    /* \"#utility.yul\":2687:3230   */\n  pop\n  pop\n  pop\n  jump\t// out\n    /* \"#utility.yul\":3236:3353   */\ntag_22:\n    /* \"#utility.yul\":3290:3298   */\n  0x00\n    /* \"#utility.yul\":3340:3345   */\n  dup3\n    /* \"#utility.yul\":3334:3338   */\n  dup3\n    /* \"#utility.yul\":3330:3346   */\n  shr\n    /* \"#utility.yul\":3309:3346   */\n  swap1\n  pop\n    /* \"#utility.yul\":3236:3353   */\n  swap3\n  swap2\n  pop\n  pop\n  jump\t// out\n    /* \"#utility.yul\":3359:3528   */\ntag_23:\n    /* \"#utility.yul\":3403:3409   */\n  0x00\n    /* \"#utility.yul\":3436:3487   */\n  tag_68\n    /* \"#utility.yul\":3484:3485   */\n  0x00\n    /* \"#utility.yul\":3480:3486   */\n  not\n    /* \"#utility.yul\":3472:3477   */\n  dup5\n    /* \"#utility.yul\":3469:3470   */\n  0x08\n    /* \"#utility.yul\":3465:3478   */\n  mul\n    /* \"#utility.yul\":3436:3487   */\n  tag_22\n  jump\t// in\ntag_68:\n    /* \"#utility.yul\":3432:3488   */\n  not\n    /* \"#utility.yul\":3517:3521   */\n  dup1\n    /* \"#utility.yul\":3511:3515   */\n  dup4\n    /* \"#utility.yul\":3507:3522   */\n  and\n    /* \"#utility.yul\":3497:3522   */\n  swap2\n  pop\n    /* \"#utility.yul\":3410:3528   */\n  pop\n    /* \"#utility.yul\":3359:3528   */\n  swap3\n  swap2\n  pop\n  pop\n  jump\t// out\n    /* \"#utility.yul\":3533:3828   */\ntag_24:\n    /* \"#utility.yul\":3609:3613   */\n  0x00\n    /* \"#utility.yul\":3755:3784   */\n  tag_70\n    /* \"#utility.yul\":3780:3783   */\n  dup4\n    /* \"#utility.yul\":3774:3778   */\n  dup4\n    /* \"#utility.yul\":3755:3784   */\n  tag_23\n  jump\t// in\ntag_70:\n    /* \"#utility.yul\":3747:3784   */\n  swap2\n  pop\n    /* \"#utility.yul\":3817:3820   */\n  dup3\n    /* \"#utility.yul\":3814:3815   */\n  0x02\n    /* \"#utility.yul\":3810:3821   */\n  mul\n    /* \"#utility.yul\":3804:3808   */\n  dup3\n    /* \"#utility.yul\":3801:3822   */\n  or\n    /* \"#utility.yul\":3793:3822   */\n  swap1\n  pop\n    /* \"#utility.yul\":3533:3828   */\n  swap3\n  swap2\n  pop\n  pop\n  jump\t// out\n    /* \"#utility.yul\":3833:5228   */\ntag_2:\n    /* \"#utility.yul\":3950:3987   */\n  tag_72\n    /* \"#utility.yul\":3983:3986   */\n  dup3\n    /* \"#utility.yul\":3950:3987   */\n  tag_5\n  jump\t// in\ntag_72:\n    /* \"#utility.yul\":4052:4070   */\n  0xffffffffffffffff\n    /* \"#utility.yul\":4044:4050   */\n  dup2\n    /* \"#utility.yul\":4041:4071   */\n  gt\n    /* \"#utility.yul\":4038:4094   */\n  iszero\n  tag_73\n  jumpi\n    /* \"#utility.yul\":4074:4092   */\n  tag_74\n  tag_6\n  jump\t// in\ntag_74:\n    /* \"#utility.yul\":4038:4094   */\ntag_73:\n    /* \"#utility.yul\":4118:4156   */\n  tag_75\n    /* \"#utility.yul\":4150:4154   */\n  dup3\n    /* \"#utility.yul\":4144:4155   */\n  sload\n    /* \"#utility.yul\":4118:4156   */\n  tag_8\n  jump\t// in\ntag_75:\n    /* \"#utility.yul\":4203:4270   */\n  tag_76\n    /* \"#utility.yul\":4263:4269   */\n  dup3\n    /* \"#utility.yul\":4255:4261   */\n  dup3\n    /* \"#utility.yul\":4249:4253   */\n  dup6\n    /* \"#utility.yul\":4203:4270   */\n  tag_21\n  jump\t// in\ntag_76:\n    /* \"#utility.yul\":4297:4298   */\n  0x00\n    /* \"#utility.yul\":4321:4325   */\n  0x20\n    /* \"#utility.yul\":4308:4325   */\n  swap1\n  pop\n    /* \"#utility.yul\":4353:4355   */\n  0x1f\n    /* \"#utility.yul\":4345:4351   */\n  dup4\n    /* \"#utility.yul\":4342:4356   */\n  gt\n    /* \"#utility.yul\":4370:4371   */\n  0x01\n    /* \"#utility.yul\":4365:4983   */\n  dup2\n  eq\n  tag_78\n  jumpi\n    /* \"#utility.yul\":5027:5028   */\n  0x00\n    /* \"#utility.yul\":5044:5050   */\n  dup5\n    /* \"#utility.yul\":5041:5118   */\n  iszero\n  tag_79\n  jumpi\n    /* \"#utility.yul\":5093:5102   */\n  dup3\n    /* \"#utility.yul\":5088:5091   */\n  dup8\n    /* \"#utility.yul\":5084:5103   */\n  add\n    /* \"#utility.yul\":5078:5104   */\n  mload\n    /* \"#utility.yul\":5069:5104   */\n  swap1\n  pop\n    /* \"#utility.yul\":5041:5118   */\ntag_79:\n    /* \"#utility.yul\":5144:5211   */\n  tag_80\n    /* \"#utility.yul\":5204:5210   */\n  dup6\n    /* \"#utility.yul\":5197:5202   */\n  dup3\n    /* \"#utility.yul\":5144:5211   */\n  tag_24\n  jump\t// in\ntag_80:\n    /* \"#utility.yul\":5138:5142   */\n  dup7\n    /* \"#utility.yul\":5131:5212   */\n  sstore\n    /* \"#utility.yul\":5000:5222   */\n  pop\n    /* \"#utility.yul\":4335:5222   */\n  jump(tag_77)\n    /* \"#utility.yul\":4365:4983   */\ntag_78:\n    /* \"#utility.yul\":4417:4421   */\n  0x1f\n    /* \"#utility.yul\":4413:4422   */\n  not\n    /* \"#utility.yul\":4405:4411   */\n  dup5\n    /* \"#utility.yul\":4401:4423   */\n  and\n    /* \"#utility.yul\":4451:4488   */\n  tag_81\n    /* \"#utility.yul\":4483:4487   */\n  dup7\n    /* \"#utility.yul\":4451:4488   */\n  tag_9\n  jump\t// in\ntag_81:\n    /* \"#utility.yul\":4510:4511   */\n  0x00\n    /* \"#utility.yul\":4524:4732   */\ntag_82:\n    /* \"#utility.yul\":4538:4545   */\n  dup3\n    /* \"#utility.yul\":4535:4536   */\n  dup2\n    /* \"#utility.yul\":4532:4546   */\n  lt\n    /* \"#utility.yul\":4524:4732   */\n  iszero\n  tag_84\n  jumpi\n    /* \"#utility.yul\":4617:4626   */\n  dup5\n    /* \"#utility.yul\":4612:4615   */\n  dup10\n    /* \"#utility.yul\":4608:4627   */\n  add\n    /* \"#utility.yul\":4602:4628   */\n  mload\n    /* \"#utility.yul\":4594:4600   */\n  dup3\n    /* \"#utility.yul\":4587:4629   */\n  sstore\n    /* \"#utility.yul\":4668:4669   */\n  0x01\n    /* \"#utility.yul\":4660:4666   */\n  dup3\n    /* \"#utility.yul\":4656:4670   */\n  add\n    /* \"#utility.yul\":4646:4670   */\n  swap2\n  pop\n    /* \"#utility.yul\":4715:4717   */\n  0x20\n    /* \"#utility.yul\":4704:4713   */\n  dup6\n    /* \"#utility.yul\":4700:4718   */\n  add\n    /* \"#utility.yul\":4687:4718   */\n  swap5\n  pop\n    /* \"#utility.yul\":4561:4565   */\n  0x20\n    /* \"#utility.yul\":4558:4559   */\n  dup2\n    /* \"#utility.yul\":4554:4566   */\n  add\n    /* \"#utility.yul\":4549:4566   */\n  swap1\n  pop\n    /* \"#utility.yul\":4524:4732   */\n  jump(tag_82)\ntag_84:\n    /* \"#utility.yul\":4760:4766   */\n  dup7\n    /* \"#utility.yul\":4751:4758   */\n  dup4\n    /* \"#utility.yul\":4748:4767   */\n  lt\n    /* \"#utility.yul\":4745:4924   */\n  iszero\n  tag_85\n  jumpi\n    /* \"#utility.yul\":4818:4827   */\n  dup5\n    /* \"#utility.yul\":4813:4816   */\n  dup10\n    /* \"#utility.yul\":4809:4828   */\n  add\n    /* \"#utility.yul\":4803:4829   */\n  mload\n    /* \"#utility.yul\":4861:4909   */\n  tag_86\n    /* \"#utility.yul\":4903:4907   */\n  0x1f\n    /* \"#utility.yul\":4895:4901   */\n  dup10\n    /* \"#utility.yul\":4891:4908   */\n  and\n    /* \"#utility.yul\":4880:4889   */\n  dup3\n    /* \"#utility.yul\":4861:4909   */\n  tag_23\n  jump\t// in\ntag_86:\n    /* \"#utility.yul\":4853:4859   */\n  dup4\n    /* \"#utility.yul\":4846:4910   */\n  sstore\n    /* \"#utility.yul\":4768:4924   */\n  pop\n    /* \"#utility.yul\":4745:4924   */\ntag_85:\n    /* \"#utility.yul\":4970:4971   */\n  0x01\n    /* \"#utility.yul\":4966:4967   */\n  0x02\n    /* \"#utility.yul\":4958:4964   */\n  dup9\n    /* \"#utility.yul\":4954:4968   */\n  mul\n    /* \"#utility.yul\":4950:4972   */\n  add\n    /* \"#utility.yul\":4944:4948   */\n  dup9\n    /* \"#utility.yul\":4937:4973   */\n  sstore\n    /* \"#utility.yul\":4372:4983   */\n  pop\n  pop\n  pop\n    /* \"#utility.yul\":4335:5222   */\ntag_77:\n  pop\n    /* \"#utility.yul\":3925:5228   */\n  pop\n  pop\n  pop\n    /* \"#utility.yul\":3833:5228   */\n  pop\n  pop\n  jump\t// out\n    /* \"contracts/DataTypeChild.sol\":134:553  contract DataTypeChild is DataType {... */\ntag_4:\n  dataSize(sub_0)\n  dup1\n  dataOffset(sub_0)\n  0x00\n  codecopy\n  0x00\n  return\nstop\n\nsub_0: assembly {\n        /* \"contracts/DataTypeChild.sol\":134:553  contract DataTypeChild is DataType {... */\n      mstore(0x40, 0x80)\n      jumpi(tag_1, lt(calldatasize, 0x04))\n      shr(0xe0, calldataload(0x00))\n      dup1\n      0x89c87ca7\n      gt\n      tag_17\n      jumpi\n      dup1\n      0xc211d6e0\n      gt\n      tag_18\n      jumpi\n      dup1\n      0xc211d6e0\n      eq\n      tag_13\n      jumpi\n      dup1\n      0xca338553\n      eq\n      tag_14\n      jumpi\n      dup1\n      0xca37e0a0\n      eq\n      tag_15\n      jumpi\n      dup1\n      0xca74cc7e\n      eq\n      tag_16\n      jumpi\n      jump(tag_2)\n    tag_18:\n      dup1\n      0x89c87ca7\n      eq\n      tag_10\n      jumpi\n      dup1\n      0x9a9bdca7\n      eq\n      tag_11\n      jumpi\n      dup1\n      0xb43a5bbd\n      eq\n      tag_12\n      jumpi\n      jump(tag_2)\n    tag_17:\n      dup1\n      0x3c269a2c\n      gt\n      tag_19\n      jumpi\n      dup1\n      0x3c269a2c\n      eq\n      tag_6\n      jumpi\n      dup1\n      0x45d285b4\n      eq\n      tag_7\n      jumpi\n      dup1\n      0x5e8f1084\n      eq\n      tag_8\n      jumpi\n      dup1\n      0x6ad62280\n      eq\n      tag_9\n      jumpi\n      jump(tag_2)\n    tag_19:\n      dup1\n      0x08d79c87\n      eq\n      tag_3\n      jumpi\n      dup1\n      0x15078f8f\n      eq\n      tag_4\n      jumpi\n      dup1\n      0x251d8556\n      eq\n      tag_5\n      jumpi\n      jump(tag_2)\n    tag_1:\n      jumpi(tag_2, calldatasize)\n        /* \"contracts/DataType.sol\":8976:8979  102 */\n      0x66\n        /* \"contracts/DataType.sol\":8959:8973  numberUnsigned */\n      0x02\n        /* \"contracts/DataType.sol\":8959:8979  numberUnsigned = 102 */\n      dup2\n      swap1\n      sstore\n      stop\n        /* \"contracts/DataTypeChild.sol\":134:553  contract DataTypeChild is DataType {... */\n    tag_2:\n        /* \"contracts/DataType.sol\":8841:8844  101 */\n      0x65\n        /* \"contracts/DataType.sol\":8824:8838  numberUnsigned */\n      0x02\n        /* \"contracts/DataType.sol\":8824:8844  numberUnsigned = 101 */\n      dup2\n      swap1\n      sstore\n      stop\n        /* \"contracts/DataType.sol\":5007:5200  function mathIntegrated() public pure returns(uint256){... */\n    tag_3:\n      callvalue\n      dup1\n      iszero\n      tag_24\n      jumpi\n      0x00\n      dup1\n      revert\n    tag_24:\n      pop\n      tag_25\n      tag_26\n      jump\t// in\n    tag_25:\n      mload(0x40)\n      tag_27\n      swap2\n      swap1\n      tag_28\n      jump\t// in\n    tag_27:\n      mload(0x40)\n      dup1\n      swap2\n      sub\n      swap1\n      return\n        /* \"contracts/DataType.sol\":5402:5500  function blockInformation() public view returns (uint256){... */\n    tag_4:\n      callvalue\n      dup1\n      iszero\n      tag_29\n      jumpi\n      0x00\n      dup1\n      revert\n    tag_29:\n      pop\n      tag_30\n      tag_31\n      jump\t// in\n    tag_30:\n      mload(0x40)\n      tag_32\n      swap2\n      swap1\n      tag_28\n      jump\t// in\n    tag_32:\n      mload(0x40)\n      dup1\n      swap2\n      sub\n      swap1\n      return\n        /* \"contracts/DataType.sol\":4271:4606  function firstFunction2(uint256 number, string memory something) public virtual isGreaterThanZero(number) returns(uint256) {... */\n    tag_5:\n      callvalue\n      dup1\n      iszero\n      tag_33\n      jumpi\n      0x00\n      dup1\n      revert\n    tag_33:\n      pop\n      tag_34\n      0x04\n      dup1\n      calldatasize\n      sub\n      dup2\n      add\n      swap1\n      tag_35\n      swap2\n      swap1\n      tag_36\n      jump\t// in\n    tag_35:\n      tag_37\n      jump\t// in\n    tag_34:\n      mload(0x40)\n      tag_38\n      swap2\n      swap1\n      tag_28\n      jump\t// in\n    tag_38:\n      mload(0x40)\n      dup1\n      swap2\n      sub\n      swap1\n      return\n        /* \"contracts/DataType.sol\":6389:6491  function transactionInformation2() public payable returns (uint256){... */\n    tag_6:\n      tag_39\n      tag_40\n      jump\t// in\n    tag_39:\n      mload(0x40)\n      tag_41\n      swap2\n      swap1\n      tag_28\n      jump\t// in\n    tag_41:\n      mload(0x40)\n      dup1\n      swap2\n      sub\n      swap1\n      return\n        /* \"contracts/DataTypeChild.sol\":450:550  function firstFunction(uint256) public override pure returns(uint256){... */\n    tag_7:\n      callvalue\n      dup1\n      iszero\n      tag_42\n      jumpi\n      0x00\n      dup1\n      revert\n    tag_42:\n      pop\n      tag_43\n      0x04\n      dup1\n      calldatasize\n      sub\n      dup2\n      add\n      swap1\n      tag_44\n      swap2\n      swap1\n      tag_45\n      jump\t// in\n    tag_44:\n      tag_46\n      jump\t// in\n    tag_43:\n      mload(0x40)\n      tag_47\n      swap2\n      swap1\n      tag_28\n      jump\t// in\n    tag_47:\n      mload(0x40)\n      dup1\n      swap2\n      sub\n      swap1\n      return\n        /* \"contracts/DataType.sol\":7659:7755  function hashFunction() public pure returns(bytes32){... */\n    tag_8:\n      callvalue\n      dup1\n      iszero\n      tag_48\n      jumpi\n      0x00\n      dup1\n      revert\n    tag_48:\n      pop\n      tag_49\n      tag_50\n      jump\t// in\n    tag_49:\n      mload(0x40)\n      tag_51\n      swap2\n      swap1\n      tag_52\n      jump\t// in\n    tag_51:\n      mload(0x40)\n      dup1\n      swap2\n      sub\n      swap1\n      return\n        /* \"contracts/DataType.sol\":6985:7055  function arrayFunction() public{... */\n    tag_9:\n      callvalue\n      dup1\n      iszero\n      tag_53\n      jumpi\n      0x00\n      dup1\n      revert\n    tag_53:\n      pop\n      tag_54\n      tag_55\n      jump\t// in\n    tag_54:\n      stop\n        /* \"contracts/DataType.sol\":7063:7134  function arrayPopFunction() public{... */\n    tag_10:\n      callvalue\n      dup1\n      iszero\n      tag_56\n      jumpi\n      0x00\n      dup1\n      revert\n    tag_56:\n      pop\n      tag_57\n      tag_58\n      jump\t// in\n    tag_57:\n      stop\n        /* \"contracts/DataType.sol\":2270:2299  uint256[] public dynamicArray */\n    tag_11:\n      callvalue\n      dup1\n      iszero\n      tag_59\n      jumpi\n      0x00\n      dup1\n      revert\n    tag_59:\n      pop\n      tag_60\n      0x04\n      dup1\n      calldatasize\n      sub\n      dup2\n      add\n      swap1\n      tag_61\n      swap2\n      swap1\n      tag_45\n      jump\t// in\n    tag_61:\n      tag_62\n      jump\t// in\n    tag_60:\n      mload(0x40)\n      tag_63\n      swap2\n      swap1\n      tag_28\n      jump\t// in\n    tag_63:\n      mload(0x40)\n      dup1\n      swap2\n      sub\n      swap1\n      return\n        /* \"contracts/DataType.sol\":5676:5772  function blockInformation2() public view returns (uint256){... */\n    tag_12:\n      callvalue\n      dup1\n      iszero\n      tag_64\n      jumpi\n      0x00\n      dup1\n      revert\n    tag_64:\n      pop\n      tag_65\n      tag_66\n      jump\t// in\n    tag_65:\n      mload(0x40)\n      tag_67\n      swap2\n      swap1\n      tag_28\n      jump\t// in\n    tag_67:\n      mload(0x40)\n      dup1\n      swap2\n      sub\n      swap1\n      return\n        /* \"contracts/DataType.sol\":6750:6855  function transactionInformation3() public pure returns (bytes calldata){... */\n    tag_13:\n      callvalue\n      dup1\n      iszero\n      tag_68\n      jumpi\n      0x00\n      dup1\n      revert\n    tag_68:\n      pop\n      tag_69\n      tag_70\n      jump\t// in\n    tag_69:\n      mload(0x40)\n      tag_71\n      swap3\n      swap2\n      swap1\n      tag_72\n      jump\t// in\n    tag_71:\n      mload(0x40)\n      dup1\n      swap2\n      sub\n      swap1\n      return\n        /* \"contracts/DataType.sol\":884:917  uint256 public numberUnsigned = 5 */\n    tag_14:\n      callvalue\n      dup1\n      iszero\n      tag_73\n      jumpi\n      0x00\n      dup1\n      revert\n    tag_73:\n      pop\n      tag_74\n      tag_75\n      jump\t// in\n    tag_74:\n      mload(0x40)\n      tag_76\n      swap2\n      swap1\n      tag_28\n      jump\t// in\n    tag_76:\n      mload(0x40)\n      dup1\n      swap2\n      sub\n      swap1\n      return\n        /* \"contracts/DataType.sol\":5970:6069  function transactionInformation() public view returns (address){... */\n    tag_15:\n      callvalue\n      dup1\n      iszero\n      tag_77\n      jumpi\n      0x00\n      dup1\n      revert\n    tag_77:\n      pop\n      tag_78\n      tag_79\n      jump\t// in\n    tag_78:\n      mload(0x40)\n      tag_80\n      swap2\n      swap1\n      tag_81\n      jump\t// in\n    tag_80:\n      mload(0x40)\n      dup1\n      swap2\n      sub\n      swap1\n      return\n        /* \"contracts/DataTypeChild.sol\":251:354  function accessParentVariable() public pure returns(uint256){... */\n    tag_16:\n      callvalue\n      dup1\n      iszero\n      tag_82\n      jumpi\n      0x00\n      dup1\n      revert\n    tag_82:\n      pop\n      tag_83\n      tag_84\n      jump\t// in\n    tag_83:\n      mload(0x40)\n      tag_85\n      swap2\n      swap1\n      tag_28\n      jump\t// in\n    tag_85:\n      mload(0x40)\n      dup1\n      swap2\n      sub\n      swap1\n      return\n        /* \"contracts/DataType.sol\":5007:5200  function mathIntegrated() public pure returns(uint256){... */\n    tag_26:\n        /* \"contracts/DataType.sol\":5053:5060  uint256 */\n      0x00\n        /* \"contracts/DataType.sol\":5190:5191  3 */\n      0x03\n        /* \"contracts/DataType.sol\":5177:5192  mulmod(1, 2, 3) */\n      dup1\n      tag_87\n      jumpi\n      tag_88\n      tag_89\n      jump\t// in\n    tag_88:\n    tag_87:\n        /* \"contracts/DataType.sol\":5187:5188  2 */\n      0x02\n        /* \"contracts/DataType.sol\":5184:5185  1 */\n      0x01\n        /* \"contracts/DataType.sol\":5177:5192  mulmod(1, 2, 3) */\n      mulmod\n        /* \"contracts/DataType.sol\":5170:5192  return mulmod(1, 2, 3) */\n      swap1\n      pop\n        /* \"contracts/DataType.sol\":5007:5200  function mathIntegrated() public pure returns(uint256){... */\n      swap1\n      jump\t// out\n        /* \"contracts/DataType.sol\":5402:5500  function blockInformation() public view returns (uint256){... */\n    tag_31:\n        /* \"contracts/DataType.sol\":5451:5458  uint256 */\n      0x00\n        /* \"contracts/DataType.sol\":5477:5492  block.timestamp */\n      timestamp\n        /* \"contracts/DataType.sol\":5470:5492  return block.timestamp */\n      swap1\n      pop\n        /* \"contracts/DataType.sol\":5402:5500  function blockInformation() public view returns (uint256){... */\n      swap1\n      jump\t// out\n        /* \"contracts/DataType.sol\":4271:4606  function firstFunction2(uint256 number, string memory something) public virtual isGreaterThanZero(number) returns(uint256) {... */\n    tag_37:\n        /* \"contracts/DataType.sol\":4385:4392  uint256 */\n      0x00\n        /* \"contracts/DataType.sol\":4369:4375  number */\n      dup3\n        /* \"contracts/DataType.sol\":3228:3229  0 */\n      0x00\n        /* \"contracts/DataType.sol\":3219:3225  number */\n      dup2\n        /* \"contracts/DataType.sol\":3219:3229  number > 0 */\n      gt\n        /* \"contracts/DataType.sol\":3211:3260  require(number > 0 , \"Need to be greater than 0\") */\n      tag_92\n      jumpi\n      mload(0x40)\n      0x08c379a000000000000000000000000000000000000000000000000000000000\n      dup2\n      mstore\n      0x04\n      add\n      tag_93\n      swap1\n      tag_94\n      jump\t// in\n    tag_93:\n      mload(0x40)\n      dup1\n      swap2\n      sub\n      swap1\n      revert\n    tag_92:\n        /* \"contracts/DataType.sol\":4405:4434  something = \"something other\" */\n      mload(0x40)\n      dup1\n      0x40\n      add\n      0x40\n      mstore\n      dup1\n      0x0f\n      dup2\n      mstore\n      0x20\n      add\n      0x736f6d657468696e67206f746865720000000000000000000000000000000000\n      dup2\n      mstore\n      pop\n      swap3\n      pop\n        /* \"contracts/DataType.sol\":4445:4501  while(number < 10){... */\n    tag_96:\n        /* \"contracts/DataType.sol\":4460:4462  10 */\n      0x0a\n        /* \"contracts/DataType.sol\":4451:4457  number */\n      dup5\n        /* \"contracts/DataType.sol\":4451:4462  number < 10 */\n      lt\n        /* \"contracts/DataType.sol\":4445:4501  while(number < 10){... */\n      iszero\n      tag_97\n      jumpi\n        /* \"contracts/DataType.sol\":4488:4489  5 */\n      0x05\n        /* \"contracts/DataType.sol\":4478:4489  number += 5 */\n      dup5\n      tag_98\n      swap2\n      swap1\n      tag_99\n      jump\t// in\n    tag_98:\n      swap4\n      pop\n        /* \"contracts/DataType.sol\":4445:4501  while(number < 10){... */\n      jump(tag_96)\n    tag_97:\n        /* \"contracts/DataType.sol\":4528:4529  2 */\n      0x02\n        /* \"contracts/DataType.sol\":4511:4525  numberUnsigned */\n      dup1\n        /* \"contracts/DataType.sol\":4511:4529  numberUnsigned = 2 */\n      dup2\n      swap1\n      sstore\n      pop\n        /* \"contracts/DataType.sol\":4584:4598  numberUnsigned */\n      sload(0x02)\n        /* \"contracts/DataType.sol\":4577:4598  return numberUnsigned */\n      swap2\n      pop\n        /* \"contracts/DataType.sol\":4271:4606  function firstFunction2(uint256 number, string memory something) public virtual isGreaterThanZero(number) returns(uint256) {... */\n      pop\n      swap3\n      swap2\n      pop\n      pop\n      jump\t// out\n        /* \"contracts/DataType.sol\":6389:6491  function transactionInformation2() public payable returns (uint256){... */\n    tag_40:\n        /* \"contracts/DataType.sol\":6448:6455  uint256 */\n      0x00\n        /* \"contracts/DataType.sol\":6474:6483  msg.value */\n      callvalue\n        /* \"contracts/DataType.sol\":6467:6483  return msg.value */\n      swap1\n      pop\n        /* \"contracts/DataType.sol\":6389:6491  function transactionInformation2() public payable returns (uint256){... */\n      swap1\n      jump\t// out\n        /* \"contracts/DataTypeChild.sol\":450:550  function firstFunction(uint256) public override pure returns(uint256){... */\n    tag_46:\n        /* \"contracts/DataTypeChild.sol\":511:518  uint256 */\n      0x00\n        /* \"contracts/DataTypeChild.sol\":537:542  12200 */\n      0x2fa8\n        /* \"contracts/DataTypeChild.sol\":530:542  return 12200 */\n      swap1\n      pop\n        /* \"contracts/DataTypeChild.sol\":450:550  function firstFunction(uint256) public override pure returns(uint256){... */\n      swap2\n      swap1\n      pop\n      jump\t// out\n        /* \"contracts/DataType.sol\":7659:7755  function hashFunction() public pure returns(bytes32){... */\n    tag_50:\n        /* \"contracts/DataType.sol\":7703:7710  bytes32 */\n      0x00\n        /* \"contracts/DataType.sol\":7729:7747  keccak256(\"23342\") */\n      0x8507cdd0850fbc1a066cf28b7e46e3a0bd6bec0c738c6f449d619086170366c3\n        /* \"contracts/DataType.sol\":7722:7747  return keccak256(\"23342\") */\n      swap1\n      pop\n        /* \"contracts/DataType.sol\":7659:7755  function hashFunction() public pure returns(bytes32){... */\n      swap1\n      jump\t// out\n        /* \"contracts/DataType.sol\":6985:7055  function arrayFunction() public{... */\n    tag_55:\n        /* \"contracts/DataType.sol\":7027:7039  dynamicArray */\n      0x0b\n        /* \"contracts/DataType.sol\":7045:7046  1 */\n      0x01\n        /* \"contracts/DataType.sol\":7027:7047  dynamicArray.push(1) */\n      swap1\n      dup1\n      0x01\n      dup2\n      sload\n      add\n      dup1\n      dup3\n      sstore\n      dup1\n      swap2\n      pop\n      pop\n      0x01\n      swap1\n      sub\n      swap1\n      0x00\n      mstore\n      keccak256(0x00, 0x20)\n      add\n      0x00\n      swap1\n      swap2\n      swap1\n      swap2\n      swap1\n      swap2\n      pop\n      sstore\n        /* \"contracts/DataType.sol\":6985:7055  function arrayFunction() public{... */\n      jump\t// out\n        /* \"contracts/DataType.sol\":7063:7134  function arrayPopFunction() public{... */\n    tag_58:\n        /* \"contracts/DataType.sol\":7108:7120  dynamicArray */\n      0x0b\n        /* \"contracts/DataType.sol\":7108:7126  dynamicArray.pop() */\n      dup1\n      sload\n      dup1\n      tag_106\n      jumpi\n      tag_107\n      tag_108\n      jump\t// in\n    tag_107:\n    tag_106:\n      0x01\n      swap1\n      sub\n      dup2\n      dup2\n      swap1\n      0x00\n      mstore\n      keccak256(0x00, 0x20)\n      add\n      0x00\n      swap1\n      sstore\n      swap1\n      sstore\n        /* \"contracts/DataType.sol\":7063:7134  function arrayPopFunction() public{... */\n      jump\t// out\n        /* \"contracts/DataType.sol\":2270:2299  uint256[] public dynamicArray */\n    tag_62:\n      0x0b\n      dup2\n      dup2\n      sload\n      dup2\n      lt\n      tag_110\n      jumpi\n      0x00\n      dup1\n      revert\n    tag_110:\n      swap1\n      0x00\n      mstore\n      keccak256(0x00, 0x20)\n      add\n      0x00\n      swap2\n      pop\n      swap1\n      pop\n      sload\n      dup2\n      jump\t// out\n        /* \"contracts/DataType.sol\":5676:5772  function blockInformation2() public view returns (uint256){... */\n    tag_66:\n        /* \"contracts/DataType.sol\":5726:5733  uint256 */\n      0x00\n        /* \"contracts/DataType.sol\":5752:5764  block.number */\n      number\n        /* \"contracts/DataType.sol\":5745:5764  return block.number */\n      swap1\n      pop\n        /* \"contracts/DataType.sol\":5676:5772  function blockInformation2() public view returns (uint256){... */\n      swap1\n      jump\t// out\n        /* \"contracts/DataType.sol\":6750:6855  function transactionInformation3() public pure returns (bytes calldata){... */\n    tag_70:\n        /* \"contracts/DataType.sol\":6806:6820  bytes calldata */\n      calldatasize\n      0x00\n        /* \"contracts/DataType.sol\":6839:6847  msg.data */\n      dup1\n      calldatasize\n        /* \"contracts/DataType.sol\":6832:6847  return msg.data */\n      swap2\n      pop\n      swap2\n      pop\n        /* \"contracts/DataType.sol\":6750:6855  function transactionInformation3() public pure returns (bytes calldata){... */\n      swap1\n      swap2\n      jump\t// out\n        /* \"contracts/DataType.sol\":884:917  uint256 public numberUnsigned = 5 */\n    tag_75:\n      sload(0x02)\n      dup2\n      jump\t// out\n        /* \"contracts/DataType.sol\":5970:6069  function transactionInformation() public view returns (address){... */\n    tag_79:\n        /* \"contracts/DataType.sol\":6025:6032  address */\n      0x00\n        /* \"contracts/DataType.sol\":6051:6061  msg.sender */\n      caller\n        /* \"contracts/DataType.sol\":6044:6061  return msg.sender */\n      swap1\n      pop\n        /* \"contracts/DataType.sol\":5970:6069  function transactionInformation() public view returns (address){... */\n      swap1\n      jump\t// out\n        /* \"contracts/DataTypeChild.sol\":251:354  function accessParentVariable() public pure returns(uint256){... */\n    tag_84:\n        /* \"contracts/DataTypeChild.sol\":303:310  uint256 */\n      0x00\n        /* \"contracts/DataTypeChild.sol\":329:345  firstFunction(2) */\n      tag_116\n        /* \"contracts/DataTypeChild.sol\":343:344  2 */\n      0x02\n        /* \"contracts/DataTypeChild.sol\":329:342  firstFunction */\n      tag_46\n        /* \"contracts/DataTypeChild.sol\":329:345  firstFunction(2) */\n      jump\t// in\n    tag_116:\n        /* \"contracts/DataTypeChild.sol\":322:345  return firstFunction(2) */\n      swap1\n      pop\n        /* \"contracts/DataTypeChild.sol\":251:354  function accessParentVariable() public pure returns(uint256){... */\n      swap1\n      jump\t// out\n        /* \"#utility.yul\":7:84   */\n    tag_117:\n        /* \"#utility.yul\":44:51   */\n      0x00\n        /* \"#utility.yul\":73:78   */\n      dup2\n        /* \"#utility.yul\":62:78   */\n      swap1\n      pop\n        /* \"#utility.yul\":7:84   */\n      swap2\n      swap1\n      pop\n      jump\t// out\n        /* \"#utility.yul\":90:208   */\n    tag_118:\n        /* \"#utility.yul\":177:201   */\n      tag_148\n        /* \"#utility.yul\":195:200   */\n      dup2\n        /* \"#utility.yul\":177:201   */\n      tag_117\n      jump\t// in\n    tag_148:\n        /* \"#utility.yul\":172:175   */\n      dup3\n        /* \"#utility.yul\":165:202   */\n      mstore\n        /* \"#utility.yul\":90:208   */\n      pop\n      pop\n      jump\t// out\n        /* \"#utility.yul\":214:436   */\n    tag_28:\n        /* \"#utility.yul\":307:311   */\n      0x00\n        /* \"#utility.yul\":345:347   */\n      0x20\n        /* \"#utility.yul\":334:343   */\n      dup3\n        /* \"#utility.yul\":330:348   */\n      add\n        /* \"#utility.yul\":322:348   */\n      swap1\n      pop\n        /* \"#utility.yul\":358:429   */\n      tag_150\n        /* \"#utility.yul\":426:427   */\n      0x00\n        /* \"#utility.yul\":415:424   */\n      dup4\n        /* \"#utility.yul\":411:428   */\n      add\n        /* \"#utility.yul\":402:408   */\n      dup5\n        /* \"#utility.yul\":358:429   */\n      tag_118\n      jump\t// in\n    tag_150:\n        /* \"#utility.yul\":214:436   */\n      swap3\n      swap2\n      pop\n      pop\n      jump\t// out\n        /* \"#utility.yul\":442:517   */\n    tag_119:\n        /* \"#utility.yul\":475:481   */\n      0x00\n        /* \"#utility.yul\":508:510   */\n      0x40\n        /* \"#utility.yul\":502:511   */\n      mload\n        /* \"#utility.yul\":492:511   */\n      swap1\n      pop\n        /* \"#utility.yul\":442:517   */\n      swap1\n      jump\t// out\n        /* \"#utility.yul\":523:640   */\n    tag_120:\n        /* \"#utility.yul\":632:633   */\n      0x00\n        /* \"#utility.yul\":629:630   */\n      dup1\n        /* \"#utility.yul\":622:634   */\n      revert\n        /* \"#utility.yul\":646:763   */\n    tag_121:\n        /* \"#utility.yul\":755:756   */\n      0x00\n        /* \"#utility.yul\":752:753   */\n      dup1\n        /* \"#utility.yul\":745:757   */\n      revert\n        /* \"#utility.yul\":769:891   */\n    tag_122:\n        /* \"#utility.yul\":842:866   */\n      tag_155\n        /* \"#utility.yul\":860:865   */\n      dup2\n        /* \"#utility.yul\":842:866   */\n      tag_117\n      jump\t// in\n    tag_155:\n        /* \"#utility.yul\":835:840   */\n      dup2\n        /* \"#utility.yul\":832:867   */\n      eq\n        /* \"#utility.yul\":822:885   */\n      tag_156\n      jumpi\n        /* \"#utility.yul\":881:882   */\n      0x00\n        /* \"#utility.yul\":878:879   */\n      dup1\n        /* \"#utility.yul\":871:883   */\n      revert\n        /* \"#utility.yul\":822:885   */\n    tag_156:\n        /* \"#utility.yul\":769:891   */\n      pop\n      jump\t// out\n        /* \"#utility.yul\":897:1036   */\n    tag_123:\n        /* \"#utility.yul\":943:948   */\n      0x00\n        /* \"#utility.yul\":981:987   */\n      dup2\n        /* \"#utility.yul\":968:988   */\n      calldataload\n        /* \"#utility.yul\":959:988   */\n      swap1\n      pop\n        /* \"#utility.yul\":997:1030   */\n      tag_158\n        /* \"#utility.yul\":1024:1029   */\n      dup2\n        /* \"#utility.yul\":997:1030   */\n      tag_122\n      jump\t// in\n    tag_158:\n        /* \"#utility.yul\":897:1036   */\n      swap3\n      swap2\n      pop\n      pop\n      jump\t// out\n        /* \"#utility.yul\":1042:1159   */\n    tag_124:\n        /* \"#utility.yul\":1151:1152   */\n      0x00\n        /* \"#utility.yul\":1148:1149   */\n      dup1\n        /* \"#utility.yul\":1141:1153   */\n      revert\n        /* \"#utility.yul\":1165:1282   */\n    tag_125:\n        /* \"#utility.yul\":1274:1275   */\n      0x00\n        /* \"#utility.yul\":1271:1272   */\n      dup1\n        /* \"#utility.yul\":1264:1276   */\n      revert\n        /* \"#utility.yul\":1288:1390   */\n    tag_126:\n        /* \"#utility.yul\":1329:1335   */\n      0x00\n        /* \"#utility.yul\":1380:1382   */\n      0x1f\n        /* \"#utility.yul\":1376:1383   */\n      not\n        /* \"#utility.yul\":1371:1373   */\n      0x1f\n        /* \"#utility.yul\":1364:1369   */\n      dup4\n        /* \"#utility.yul\":1360:1374   */\n      add\n        /* \"#utility.yul\":1356:1384   */\n      and\n        /* \"#utility.yul\":1346:1384   */\n      swap1\n      pop\n        /* \"#utility.yul\":1288:1390   */\n      swap2\n      swap1\n      pop\n      jump\t// out\n        /* \"#utility.yul\":1396:1576   */\n    tag_127:\n        /* \"#utility.yul\":1444:1521   */\n      0x4e487b7100000000000000000000000000000000000000000000000000000000\n        /* \"#utility.yul\":1441:1442   */\n      0x00\n        /* \"#utility.yul\":1434:1522   */\n      mstore\n        /* \"#utility.yul\":1541:1545   */\n      0x41\n        /* \"#utility.yul\":1538:1539   */\n      0x04\n        /* \"#utility.yul\":1531:1546   */\n      mstore\n        /* \"#utility.yul\":1565:1569   */\n      0x24\n        /* \"#utility.yul\":1562:1563   */\n      0x00\n        /* \"#utility.yul\":1555:1570   */\n      revert\n        /* \"#utility.yul\":1582:1863   */\n    tag_128:\n        /* \"#utility.yul\":1665:1692   */\n      tag_164\n        /* \"#utility.yul\":1687:1691   */\n      dup3\n        /* \"#utility.yul\":1665:1692   */\n      tag_126\n      jump\t// in\n    tag_164:\n        /* \"#utility.yul\":1657:1663   */\n      dup2\n        /* \"#utility.yul\":1653:1693   */\n      add\n        /* \"#utility.yul\":1795:1801   */\n      dup2\n        /* \"#utility.yul\":1783:1793   */\n      dup2\n        /* \"#utility.yul\":1780:1802   */\n      lt\n        /* \"#utility.yul\":1759:1777   */\n      0xffffffffffffffff\n        /* \"#utility.yul\":1747:1757   */\n      dup3\n        /* \"#utility.yul\":1744:1778   */\n      gt\n        /* \"#utility.yul\":1741:1803   */\n      or\n        /* \"#utility.yul\":1738:1826   */\n      iszero\n      tag_165\n      jumpi\n        /* \"#utility.yul\":1806:1824   */\n      tag_166\n      tag_127\n      jump\t// in\n    tag_166:\n        /* \"#utility.yul\":1738:1826   */\n    tag_165:\n        /* \"#utility.yul\":1846:1856   */\n      dup1\n        /* \"#utility.yul\":1842:1844   */\n      0x40\n        /* \"#utility.yul\":1835:1857   */\n      mstore\n        /* \"#utility.yul\":1625:1863   */\n      pop\n        /* \"#utility.yul\":1582:1863   */\n      pop\n      pop\n      jump\t// out\n        /* \"#utility.yul\":1869:1998   */\n    tag_129:\n        /* \"#utility.yul\":1903:1909   */\n      0x00\n        /* \"#utility.yul\":1930:1950   */\n      tag_168\n      tag_119\n      jump\t// in\n    tag_168:\n        /* \"#utility.yul\":1920:1950   */\n      swap1\n      pop\n        /* \"#utility.yul\":1959:1992   */\n      tag_169\n        /* \"#utility.yul\":1987:1991   */\n      dup3\n        /* \"#utility.yul\":1979:1985   */\n      dup3\n        /* \"#utility.yul\":1959:1992   */\n      tag_128\n      jump\t// in\n    tag_169:\n        /* \"#utility.yul\":1869:1998   */\n      swap2\n      swap1\n      pop\n      jump\t// out\n        /* \"#utility.yul\":2004:2312   */\n    tag_130:\n        /* \"#utility.yul\":2066:2070   */\n      0x00\n        /* \"#utility.yul\":2156:2174   */\n      0xffffffffffffffff\n        /* \"#utility.yul\":2148:2154   */\n      dup3\n        /* \"#utility.yul\":2145:2175   */\n      gt\n        /* \"#utility.yul\":2142:2198   */\n      iszero\n      tag_171\n      jumpi\n        /* \"#utility.yul\":2178:2196   */\n      tag_172\n      tag_127\n      jump\t// in\n    tag_172:\n        /* \"#utility.yul\":2142:2198   */\n    tag_171:\n        /* \"#utility.yul\":2216:2245   */\n      tag_173\n        /* \"#utility.yul\":2238:2244   */\n      dup3\n        /* \"#utility.yul\":2216:2245   */\n      tag_126\n      jump\t// in\n    tag_173:\n        /* \"#utility.yul\":2208:2245   */\n      swap1\n      pop\n        /* \"#utility.yul\":2300:2304   */\n      0x20\n        /* \"#utility.yul\":2294:2298   */\n      dup2\n        /* \"#utility.yul\":2290:2305   */\n      add\n        /* \"#utility.yul\":2282:2305   */\n      swap1\n      pop\n        /* \"#utility.yul\":2004:2312   */\n      swap2\n      swap1\n      pop\n      jump\t// out\n        /* \"#utility.yul\":2318:2464   */\n    tag_131:\n        /* \"#utility.yul\":2415:2421   */\n      dup3\n        /* \"#utility.yul\":2410:2413   */\n      dup2\n        /* \"#utility.yul\":2405:2408   */\n      dup4\n        /* \"#utility.yul\":2392:2422   */\n      calldatacopy\n        /* \"#utility.yul\":2456:2457   */\n      0x00\n        /* \"#utility.yul\":2447:2453   */\n      dup4\n        /* \"#utility.yul\":2442:2445   */\n      dup4\n        /* \"#utility.yul\":2438:2454   */\n      add\n        /* \"#utility.yul\":2431:2458   */\n      mstore\n        /* \"#utility.yul\":2318:2464   */\n      pop\n      pop\n      pop\n      jump\t// out\n        /* \"#utility.yul\":2470:2895   */\n    tag_132:\n        /* \"#utility.yul\":2548:2553   */\n      0x00\n        /* \"#utility.yul\":2573:2639   */\n      tag_176\n        /* \"#utility.yul\":2589:2638   */\n      tag_177\n        /* \"#utility.yul\":2631:2637   */\n      dup5\n        /* \"#utility.yul\":2589:2638   */\n      tag_130\n      jump\t// in\n    tag_177:\n        /* \"#utility.yul\":2573:2639   */\n      tag_129\n      jump\t// in\n    tag_176:\n        /* \"#utility.yul\":2564:2639   */\n      swap1\n      pop\n        /* \"#utility.yul\":2662:2668   */\n      dup3\n        /* \"#utility.yul\":2655:2660   */\n      dup2\n        /* \"#utility.yul\":2648:2669   */\n      mstore\n        /* \"#utility.yul\":2700:2704   */\n      0x20\n        /* \"#utility.yul\":2693:2698   */\n      dup2\n        /* \"#utility.yul\":2689:2705   */\n      add\n        /* \"#utility.yul\":2738:2741   */\n      dup5\n        /* \"#utility.yul\":2729:2735   */\n      dup5\n        /* \"#utility.yul\":2724:2727   */\n      dup5\n        /* \"#utility.yul\":2720:2736   */\n      add\n        /* \"#utility.yul\":2717:2742   */\n      gt\n        /* \"#utility.yul\":2714:2826   */\n      iszero\n      tag_178\n      jumpi\n        /* \"#utility.yul\":2745:2824   */\n      tag_179\n      tag_125\n      jump\t// in\n    tag_179:\n        /* \"#utility.yul\":2714:2826   */\n    tag_178:\n        /* \"#utility.yul\":2835:2889   */\n      tag_180\n        /* \"#utility.yul\":2882:2888   */\n      dup5\n        /* \"#utility.yul\":2877:2880   */\n      dup3\n        /* \"#utility.yul\":2872:2875   */\n      dup6\n        /* \"#utility.yul\":2835:2889   */\n      tag_131\n      jump\t// in\n    tag_180:\n        /* \"#utility.yul\":2554:2895   */\n      pop\n        /* \"#utility.yul\":2470:2895   */\n      swap4\n      swap3\n      pop\n      pop\n      pop\n      jump\t// out\n        /* \"#utility.yul\":2915:3255   */\n    tag_133:\n        /* \"#utility.yul\":2971:2976   */\n      0x00\n        /* \"#utility.yul\":3020:3023   */\n      dup3\n        /* \"#utility.yul\":3013:3017   */\n      0x1f\n        /* \"#utility.yul\":3005:3011   */\n      dup4\n        /* \"#utility.yul\":3001:3018   */\n      add\n        /* \"#utility.yul\":2997:3024   */\n      slt\n        /* \"#utility.yul\":2987:3109   */\n      tag_182\n      jumpi\n        /* \"#utility.yul\":3028:3107   */\n      tag_183\n      tag_124\n      jump\t// in\n    tag_183:\n        /* \"#utility.yul\":2987:3109   */\n    tag_182:\n        /* \"#utility.yul\":3145:3151   */\n      dup2\n        /* \"#utility.yul\":3132:3152   */\n      calldataload\n        /* \"#utility.yul\":3170:3249   */\n      tag_184\n        /* \"#utility.yul\":3245:3248   */\n      dup5\n        /* \"#utility.yul\":3237:3243   */\n      dup3\n        /* \"#utility.yul\":3230:3234   */\n      0x20\n        /* \"#utility.yul\":3222:3228   */\n      dup7\n        /* \"#utility.yul\":3218:3235   */\n      add\n        /* \"#utility.yul\":3170:3249   */\n      tag_132\n      jump\t// in\n    tag_184:\n        /* \"#utility.yul\":3161:3249   */\n      swap2\n      pop\n        /* \"#utility.yul\":2977:3255   */\n      pop\n        /* \"#utility.yul\":2915:3255   */\n      swap3\n      swap2\n      pop\n      pop\n      jump\t// out\n        /* \"#utility.yul\":3261:3915   */\n    tag_36:\n        /* \"#utility.yul\":3339:3345   */\n      0x00\n        /* \"#utility.yul\":3347:3353   */\n      dup1\n        /* \"#utility.yul\":3396:3398   */\n      0x40\n        /* \"#utility.yul\":3384:3393   */\n      dup4\n        /* \"#utility.yul\":3375:3382   */\n      dup6\n        /* \"#utility.yul\":3371:3394   */\n      sub\n        /* \"#utility.yul\":3367:3399   */\n      slt\n        /* \"#utility.yul\":3364:3483   */\n      iszero\n      tag_186\n      jumpi\n        /* \"#utility.yul\":3402:3481   */\n      tag_187\n      tag_120\n      jump\t// in\n    tag_187:\n        /* \"#utility.yul\":3364:3483   */\n    tag_186:\n        /* \"#utility.yul\":3522:3523   */\n      0x00\n        /* \"#utility.yul\":3547:3600   */\n      tag_188\n        /* \"#utility.yul\":3592:3599   */\n      dup6\n        /* \"#utility.yul\":3583:3589   */\n      dup3\n        /* \"#utility.yul\":3572:3581   */\n      dup7\n        /* \"#utility.yul\":3568:3590   */\n      add\n        /* \"#utility.yul\":3547:3600   */\n      tag_123\n      jump\t// in\n    tag_188:\n        /* \"#utility.yul\":3537:3600   */\n      swap3\n      pop\n        /* \"#utility.yul\":3493:3610   */\n      pop\n        /* \"#utility.yul\":3677:3679   */\n      0x20\n        /* \"#utility.yul\":3666:3675   */\n      dup4\n        /* \"#utility.yul\":3662:3680   */\n      add\n        /* \"#utility.yul\":3649:3681   */\n      calldataload\n        /* \"#utility.yul\":3708:3726   */\n      0xffffffffffffffff\n        /* \"#utility.yul\":3700:3706   */\n      dup2\n        /* \"#utility.yul\":3697:3727   */\n      gt\n        /* \"#utility.yul\":3694:3811   */\n      iszero\n      tag_189\n      jumpi\n        /* \"#utility.yul\":3730:3809   */\n      tag_190\n      tag_121\n      jump\t// in\n    tag_190:\n        /* \"#utility.yul\":3694:3811   */\n    tag_189:\n        /* \"#utility.yul\":3835:3898   */\n      tag_191\n        /* \"#utility.yul\":3890:3897   */\n      dup6\n        /* \"#utility.yul\":3881:3887   */\n      dup3\n        /* \"#utility.yul\":3870:3879   */\n      dup7\n        /* \"#utility.yul\":3866:3888   */\n      add\n        /* \"#utility.yul\":3835:3898   */\n      tag_133\n      jump\t// in\n    tag_191:\n        /* \"#utility.yul\":3825:3898   */\n      swap2\n      pop\n        /* \"#utility.yul\":3620:3908   */\n      pop\n        /* \"#utility.yul\":3261:3915   */\n      swap3\n      pop\n      swap3\n      swap1\n      pop\n      jump\t// out\n        /* \"#utility.yul\":3921:4250   */\n    tag_45:\n        /* \"#utility.yul\":3980:3986   */\n      0x00\n        /* \"#utility.yul\":4029:4031   */\n      0x20\n        /* \"#utility.yul\":4017:4026   */\n      dup3\n        /* \"#utility.yul\":4008:4015   */\n      dup5\n        /* \"#utility.yul\":4004:4027   */\n      sub\n        /* \"#utility.yul\":4000:4032   */\n      slt\n        /* \"#utility.yul\":3997:4116   */\n      iszero\n      tag_193\n      jumpi\n        /* \"#utility.yul\":4035:4114   */\n      tag_194\n      tag_120\n      jump\t// in\n    tag_194:\n        /* \"#utility.yul\":3997:4116   */\n    tag_193:\n        /* \"#utility.yul\":4155:4156   */\n      0x00\n        /* \"#utility.yul\":4180:4233   */\n      tag_195\n        /* \"#utility.yul\":4225:4232   */\n      dup5\n        /* \"#utility.yul\":4216:4222   */\n      dup3\n        /* \"#utility.yul\":4205:4214   */\n      dup6\n        /* \"#utility.yul\":4201:4223   */\n      add\n        /* \"#utility.yul\":4180:4233   */\n      tag_123\n      jump\t// in\n    tag_195:\n        /* \"#utility.yul\":4170:4233   */\n      swap2\n      pop\n        /* \"#utility.yul\":4126:4243   */\n      pop\n        /* \"#utility.yul\":3921:4250   */\n      swap3\n      swap2\n      pop\n      pop\n      jump\t// out\n        /* \"#utility.yul\":4256:4333   */\n    tag_134:\n        /* \"#utility.yul\":4293:4300   */\n      0x00\n        /* \"#utility.yul\":4322:4327   */\n      dup2\n        /* \"#utility.yul\":4311:4327   */\n      swap1\n      pop\n        /* \"#utility.yul\":4256:4333   */\n      swap2\n      swap1\n      pop\n      jump\t// out\n        /* \"#utility.yul\":4339:4457   */\n    tag_135:\n        /* \"#utility.yul\":4426:4450   */\n      tag_198\n        /* \"#utility.yul\":4444:4449   */\n      dup2\n        /* \"#utility.yul\":4426:4450   */\n      tag_134\n      jump\t// in\n    tag_198:\n        /* \"#utility.yul\":4421:4424   */\n      dup3\n        /* \"#utility.yul\":4414:4451   */\n      mstore\n        /* \"#utility.yul\":4339:4457   */\n      pop\n      pop\n      jump\t// out\n        /* \"#utility.yul\":4463:4685   */\n    tag_52:\n        /* \"#utility.yul\":4556:4560   */\n      0x00\n        /* \"#utility.yul\":4594:4596   */\n      0x20\n        /* \"#utility.yul\":4583:4592   */\n      dup3\n        /* \"#utility.yul\":4579:4597   */\n      add\n        /* \"#utility.yul\":4571:4597   */\n      swap1\n      pop\n        /* \"#utility.yul\":4607:4678   */\n      tag_200\n        /* \"#utility.yul\":4675:4676   */\n      0x00\n        /* \"#utility.yul\":4664:4673   */\n      dup4\n        /* \"#utility.yul\":4660:4677   */\n      add\n        /* \"#utility.yul\":4651:4657   */\n      dup5\n        /* \"#utility.yul\":4607:4678   */\n      tag_135\n      jump\t// in\n    tag_200:\n        /* \"#utility.yul\":4463:4685   */\n      swap3\n      swap2\n      pop\n      pop\n      jump\t// out\n        /* \"#utility.yul\":4691:4859   */\n    tag_136:\n        /* \"#utility.yul\":4774:4785   */\n      0x00\n        /* \"#utility.yul\":4808:4814   */\n      dup3\n        /* \"#utility.yul\":4803:4806   */\n      dup3\n        /* \"#utility.yul\":4796:4815   */\n      mstore\n        /* \"#utility.yul\":4848:4852   */\n      0x20\n        /* \"#utility.yul\":4843:4846   */\n      dup3\n        /* \"#utility.yul\":4839:4853   */\n      add\n        /* \"#utility.yul\":4824:4853   */\n      swap1\n      pop\n        /* \"#utility.yul\":4691:4859   */\n      swap3\n      swap2\n      pop\n      pop\n      jump\t// out\n        /* \"#utility.yul\":4887:5201   */\n    tag_137:\n        /* \"#utility.yul\":4983:4986   */\n      0x00\n        /* \"#utility.yul\":5004:5074   */\n      tag_203\n        /* \"#utility.yul\":5067:5073   */\n      dup4\n        /* \"#utility.yul\":5062:5065   */\n      dup6\n        /* \"#utility.yul\":5004:5074   */\n      tag_136\n      jump\t// in\n    tag_203:\n        /* \"#utility.yul\":4997:5074   */\n      swap4\n      pop\n        /* \"#utility.yul\":5084:5140   */\n      tag_204\n        /* \"#utility.yul\":5133:5139   */\n      dup4\n        /* \"#utility.yul\":5128:5131   */\n      dup6\n        /* \"#utility.yul\":5121:5126   */\n      dup5\n        /* \"#utility.yul\":5084:5140   */\n      tag_131\n      jump\t// in\n    tag_204:\n        /* \"#utility.yul\":5165:5194   */\n      tag_205\n        /* \"#utility.yul\":5187:5193   */\n      dup4\n        /* \"#utility.yul\":5165:5194   */\n      tag_126\n      jump\t// in\n    tag_205:\n        /* \"#utility.yul\":5160:5163   */\n      dup5\n        /* \"#utility.yul\":5156:5195   */\n      add\n        /* \"#utility.yul\":5149:5195   */\n      swap1\n      pop\n        /* \"#utility.yul\":4887:5201   */\n      swap4\n      swap3\n      pop\n      pop\n      pop\n      jump\t// out\n        /* \"#utility.yul\":5207:5536   */\n    tag_72:\n        /* \"#utility.yul\":5328:5332   */\n      0x00\n        /* \"#utility.yul\":5366:5368   */\n      0x20\n        /* \"#utility.yul\":5355:5364   */\n      dup3\n        /* \"#utility.yul\":5351:5369   */\n      add\n        /* \"#utility.yul\":5343:5369   */\n      swap1\n      pop\n        /* \"#utility.yul\":5415:5424   */\n      dup2\n        /* \"#utility.yul\":5409:5413   */\n      dup2\n        /* \"#utility.yul\":5405:5425   */\n      sub\n        /* \"#utility.yul\":5401:5402   */\n      0x00\n        /* \"#utility.yul\":5390:5399   */\n      dup4\n        /* \"#utility.yul\":5386:5403   */\n      add\n        /* \"#utility.yul\":5379:5426   */\n      mstore\n        /* \"#utility.yul\":5443:5529   */\n      tag_207\n        /* \"#utility.yul\":5524:5528   */\n      dup2\n        /* \"#utility.yul\":5515:5521   */\n      dup5\n        /* \"#utility.yul\":5507:5513   */\n      dup7\n        /* \"#utility.yul\":5443:5529   */\n      tag_137\n      jump\t// in\n    tag_207:\n        /* \"#utility.yul\":5435:5529   */\n      swap1\n      pop\n        /* \"#utility.yul\":5207:5536   */\n      swap4\n      swap3\n      pop\n      pop\n      pop\n      jump\t// out\n        /* \"#utility.yul\":5542:5668   */\n    tag_138:\n        /* \"#utility.yul\":5579:5586   */\n      0x00\n        /* \"#utility.yul\":5619:5661   */\n      0xffffffffffffffffffffffffffffffffffffffff\n        /* \"#utility.yul\":5612:5617   */\n      dup3\n        /* \"#utility.yul\":5608:5662   */\n      and\n        /* \"#utility.yul\":5597:5662   */\n      swap1\n      pop\n        /* \"#utility.yul\":5542:5668   */\n      swap2\n      swap1\n      pop\n      jump\t// out\n        /* \"#utility.yul\":5674:5770   */\n    tag_139:\n        /* \"#utility.yul\":5711:5718   */\n      0x00\n        /* \"#utility.yul\":5740:5764   */\n      tag_210\n        /* \"#utility.yul\":5758:5763   */\n      dup3\n        /* \"#utility.yul\":5740:5764   */\n      tag_138\n      jump\t// in\n    tag_210:\n        /* \"#utility.yul\":5729:5764   */\n      swap1\n      pop\n        /* \"#utility.yul\":5674:5770   */\n      swap2\n      swap1\n      pop\n      jump\t// out\n        /* \"#utility.yul\":5776:5894   */\n    tag_140:\n        /* \"#utility.yul\":5863:5887   */\n      tag_212\n        /* \"#utility.yul\":5881:5886   */\n      dup2\n        /* \"#utility.yul\":5863:5887   */\n      tag_139\n      jump\t// in\n    tag_212:\n        /* \"#utility.yul\":5858:5861   */\n      dup3\n        /* \"#utility.yul\":5851:5888   */\n      mstore\n        /* \"#utility.yul\":5776:5894   */\n      pop\n      pop\n      jump\t// out\n        /* \"#utility.yul\":5900:6122   */\n    tag_81:\n        /* \"#utility.yul\":5993:5997   */\n      0x00\n        /* \"#utility.yul\":6031:6033   */\n      0x20\n        /* \"#utility.yul\":6020:6029   */\n      dup3\n        /* \"#utility.yul\":6016:6034   */\n      add\n        /* \"#utility.yul\":6008:6034   */\n      swap1\n      pop\n        /* \"#utility.yul\":6044:6115   */\n      tag_214\n        /* \"#utility.yul\":6112:6113   */\n      0x00\n        /* \"#utility.yul\":6101:6110   */\n      dup4\n        /* \"#utility.yul\":6097:6114   */\n      add\n        /* \"#utility.yul\":6088:6094   */\n      dup5\n        /* \"#utility.yul\":6044:6115   */\n      tag_140\n      jump\t// in\n    tag_214:\n        /* \"#utility.yul\":5900:6122   */\n      swap3\n      swap2\n      pop\n      pop\n      jump\t// out\n        /* \"#utility.yul\":6128:6308   */\n    tag_89:\n        /* \"#utility.yul\":6176:6253   */\n      0x4e487b7100000000000000000000000000000000000000000000000000000000\n        /* \"#utility.yul\":6173:6174   */\n      0x00\n        /* \"#utility.yul\":6166:6254   */\n      mstore\n        /* \"#utility.yul\":6273:6277   */\n      0x12\n        /* \"#utility.yul\":6270:6271   */\n      0x04\n        /* \"#utility.yul\":6263:6278   */\n      mstore\n        /* \"#utility.yul\":6297:6301   */\n      0x24\n        /* \"#utility.yul\":6294:6295   */\n      0x00\n        /* \"#utility.yul\":6287:6302   */\n      revert\n        /* \"#utility.yul\":6314:6483   */\n    tag_141:\n        /* \"#utility.yul\":6398:6409   */\n      0x00\n        /* \"#utility.yul\":6432:6438   */\n      dup3\n        /* \"#utility.yul\":6427:6430   */\n      dup3\n        /* \"#utility.yul\":6420:6439   */\n      mstore\n        /* \"#utility.yul\":6472:6476   */\n      0x20\n        /* \"#utility.yul\":6467:6470   */\n      dup3\n        /* \"#utility.yul\":6463:6477   */\n      add\n        /* \"#utility.yul\":6448:6477   */\n      swap1\n      pop\n        /* \"#utility.yul\":6314:6483   */\n      swap3\n      swap2\n      pop\n      pop\n      jump\t// out\n        /* \"#utility.yul\":6489:6664   */\n    tag_142:\n        /* \"#utility.yul\":6629:6656   */\n      0x4e65656420746f2062652067726561746572207468616e203000000000000000\n        /* \"#utility.yul\":6625:6626   */\n      0x00\n        /* \"#utility.yul\":6617:6623   */\n      dup3\n        /* \"#utility.yul\":6613:6627   */\n      add\n        /* \"#utility.yul\":6606:6657   */\n      mstore\n        /* \"#utility.yul\":6489:6664   */\n      pop\n      jump\t// out\n        /* \"#utility.yul\":6670:7036   */\n    tag_143:\n        /* \"#utility.yul\":6812:6815   */\n      0x00\n        /* \"#utility.yul\":6833:6900   */\n      tag_219\n        /* \"#utility.yul\":6897:6899   */\n      0x19\n        /* \"#utility.yul\":6892:6895   */\n      dup4\n        /* \"#utility.yul\":6833:6900   */\n      tag_141\n      jump\t// in\n    tag_219:\n        /* \"#utility.yul\":6826:6900   */\n      swap2\n      pop\n        /* \"#utility.yul\":6909:7002   */\n      tag_220\n        /* \"#utility.yul\":6998:7001   */\n      dup3\n        /* \"#utility.yul\":6909:7002   */\n      tag_142\n      jump\t// in\n    tag_220:\n        /* \"#utility.yul\":7027:7029   */\n      0x20\n        /* \"#utility.yul\":7022:7025   */\n      dup3\n        /* \"#utility.yul\":7018:7030   */\n      add\n        /* \"#utility.yul\":7011:7030   */\n      swap1\n      pop\n        /* \"#utility.yul\":6670:7036   */\n      swap2\n      swap1\n      pop\n      jump\t// out\n        /* \"#utility.yul\":7042:7461   */\n    tag_94:\n        /* \"#utility.yul\":7208:7212   */\n      0x00\n        /* \"#utility.yul\":7246:7248   */\n      0x20\n        /* \"#utility.yul\":7235:7244   */\n      dup3\n        /* \"#utility.yul\":7231:7249   */\n      add\n        /* \"#utility.yul\":7223:7249   */\n      swap1\n      pop\n        /* \"#utility.yul\":7295:7304   */\n      dup2\n        /* \"#utility.yul\":7289:7293   */\n      dup2\n        /* \"#utility.yul\":7285:7305   */\n      sub\n        /* \"#utility.yul\":7281:7282   */\n      0x00\n        /* \"#utility.yul\":7270:7279   */\n      dup4\n        /* \"#utility.yul\":7266:7283   */\n      add\n        /* \"#utility.yul\":7259:7306   */\n      mstore\n        /* \"#utility.yul\":7323:7454   */\n      tag_222\n        /* \"#utility.yul\":7449:7453   */\n      dup2\n        /* \"#utility.yul\":7323:7454   */\n      tag_143\n      jump\t// in\n    tag_222:\n        /* \"#utility.yul\":7315:7454   */\n      swap1\n      pop\n        /* \"#utility.yul\":7042:7461   */\n      swap2\n      swap1\n      pop\n      jump\t// out\n        /* \"#utility.yul\":7467:7647   */\n    tag_144:\n        /* \"#utility.yul\":7515:7592   */\n      0x4e487b7100000000000000000000000000000000000000000000000000000000\n        /* \"#utility.yul\":7512:7513   */\n      0x00\n        /* \"#utility.yul\":7505:7593   */\n      mstore\n        /* \"#utility.yul\":7612:7616   */\n      0x11\n        /* \"#utility.yul\":7609:7610   */\n      0x04\n        /* \"#utility.yul\":7602:7617   */\n      mstore\n        /* \"#utility.yul\":7636:7640   */\n      0x24\n        /* \"#utility.yul\":7633:7634   */\n      0x00\n        /* \"#utility.yul\":7626:7641   */\n      revert\n        /* \"#utility.yul\":7653:7844   */\n    tag_99:\n        /* \"#utility.yul\":7693:7696   */\n      0x00\n        /* \"#utility.yul\":7712:7732   */\n      tag_225\n        /* \"#utility.yul\":7730:7731   */\n      dup3\n        /* \"#utility.yul\":7712:7732   */\n      tag_117\n      jump\t// in\n    tag_225:\n        /* \"#utility.yul\":7707:7732   */\n      swap2\n      pop\n        /* \"#utility.yul\":7746:7766   */\n      tag_226\n        /* \"#utility.yul\":7764:7765   */\n      dup4\n        /* \"#utility.yul\":7746:7766   */\n      tag_117\n      jump\t// in\n    tag_226:\n        /* \"#utility.yul\":7741:7766   */\n      swap3\n      pop\n        /* \"#utility.yul\":7789:7790   */\n      dup3\n        /* \"#utility.yul\":7786:7787   */\n      dup3\n        /* \"#utility.yul\":7782:7791   */\n      add\n        /* \"#utility.yul\":7775:7791   */\n      swap1\n      pop\n        /* \"#utility.yul\":7810:7813   */\n      dup1\n        /* \"#utility.yul\":7807:7808   */\n      dup3\n        /* \"#utility.yul\":7804:7814   */\n      gt\n        /* \"#utility.yul\":7801:7837   */\n      iszero\n      tag_227\n      jumpi\n        /* \"#utility.yul\":7817:7835   */\n      tag_228\n      tag_144\n      jump\t// in\n    tag_228:\n        /* \"#utility.yul\":7801:7837   */\n    tag_227:\n        /* \"#utility.yul\":7653:7844   */\n      swap3\n      swap2\n      pop\n      pop\n      jump\t// out\n        /* \"#utility.yul\":7850:8030   */\n    tag_108:\n        /* \"#utility.yul\":7898:7975   */\n      0x4e487b7100000000000000000000000000000000000000000000000000000000\n        /* \"#utility.yul\":7895:7896   */\n      0x00\n        /* \"#utility.yul\":7888:7976   */\n      mstore\n        /* \"#utility.yul\":7995:7999   */\n      0x31\n        /* \"#utility.yul\":7992:7993   */\n      0x04\n        /* \"#utility.yul\":7985:8000   */\n      mstore\n        /* \"#utility.yul\":8019:8023   */\n      0x24\n        /* \"#utility.yul\":8016:8017   */\n      0x00\n        /* \"#utility.yul\":8009:8024   */\n      revert\n\n    auxdata: 0xa26469706673582212206f416097e7ec88984a6104a8633231310b903b1fd4ca20dac32ee36bea9151db64736f6c63430008180033\n}\n",
				"bytecode": {
					"linkReferences": {},
					"object": "60806040526005600255600160035f6101000a81548160ff02191690831515021790555073330f2e60a42351dd3deac65067fa62a77158f996600360016101000a81548173ffffffffffffffffffffffffffffffffffffffff021916908373ffffffffffffffffffffffffffffffffffffffff1602179055506040518060400160405280600581526020017f617272617900000000000000000000000000000000000000000000000000000081525060079081620000be919062000336565b50348015620000cb575f80fd5b506200041a565b5f81519050919050565b7f4e487b71000000000000000000000000000000000000000000000000000000005f52604160045260245ffd5b7f4e487b71000000000000000000000000000000000000000000000000000000005f52602260045260245ffd5b5f60028204905060018216806200014e57607f821691505b60208210810362000164576200016362000109565b5b50919050565b5f819050815f5260205f209050919050565b5f6020601f8301049050919050565b5f82821b905092915050565b5f60088302620001c87fffffffffffffffffffffffffffffffffffffffffffffffffffffffffffffffff826200018b565b620001d486836200018b565b95508019841693508086168417925050509392505050565b5f819050919050565b5f819050919050565b5f6200021e620002186200021284620001ec565b620001f5565b620001ec565b9050919050565b5f819050919050565b6200023983620001fe565b62000251620002488262000225565b84845462000197565b825550505050565b5f90565b6200026762000259565b620002748184846200022e565b505050565b5b818110156200029b576200028f5f826200025d565b6001810190506200027a565b5050565b601f821115620002ea57620002b4816200016a565b620002bf846200017c565b81016020851015620002cf578190505b620002e7620002de856200017c565b83018262000279565b50505b505050565b5f82821c905092915050565b5f6200030c5f1984600802620002ef565b1980831691505092915050565b5f620003268383620002fb565b9150826002028217905092915050565b6200034182620000d2565b67ffffffffffffffff8111156200035d576200035c620000dc565b5b62000369825462000136565b620003768282856200029f565b5f60209050601f831160018114620003ac575f841562000397578287015190505b620003a3858262000319565b86555062000412565b601f198416620003bc866200016a565b5f5b82811015620003e557848901518255600182019150602085019450602081019050620003be565b8683101562000405578489015162000401601f891682620002fb565b8355505b6001600288020188555050505b505050505050565b61096a80620004285f395ff3fe6080604052600436106100e0575f3560e01c806389c87ca71161007e578063c211d6e011610058578063c211d6e01461029d578063ca338553146102c8578063ca37e0a0146102f2578063ca74cc7e1461031c576100ee565b806389c87ca7146102215780639a9bdca714610237578063b43a5bbd14610273576100ee565b80633c269a2c116100ba5780633c269a2c1461018757806345d285b4146101a55780635e8f1084146101e15780636ad622801461020b576100ee565b806308d79c87146100f757806315078f8f14610121578063251d85561461014b576100ee565b366100ee5760666002819055005b60656002819055005b348015610102575f80fd5b5061010b610346565b6040516101189190610506565b60405180910390f35b34801561012c575f80fd5b50610135610361565b6040516101429190610506565b60405180910390f35b348015610156575f80fd5b50610171600480360381019061016c9190610696565b610368565b60405161017e9190610506565b60405180910390f35b61018f610415565b60405161019c9190610506565b60405180910390f35b3480156101b0575f80fd5b506101cb60048036038101906101c691906106f0565b61041c565b6040516101d89190610506565b60405180910390f35b3480156101ec575f80fd5b506101f5610427565b6040516102029190610733565b60405180910390f35b348015610216575f80fd5b5061021f61044e565b005b34801561022c575f80fd5b50610235610477565b005b348015610242575f80fd5b5061025d600480360381019061025891906106f0565b61049e565b60405161026a9190610506565b60405180910390f35b34801561027e575f80fd5b506102876104be565b6040516102949190610506565b60405180910390f35b3480156102a8575f80fd5b506102b16104c5565b6040516102bf929190610788565b60405180910390f35b3480156102d3575f80fd5b506102dc6104d1565b6040516102e99190610506565b60405180910390f35b3480156102fd575f80fd5b506103066104d7565b60405161031391906107e9565b60405180910390f35b348015610327575f80fd5b506103306104de565b60405161033d9190610506565b60405180910390f35b5f60038061035757610356610802565b5b6002600109905090565b5f42905090565b5f825f81116103ac576040517f08c379a00000000000000000000000000000000000000000000000000000000081526004016103a390610889565b60405180910390fd5b6040518060400160405280600f81526020017f736f6d657468696e67206f74686572000000000000000000000000000000000081525092505b600a841015610402576005846103fb91906108d4565b93506103e5565b6002808190555060025491505092915050565b5f34905090565b5f612fa89050919050565b5f7f8507cdd0850fbc1a066cf28b7e46e3a0bd6bec0c738c6f449d619086170366c3905090565b600b6001908060018154018082558091505060019003905f5260205f20015f9091909190915055565b600b80548061048957610488610907565b5b600190038181905f5260205f20015f90559055565b600b81815481106104ad575f80fd5b905f5260205f20015f915090505481565b5f43905090565b365f8036915091509091565b60025481565b5f33905090565b5f6104e9600261041c565b905090565b5f819050919050565b610500816104ee565b82525050565b5f6020820190506105195f8301846104f7565b92915050565b5f604051905090565b5f80fd5b5f80fd5b610539816104ee565b8114610543575f80fd5b50565b5f8135905061055481610530565b92915050565b5f80fd5b5f80fd5b5f601f19601f8301169050919050565b7f4e487b71000000000000000000000000000000000000000000000000000000005f52604160045260245ffd5b6105a882610562565b810181811067ffffffffffffffff821117156105c7576105c6610572565b5b80604052505050565b5f6105d961051f565b90506105e5828261059f565b919050565b5f67ffffffffffffffff82111561060457610603610572565b5b61060d82610562565b9050602081019050919050565b828183375f83830152505050565b5f61063a610635846105ea565b6105d0565b9050828152602081018484840111156106565761065561055e565b5b61066184828561061a565b509392505050565b5f82601f83011261067d5761067c61055a565b5b813561068d848260208601610628565b91505092915050565b5f80604083850312156106ac576106ab610528565b5b5f6106b985828601610546565b925050602083013567ffffffffffffffff8111156106da576106d961052c565b5b6106e685828601610669565b9150509250929050565b5f6020828403121561070557610704610528565b5b5f61071284828501610546565b91505092915050565b5f819050919050565b61072d8161071b565b82525050565b5f6020820190506107465f830184610724565b92915050565b5f82825260208201905092915050565b5f610767838561074c565b935061077483858461061a565b61077d83610562565b840190509392505050565b5f6020820190508181035f8301526107a181848661075c565b90509392505050565b5f73ffffffffffffffffffffffffffffffffffffffff82169050919050565b5f6107d3826107aa565b9050919050565b6107e3816107c9565b82525050565b5f6020820190506107fc5f8301846107da565b92915050565b7f4e487b71000000000000000000000000000000000000000000000000000000005f52601260045260245ffd5b5f82825260208201905092915050565b7f4e65656420746f2062652067726561746572207468616e2030000000000000005f82015250565b5f61087360198361082f565b915061087e8261083f565b602082019050919050565b5f6020820190508181035f8301526108a081610867565b9050919050565b7f4e487b71000000000000000000000000000000000000000000000000000000005f52601160045260245ffd5b5f6108de826104ee565b91506108e9836104ee565b9250828201905080821115610901576109006108a7565b5b92915050565b7f4e487b71000000000000000000000000000000000000000000000000000000005f52603160045260245ffdfea26469706673582212206f416097e7ec88984a6104a8633231310b903b1fd4ca20dac32ee36bea9151db64736f6c63430008180033",
					"opcodes": "PUSH1 0x80 PUSH1 0x40 MSTORE PUSH1 0x5 PUSH1 0x2 SSTORE PUSH1 0x1 PUSH1 0x3 PUSH0 PUSH2 0x100 EXP DUP2 SLOAD DUP2 PUSH1 0xFF MUL NOT AND SWAP1 DUP4 ISZERO ISZERO MUL OR SWAP1 SSTORE POP PUSH20 0x330F2E60A42351DD3DEAC65067FA62A77158F996 PUSH1 0x3 PUSH1 0x1 PUSH2 0x100 EXP DUP2 SLOAD DUP2 PUSH20 0xFFFFFFFFFFFFFFFFFFFFFFFFFFFFFFFFFFFFFFFF MUL NOT AND SWAP1 DUP4 PUSH20 0xFFFFFFFFFFFFFFFFFFFFFFFFFFFFFFFFFFFFFFFF AND MUL OR SWAP1 SSTORE POP PUSH1 0x40 MLOAD DUP1 PUSH1 0x40 ADD PUSH1 0x40 MSTORE DUP1 PUSH1 0x5 DUP2 MSTORE PUSH1 0x20 ADD PUSH32 0x6172726179000000000000000000000000000000000000000000000000000000 DUP2 MSTORE POP PUSH1 0x7 SWAP1 DUP2 PUSH3 0xBE SWAP2 SWAP1 PUSH3 0x336 JUMP JUMPDEST POP CALLVALUE DUP1 ISZERO PUSH3 0xCB JUMPI PUSH0 DUP1 REVERT JUMPDEST POP PUSH3 0x41A JUMP JUMPDEST PUSH0 DUP2 MLOAD SWAP1 POP SWAP2 SWAP1 POP JUMP JUMPDEST PUSH32 0x4E487B7100000000000000000000000000000000000000000000000000000000 PUSH0 MSTORE PUSH1 0x41 PUSH1 0x4 MSTORE PUSH1 0x24 PUSH0 REVERT JUMPDEST PUSH32 0x4E487B7100000000000000000000000000000000000000000000000000000000 PUSH0 MSTORE PUSH1 0x22 PUSH1 0x4 MSTORE PUSH1 0x24 PUSH0 REVERT JUMPDEST PUSH0 PUSH1 0x2 DUP3 DIV SWAP1 POP PUSH1 0x1 DUP3 AND DUP1 PUSH3 0x14E JUMPI PUSH1 0x7F DUP3 AND SWAP2 POP JUMPDEST PUSH1 0x20 DUP3 LT DUP2 SUB PUSH3 0x164 JUMPI PUSH3 0x163 PUSH3 0x109 JUMP JUMPDEST JUMPDEST POP SWAP2 SWAP1 POP JUMP JUMPDEST PUSH0 DUP2 SWAP1 POP DUP2 PUSH0 MSTORE PUSH1 0x20 PUSH0 KECCAK256 SWAP1 POP SWAP2 SWAP1 POP JUMP JUMPDEST PUSH0 PUSH1 0x20 PUSH1 0x1F DUP4 ADD DIV SWAP1 POP SWAP2 SWAP1 POP JUMP JUMPDEST PUSH0 DUP3 DUP3 SHL SWAP1 POP SWAP3 SWAP2 POP POP JUMP JUMPDEST PUSH0 PUSH1 0x8 DUP4 MUL PUSH3 0x1C8 PUSH32 0xFFFFFFFFFFFFFFFFFFFFFFFFFFFFFFFFFFFFFFFFFFFFFFFFFFFFFFFFFFFFFFFF DUP3 PUSH3 0x18B JUMP JUMPDEST PUSH3 0x1D4 DUP7 DUP4 PUSH3 0x18B JUMP JUMPDEST SWAP6 POP DUP1 NOT DUP5 AND SWAP4 POP DUP1 DUP7 AND DUP5 OR SWAP3 POP POP POP SWAP4 SWAP3 POP POP POP JUMP JUMPDEST PUSH0 DUP2 SWAP1 POP SWAP2 SWAP1 POP JUMP JUMPDEST PUSH0 DUP2 SWAP1 POP SWAP2 SWAP1 POP JUMP JUMPDEST PUSH0 PUSH3 0x21E PUSH3 0x218 PUSH3 0x212 DUP5 PUSH3 0x1EC JUMP JUMPDEST PUSH3 0x1F5 JUMP JUMPDEST PUSH3 0x1EC JUMP JUMPDEST SWAP1 POP SWAP2 SWAP1 POP JUMP JUMPDEST PUSH0 DUP2 SWAP1 POP SWAP2 SWAP1 POP JUMP JUMPDEST PUSH3 0x239 DUP4 PUSH3 0x1FE JUMP JUMPDEST PUSH3 0x251 PUSH3 0x248 DUP3 PUSH3 0x225 JUMP JUMPDEST DUP5 DUP5 SLOAD PUSH3 0x197 JUMP JUMPDEST DUP3 SSTORE POP POP POP POP JUMP JUMPDEST PUSH0 SWAP1 JUMP JUMPDEST PUSH3 0x267 PUSH3 0x259 JUMP JUMPDEST PUSH3 0x274 DUP2 DUP5 DUP5 PUSH3 0x22E JUMP JUMPDEST POP POP POP JUMP JUMPDEST JUMPDEST DUP2 DUP2 LT ISZERO PUSH3 0x29B JUMPI PUSH3 0x28F PUSH0 DUP3 PUSH3 0x25D JUMP JUMPDEST PUSH1 0x1 DUP2 ADD SWAP1 POP PUSH3 0x27A JUMP JUMPDEST POP POP JUMP JUMPDEST PUSH1 0x1F DUP3 GT ISZERO PUSH3 0x2EA JUMPI PUSH3 0x2B4 DUP2 PUSH3 0x16A JUMP JUMPDEST PUSH3 0x2BF DUP5 PUSH3 0x17C JUMP JUMPDEST DUP2 ADD PUSH1 0x20 DUP6 LT ISZERO PUSH3 0x2CF JUMPI DUP2 SWAP1 POP JUMPDEST PUSH3 0x2E7 PUSH3 0x2DE DUP6 PUSH3 0x17C JUMP JUMPDEST DUP4 ADD DUP3 PUSH3 0x279 JUMP JUMPDEST POP POP JUMPDEST POP POP POP JUMP JUMPDEST PUSH0 DUP3 DUP3 SHR SWAP1 POP SWAP3 SWAP2 POP POP JUMP JUMPDEST PUSH0 PUSH3 0x30C PUSH0 NOT DUP5 PUSH1 0x8 MUL PUSH3 0x2EF JUMP JUMPDEST NOT DUP1 DUP4 AND SWAP2 POP POP SWAP3 SWAP2 POP POP JUMP JUMPDEST PUSH0 PUSH3 0x326 DUP4 DUP4 PUSH3 0x2FB JUMP JUMPDEST SWAP2 POP DUP3 PUSH1 0x2 MUL DUP3 OR SWAP1 POP SWAP3 SWAP2 POP POP JUMP JUMPDEST PUSH3 0x341 DUP3 PUSH3 0xD2 JUMP JUMPDEST PUSH8 0xFFFFFFFFFFFFFFFF DUP2 GT ISZERO PUSH3 0x35D JUMPI PUSH3 0x35C PUSH3 0xDC JUMP JUMPDEST JUMPDEST PUSH3 0x369 DUP3 SLOAD PUSH3 0x136 JUMP JUMPDEST PUSH3 0x376 DUP3 DUP3 DUP6 PUSH3 0x29F JUMP JUMPDEST PUSH0 PUSH1 0x20 SWAP1 POP PUSH1 0x1F DUP4 GT PUSH1 0x1 DUP2 EQ PUSH3 0x3AC JUMPI PUSH0 DUP5 ISZERO PUSH3 0x397 JUMPI DUP3 DUP8 ADD MLOAD SWAP1 POP JUMPDEST PUSH3 0x3A3 DUP6 DUP3 PUSH3 0x319 JUMP JUMPDEST DUP7 SSTORE POP PUSH3 0x412 JUMP JUMPDEST PUSH1 0x1F NOT DUP5 AND PUSH3 0x3BC DUP7 PUSH3 0x16A JUMP JUMPDEST PUSH0 JUMPDEST DUP3 DUP2 LT ISZERO PUSH3 0x3E5 JUMPI DUP5 DUP10 ADD MLOAD DUP3 SSTORE PUSH1 0x1 DUP3 ADD SWAP2 POP PUSH1 0x20 DUP6 ADD SWAP5 POP PUSH1 0x20 DUP2 ADD SWAP1 POP PUSH3 0x3BE JUMP JUMPDEST DUP7 DUP4 LT ISZERO PUSH3 0x405 JUMPI DUP5 DUP10 ADD MLOAD PUSH3 0x401 PUSH1 0x1F DUP10 AND DUP3 PUSH3 0x2FB JUMP JUMPDEST DUP4 SSTORE POP JUMPDEST PUSH1 0x1 PUSH1 0x2 DUP9 MUL ADD DUP9 SSTORE POP POP POP JUMPDEST POP POP POP POP POP POP JUMP JUMPDEST PUSH2 0x96A DUP1 PUSH3 0x428 PUSH0 CODECOPY PUSH0 RETURN INVALID PUSH1 0x80 PUSH1 0x40 MSTORE PUSH1 0x4 CALLDATASIZE LT PUSH2 0xE0 JUMPI PUSH0 CALLDATALOAD PUSH1 0xE0 SHR DUP1 PUSH4 0x89C87CA7 GT PUSH2 0x7E JUMPI DUP1 PUSH4 0xC211D6E0 GT PUSH2 0x58 JUMPI DUP1 PUSH4 0xC211D6E0 EQ PUSH2 0x29D JUMPI DUP1 PUSH4 0xCA338553 EQ PUSH2 0x2C8 JUMPI DUP1 PUSH4 0xCA37E0A0 EQ PUSH2 0x2F2 JUMPI DUP1 PUSH4 0xCA74CC7E EQ PUSH2 0x31C JUMPI PUSH2 0xEE JUMP JUMPDEST DUP1 PUSH4 0x89C87CA7 EQ PUSH2 0x221 JUMPI DUP1 PUSH4 0x9A9BDCA7 EQ PUSH2 0x237 JUMPI DUP1 PUSH4 0xB43A5BBD EQ PUSH2 0x273 JUMPI PUSH2 0xEE JUMP JUMPDEST DUP1 PUSH4 0x3C269A2C GT PUSH2 0xBA JUMPI DUP1 PUSH4 0x3C269A2C EQ PUSH2 0x187 JUMPI DUP1 PUSH4 0x45D285B4 EQ PUSH2 0x1A5 JUMPI DUP1 PUSH4 0x5E8F1084 EQ PUSH2 0x1E1 JUMPI DUP1 PUSH4 0x6AD62280 EQ PUSH2 0x20B JUMPI PUSH2 0xEE JUMP JUMPDEST DUP1 PUSH4 0x8D79C87 EQ PUSH2 0xF7 JUMPI DUP1 PUSH4 0x15078F8F EQ PUSH2 0x121 JUMPI DUP1 PUSH4 0x251D8556 EQ PUSH2 0x14B JUMPI PUSH2 0xEE JUMP JUMPDEST CALLDATASIZE PUSH2 0xEE JUMPI PUSH1 0x66 PUSH1 0x2 DUP2 SWAP1 SSTORE STOP JUMPDEST PUSH1 0x65 PUSH1 0x2 DUP2 SWAP1 SSTORE STOP JUMPDEST CALLVALUE DUP1 ISZERO PUSH2 0x102 JUMPI PUSH0 DUP1 REVERT JUMPDEST POP PUSH2 0x10B PUSH2 0x346 JUMP JUMPDEST PUSH1 0x40 MLOAD PUSH2 0x118 SWAP2 SWAP1 PUSH2 0x506 JUMP JUMPDEST PUSH1 0x40 MLOAD DUP1 SWAP2 SUB SWAP1 RETURN JUMPDEST CALLVALUE DUP1 ISZERO PUSH2 0x12C JUMPI PUSH0 DUP1 REVERT JUMPDEST POP PUSH2 0x135 PUSH2 0x361 JUMP JUMPDEST PUSH1 0x40 MLOAD PUSH2 0x142 SWAP2 SWAP1 PUSH2 0x506 JUMP JUMPDEST PUSH1 0x40 MLOAD DUP1 SWAP2 SUB SWAP1 RETURN JUMPDEST CALLVALUE DUP1 ISZERO PUSH2 0x156 JUMPI PUSH0 DUP1 REVERT JUMPDEST POP PUSH2 0x171 PUSH1 0x4 DUP1 CALLDATASIZE SUB DUP2 ADD SWAP1 PUSH2 0x16C SWAP2 SWAP1 PUSH2 0x696 JUMP JUMPDEST PUSH2 0x368 JUMP JUMPDEST PUSH1 0x40 MLOAD PUSH2 0x17E SWAP2 SWAP1 PUSH2 0x506 JUMP JUMPDEST PUSH1 0x40 MLOAD DUP1 SWAP2 SUB SWAP1 RETURN JUMPDEST PUSH2 0x18F PUSH2 0x415 JUMP JUMPDEST PUSH1 0x40 MLOAD PUSH2 0x19C SWAP2 SWAP1 PUSH2 0x506 JUMP JUMPDEST PUSH1 0x40 MLOAD DUP1 SWAP2 SUB SWAP1 RETURN JUMPDEST CALLVALUE DUP1 ISZERO PUSH2 0x1B0 JUMPI PUSH0 DUP1 REVERT JUMPDEST POP PUSH2 0x1CB PUSH1 0x4 DUP1 CALLDATASIZE SUB DUP2 ADD SWAP1 PUSH2 0x1C6 SWAP2 SWAP1 PUSH2 0x6F0 JUMP JUMPDEST PUSH2 0x41C JUMP JUMPDEST PUSH1 0x40 MLOAD PUSH2 0x1D8 SWAP2 SWAP1 PUSH2 0x506 JUMP JUMPDEST PUSH1 0x40 MLOAD DUP1 SWAP2 SUB SWAP1 RETURN JUMPDEST CALLVALUE DUP1 ISZERO PUSH2 0x1EC JUMPI PUSH0 DUP1 REVERT JUMPDEST POP PUSH2 0x1F5 PUSH2 0x427 JUMP JUMPDEST PUSH1 0x40 MLOAD PUSH2 0x202 SWAP2 SWAP1 PUSH2 0x733 JUMP JUMPDEST PUSH1 0x40 MLOAD DUP1 SWAP2 SUB SWAP1 RETURN JUMPDEST CALLVALUE DUP1 ISZERO PUSH2 0x216 JUMPI PUSH0 DUP1 REVERT JUMPDEST POP PUSH2 0x21F PUSH2 0x44E JUMP JUMPDEST STOP JUMPDEST CALLVALUE DUP1 ISZERO PUSH2 0x22C JUMPI PUSH0 DUP1 REVERT JUMPDEST POP PUSH2 0x235 PUSH2 0x477 JUMP JUMPDEST STOP JUMPDEST CALLVALUE DUP1 ISZERO PUSH2 0x242 JUMPI PUSH0 DUP1 REVERT JUMPDEST POP PUSH2 0x25D PUSH1 0x4 DUP1 CALLDATASIZE SUB DUP2 ADD SWAP1 PUSH2 0x258 SWAP2 SWAP1 PUSH2 0x6F0 JUMP JUMPDEST PUSH2 0x49E JUMP JUMPDEST PUSH1 0x40 MLOAD PUSH2 0x26A SWAP2 SWAP1 PUSH2 0x506 JUMP JUMPDEST PUSH1 0x40 MLOAD DUP1 SWAP2 SUB SWAP1 RETURN JUMPDEST CALLVALUE DUP1 ISZERO PUSH2 0x27E JUMPI PUSH0 DUP1 REVERT JUMPDEST POP PUSH2 0x287 PUSH2 0x4BE JUMP JUMPDEST PUSH1 0x40 MLOAD PUSH2 0x294 SWAP2 SWAP1 PUSH2 0x506 JUMP JUMPDEST PUSH1 0x40 MLOAD DUP1 SWAP2 SUB SWAP1 RETURN JUMPDEST CALLVALUE DUP1 ISZERO PUSH2 0x2A8 JUMPI PUSH0 DUP1 REVERT JUMPDEST POP PUSH2 0x2B1 PUSH2 0x4C5 JUMP JUMPDEST PUSH1 0x40 MLOAD PUSH2 0x2BF SWAP3 SWAP2 SWAP1 PUSH2 0x788 JUMP JUMPDEST PUSH1 0x40 MLOAD DUP1 SWAP2 SUB SWAP1 RETURN JUMPDEST CALLVALUE DUP1 ISZERO PUSH2 0x2D3 JUMPI PUSH0 DUP1 REVERT JUMPDEST POP PUSH2 0x2DC PUSH2 0x4D1 JUMP JUMPDEST PUSH1 0x40 MLOAD PUSH2 0x2E9 SWAP2 SWAP1 PUSH2 0x506 JUMP JUMPDEST PUSH1 0x40 MLOAD DUP1 SWAP2 SUB SWAP1 RETURN JUMPDEST CALLVALUE DUP1 ISZERO PUSH2 0x2FD JUMPI PUSH0 DUP1 REVERT JUMPDEST POP PUSH2 0x306 PUSH2 0x4D7 JUMP JUMPDEST PUSH1 0x40 MLOAD PUSH2 0x313 SWAP2 SWAP1 PUSH2 0x7E9 JUMP JUMPDEST PUSH1 0x40 MLOAD DUP1 SWAP2 SUB SWAP1 RETURN JUMPDEST CALLVALUE DUP1 ISZERO PUSH2 0x327 JUMPI PUSH0 DUP1 REVERT JUMPDEST POP PUSH2 0x330 PUSH2 0x4DE JUMP JUMPDEST PUSH1 0x40 MLOAD PUSH2 0x33D SWAP2 SWAP1 PUSH2 0x506 JUMP JUMPDEST PUSH1 0x40 MLOAD DUP1 SWAP2 SUB SWAP1 RETURN JUMPDEST PUSH0 PUSH1 0x3 DUP1 PUSH2 0x357 JUMPI PUSH2 0x356 PUSH2 0x802 JUMP JUMPDEST JUMPDEST PUSH1 0x2 PUSH1 0x1 MULMOD SWAP1 POP SWAP1 JUMP JUMPDEST PUSH0 TIMESTAMP SWAP1 POP SWAP1 JUMP JUMPDEST PUSH0 DUP3 PUSH0 DUP2 GT PUSH2 0x3AC JUMPI PUSH1 0x40 MLOAD PUSH32 0x8C379A000000000000000000000000000000000000000000000000000000000 DUP2 MSTORE PUSH1 0x4 ADD PUSH2 0x3A3 SWAP1 PUSH2 0x889 JUMP JUMPDEST PUSH1 0x40 MLOAD DUP1 SWAP2 SUB SWAP1 REVERT JUMPDEST PUSH1 0x40 MLOAD DUP1 PUSH1 0x40 ADD PUSH1 0x40 MSTORE DUP1 PUSH1 0xF DUP2 MSTORE PUSH1 0x20 ADD PUSH32 0x736F6D657468696E67206F746865720000000000000000000000000000000000 DUP2 MSTORE POP SWAP3 POP JUMPDEST PUSH1 0xA DUP5 LT ISZERO PUSH2 0x402 JUMPI PUSH1 0x5 DUP5 PUSH2 0x3FB SWAP2 SWAP1 PUSH2 0x8D4 JUMP JUMPDEST SWAP4 POP PUSH2 0x3E5 JUMP JUMPDEST PUSH1 0x2 DUP1 DUP2 SWAP1 SSTORE POP PUSH1 0x2 SLOAD SWAP2 POP POP SWAP3 SWAP2 POP POP JUMP JUMPDEST PUSH0 CALLVALUE SWAP1 POP SWAP1 JUMP JUMPDEST PUSH0 PUSH2 0x2FA8 SWAP1 POP SWAP2 SWAP1 POP JUMP JUMPDEST PUSH0 PUSH32 0x8507CDD0850FBC1A066CF28B7E46E3A0BD6BEC0C738C6F449D619086170366C3 SWAP1 POP SWAP1 JUMP JUMPDEST PUSH1 0xB PUSH1 0x1 SWAP1 DUP1 PUSH1 0x1 DUP2 SLOAD ADD DUP1 DUP3 SSTORE DUP1 SWAP2 POP POP PUSH1 0x1 SWAP1 SUB SWAP1 PUSH0 MSTORE PUSH1 0x20 PUSH0 KECCAK256 ADD PUSH0 SWAP1 SWAP2 SWAP1 SWAP2 SWAP1 SWAP2 POP SSTORE JUMP JUMPDEST PUSH1 0xB DUP1 SLOAD DUP1 PUSH2 0x489 JUMPI PUSH2 0x488 PUSH2 0x907 JUMP JUMPDEST JUMPDEST PUSH1 0x1 SWAP1 SUB DUP2 DUP2 SWAP1 PUSH0 MSTORE PUSH1 0x20 PUSH0 KECCAK256 ADD PUSH0 SWAP1 SSTORE SWAP1 SSTORE JUMP JUMPDEST PUSH1 0xB DUP2 DUP2 SLOAD DUP2 LT PUSH2 0x4AD JUMPI PUSH0 DUP1 REVERT JUMPDEST SWAP1 PUSH0 MSTORE PUSH1 0x20 PUSH0 KECCAK256 ADD PUSH0 SWAP2 POP SWAP1 POP SLOAD DUP2 JUMP JUMPDEST PUSH0 NUMBER SWAP1 POP SWAP1 JUMP JUMPDEST CALLDATASIZE PUSH0 DUP1 CALLDATASIZE SWAP2 POP SWAP2 POP SWAP1 SWAP2 JUMP JUMPDEST PUSH1 0x2 SLOAD DUP2 JUMP JUMPDEST PUSH0 CALLER SWAP1 POP SWAP1 JUMP JUMPDEST PUSH0 PUSH2 0x4E9 PUSH1 0x2 PUSH2 0x41C JUMP JUMPDEST SWAP1 POP SWAP1 JUMP JUMPDEST PUSH0 DUP2 SWAP1 POP SWAP2 SWAP1 POP JUMP JUMPDEST PUSH2 0x500 DUP2 PUSH2 0x4EE JUMP JUMPDEST DUP3 MSTORE POP POP JUMP JUMPDEST PUSH0 PUSH1 0x20 DUP3 ADD SWAP1 POP PUSH2 0x519 PUSH0 DUP4 ADD DUP5 PUSH2 0x4F7 JUMP JUMPDEST SWAP3 SWAP2 POP POP JUMP JUMPDEST PUSH0 PUSH1 0x40 MLOAD SWAP1 POP SWAP1 JUMP JUMPDEST PUSH0 DUP1 REVERT JUMPDEST PUSH0 DUP1 REVERT JUMPDEST PUSH2 0x539 DUP2 PUSH2 0x4EE JUMP JUMPDEST DUP2 EQ PUSH2 0x543 JUMPI PUSH0 DUP1 REVERT JUMPDEST POP JUMP JUMPDEST PUSH0 DUP2 CALLDATALOAD SWAP1 POP PUSH2 0x554 DUP2 PUSH2 0x530 JUMP JUMPDEST SWAP3 SWAP2 POP POP JUMP JUMPDEST PUSH0 DUP1 REVERT JUMPDEST PUSH0 DUP1 REVERT JUMPDEST PUSH0 PUSH1 0x1F NOT PUSH1 0x1F DUP4 ADD AND SWAP1 POP SWAP2 SWAP1 POP JUMP JUMPDEST PUSH32 0x4E487B7100000000000000000000000000000000000000000000000000000000 PUSH0 MSTORE PUSH1 0x41 PUSH1 0x4 MSTORE PUSH1 0x24 PUSH0 REVERT JUMPDEST PUSH2 0x5A8 DUP3 PUSH2 0x562 JUMP JUMPDEST DUP2 ADD DUP2 DUP2 LT PUSH8 0xFFFFFFFFFFFFFFFF DUP3 GT OR ISZERO PUSH2 0x5C7 JUMPI PUSH2 0x5C6 PUSH2 0x572 JUMP JUMPDEST JUMPDEST DUP1 PUSH1 0x40 MSTORE POP POP POP JUMP JUMPDEST PUSH0 PUSH2 0x5D9 PUSH2 0x51F JUMP JUMPDEST SWAP1 POP PUSH2 0x5E5 DUP3 DUP3 PUSH2 0x59F JUMP JUMPDEST SWAP2 SWAP1 POP JUMP JUMPDEST PUSH0 PUSH8 0xFFFFFFFFFFFFFFFF DUP3 GT ISZERO PUSH2 0x604 JUMPI PUSH2 0x603 PUSH2 0x572 JUMP JUMPDEST JUMPDEST PUSH2 0x60D DUP3 PUSH2 0x562 JUMP JUMPDEST SWAP1 POP PUSH1 0x20 DUP2 ADD SWAP1 POP SWAP2 SWAP1 POP JUMP JUMPDEST DUP3 DUP2 DUP4 CALLDATACOPY PUSH0 DUP4 DUP4 ADD MSTORE POP POP POP JUMP JUMPDEST PUSH0 PUSH2 0x63A PUSH2 0x635 DUP5 PUSH2 0x5EA JUMP JUMPDEST PUSH2 0x5D0 JUMP JUMPDEST SWAP1 POP DUP3 DUP2 MSTORE PUSH1 0x20 DUP2 ADD DUP5 DUP5 DUP5 ADD GT ISZERO PUSH2 0x656 JUMPI PUSH2 0x655 PUSH2 0x55E JUMP JUMPDEST JUMPDEST PUSH2 0x661 DUP5 DUP3 DUP6 PUSH2 0x61A JUMP JUMPDEST POP SWAP4 SWAP3 POP POP POP JUMP JUMPDEST PUSH0 DUP3 PUSH1 0x1F DUP4 ADD SLT PUSH2 0x67D JUMPI PUSH2 0x67C PUSH2 0x55A JUMP JUMPDEST JUMPDEST DUP2 CALLDATALOAD PUSH2 0x68D DUP5 DUP3 PUSH1 0x20 DUP7 ADD PUSH2 0x628 JUMP JUMPDEST SWAP2 POP POP SWAP3 SWAP2 POP POP JUMP JUMPDEST PUSH0 DUP1 PUSH1 0x40 DUP4 DUP6 SUB SLT ISZERO PUSH2 0x6AC JUMPI PUSH2 0x6AB PUSH2 0x528 JUMP JUMPDEST JUMPDEST PUSH0 PUSH2 0x6B9 DUP6 DUP3 DUP7 ADD PUSH2 0x546 JUMP JUMPDEST SWAP3 POP POP PUSH1 0x20 DUP4 ADD CALLDATALOAD PUSH8 0xFFFFFFFFFFFFFFFF DUP2 GT ISZERO PUSH2 0x6DA JUMPI PUSH2 0x6D9 PUSH2 0x52C JUMP JUMPDEST JUMPDEST PUSH2 0x6E6 DUP6 DUP3 DUP7 ADD PUSH2 0x669 JUMP JUMPDEST SWAP2 POP POP SWAP3 POP SWAP3 SWAP1 POP JUMP JUMPDEST PUSH0 PUSH1 0x20 DUP3 DUP5 SUB SLT ISZERO PUSH2 0x705 JUMPI PUSH2 0x704 PUSH2 0x528 JUMP JUMPDEST JUMPDEST PUSH0 PUSH2 0x712 DUP5 DUP3 DUP6 ADD PUSH2 0x546 JUMP JUMPDEST SWAP2 POP POP SWAP3 SWAP2 POP POP JUMP JUMPDEST PUSH0 DUP2 SWAP1 POP SWAP2 SWAP1 POP JUMP JUMPDEST PUSH2 0x72D DUP2 PUSH2 0x71B JUMP JUMPDEST DUP3 MSTORE POP POP JUMP JUMPDEST PUSH0 PUSH1 0x20 DUP3 ADD SWAP1 POP PUSH2 0x746 PUSH0 DUP4 ADD DUP5 PUSH2 0x724 JUMP JUMPDEST SWAP3 SWAP2 POP POP JUMP JUMPDEST PUSH0 DUP3 DUP3 MSTORE PUSH1 0x20 DUP3 ADD SWAP1 POP SWAP3 SWAP2 POP POP JUMP JUMPDEST PUSH0 PUSH2 0x767 DUP4 DUP6 PUSH2 0x74C JUMP JUMPDEST SWAP4 POP PUSH2 0x774 DUP4 DUP6 DUP5 PUSH2 0x61A JUMP JUMPDEST PUSH2 0x77D DUP4 PUSH2 0x562 JUMP JUMPDEST DUP5 ADD SWAP1 POP SWAP4 SWAP3 POP POP POP JUMP JUMPDEST PUSH0 PUSH1 0x20 DUP3 ADD SWAP1 POP DUP2 DUP2 SUB PUSH0 DUP4 ADD MSTORE PUSH2 0x7A1 DUP2 DUP5 DUP7 PUSH2 0x75C JUMP JUMPDEST SWAP1 POP SWAP4 SWAP3 POP POP POP JUMP JUMPDEST PUSH0 PUSH20 0xFFFFFFFFFFFFFFFFFFFFFFFFFFFFFFFFFFFFFFFF DUP3 AND SWAP1 POP SWAP2 SWAP1 POP JUMP JUMPDEST PUSH0 PUSH2 0x7D3 DUP3 PUSH2 0x7AA JUMP JUMPDEST SWAP1 POP SWAP2 SWAP1 POP JUMP JUMPDEST PUSH2 0x7E3 DUP2 PUSH2 0x7C9 JUMP JUMPDEST DUP3 MSTORE POP POP JUMP JUMPDEST PUSH0 PUSH1 0x20 DUP3 ADD SWAP1 POP PUSH2 0x7FC PUSH0 DUP4 ADD DUP5 PUSH2 0x7DA JUMP JUMPDEST SWAP3 SWAP2 POP POP JUMP JUMPDEST PUSH32 0x4E487B7100000000000000000000000000000000000000000000000000000000 PUSH0 MSTORE PUSH1 0x12 PUSH1 0x4 MSTORE PUSH1 0x24 PUSH0 REVERT JUMPDEST PUSH0 DUP3 DUP3 MSTORE PUSH1 0x20 DUP3 ADD SWAP1 POP SWAP3 SWAP2 POP POP JUMP JUMPDEST PUSH32 0x4E65656420746F2062652067726561746572207468616E203000000000000000 PUSH0 DUP3 ADD MSTORE POP JUMP JUMPDEST PUSH0 PUSH2 0x873 PUSH1 0x19 DUP4 PUSH2 0x82F JUMP JUMPDEST SWAP2 POP PUSH2 0x87E DUP3 PUSH2 0x83F JUMP JUMPDEST PUSH1 0x20 DUP3 ADD SWAP1 POP SWAP2 SWAP1 POP JUMP JUMPDEST PUSH0 PUSH1 0x20 DUP3 ADD SWAP1 POP DUP2 DUP2 SUB PUSH0 DUP4 ADD MSTORE PUSH2 0x8A0 DUP2 PUSH2 0x867 JUMP JUMPDEST SWAP1 POP SWAP2 SWAP1 POP JUMP JUMPDEST PUSH32 0x4E487B7100000000000000000000000000000000000000000000000000000000 PUSH0 MSTORE PUSH1 0x11 PUSH1 0x4 MSTORE PUSH1 0x24 PUSH0 REVERT JUMPDEST PUSH0 PUSH2 0x8DE DUP3 PUSH2 0x4EE JUMP JUMPDEST SWAP2 POP PUSH2 0x8E9 DUP4 PUSH2 0x4EE JUMP JUMPDEST SWAP3 POP DUP3 DUP3 ADD SWAP1 POP DUP1 DUP3 GT ISZERO PUSH2 0x901 JUMPI PUSH2 0x900 PUSH2 0x8A7 JUMP JUMPDEST JUMPDEST SWAP3 SWAP2 POP POP JUMP JUMPDEST PUSH32 0x4E487B7100000000000000000000000000000000000000000000000000000000 PUSH0 MSTORE PUSH1 0x31 PUSH1 0x4 MSTORE PUSH1 0x24 PUSH0 REVERT INVALID LOG2 PUSH5 0x6970667358 0x22 SLT KECCAK256 PUSH16 0x416097E7EC88984A6104A8633231310B SWAP1 EXTCODESIZE 0x1F 0xD4 0xCA KECCAK256 0xDA 0xC3 0x2E 0xE3 PUSH12 0xEA9151DB64736F6C63430008 XOR STOP CALLER "
				},
				"gasEstimates": {
					"creation": {
						"codeDepositCost": "482000",
						"executionCost": "infinite",
						"totalCost": "infinite"
					},
					"external": {
						"": "22286",
						"accessParentVariable()": "462",
						"arrayFunction()": "46652",
						"arrayPopFunction()": "29464",
						"blockInformation()": "377",
						"blockInformation2()": "398",
						"dynamicArray(uint256)": "infinite",
						"firstFunction(uint256)": "infinite",
						"firstFunction2(uint256,string)": "infinite",
						"hashFunction()": "399",
						"mathIntegrated()": "387",
						"numberUnsigned()": "2469",
						"transactionInformation()": "445",
						"transactionInformation2()": "330",
						"transactionInformation3()": "infinite"
					}
				},
				"methodIdentifiers": {
					"accessParentVariable()": "ca74cc7e",
					"arrayFunction()": "6ad62280",
					"arrayPopFunction()": "89c87ca7",
					"blockInformation()": "15078f8f",
					"blockInformation2()": "b43a5bbd",
					"dynamicArray(uint256)": "9a9bdca7",
					"firstFunction(uint256)": "45d285b4",
					"firstFunction2(uint256,string)": "251d8556",
					"hashFunction()": "5e8f1084",
					"mathIntegrated()": "08d79c87",
					"numberUnsigned()": "ca338553",
					"transactionInformation()": "ca37e0a0",
					"transactionInformation2()": "3c269a2c",
					"transactionInformation3()": "c211d6e0"
				}
			},
			"storageLayout": {
				"storage": [
					{
						"astId": 3,
						"contract": "contracts/DataTypeChild.sol:DataTypeChild",
						"label": "numberSigned",
						"offset": 0,
						"slot": "0",
						"type": "t_int256"
					},
					{
						"astId": 5,
						"contract": "contracts/DataTypeChild.sol:DataTypeChild",
						"label": "numberSignedMini",
						"offset": 0,
						"slot": "1",
						"type": "t_int8"
					},
					{
						"astId": 8,
						"contract": "contracts/DataTypeChild.sol:DataTypeChild",
						"label": "numberUnsigned",
						"offset": 0,
						"slot": "2",
						"type": "t_uint256"
					},
					{
						"astId": 11,
						"contract": "contracts/DataTypeChild.sol:DataTypeChild",
						"label": "trueOrFalse",
						"offset": 0,
						"slot": "3",
						"type": "t_bool"
					},
					{
						"astId": 14,
						"contract": "contracts/DataTypeChild.sol:DataTypeChild",
						"label": "addressDeMoi",
						"offset": 1,
						"slot": "3",
						"type": "t_address"
					},
					{
						"astId": 20,
						"contract": "contracts/DataTypeChild.sol:DataTypeChild",
						"label": "arrayOrBytes",
						"offset": 0,
						"slot": "4",
						"type": "t_bytes32"
					},
					{
						"astId": 22,
						"contract": "contracts/DataTypeChild.sol:DataTypeChild",
						"label": "smallArrayBytes",
						"offset": 0,
						"slot": "5",
						"type": "t_bytes1"
					},
					{
						"astId": 24,
						"contract": "contracts/DataTypeChild.sol:DataTypeChild",
						"label": "dynamicArrayBytes",
						"offset": 0,
						"slot": "6",
						"type": "t_bytes_storage"
					},
					{
						"astId": 27,
						"contract": "contracts/DataTypeChild.sol:DataTypeChild",
						"label": "arrayOfCharacter",
						"offset": 0,
						"slot": "7",
						"type": "t_string_storage"
					},
					{
						"astId": 31,
						"contract": "contracts/DataTypeChild.sol:DataTypeChild",
						"label": "fixedArrayOfLength3",
						"offset": 0,
						"slot": "8",
						"type": "t_array(t_uint256)3_storage"
					},
					{
						"astId": 34,
						"contract": "contracts/DataTypeChild.sol:DataTypeChild",
						"label": "dynamicArray",
						"offset": 0,
						"slot": "11",
						"type": "t_array(t_uint256)dyn_storage"
					},
					{
						"astId": 46,
						"contract": "contracts/DataTypeChild.sol:DataTypeChild",
						"label": "mappingOfBook",
						"offset": 0,
						"slot": "12",
						"type": "t_mapping(t_uint256,t_struct(Book)41_storage)"
					}
				],
				"types": {
					"t_address": {
						"encoding": "inplace",
						"label": "address",
						"numberOfBytes": "20"
					},
					"t_array(t_uint256)3_storage": {
						"base": "t_uint256",
						"encoding": "inplace",
						"label": "uint256[3]",
						"numberOfBytes": "96"
					},
					"t_array(t_uint256)dyn_storage": {
						"base": "t_uint256",
						"encoding": "dynamic_array",
						"label": "uint256[]",
						"numberOfBytes": "32"
					},
					"t_bool": {
						"encoding": "inplace",
						"label": "bool",
						"numberOfBytes": "1"
					},
					"t_bytes1": {
						"encoding": "inplace",
						"label": "bytes1",
						"numberOfBytes": "1"
					},
					"t_bytes32": {
						"encoding": "inplace",
						"label": "bytes32",
						"numberOfBytes": "32"
					},
					"t_bytes_storage": {
						"encoding": "bytes",
						"label": "bytes",
						"numberOfBytes": "32"
					},
					"t_int256": {
						"encoding": "inplace",
						"label": "int256",
						"numberOfBytes": "32"
					},
					"t_int8": {
						"encoding": "inplace",
						"label": "int8",
						"numberOfBytes": "1"
					},
					"t_mapping(t_uint256,t_struct(Book)41_storage)": {
						"encoding": "mapping",
						"key": "t_uint256",
						"label": "mapping(uint256 => struct DataType.Book)",
						"numberOfBytes": "32",
						"value": "t_struct(Book)41_storage"
					},
					"t_string_storage": {
						"encoding": "bytes",
						"label": "string",
						"numberOfBytes": "32"
					},
					"t_struct(Book)41_storage": {
						"encoding": "inplace",
						"label": "struct DataType.Book",
						"members": [
							{
								"astId": 36,
								"contract": "contracts/DataTypeChild.sol:DataTypeChild",
								"label": "id_book",
								"offset": 0,
								"slot": "0",
								"type": "t_uint256"
							},
							{
								"astId": 38,
								"contract": "contracts/DataTypeChild.sol:DataTypeChild",
								"label": "title",
								"offset": 0,
								"slot": "1",
								"type": "t_string_storage"
							},
							{
								"astId": 40,
								"contract": "contracts/DataTypeChild.sol:DataTypeChild",
								"label": "description",
								"offset": 0,
								"slot": "2",
								"type": "t_string_storage"
							}
						],
						"numberOfBytes": "96"
					},
					"t_uint256": {
						"encoding": "inplace",
						"label": "uint256",
						"numberOfBytes": "32"
					}
				}
			},
			"userdoc": {
				"kind": "user",
				"methods": {},
				"version": 1
			}
		}
	}
}