{
	"data": {
		"bytecode": {
			"linkReferences": {},
			"object": "608060405260056002556001600360006101000a81548160ff02191690831515021790555073330f2e60a42351dd3deac65067fa62a77158f996600360016101000a81548173ffffffffffffffffffffffffffffffffffffffff021916908373ffffffffffffffffffffffffffffffffffffffff1602179055506040518060400160405280600581526020017f6172726179000000000000000000000000000000000000000000000000000000815250600590816100bd9190610320565b503480156100ca57600080fd5b506103f2565b600081519050919050565b7f4e487b7100000000000000000000000000000000000000000000000000000000600052604160045260246000fd5b7f4e487b7100000000000000000000000000000000000000000000000000000000600052602260045260246000fd5b6000600282049050600182168061015157607f821691505b6020821081036101645761016361010a565b5b50919050565b60008190508160005260206000209050919050565b60006020601f8301049050919050565b600082821b905092915050565b6000600883026101cc7fffffffffffffffffffffffffffffffffffffffffffffffffffffffffffffffff8261018f565b6101d6868361018f565b95508019841693508086168417925050509392505050565b6000819050919050565b6000819050919050565b600061021d610218610213846101ee565b6101f8565b6101ee565b9050919050565b6000819050919050565b61023783610202565b61024b61024382610224565b84845461019c565b825550505050565b600090565b610260610253565b61026b81848461022e565b505050565b5b8181101561028f57610284600082610258565b600181019050610271565b5050565b601f8211156102d4576102a58161016a565b6102ae8461017f565b810160208510156102bd578190505b6102d16102c98561017f565b830182610270565b50505b505050565b600082821c905092915050565b60006102f7600019846008026102d9565b1980831691505092915050565b600061031083836102e6565b9150826002028217905092915050565b610329826100d0565b67ffffffffffffffff811115610342576103416100db565b5b61034c8254610139565b610357828285610293565b600060209050601f83116001811461038a5760008415610378578287015190505b6103828582610304565b8655506103ea565b601f1984166103988661016a565b60005b828110156103c05784890151825560018201915060208501945060208101905061039b565b868310156103dd57848901516103d9601f8916826102e6565b8355505b6001600288020188555050505b505050505050565b6102e2806104016000396000f3fe608060405234801561001057600080fd5b50600436106100415760003560e01c806345d285b414610046578063c005286b14610076578063ca74cc7e14610094575b600080fd5b610060600480360381019061005b9190610175565b6100b2565b60405161006d91906101b1565b60405180910390f35b61007e61011f565b60405161008b91906101b1565b60405180910390f35b61009c610129565b6040516100a991906101b1565b60405180910390f35b600081600081116100f8576040517f08c379a00000000000000000000000000000000000000000000000000000000081526004016100ef90610229565b60405180910390fd5b5b600a8310156101165760058361010f9190610278565b92506100f9565b82915050919050565b6000600254905090565b600061013560026100b2565b905090565b600080fd5b6000819050919050565b6101528161013f565b811461015d57600080fd5b50565b60008135905061016f81610149565b92915050565b60006020828403121561018b5761018a61013a565b5b600061019984828501610160565b91505092915050565b6101ab8161013f565b82525050565b60006020820190506101c660008301846101a2565b92915050565b600082825260208201905092915050565b7f4e65656420746f2062652067726561746572207468616e203000000000000000600082015250565b60006102136019836101cc565b915061021e826101dd565b602082019050919050565b6000602082019050818103600083015261024281610206565b9050919050565b7f4e487b7100000000000000000000000000000000000000000000000000000000600052601160045260246000fd5b60006102838261013f565b915061028e8361013f565b92508282019050808211156102a6576102a5610249565b5b9291505056fea2646970667358221220d634bed4e648ef8fe49e16c384480ff4683ab0dcfb0f22829aa06a3abf0c99ff64736f6c63430008120033",
			"opcodes": "PUSH1 0x80 PUSH1 0x40 MSTORE PUSH1 0x5 PUSH1 0x2 SSTORE PUSH1 0x1 PUSH1 0x3 PUSH1 0x0 PUSH2 0x100 EXP DUP2 SLOAD DUP2 PUSH1 0xFF MUL NOT AND SWAP1 DUP4 ISZERO ISZERO MUL OR SWAP1 SSTORE POP PUSH20 0x330F2E60A42351DD3DEAC65067FA62A77158F996 PUSH1 0x3 PUSH1 0x1 PUSH2 0x100 EXP DUP2 SLOAD DUP2 PUSH20 0xFFFFFFFFFFFFFFFFFFFFFFFFFFFFFFFFFFFFFFFF MUL NOT AND SWAP1 DUP4 PUSH20 0xFFFFFFFFFFFFFFFFFFFFFFFFFFFFFFFFFFFFFFFF AND MUL OR SWAP1 SSTORE POP PUSH1 0x40 MLOAD DUP1 PUSH1 0x40 ADD PUSH1 0x40 MSTORE DUP1 PUSH1 0x5 DUP2 MSTORE PUSH1 0x20 ADD PUSH32 0x6172726179000000000000000000000000000000000000000000000000000000 DUP2 MSTORE POP PUSH1 0x5 SWAP1 DUP2 PUSH2 0xBD SWAP2 SWAP1 PUSH2 0x320 JUMP JUMPDEST POP CALLVALUE DUP1 ISZERO PUSH2 0xCA JUMPI PUSH1 0x0 DUP1 REVERT JUMPDEST POP PUSH2 0x3F2 JUMP JUMPDEST PUSH1 0x0 DUP2 MLOAD SWAP1 POP SWAP2 SWAP1 POP JUMP JUMPDEST PUSH32 0x4E487B7100000000000000000000000000000000000000000000000000000000 PUSH1 0x0 MSTORE PUSH1 0x41 PUSH1 0x4 MSTORE PUSH1 0x24 PUSH1 0x0 REVERT JUMPDEST PUSH32 0x4E487B7100000000000000000000000000000000000000000000000000000000 PUSH1 0x0 MSTORE PUSH1 0x22 PUSH1 0x4 MSTORE PUSH1 0x24 PUSH1 0x0 REVERT JUMPDEST PUSH1 0x0 PUSH1 0x2 DUP3 DIV SWAP1 POP PUSH1 0x1 DUP3 AND DUP1 PUSH2 0x151 JUMPI PUSH1 0x7F DUP3 AND SWAP2 POP JUMPDEST PUSH1 0x20 DUP3 LT DUP2 SUB PUSH2 0x164 JUMPI PUSH2 0x163 PUSH2 0x10A JUMP JUMPDEST JUMPDEST POP SWAP2 SWAP1 POP JUMP JUMPDEST PUSH1 0x0 DUP2 SWAP1 POP DUP2 PUSH1 0x0 MSTORE PUSH1 0x20 PUSH1 0x0 KECCAK256 SWAP1 POP SWAP2 SWAP1 POP JUMP JUMPDEST PUSH1 0x0 PUSH1 0x20 PUSH1 0x1F DUP4 ADD DIV SWAP1 POP SWAP2 SWAP1 POP JUMP JUMPDEST PUSH1 0x0 DUP3 DUP3 SHL SWAP1 POP SWAP3 SWAP2 POP POP JUMP JUMPDEST PUSH1 0x0 PUSH1 0x8 DUP4 MUL PUSH2 0x1CC PUSH32 0xFFFFFFFFFFFFFFFFFFFFFFFFFFFFFFFFFFFFFFFFFFFFFFFFFFFFFFFFFFFFFFFF DUP3 PUSH2 0x18F JUMP JUMPDEST PUSH2 0x1D6 DUP7 DUP4 PUSH2 0x18F JUMP JUMPDEST SWAP6 POP DUP1 NOT DUP5 AND SWAP4 POP DUP1 DUP7 AND DUP5 OR SWAP3 POP POP POP SWAP4 SWAP3 POP POP POP JUMP JUMPDEST PUSH1 0x0 DUP2 SWAP1 POP SWAP2 SWAP1 POP JUMP JUMPDEST PUSH1 0x0 DUP2 SWAP1 POP SWAP2 SWAP1 POP JUMP JUMPDEST PUSH1 0x0 PUSH2 0x21D PUSH2 0x218 PUSH2 0x213 DUP5 PUSH2 0x1EE JUMP JUMPDEST PUSH2 0x1F8 JUMP JUMPDEST PUSH2 0x1EE JUMP JUMPDEST SWAP1 POP SWAP2 SWAP1 POP JUMP JUMPDEST PUSH1 0x0 DUP2 SWAP1 POP SWAP2 SWAP1 POP JUMP JUMPDEST PUSH2 0x237 DUP4 PUSH2 0x202 JUMP JUMPDEST PUSH2 0x24B PUSH2 0x243 DUP3 PUSH2 0x224 JUMP JUMPDEST DUP5 DUP5 SLOAD PUSH2 0x19C JUMP JUMPDEST DUP3 SSTORE POP POP POP POP JUMP JUMPDEST PUSH1 0x0 SWAP1 JUMP JUMPDEST PUSH2 0x260 PUSH2 0x253 JUMP JUMPDEST PUSH2 0x26B DUP2 DUP5 DUP5 PUSH2 0x22E JUMP JUMPDEST POP POP POP JUMP JUMPDEST JUMPDEST DUP2 DUP2 LT ISZERO PUSH2 0x28F JUMPI PUSH2 0x284 PUSH1 0x0 DUP3 PUSH2 0x258 JUMP JUMPDEST PUSH1 0x1 DUP2 ADD SWAP1 POP PUSH2 0x271 JUMP JUMPDEST POP POP JUMP JUMPDEST PUSH1 0x1F DUP3 GT ISZERO PUSH2 0x2D4 JUMPI PUSH2 0x2A5 DUP2 PUSH2 0x16A JUMP JUMPDEST PUSH2 0x2AE DUP5 PUSH2 0x17F JUMP JUMPDEST DUP2 ADD PUSH1 0x20 DUP6 LT ISZERO PUSH2 0x2BD JUMPI DUP2 SWAP1 POP JUMPDEST PUSH2 0x2D1 PUSH2 0x2C9 DUP6 PUSH2 0x17F JUMP JUMPDEST DUP4 ADD DUP3 PUSH2 0x270 JUMP JUMPDEST POP POP JUMPDEST POP POP POP JUMP JUMPDEST PUSH1 0x0 DUP3 DUP3 SHR SWAP1 POP SWAP3 SWAP2 POP POP JUMP JUMPDEST PUSH1 0x0 PUSH2 0x2F7 PUSH1 0x0 NOT DUP5 PUSH1 0x8 MUL PUSH2 0x2D9 JUMP JUMPDEST NOT DUP1 DUP4 AND SWAP2 POP POP SWAP3 SWAP2 POP POP JUMP JUMPDEST PUSH1 0x0 PUSH2 0x310 DUP4 DUP4 PUSH2 0x2E6 JUMP JUMPDEST SWAP2 POP DUP3 PUSH1 0x2 MUL DUP3 OR SWAP1 POP SWAP3 SWAP2 POP POP JUMP JUMPDEST PUSH2 0x329 DUP3 PUSH2 0xD0 JUMP JUMPDEST PUSH8 0xFFFFFFFFFFFFFFFF DUP2 GT ISZERO PUSH2 0x342 JUMPI PUSH2 0x341 PUSH2 0xDB JUMP JUMPDEST JUMPDEST PUSH2 0x34C DUP3 SLOAD PUSH2 0x139 JUMP JUMPDEST PUSH2 0x357 DUP3 DUP3 DUP6 PUSH2 0x293 JUMP JUMPDEST PUSH1 0x0 PUSH1 0x20 SWAP1 POP PUSH1 0x1F DUP4 GT PUSH1 0x1 DUP2 EQ PUSH2 0x38A JUMPI PUSH1 0x0 DUP5 ISZERO PUSH2 0x378 JUMPI DUP3 DUP8 ADD MLOAD SWAP1 POP JUMPDEST PUSH2 0x382 DUP6 DUP3 PUSH2 0x304 JUMP JUMPDEST DUP7 SSTORE POP PUSH2 0x3EA JUMP JUMPDEST PUSH1 0x1F NOT DUP5 AND PUSH2 0x398 DUP7 PUSH2 0x16A JUMP JUMPDEST PUSH1 0x0 JUMPDEST DUP3 DUP2 LT ISZERO PUSH2 0x3C0 JUMPI DUP5 DUP10 ADD MLOAD DUP3 SSTORE PUSH1 0x1 DUP3 ADD SWAP2 POP PUSH1 0x20 DUP6 ADD SWAP5 POP PUSH1 0x20 DUP2 ADD SWAP1 POP PUSH2 0x39B JUMP JUMPDEST DUP7 DUP4 LT ISZERO PUSH2 0x3DD JUMPI DUP5 DUP10 ADD MLOAD PUSH2 0x3D9 PUSH1 0x1F DUP10 AND DUP3 PUSH2 0x2E6 JUMP JUMPDEST DUP4 SSTORE POP JUMPDEST PUSH1 0x1 PUSH1 0x2 DUP9 MUL ADD DUP9 SSTORE POP POP POP JUMPDEST POP POP POP POP POP POP JUMP JUMPDEST PUSH2 0x2E2 DUP1 PUSH2 0x401 PUSH1 0x0 CODECOPY PUSH1 0x0 RETURN INVALID PUSH1 0x80 PUSH1 0x40 MSTORE CALLVALUE DUP1 ISZERO PUSH2 0x10 JUMPI PUSH1 0x0 DUP1 REVERT JUMPDEST POP PUSH1 0x4 CALLDATASIZE LT PUSH2 0x41 JUMPI PUSH1 0x0 CALLDATALOAD PUSH1 0xE0 SHR DUP1 PUSH4 0x45D285B4 EQ PUSH2 0x46 JUMPI DUP1 PUSH4 0xC005286B EQ PUSH2 0x76 JUMPI DUP1 PUSH4 0xCA74CC7E EQ PUSH2 0x94 JUMPI JUMPDEST PUSH1 0x0 DUP1 REVERT JUMPDEST PUSH2 0x60 PUSH1 0x4 DUP1 CALLDATASIZE SUB DUP2 ADD SWAP1 PUSH2 0x5B SWAP2 SWAP1 PUSH2 0x175 JUMP JUMPDEST PUSH2 0xB2 JUMP JUMPDEST PUSH1 0x40 MLOAD PUSH2 0x6D SWAP2 SWAP1 PUSH2 0x1B1 JUMP JUMPDEST PUSH1 0x40 MLOAD DUP1 SWAP2 SUB SWAP1 RETURN JUMPDEST PUSH2 0x7E PUSH2 0x11F JUMP JUMPDEST PUSH1 0x40 MLOAD PUSH2 0x8B SWAP2 SWAP1 PUSH2 0x1B1 JUMP JUMPDEST PUSH1 0x40 MLOAD DUP1 SWAP2 SUB SWAP1 RETURN JUMPDEST PUSH2 0x9C PUSH2 0x129 JUMP JUMPDEST PUSH1 0x40 MLOAD PUSH2 0xA9 SWAP2 SWAP1 PUSH2 0x1B1 JUMP JUMPDEST PUSH1 0x40 MLOAD DUP1 SWAP2 SUB SWAP1 RETURN JUMPDEST PUSH1 0x0 DUP2 PUSH1 0x0 DUP2 GT PUSH2 0xF8 JUMPI PUSH1 0x40 MLOAD PUSH32 0x8C379A000000000000000000000000000000000000000000000000000000000 DUP2 MSTORE PUSH1 0x4 ADD PUSH2 0xEF SWAP1 PUSH2 0x229 JUMP JUMPDEST PUSH1 0x40 MLOAD DUP1 SWAP2 SUB SWAP1 REVERT JUMPDEST JUMPDEST PUSH1 0xA DUP4 LT ISZERO PUSH2 0x116 JUMPI PUSH1 0x5 DUP4 PUSH2 0x10F SWAP2 SWAP1 PUSH2 0x278 JUMP JUMPDEST SWAP3 POP PUSH2 0xF9 JUMP JUMPDEST DUP3 SWAP2 POP POP SWAP2 SWAP1 POP JUMP JUMPDEST PUSH1 0x0 PUSH1 0x2 SLOAD SWAP1 POP SWAP1 JUMP JUMPDEST PUSH1 0x0 PUSH2 0x135 PUSH1 0x2 PUSH2 0xB2 JUMP JUMPDEST SWAP1 POP SWAP1 JUMP JUMPDEST PUSH1 0x0 DUP1 REVERT JUMPDEST PUSH1 0x0 DUP2 SWAP1 POP SWAP2 SWAP1 POP JUMP JUMPDEST PUSH2 0x152 DUP2 PUSH2 0x13F JUMP JUMPDEST DUP2 EQ PUSH2 0x15D JUMPI PUSH1 0x0 DUP1 REVERT JUMPDEST POP JUMP JUMPDEST PUSH1 0x0 DUP2 CALLDATALOAD SWAP1 POP PUSH2 0x16F DUP2 PUSH2 0x149 JUMP JUMPDEST SWAP3 SWAP2 POP POP JUMP JUMPDEST PUSH1 0x0 PUSH1 0x20 DUP3 DUP5 SUB SLT ISZERO PUSH2 0x18B JUMPI PUSH2 0x18A PUSH2 0x13A JUMP JUMPDEST JUMPDEST PUSH1 0x0 PUSH2 0x199 DUP5 DUP3 DUP6 ADD PUSH2 0x160 JUMP JUMPDEST SWAP2 POP POP SWAP3 SWAP2 POP POP JUMP JUMPDEST PUSH2 0x1AB DUP2 PUSH2 0x13F JUMP JUMPDEST DUP3 MSTORE POP POP JUMP JUMPDEST PUSH1 0x0 PUSH1 0x20 DUP3 ADD SWAP1 POP PUSH2 0x1C6 PUSH1 0x0 DUP4 ADD DUP5 PUSH2 0x1A2 JUMP JUMPDEST SWAP3 SWAP2 POP POP JUMP JUMPDEST PUSH1 0x0 DUP3 DUP3 MSTORE PUSH1 0x20 DUP3 ADD SWAP1 POP SWAP3 SWAP2 POP POP JUMP JUMPDEST PUSH32 0x4E65656420746F2062652067726561746572207468616E203000000000000000 PUSH1 0x0 DUP3 ADD MSTORE POP JUMP JUMPDEST PUSH1 0x0 PUSH2 0x213 PUSH1 0x19 DUP4 PUSH2 0x1CC JUMP JUMPDEST SWAP2 POP PUSH2 0x21E DUP3 PUSH2 0x1DD JUMP JUMPDEST PUSH1 0x20 DUP3 ADD SWAP1 POP SWAP2 SWAP1 POP JUMP JUMPDEST PUSH1 0x0 PUSH1 0x20 DUP3 ADD SWAP1 POP DUP2 DUP2 SUB PUSH1 0x0 DUP4 ADD MSTORE PUSH2 0x242 DUP2 PUSH2 0x206 JUMP JUMPDEST SWAP1 POP SWAP2 SWAP1 POP JUMP JUMPDEST PUSH32 0x4E487B7100000000000000000000000000000000000000000000000000000000 PUSH1 0x0 MSTORE PUSH1 0x11 PUSH1 0x4 MSTORE PUSH1 0x24 PUSH1 0x0 REVERT JUMPDEST PUSH1 0x0 PUSH2 0x283 DUP3 PUSH2 0x13F JUMP JUMPDEST SWAP2 POP PUSH2 0x28E DUP4 PUSH2 0x13F JUMP JUMPDEST SWAP3 POP DUP3 DUP3 ADD SWAP1 POP DUP1 DUP3 GT ISZERO PUSH2 0x2A6 JUMPI PUSH2 0x2A5 PUSH2 0x249 JUMP JUMPDEST JUMPDEST SWAP3 SWAP2 POP POP JUMP INVALID LOG2 PUSH5 0x6970667358 0x22 SLT KECCAK256 0xD6 CALLVALUE 0xBE 0xD4 0xE6 BASEFEE 0xEF DUP16 0xE4 SWAP15 AND 0xC3 DUP5 BASEFEE 0xF DELEGATECALL PUSH9 0x3AB0DCFB0F22829AA0 PUSH11 0x3ABF0C99FF64736F6C6343 STOP ADDMOD SLT STOP CALLER "
		},
		"gasEstimates": {
			"creation": {
				"codeDepositCost": "147600",
				"executionCost": "infinite",
				"totalCost": "infinite"
			},
			"external": {
				"accessParent1Variable()": "2437",
				"accessParentVariable()": "infinite",
				"firstFunction(uint256)": "infinite"
			}
		},
		"methodIdentifiers": {
			"accessParent1Variable()": "c005286b",
			"accessParentVariable()": "ca74cc7e",
			"firstFunction(uint256)": "45d285b4"
		}
	},
	"abi": [
		{
			"anonymous": false,
			"inputs": [
				{
					"indexed": false,
					"internalType": "uint256",
					"name": "number",
					"type": "uint256"
				}
			],
			"name": "FirstEvent",
			"type": "event"
		},
		{
			"inputs": [],
			"name": "accessParent1Variable",
			"outputs": [
				{
					"internalType": "uint256",
					"name": "",
					"type": "uint256"
				}
			],
			"stateMutability": "view",
			"type": "function"
		},
		{
			"inputs": [],
			"name": "accessParentVariable",
			"outputs": [
				{
					"internalType": "uint256",
					"name": "",
					"type": "uint256"
				}
			],
			"stateMutability": "pure",
			"type": "function"
		},
		{
			"inputs": [
				{
					"internalType": "uint256",
					"name": "number",
					"type": "uint256"
				}
			],
			"name": "firstFunction",
			"outputs": [
				{
					"internalType": "uint256",
					"name": "",
					"type": "uint256"
				}
			],
			"stateMutability": "pure",
			"type": "function"
		}
	]
}