{
	"data": {
		"bytecode": {
			"linkReferences": {},
			"object": "60806040526005600255600160035f6101000a81548160ff02191690831515021790555073330f2e60a42351dd3deac65067fa62a77158f996600360016101000a81548173ffffffffffffffffffffffffffffffffffffffff021916908373ffffffffffffffffffffffffffffffffffffffff1602179055506040518060400160405280600581526020017f617272617900000000000000000000000000000000000000000000000000000081525060079081620000be919062000336565b50348015620000cb575f80fd5b506200041a565b5f81519050919050565b7f4e487b71000000000000000000000000000000000000000000000000000000005f52604160045260245ffd5b7f4e487b71000000000000000000000000000000000000000000000000000000005f52602260045260245ffd5b5f60028204905060018216806200014e57607f821691505b60208210810362000164576200016362000109565b5b50919050565b5f819050815f5260205f209050919050565b5f6020601f8301049050919050565b5f82821b905092915050565b5f60088302620001c87fffffffffffffffffffffffffffffffffffffffffffffffffffffffffffffffff826200018b565b620001d486836200018b565b95508019841693508086168417925050509392505050565b5f819050919050565b5f819050919050565b5f6200021e620002186200021284620001ec565b620001f5565b620001ec565b9050919050565b5f819050919050565b6200023983620001fe565b62000251620002488262000225565b84845462000197565b825550505050565b5f90565b6200026762000259565b620002748184846200022e565b505050565b5b818110156200029b576200028f5f826200025d565b6001810190506200027a565b5050565b601f821115620002ea57620002b4816200016a565b620002bf846200017c565b81016020851015620002cf578190505b620002e7620002de856200017c565b83018262000279565b50505b505050565b5f82821c905092915050565b5f6200030c5f1984600802620002ef565b1980831691505092915050565b5f620003268383620002fb565b9150826002028217905092915050565b6200034182620000d2565b67ffffffffffffffff8111156200035d576200035c620000dc565b5b62000369825462000136565b620003768282856200029f565b5f60209050601f831160018114620003ac575f841562000397578287015190505b620003a3858262000319565b86555062000412565b601f198416620003bc866200016a565b5f5b82811015620003e557848901518255600182019150602085019450602081019050620003be565b8683101562000405578489015162000401601f891682620002fb565b8355505b6001600288020188555050505b505050505050565b6108b380620004285f395ff3fe6080604052600436106100aa575f3560e01c806389c87ca71161006357806389c87ca7146101af5780639a9bdca7146101c5578063b43a5bbd14610201578063c211d6e01461022b578063ca33855314610256578063ca37e0a014610280576100b8565b806308d79c87146100c157806315078f8f146100eb5780633c269a2c146101155780635e8f1084146101335780636ad622801461015d57806387b26bff14610173576100b8565b366100b85760666002819055005b60656002819055005b3480156100cc575f80fd5b506100d56102aa565b6040516100e2919061044f565b60405180910390f35b3480156100f6575f80fd5b506100ff6102c5565b60405161010c919061044f565b60405180910390f35b61011d6102cc565b60405161012a919061044f565b60405180910390f35b34801561013e575f80fd5b506101476102d3565b6040516101549190610480565b60405180910390f35b348015610168575f80fd5b506101716102fa565b005b34801561017e575f80fd5b5061019960048036038101906101949190610610565b610323565b6040516101a6919061044f565b60405180910390f35b3480156101ba575f80fd5b506101c36103d0565b005b3480156101d0575f80fd5b506101eb60048036038101906101e6919061066a565b6103f7565b6040516101f8919061044f565b60405180910390f35b34801561020c575f80fd5b50610215610417565b604051610222919061044f565b60405180910390f35b348015610236575f80fd5b5061023f61041e565b60405161024d9291906106d1565b60405180910390f35b348015610261575f80fd5b5061026a61042a565b604051610277919061044f565b60405180910390f35b34801561028b575f80fd5b50610294610430565b6040516102a19190610732565b60405180910390f35b5f6003806102bb576102ba61074b565b5b6002600109905090565b5f42905090565b5f34905090565b5f7f8507cdd0850fbc1a066cf28b7e46e3a0bd6bec0c738c6f449d619086170366c3905090565b600b6001908060018154018082558091505060019003905f5260205f20015f9091909190915055565b5f825f8111610367576040517f08c379a000000000000000000000000000000000000000000000000000000000815260040161035e906107d2565b60405180910390fd5b6040518060400160405280600f81526020017f736f6d657468696e67206f74686572000000000000000000000000000000000081525092505b600a8410156103bd576005846103b6919061081d565b93506103a0565b6002808190555060025491505092915050565b600b8054806103e2576103e1610850565b5b600190038181905f5260205f20015f90559055565b600b8181548110610406575f80fd5b905f5260205f20015f915090505481565b5f43905090565b365f8036915091509091565b60025481565b5f33905090565b5f819050919050565b61044981610437565b82525050565b5f6020820190506104625f830184610440565b92915050565b5f819050919050565b61047a81610468565b82525050565b5f6020820190506104935f830184610471565b92915050565b5f604051905090565b5f80fd5b5f80fd5b6104b381610437565b81146104bd575f80fd5b50565b5f813590506104ce816104aa565b92915050565b5f80fd5b5f80fd5b5f601f19601f8301169050919050565b7f4e487b71000000000000000000000000000000000000000000000000000000005f52604160045260245ffd5b610522826104dc565b810181811067ffffffffffffffff82111715610541576105406104ec565b5b80604052505050565b5f610553610499565b905061055f8282610519565b919050565b5f67ffffffffffffffff82111561057e5761057d6104ec565b5b610587826104dc565b9050602081019050919050565b828183375f83830152505050565b5f6105b46105af84610564565b61054a565b9050828152602081018484840111156105d0576105cf6104d8565b5b6105db848285610594565b509392505050565b5f82601f8301126105f7576105f66104d4565b5b81356106078482602086016105a2565b91505092915050565b5f8060408385031215610626576106256104a2565b5b5f610633858286016104c0565b925050602083013567ffffffffffffffff811115610654576106536104a6565b5b610660858286016105e3565b9150509250929050565b5f6020828403121561067f5761067e6104a2565b5b5f61068c848285016104c0565b91505092915050565b5f82825260208201905092915050565b5f6106b08385610695565b93506106bd838584610594565b6106c6836104dc565b840190509392505050565b5f6020820190508181035f8301526106ea8184866106a5565b90509392505050565b5f73ffffffffffffffffffffffffffffffffffffffff82169050919050565b5f61071c826106f3565b9050919050565b61072c81610712565b82525050565b5f6020820190506107455f830184610723565b92915050565b7f4e487b71000000000000000000000000000000000000000000000000000000005f52601260045260245ffd5b5f82825260208201905092915050565b7f4e65656420746f2062652067726561746572207468616e2030000000000000005f82015250565b5f6107bc601983610778565b91506107c782610788565b602082019050919050565b5f6020820190508181035f8301526107e9816107b0565b9050919050565b7f4e487b71000000000000000000000000000000000000000000000000000000005f52601160045260245ffd5b5f61082782610437565b915061083283610437565b925082820190508082111561084a576108496107f0565b5b92915050565b7f4e487b71000000000000000000000000000000000000000000000000000000005f52603160045260245ffdfea2646970667358221220588b4fd0de43631436c10e1381849e7bd410e4545dd6419f7c06641e897e38cc64736f6c63430008180033",
			"opcodes": "PUSH1 0x80 PUSH1 0x40 MSTORE PUSH1 0x5 PUSH1 0x2 SSTORE PUSH1 0x1 PUSH1 0x3 PUSH0 PUSH2 0x100 EXP DUP2 SLOAD DUP2 PUSH1 0xFF MUL NOT AND SWAP1 DUP4 ISZERO ISZERO MUL OR SWAP1 SSTORE POP PUSH20 0x330F2E60A42351DD3DEAC65067FA62A77158F996 PUSH1 0x3 PUSH1 0x1 PUSH2 0x100 EXP DUP2 SLOAD DUP2 PUSH20 0xFFFFFFFFFFFFFFFFFFFFFFFFFFFFFFFFFFFFFFFF MUL NOT AND SWAP1 DUP4 PUSH20 0xFFFFFFFFFFFFFFFFFFFFFFFFFFFFFFFFFFFFFFFF AND MUL OR SWAP1 SSTORE POP PUSH1 0x40 MLOAD DUP1 PUSH1 0x40 ADD PUSH1 0x40 MSTORE DUP1 PUSH1 0x5 DUP2 MSTORE PUSH1 0x20 ADD PUSH32 0x6172726179000000000000000000000000000000000000000000000000000000 DUP2 MSTORE POP PUSH1 0x7 SWAP1 DUP2 PUSH3 0xBE SWAP2 SWAP1 PUSH3 0x336 JUMP JUMPDEST POP CALLVALUE DUP1 ISZERO PUSH3 0xCB JUMPI PUSH0 DUP1 REVERT JUMPDEST POP PUSH3 0x41A JUMP JUMPDEST PUSH0 DUP2 MLOAD SWAP1 POP SWAP2 SWAP1 POP JUMP JUMPDEST PUSH32 0x4E487B7100000000000000000000000000000000000000000000000000000000 PUSH0 MSTORE PUSH1 0x41 PUSH1 0x4 MSTORE PUSH1 0x24 PUSH0 REVERT JUMPDEST PUSH32 0x4E487B7100000000000000000000000000000000000000000000000000000000 PUSH0 MSTORE PUSH1 0x22 PUSH1 0x4 MSTORE PUSH1 0x24 PUSH0 REVERT JUMPDEST PUSH0 PUSH1 0x2 DUP3 DIV SWAP1 POP PUSH1 0x1 DUP3 AND DUP1 PUSH3 0x14E JUMPI PUSH1 0x7F DUP3 AND SWAP2 POP JUMPDEST PUSH1 0x20 DUP3 LT DUP2 SUB PUSH3 0x164 JUMPI PUSH3 0x163 PUSH3 0x109 JUMP JUMPDEST JUMPDEST POP SWAP2 SWAP1 POP JUMP JUMPDEST PUSH0 DUP2 SWAP1 POP DUP2 PUSH0 MSTORE PUSH1 0x20 PUSH0 KECCAK256 SWAP1 POP SWAP2 SWAP1 POP JUMP JUMPDEST PUSH0 PUSH1 0x20 PUSH1 0x1F DUP4 ADD DIV SWAP1 POP SWAP2 SWAP1 POP JUMP JUMPDEST PUSH0 DUP3 DUP3 SHL SWAP1 POP SWAP3 SWAP2 POP POP JUMP JUMPDEST PUSH0 PUSH1 0x8 DUP4 MUL PUSH3 0x1C8 PUSH32 0xFFFFFFFFFFFFFFFFFFFFFFFFFFFFFFFFFFFFFFFFFFFFFFFFFFFFFFFFFFFFFFFF DUP3 PUSH3 0x18B JUMP JUMPDEST PUSH3 0x1D4 DUP7 DUP4 PUSH3 0x18B JUMP JUMPDEST SWAP6 POP DUP1 NOT DUP5 AND SWAP4 POP DUP1 DUP7 AND DUP5 OR SWAP3 POP POP POP SWAP4 SWAP3 POP POP POP JUMP JUMPDEST PUSH0 DUP2 SWAP1 POP SWAP2 SWAP1 POP JUMP JUMPDEST PUSH0 DUP2 SWAP1 POP SWAP2 SWAP1 POP JUMP JUMPDEST PUSH0 PUSH3 0x21E PUSH3 0x218 PUSH3 0x212 DUP5 PUSH3 0x1EC JUMP JUMPDEST PUSH3 0x1F5 JUMP JUMPDEST PUSH3 0x1EC JUMP JUMPDEST SWAP1 POP SWAP2 SWAP1 POP JUMP JUMPDEST PUSH0 DUP2 SWAP1 POP SWAP2 SWAP1 POP JUMP JUMPDEST PUSH3 0x239 DUP4 PUSH3 0x1FE JUMP JUMPDEST PUSH3 0x251 PUSH3 0x248 DUP3 PUSH3 0x225 JUMP JUMPDEST DUP5 DUP5 SLOAD PUSH3 0x197 JUMP JUMPDEST DUP3 SSTORE POP POP POP POP JUMP JUMPDEST PUSH0 SWAP1 JUMP JUMPDEST PUSH3 0x267 PUSH3 0x259 JUMP JUMPDEST PUSH3 0x274 DUP2 DUP5 DUP5 PUSH3 0x22E JUMP JUMPDEST POP POP POP JUMP JUMPDEST JUMPDEST DUP2 DUP2 LT ISZERO PUSH3 0x29B JUMPI PUSH3 0x28F PUSH0 DUP3 PUSH3 0x25D JUMP JUMPDEST PUSH1 0x1 DUP2 ADD SWAP1 POP PUSH3 0x27A JUMP JUMPDEST POP POP JUMP JUMPDEST PUSH1 0x1F DUP3 GT ISZERO PUSH3 0x2EA JUMPI PUSH3 0x2B4 DUP2 PUSH3 0x16A JUMP JUMPDEST PUSH3 0x2BF DUP5 PUSH3 0x17C JUMP JUMPDEST DUP2 ADD PUSH1 0x20 DUP6 LT ISZERO PUSH3 0x2CF JUMPI DUP2 SWAP1 POP JUMPDEST PUSH3 0x2E7 PUSH3 0x2DE DUP6 PUSH3 0x17C JUMP JUMPDEST DUP4 ADD DUP3 PUSH3 0x279 JUMP JUMPDEST POP POP JUMPDEST POP POP POP JUMP JUMPDEST PUSH0 DUP3 DUP3 SHR SWAP1 POP SWAP3 SWAP2 POP POP JUMP JUMPDEST PUSH0 PUSH3 0x30C PUSH0 NOT DUP5 PUSH1 0x8 MUL PUSH3 0x2EF JUMP JUMPDEST NOT DUP1 DUP4 AND SWAP2 POP POP SWAP3 SWAP2 POP POP JUMP JUMPDEST PUSH0 PUSH3 0x326 DUP4 DUP4 PUSH3 0x2FB JUMP JUMPDEST SWAP2 POP DUP3 PUSH1 0x2 MUL DUP3 OR SWAP1 POP SWAP3 SWAP2 POP POP JUMP JUMPDEST PUSH3 0x341 DUP3 PUSH3 0xD2 JUMP JUMPDEST PUSH8 0xFFFFFFFFFFFFFFFF DUP2 GT ISZERO PUSH3 0x35D JUMPI PUSH3 0x35C PUSH3 0xDC JUMP JUMPDEST JUMPDEST PUSH3 0x369 DUP3 SLOAD PUSH3 0x136 JUMP JUMPDEST PUSH3 0x376 DUP3 DUP3 DUP6 PUSH3 0x29F JUMP JUMPDEST PUSH0 PUSH1 0x20 SWAP1 POP PUSH1 0x1F DUP4 GT PUSH1 0x1 DUP2 EQ PUSH3 0x3AC JUMPI PUSH0 DUP5 ISZERO PUSH3 0x397 JUMPI DUP3 DUP8 ADD MLOAD SWAP1 POP JUMPDEST PUSH3 0x3A3 DUP6 DUP3 PUSH3 0x319 JUMP JUMPDEST DUP7 SSTORE POP PUSH3 0x412 JUMP JUMPDEST PUSH1 0x1F NOT DUP5 AND PUSH3 0x3BC DUP7 PUSH3 0x16A JUMP JUMPDEST PUSH0 JUMPDEST DUP3 DUP2 LT ISZERO PUSH3 0x3E5 JUMPI DUP5 DUP10 ADD MLOAD DUP3 SSTORE PUSH1 0x1 DUP3 ADD SWAP2 POP PUSH1 0x20 DUP6 ADD SWAP5 POP PUSH1 0x20 DUP2 ADD SWAP1 POP PUSH3 0x3BE JUMP JUMPDEST DUP7 DUP4 LT ISZERO PUSH3 0x405 JUMPI DUP5 DUP10 ADD MLOAD PUSH3 0x401 PUSH1 0x1F DUP10 AND DUP3 PUSH3 0x2FB JUMP JUMPDEST DUP4 SSTORE POP JUMPDEST PUSH1 0x1 PUSH1 0x2 DUP9 MUL ADD DUP9 SSTORE POP POP POP JUMPDEST POP POP POP POP POP POP JUMP JUMPDEST PUSH2 0x8B3 DUP1 PUSH3 0x428 PUSH0 CODECOPY PUSH0 RETURN INVALID PUSH1 0x80 PUSH1 0x40 MSTORE PUSH1 0x4 CALLDATASIZE LT PUSH2 0xAA JUMPI PUSH0 CALLDATALOAD PUSH1 0xE0 SHR DUP1 PUSH4 0x89C87CA7 GT PUSH2 0x63 JUMPI DUP1 PUSH4 0x89C87CA7 EQ PUSH2 0x1AF JUMPI DUP1 PUSH4 0x9A9BDCA7 EQ PUSH2 0x1C5 JUMPI DUP1 PUSH4 0xB43A5BBD EQ PUSH2 0x201 JUMPI DUP1 PUSH4 0xC211D6E0 EQ PUSH2 0x22B JUMPI DUP1 PUSH4 0xCA338553 EQ PUSH2 0x256 JUMPI DUP1 PUSH4 0xCA37E0A0 EQ PUSH2 0x280 JUMPI PUSH2 0xB8 JUMP JUMPDEST DUP1 PUSH4 0x8D79C87 EQ PUSH2 0xC1 JUMPI DUP1 PUSH4 0x15078F8F EQ PUSH2 0xEB JUMPI DUP1 PUSH4 0x3C269A2C EQ PUSH2 0x115 JUMPI DUP1 PUSH4 0x5E8F1084 EQ PUSH2 0x133 JUMPI DUP1 PUSH4 0x6AD62280 EQ PUSH2 0x15D JUMPI DUP1 PUSH4 0x87B26BFF EQ PUSH2 0x173 JUMPI PUSH2 0xB8 JUMP JUMPDEST CALLDATASIZE PUSH2 0xB8 JUMPI PUSH1 0x66 PUSH1 0x2 DUP2 SWAP1 SSTORE STOP JUMPDEST PUSH1 0x65 PUSH1 0x2 DUP2 SWAP1 SSTORE STOP JUMPDEST CALLVALUE DUP1 ISZERO PUSH2 0xCC JUMPI PUSH0 DUP1 REVERT JUMPDEST POP PUSH2 0xD5 PUSH2 0x2AA JUMP JUMPDEST PUSH1 0x40 MLOAD PUSH2 0xE2 SWAP2 SWAP1 PUSH2 0x44F JUMP JUMPDEST PUSH1 0x40 MLOAD DUP1 SWAP2 SUB SWAP1 RETURN JUMPDEST CALLVALUE DUP1 ISZERO PUSH2 0xF6 JUMPI PUSH0 DUP1 REVERT JUMPDEST POP PUSH2 0xFF PUSH2 0x2C5 JUMP JUMPDEST PUSH1 0x40 MLOAD PUSH2 0x10C SWAP2 SWAP1 PUSH2 0x44F JUMP JUMPDEST PUSH1 0x40 MLOAD DUP1 SWAP2 SUB SWAP1 RETURN JUMPDEST PUSH2 0x11D PUSH2 0x2CC JUMP JUMPDEST PUSH1 0x40 MLOAD PUSH2 0x12A SWAP2 SWAP1 PUSH2 0x44F JUMP JUMPDEST PUSH1 0x40 MLOAD DUP1 SWAP2 SUB SWAP1 RETURN JUMPDEST CALLVALUE DUP1 ISZERO PUSH2 0x13E JUMPI PUSH0 DUP1 REVERT JUMPDEST POP PUSH2 0x147 PUSH2 0x2D3 JUMP JUMPDEST PUSH1 0x40 MLOAD PUSH2 0x154 SWAP2 SWAP1 PUSH2 0x480 JUMP JUMPDEST PUSH1 0x40 MLOAD DUP1 SWAP2 SUB SWAP1 RETURN JUMPDEST CALLVALUE DUP1 ISZERO PUSH2 0x168 JUMPI PUSH0 DUP1 REVERT JUMPDEST POP PUSH2 0x171 PUSH2 0x2FA JUMP JUMPDEST STOP JUMPDEST CALLVALUE DUP1 ISZERO PUSH2 0x17E JUMPI PUSH0 DUP1 REVERT JUMPDEST POP PUSH2 0x199 PUSH1 0x4 DUP1 CALLDATASIZE SUB DUP2 ADD SWAP1 PUSH2 0x194 SWAP2 SWAP1 PUSH2 0x610 JUMP JUMPDEST PUSH2 0x323 JUMP JUMPDEST PUSH1 0x40 MLOAD PUSH2 0x1A6 SWAP2 SWAP1 PUSH2 0x44F JUMP JUMPDEST PUSH1 0x40 MLOAD DUP1 SWAP2 SUB SWAP1 RETURN JUMPDEST CALLVALUE DUP1 ISZERO PUSH2 0x1BA JUMPI PUSH0 DUP1 REVERT JUMPDEST POP PUSH2 0x1C3 PUSH2 0x3D0 JUMP JUMPDEST STOP JUMPDEST CALLVALUE DUP1 ISZERO PUSH2 0x1D0 JUMPI PUSH0 DUP1 REVERT JUMPDEST POP PUSH2 0x1EB PUSH1 0x4 DUP1 CALLDATASIZE SUB DUP2 ADD SWAP1 PUSH2 0x1E6 SWAP2 SWAP1 PUSH2 0x66A JUMP JUMPDEST PUSH2 0x3F7 JUMP JUMPDEST PUSH1 0x40 MLOAD PUSH2 0x1F8 SWAP2 SWAP1 PUSH2 0x44F JUMP JUMPDEST PUSH1 0x40 MLOAD DUP1 SWAP2 SUB SWAP1 RETURN JUMPDEST CALLVALUE DUP1 ISZERO PUSH2 0x20C JUMPI PUSH0 DUP1 REVERT JUMPDEST POP PUSH2 0x215 PUSH2 0x417 JUMP JUMPDEST PUSH1 0x40 MLOAD PUSH2 0x222 SWAP2 SWAP1 PUSH2 0x44F JUMP JUMPDEST PUSH1 0x40 MLOAD DUP1 SWAP2 SUB SWAP1 RETURN JUMPDEST CALLVALUE DUP1 ISZERO PUSH2 0x236 JUMPI PUSH0 DUP1 REVERT JUMPDEST POP PUSH2 0x23F PUSH2 0x41E JUMP JUMPDEST PUSH1 0x40 MLOAD PUSH2 0x24D SWAP3 SWAP2 SWAP1 PUSH2 0x6D1 JUMP JUMPDEST PUSH1 0x40 MLOAD DUP1 SWAP2 SUB SWAP1 RETURN JUMPDEST CALLVALUE DUP1 ISZERO PUSH2 0x261 JUMPI PUSH0 DUP1 REVERT JUMPDEST POP PUSH2 0x26A PUSH2 0x42A JUMP JUMPDEST PUSH1 0x40 MLOAD PUSH2 0x277 SWAP2 SWAP1 PUSH2 0x44F JUMP JUMPDEST PUSH1 0x40 MLOAD DUP1 SWAP2 SUB SWAP1 RETURN JUMPDEST CALLVALUE DUP1 ISZERO PUSH2 0x28B JUMPI PUSH0 DUP1 REVERT JUMPDEST POP PUSH2 0x294 PUSH2 0x430 JUMP JUMPDEST PUSH1 0x40 MLOAD PUSH2 0x2A1 SWAP2 SWAP1 PUSH2 0x732 JUMP JUMPDEST PUSH1 0x40 MLOAD DUP1 SWAP2 SUB SWAP1 RETURN JUMPDEST PUSH0 PUSH1 0x3 DUP1 PUSH2 0x2BB JUMPI PUSH2 0x2BA PUSH2 0x74B JUMP JUMPDEST JUMPDEST PUSH1 0x2 PUSH1 0x1 MULMOD SWAP1 POP SWAP1 JUMP JUMPDEST PUSH0 TIMESTAMP SWAP1 POP SWAP1 JUMP JUMPDEST PUSH0 CALLVALUE SWAP1 POP SWAP1 JUMP JUMPDEST PUSH0 PUSH32 0x8507CDD0850FBC1A066CF28B7E46E3A0BD6BEC0C738C6F449D619086170366C3 SWAP1 POP SWAP1 JUMP JUMPDEST PUSH1 0xB PUSH1 0x1 SWAP1 DUP1 PUSH1 0x1 DUP2 SLOAD ADD DUP1 DUP3 SSTORE DUP1 SWAP2 POP POP PUSH1 0x1 SWAP1 SUB SWAP1 PUSH0 MSTORE PUSH1 0x20 PUSH0 KECCAK256 ADD PUSH0 SWAP1 SWAP2 SWAP1 SWAP2 SWAP1 SWAP2 POP SSTORE JUMP JUMPDEST PUSH0 DUP3 PUSH0 DUP2 GT PUSH2 0x367 JUMPI PUSH1 0x40 MLOAD PUSH32 0x8C379A000000000000000000000000000000000000000000000000000000000 DUP2 MSTORE PUSH1 0x4 ADD PUSH2 0x35E SWAP1 PUSH2 0x7D2 JUMP JUMPDEST PUSH1 0x40 MLOAD DUP1 SWAP2 SUB SWAP1 REVERT JUMPDEST PUSH1 0x40 MLOAD DUP1 PUSH1 0x40 ADD PUSH1 0x40 MSTORE DUP1 PUSH1 0xF DUP2 MSTORE PUSH1 0x20 ADD PUSH32 0x736F6D657468696E67206F746865720000000000000000000000000000000000 DUP2 MSTORE POP SWAP3 POP JUMPDEST PUSH1 0xA DUP5 LT ISZERO PUSH2 0x3BD JUMPI PUSH1 0x5 DUP5 PUSH2 0x3B6 SWAP2 SWAP1 PUSH2 0x81D JUMP JUMPDEST SWAP4 POP PUSH2 0x3A0 JUMP JUMPDEST PUSH1 0x2 DUP1 DUP2 SWAP1 SSTORE POP PUSH1 0x2 SLOAD SWAP2 POP POP SWAP3 SWAP2 POP POP JUMP JUMPDEST PUSH1 0xB DUP1 SLOAD DUP1 PUSH2 0x3E2 JUMPI PUSH2 0x3E1 PUSH2 0x850 JUMP JUMPDEST JUMPDEST PUSH1 0x1 SWAP1 SUB DUP2 DUP2 SWAP1 PUSH0 MSTORE PUSH1 0x20 PUSH0 KECCAK256 ADD PUSH0 SWAP1 SSTORE SWAP1 SSTORE JUMP JUMPDEST PUSH1 0xB DUP2 DUP2 SLOAD DUP2 LT PUSH2 0x406 JUMPI PUSH0 DUP1 REVERT JUMPDEST SWAP1 PUSH0 MSTORE PUSH1 0x20 PUSH0 KECCAK256 ADD PUSH0 SWAP2 POP SWAP1 POP SLOAD DUP2 JUMP JUMPDEST PUSH0 NUMBER SWAP1 POP SWAP1 JUMP JUMPDEST CALLDATASIZE PUSH0 DUP1 CALLDATASIZE SWAP2 POP SWAP2 POP SWAP1 SWAP2 JUMP JUMPDEST PUSH1 0x2 SLOAD DUP2 JUMP JUMPDEST PUSH0 CALLER SWAP1 POP SWAP1 JUMP JUMPDEST PUSH0 DUP2 SWAP1 POP SWAP2 SWAP1 POP JUMP JUMPDEST PUSH2 0x449 DUP2 PUSH2 0x437 JUMP JUMPDEST DUP3 MSTORE POP POP JUMP JUMPDEST PUSH0 PUSH1 0x20 DUP3 ADD SWAP1 POP PUSH2 0x462 PUSH0 DUP4 ADD DUP5 PUSH2 0x440 JUMP JUMPDEST SWAP3 SWAP2 POP POP JUMP JUMPDEST PUSH0 DUP2 SWAP1 POP SWAP2 SWAP1 POP JUMP JUMPDEST PUSH2 0x47A DUP2 PUSH2 0x468 JUMP JUMPDEST DUP3 MSTORE POP POP JUMP JUMPDEST PUSH0 PUSH1 0x20 DUP3 ADD SWAP1 POP PUSH2 0x493 PUSH0 DUP4 ADD DUP5 PUSH2 0x471 JUMP JUMPDEST SWAP3 SWAP2 POP POP JUMP JUMPDEST PUSH0 PUSH1 0x40 MLOAD SWAP1 POP SWAP1 JUMP JUMPDEST PUSH0 DUP1 REVERT JUMPDEST PUSH0 DUP1 REVERT JUMPDEST PUSH2 0x4B3 DUP2 PUSH2 0x437 JUMP JUMPDEST DUP2 EQ PUSH2 0x4BD JUMPI PUSH0 DUP1 REVERT JUMPDEST POP JUMP JUMPDEST PUSH0 DUP2 CALLDATALOAD SWAP1 POP PUSH2 0x4CE DUP2 PUSH2 0x4AA JUMP JUMPDEST SWAP3 SWAP2 POP POP JUMP JUMPDEST PUSH0 DUP1 REVERT JUMPDEST PUSH0 DUP1 REVERT JUMPDEST PUSH0 PUSH1 0x1F NOT PUSH1 0x1F DUP4 ADD AND SWAP1 POP SWAP2 SWAP1 POP JUMP JUMPDEST PUSH32 0x4E487B7100000000000000000000000000000000000000000000000000000000 PUSH0 MSTORE PUSH1 0x41 PUSH1 0x4 MSTORE PUSH1 0x24 PUSH0 REVERT JUMPDEST PUSH2 0x522 DUP3 PUSH2 0x4DC JUMP JUMPDEST DUP2 ADD DUP2 DUP2 LT PUSH8 0xFFFFFFFFFFFFFFFF DUP3 GT OR ISZERO PUSH2 0x541 JUMPI PUSH2 0x540 PUSH2 0x4EC JUMP JUMPDEST JUMPDEST DUP1 PUSH1 0x40 MSTORE POP POP POP JUMP JUMPDEST PUSH0 PUSH2 0x553 PUSH2 0x499 JUMP JUMPDEST SWAP1 POP PUSH2 0x55F DUP3 DUP3 PUSH2 0x519 JUMP JUMPDEST SWAP2 SWAP1 POP JUMP JUMPDEST PUSH0 PUSH8 0xFFFFFFFFFFFFFFFF DUP3 GT ISZERO PUSH2 0x57E JUMPI PUSH2 0x57D PUSH2 0x4EC JUMP JUMPDEST JUMPDEST PUSH2 0x587 DUP3 PUSH2 0x4DC JUMP JUMPDEST SWAP1 POP PUSH1 0x20 DUP2 ADD SWAP1 POP SWAP2 SWAP1 POP JUMP JUMPDEST DUP3 DUP2 DUP4 CALLDATACOPY PUSH0 DUP4 DUP4 ADD MSTORE POP POP POP JUMP JUMPDEST PUSH0 PUSH2 0x5B4 PUSH2 0x5AF DUP5 PUSH2 0x564 JUMP JUMPDEST PUSH2 0x54A JUMP JUMPDEST SWAP1 POP DUP3 DUP2 MSTORE PUSH1 0x20 DUP2 ADD DUP5 DUP5 DUP5 ADD GT ISZERO PUSH2 0x5D0 JUMPI PUSH2 0x5CF PUSH2 0x4D8 JUMP JUMPDEST JUMPDEST PUSH2 0x5DB DUP5 DUP3 DUP6 PUSH2 0x594 JUMP JUMPDEST POP SWAP4 SWAP3 POP POP POP JUMP JUMPDEST PUSH0 DUP3 PUSH1 0x1F DUP4 ADD SLT PUSH2 0x5F7 JUMPI PUSH2 0x5F6 PUSH2 0x4D4 JUMP JUMPDEST JUMPDEST DUP2 CALLDATALOAD PUSH2 0x607 DUP5 DUP3 PUSH1 0x20 DUP7 ADD PUSH2 0x5A2 JUMP JUMPDEST SWAP2 POP POP SWAP3 SWAP2 POP POP JUMP JUMPDEST PUSH0 DUP1 PUSH1 0x40 DUP4 DUP6 SUB SLT ISZERO PUSH2 0x626 JUMPI PUSH2 0x625 PUSH2 0x4A2 JUMP JUMPDEST JUMPDEST PUSH0 PUSH2 0x633 DUP6 DUP3 DUP7 ADD PUSH2 0x4C0 JUMP JUMPDEST SWAP3 POP POP PUSH1 0x20 DUP4 ADD CALLDATALOAD PUSH8 0xFFFFFFFFFFFFFFFF DUP2 GT ISZERO PUSH2 0x654 JUMPI PUSH2 0x653 PUSH2 0x4A6 JUMP JUMPDEST JUMPDEST PUSH2 0x660 DUP6 DUP3 DUP7 ADD PUSH2 0x5E3 JUMP JUMPDEST SWAP2 POP POP SWAP3 POP SWAP3 SWAP1 POP JUMP JUMPDEST PUSH0 PUSH1 0x20 DUP3 DUP5 SUB SLT ISZERO PUSH2 0x67F JUMPI PUSH2 0x67E PUSH2 0x4A2 JUMP JUMPDEST JUMPDEST PUSH0 PUSH2 0x68C DUP5 DUP3 DUP6 ADD PUSH2 0x4C0 JUMP JUMPDEST SWAP2 POP POP SWAP3 SWAP2 POP POP JUMP JUMPDEST PUSH0 DUP3 DUP3 MSTORE PUSH1 0x20 DUP3 ADD SWAP1 POP SWAP3 SWAP2 POP POP JUMP JUMPDEST PUSH0 PUSH2 0x6B0 DUP4 DUP6 PUSH2 0x695 JUMP JUMPDEST SWAP4 POP PUSH2 0x6BD DUP4 DUP6 DUP5 PUSH2 0x594 JUMP JUMPDEST PUSH2 0x6C6 DUP4 PUSH2 0x4DC JUMP JUMPDEST DUP5 ADD SWAP1 POP SWAP4 SWAP3 POP POP POP JUMP JUMPDEST PUSH0 PUSH1 0x20 DUP3 ADD SWAP1 POP DUP2 DUP2 SUB PUSH0 DUP4 ADD MSTORE PUSH2 0x6EA DUP2 DUP5 DUP7 PUSH2 0x6A5 JUMP JUMPDEST SWAP1 POP SWAP4 SWAP3 POP POP POP JUMP JUMPDEST PUSH0 PUSH20 0xFFFFFFFFFFFFFFFFFFFFFFFFFFFFFFFFFFFFFFFF DUP3 AND SWAP1 POP SWAP2 SWAP1 POP JUMP JUMPDEST PUSH0 PUSH2 0x71C DUP3 PUSH2 0x6F3 JUMP JUMPDEST SWAP1 POP SWAP2 SWAP1 POP JUMP JUMPDEST PUSH2 0x72C DUP2 PUSH2 0x712 JUMP JUMPDEST DUP3 MSTORE POP POP JUMP JUMPDEST PUSH0 PUSH1 0x20 DUP3 ADD SWAP1 POP PUSH2 0x745 PUSH0 DUP4 ADD DUP5 PUSH2 0x723 JUMP JUMPDEST SWAP3 SWAP2 POP POP JUMP JUMPDEST PUSH32 0x4E487B7100000000000000000000000000000000000000000000000000000000 PUSH0 MSTORE PUSH1 0x12 PUSH1 0x4 MSTORE PUSH1 0x24 PUSH0 REVERT JUMPDEST PUSH0 DUP3 DUP3 MSTORE PUSH1 0x20 DUP3 ADD SWAP1 POP SWAP3 SWAP2 POP POP JUMP JUMPDEST PUSH32 0x4E65656420746F2062652067726561746572207468616E203000000000000000 PUSH0 DUP3 ADD MSTORE POP JUMP JUMPDEST PUSH0 PUSH2 0x7BC PUSH1 0x19 DUP4 PUSH2 0x778 JUMP JUMPDEST SWAP2 POP PUSH2 0x7C7 DUP3 PUSH2 0x788 JUMP JUMPDEST PUSH1 0x20 DUP3 ADD SWAP1 POP SWAP2 SWAP1 POP JUMP JUMPDEST PUSH0 PUSH1 0x20 DUP3 ADD SWAP1 POP DUP2 DUP2 SUB PUSH0 DUP4 ADD MSTORE PUSH2 0x7E9 DUP2 PUSH2 0x7B0 JUMP JUMPDEST SWAP1 POP SWAP2 SWAP1 POP JUMP JUMPDEST PUSH32 0x4E487B7100000000000000000000000000000000000000000000000000000000 PUSH0 MSTORE PUSH1 0x11 PUSH1 0x4 MSTORE PUSH1 0x24 PUSH0 REVERT JUMPDEST PUSH0 PUSH2 0x827 DUP3 PUSH2 0x437 JUMP JUMPDEST SWAP2 POP PUSH2 0x832 DUP4 PUSH2 0x437 JUMP JUMPDEST SWAP3 POP DUP3 DUP3 ADD SWAP1 POP DUP1 DUP3 GT ISZERO PUSH2 0x84A JUMPI PUSH2 0x849 PUSH2 0x7F0 JUMP JUMPDEST JUMPDEST SWAP3 SWAP2 POP POP JUMP JUMPDEST PUSH32 0x4E487B7100000000000000000000000000000000000000000000000000000000 PUSH0 MSTORE PUSH1 0x31 PUSH1 0x4 MSTORE PUSH1 0x24 PUSH0 REVERT INVALID LOG2 PUSH5 0x6970667358 0x22 SLT KECCAK256 PC DUP12 0x4F 0xD0 0xDE NUMBER PUSH4 0x1436C10E SGT DUP2 DUP5 SWAP15 PUSH28 0xD410E4545DD6419F7C06641E897E38CC64736F6C6343000818003300 "
		},
		"gasEstimates": {
			"creation": {
				"codeDepositCost": "445400",
				"executionCost": "infinite",
				"totalCost": "infinite"
			},
			"external": {
				"": "22329",
				"arrayFunction()": "46652",
				"arrayPopFunction()": "29441",
				"blockInformation()": "354",
				"blockInformation2()": "375",
				"dynamicArray(uint256)": "infinite",
				"firstFunction(uint256,string)": "infinite",
				"hashFunction()": "399",
				"mathIntegrated()": "364",
				"numberUnsigned()": "2513",
				"transactionInformation()": "489",
				"transactionInformation2()": "352",
				"transactionInformation3()": "infinite"
			}
		},
		"methodIdentifiers": {
			"arrayFunction()": "6ad62280",
			"arrayPopFunction()": "89c87ca7",
			"blockInformation()": "15078f8f",
			"blockInformation2()": "b43a5bbd",
			"dynamicArray(uint256)": "9a9bdca7",
			"firstFunction(uint256,string)": "87b26bff",
			"hashFunction()": "5e8f1084",
			"mathIntegrated()": "08d79c87",
			"numberUnsigned()": "ca338553",
			"transactionInformation()": "ca37e0a0",
			"transactionInformation2()": "3c269a2c",
			"transactionInformation3()": "c211d6e0"
		}
	},
	"abi": [
		{
			"anonymous": false,
			"inputs": [
				{
					"indexed": false,
					"internalType": "uint256",
					"name": "number",
					"type": "uint256"
				}
			],
			"name": "FirstEvent",
			"type": "event"
		},
		{
			"stateMutability": "payable",
			"type": "fallback"
		},
		{
			"inputs": [],
			"name": "arrayFunction",
			"outputs": [],
			"stateMutability": "nonpayable",
			"type": "function"
		},
		{
			"inputs": [],
			"name": "arrayPopFunction",
			"outputs": [],
			"stateMutability": "nonpayable",
			"type": "function"
		},
		{
			"inputs": [],
			"name": "blockInformation",
			"outputs": [
				{
					"internalType": "uint256",
					"name": "",
					"type": "uint256"
				}
			],
			"stateMutability": "view",
			"type": "function"
		},
		{
			"inputs": [],
			"name": "blockInformation2",
			"outputs": [
				{
					"internalType": "uint256",
					"name": "",
					"type": "uint256"
				}
			],
			"stateMutability": "view",
			"type": "function"
		},
		{
			"inputs": [
				{
					"internalType": "uint256",
					"name": "",
					"type": "uint256"
				}
			],
			"name": "dynamicArray",
			"outputs": [
				{
					"internalType": "uint256",
					"name": "",
					"type": "uint256"
				}
			],
			"stateMutability": "view",
			"type": "function"
		},
		{
			"inputs": [
				{
					"internalType": "uint256",
					"name": "number",
					"type": "uint256"
				},
				{
					"internalType": "string",
					"name": "something",
					"type": "string"
				}
			],
			"name": "firstFunction",
			"outputs": [
				{
					"internalType": "uint256",
					"name": "",
					"type": "uint256"
				}
			],
			"stateMutability": "nonpayable",
			"type": "function"
		},
		{
			"inputs": [],
			"name": "hashFunction",
			"outputs": [
				{
					"internalType": "bytes32",
					"name": "",
					"type": "bytes32"
				}
			],
			"stateMutability": "pure",
			"type": "function"
		},
		{
			"inputs": [],
			"name": "mathIntegrated",
			"outputs": [
				{
					"internalType": "uint256",
					"name": "",
					"type": "uint256"
				}
			],
			"stateMutability": "pure",
			"type": "function"
		},
		{
			"inputs": [],
			"name": "numberUnsigned",
			"outputs": [
				{
					"internalType": "uint256",
					"name": "",
					"type": "uint256"
				}
			],
			"stateMutability": "view",
			"type": "function"
		},
		{
			"inputs": [],
			"name": "transactionInformation",
			"outputs": [
				{
					"internalType": "address",
					"name": "",
					"type": "address"
				}
			],
			"stateMutability": "view",
			"type": "function"
		},
		{
			"inputs": [],
			"name": "transactionInformation2",
			"outputs": [
				{
					"internalType": "uint256",
					"name": "",
					"type": "uint256"
				}
			],
			"stateMutability": "payable",
			"type": "function"
		},
		{
			"inputs": [],
			"name": "transactionInformation3",
			"outputs": [
				{
					"internalType": "bytes",
					"name": "",
					"type": "bytes"
				}
			],
			"stateMutability": "pure",
			"type": "function"
		},
		{
			"stateMutability": "payable",
			"type": "receive"
		}
	]
}